S016000041726475696E6F5F5369343733352E737265634E
S11300000C94C9000C94F1000C94F1000C94F100D0
S11300100C94F1000C94F1000C94F1000C94F10098
S11300200C94F1000C940D0A0C94F1000C94E90961
S11300300C94F1000C94F1000C94F1000C94F10078
S11300400C947D230C94F1000C94F1000C94F100B9
S11300500C94F1000C94F1000C94F1000C94F10058
S11300600C9493320C94F10017030603060000006D
S11300700000090911160000030F060A060A000011
S113008000000000010B1100010309050C05090023
S1130090000000050D0D1515000003080307171EC9
S11300A00307090D0005050F0F010000070B100BD6
S11300B010000000000107070D0D00000105030AF0
S11300C00E18030A040900101C283001010004075B
S11300D0131738071307130C18000C180101000339
S11300E0050C0F1E050C040B00101525250101003D
S11300F01C050C1122050C050C000D1A222A010105
S11301000002050C1122050C050C00000000000182
S1130110010002050C1122050C050C001010202012
S1130120010100010F15070B070B070B0F14000F3C
S1130130140001000000000800020100000304078D
S113014000000000000000000102040810204080AC
S1130150010204081020010204081020040404040D
S1130160040404040202020202020303030303035D
S113017000000000230026002900000000002500E4
S113018028002B0000000000240027002A00800A19
S1130190F02F11241FBECFEFD8E0DEBFCDBF14E097
S11301A0A0E0B1E0EAEBF9E602C005900D92AC34B0
S11301B0B107D9F727E0ACE4B4E001C01D92A33D38
S11301C0B207E1F710E0C9ECD0E004C02197FE01CA
S11301D00E943134C73CD107C9F70E9419230C94FB
S11301E0DB340C94000090918204409171049111CD
S11301F005C04F3019F480938304C1C050917A0430
S11302009517F8F020917B049217D8F4E0918004BC
S1130210282F30E06091660470916704EE2341F06A
S1130220E92FE51B02C0220F331FEA95E2F702C053
S1130230660F771F262B372B3093670420936604B1
S113024022C050917C049517F0F020917D04921700
S1130250D0F4E0918004282F30E060916404709120
S11302606504EE2341F0E92FE51B02C0220F331F82
S1130270EA95E2F702C0660F771F262B372B3093DF
S11302806504209364044C31C9F423EF290F2D3005
S113029008F075C0282F30E083EF890F02C0220FC9
S11302A0331F8A95E2F74091620450916304242B32
S11302B0352B309363042093620461C04330C9F446
S11302C02FEE290F243008F05AC0282F30E08FEE8B
S11302D0890F02C0220F331F8A95E2F74091600410
S11302E050916104242B352B3093610420936004D6
S11302F046C0453009F043C02CEE290F2430A0F449
S1130300282F30E048EF490F02C0220F331F4A95CF
S1130310E2F74091640450916504242B352B30930B
S113032065042093640413C028EE290F243068F474
S1130330282F4CEE490F01C0220F4A95EAF730915D
S11303405904232B2093590402C09033C0F4E92F9D
S1130350E695E695E695492F4770F0E0E65AFB4F9F
S113036021E030E001C0220F4A95EAF7882319F012
S11303708081282B03C020958081282320839F5FC0
S11303809093820408952C9824980895FC018091F8
S11303907004882309F4AFC090916F04913109F47B
S11303A079C048F4933089F0973009F492C09230C0
S11303B009F0A3C031C0983109F495C0923309F40F
S11303C054C0973109F099C065C080916B04909135
S11303D06C0420916B0430916C04892F992720952B
S11303E0309533278217930709F0A7C080916B04D7
S11303F090916C04992790936C0480936B04809182
S1130400690490916A0420916B0430916C04982FD4
S11304108827822B932B58C080916B0490916C0495
S113042020916B0430916C04892F99272095309585
S113043033278217930741F180916D0490916E04E4
S11304408E3E974871F48BE080936F0480916B0427
S113045090916C04892F992790936E0480936D0476
S113046013C088E380936F0448C020916B043091DB
S11304706C0480916B0490916C04232F332799278B
S11304802817390709F059C080916B0490916C04C6
S113049099271AC080916B0490916C0420916B048D
S11304A030916C048695817091E0892721703327FF
S11304B091E029272170821709F43FC080916B04D1
S11304C090916C049695879590936C0480936B043B
S11304D014C080916D0490916E048F7D90936E048E
S11304E080936D040AC080916B0490916C048D37E5
S11304F0910519F422C080E0089580916F048083EF
S113050080916D0490916E049283818380916B0439
S113051090916C049483838380916804858381E043
S113052010926C0410926B0410926E0410926D047D
S11305301092680410927004089510926F0480E081
S1130540EFCFCF93DF9383B1909170049111A8C240
S113055080719091580491115DC09091570481115C
S113056004C09F5F909357049BC2992309F181E0D3
S11305708093580480935604109255041092650495
S11305801092640410926704109266041092590445
S11305901092610410926004109263041092620439
S11305A09FEF90938204809354041092530478C272
S11305B080915104909152048F3F2FEF920709F4D8
S11305C06FC2019690935204809351048091040168
S11305D0909105018F3F6FEF960709F461C2019670
S11305E09093050180930401883E924008F458C218
S11305F080914F0490915004892B09F451C21092B8
S1130600500410924F048FEF9FEF90930501809355
S1130610040146C290915604992309F4BCC088236E
S113062089F0809154048F5F809354048A3E08F4C7
S113063019C280916F0410925804109257041092BA
S1130640540410C2109282048091570491EE980FC2
S11306509B3028F4909154049650953070F090910A
S11306606F04943169F490EB980F9F3648F490919D
S113067054049A539C36F0F003C063E271E04AC01C
S113068022EA280F243558F49091540432ED390F9E
S11306903C3208F412C29751973108F406C2909183
S11306A06F04943151F4243540F4909154049550DE
S11306B0983018F462E171E02DC094EC980F9031F9
S11306C030F4909154049C53903108F465C297ED32
S11306D0980F983108F4F4C198ED980F973108F405
S11306E0F6C195EF980F963008F0F8C19091540434
S11306F025EF290F263008F0F6C190934E0481515E
S1130700803108F0F5C110924D0480E480935304C5
S11307106CEA70E080915804882331F041E150E0A4
S113072081E794E00E9446348091810490917104A1
S113073080FF1DC0973139F1993029F1209173045C
S113074040915404241760F450E030E0220F331F2A
S1130750241735072CF08695817091E0892711C004
S113076090914D0491110FC0869581700AC0983004
S113077051F4809154048751883010F481E001C011
S113078080E00E94F30081E08093570410925404A7
S11307901092560467C190915504992309F455C1E8
S11307A0882309F405C2209154042F5F2093540434
S11307B090917E048091820498130BC030917F0441
S11307C0313039F43091810430FDFDC22F3208F00C
S11307D04EC140917104413021F52C3008F4C1C060
S11307E08B3008F4BEC091E0980F90937E04282FBC
S11307F030E02B503109322F22274091660450916A
S11308006704242B352B309367042093660490915E
S11308107C04890F8F5F80937D048AE08093540465
S1130820C7C14F3009F058C030917F04311199C0CD
S1130830263218F19BEF980F9230F8F481E0809300
S11308407F0488E18093710487E080937E04109292
S11308507A0410927B0410927C0480937D0480912E
S1130860640490916504880F991F20918304822B5E
S113087090936504809364049BC14091750430E0B7
S113088050E0440F551F241735072CF0883008F426
S1130890E9C08AE035C08A3008F4F7C080E180936B
S11308A0710489E080937A0491E190937B0491E050
S11308B090937C0480937D048091640490916504FA
S11308C09C0122273370232B09F4DFC09093660424
S11308D0109267049927B4C0473109F042C030919F
S11308E07F0431113EC04091750430E050E0440F64
S11308F0551F241735073CF08F3008F4B3C081E14D
S113090080937E0449C0813108F4BFC081E18093A3
S1130910710410927A048BE080937B0480937C04AE
S113092086E180937D048091640490916504209114
S1130930660430916704220F331F220F331FAC016A
S1130940D6E056954795DA95E1F7242B352B30936D
S11309506704209366048F73992720914D04822B9A
S11309606FC03091810430FF1BC060917504E22F89
S1130970F0E070E0660F771FE617F7078CF0E82FBA
S1130980F0E0692F70E062507109E617F70744F050
S113099030917F04311104C081E080937F0408C149
S11309A02A3E08F472C0682F70E0292F30E02150ED
S11309B031096217730741F490917F04911104C0C7
S11309C08F5F8093820461C0423009F4FFC14C31CF
S11309D039F010925804109257041092540460C0D5
S11309E0882309F4F5C1803209F042C291E0909362
S11309F07F0492E09093710480937E04809162045A
S1130A00909163049C01322F22273295330F307E5C
S1130A104091660450916704242B352B309367046E
S1130A20209366044091640420E030E0342F330FB7
S1130A30330FF3E096958795FA95E1F7822B932B84
S1130A40909365048093640420C0811106C0809152
S1130A5057048F5F8093570405C081E08093550449
S1130A60809354048091580481110FC019C080915F
S1130A70570490917604891708F4ABCF90917704CA
S1130A80981708F4A6CF10927F0490917E04809169
S1130A908204981305C080917F04882309F412C24C
S1130AA080917004DF91CF91089580916F04843117
S1130AB009F400CE61E071E02DCE60EF70E02ACE43
S1130AC0909154049952983108F469C005CE9091DC
S1130AD0540493519D3008F465C003CE9AEE980FE8
S1130AE09B3070F403CE2AEE290F2B3048F405CE48
S1130AF09151903108F407CE81E080934D0408CEE3
S1130B002DEF280F253058F49091540439EE390F05
S1130B10383008F44AC09950953008F446C09DED29
S1130B20980F9B3068F4909154049B50963040F495
S1130B3010924E0481E080934D046AE870E0EACD9F
S1130B408650853070F4809154049FED980F913154
S1130B5040F480934E0481E080934D0469E770E093
S1130B60D9CD2A3090F48091540499EF980F9530A0
S1130B7020F092EF980F993040F480934E0481E076
S1130B8080934D0468E670E0C5CD1092580410922D
S1130B90710460E070E0BECD6FED70E0BBCD6EEC33
S1130BA070E0B8CD6DEB70E0B5CD6BE970E0B2CD1F
S1130BB08091810480FF91C0C09157049091730487
S1130BC09C1708F048C090917104993099F4909161
S1130BD08204943079F4CC3068F080917E048432BD
S1130BE029F481E00E94F30081E032C080E00E9499
S1130BF0F3001EC0D1E0869581708D270E94F3001A
S1130C00809171048930D1F4809182048430B1F4EC
S1130C10CC30A0F081E00E94F30080917504209113
S1130C20540430E090E0880F991F821793071CF456
S1130C3010924D044DC0D0934D044AC0809181045C
S1130C40869581700E94F30080918104869581705D
S1130C5080934D043DC080917204C817A8F180911F
S1130C60750420914E0440914D04821768F430E0DD
S1130C7090E0880F991F8217930734F081E04111A7
S1130C8080E080934D0401C0842F909171049930C9
S1130C90C1F4909182049130A1F4813091F494E2F2
S1130CA090937E0425E020937A0424E120937B042E
S1130CB025E120937C0490937D04109267041092A4
S1130CC066040E94F30004C0109258041092540465
S1130CD08091540480934E0429C080917104833020
S1130CE041F590918204903131F5809157048550FB
S1130CF08830D8F58091540424EC280F203130F446
S1130D001092550481E1809382045BC02AE0209311
S1130D10710490937C0490E290937D0490937E04FC
S1130D208F50803100F581E00E94F3001092550449
S1130D3048C08C31F9F0809157049091720489175E
S1130D4088F590917604891780F09091770498172C
S1130D5060F08091540490917804891730F0909158
S1130D607904981710F080E0DFCF109258041092A5
S1130D70540427C0809182048830E9F69091540489
S1130D809E529C32C0F69BE19093710410927A04B7
S1130D9080937B0480937C0480E180937D04809322
S1130DA07E04C4CF90917304981758F29091540420
S1130DB020917404921728F220917504291708F2DF
S1130DC0B2CF81E047CE21115ECE03CD81112CC07C
S1130DD080915104909152048830974010F581E03D
S1130DE080937F0482E08093710410927E0480914A
S1130DF002019091030190936704809366048091AB
S1130E0000019091010190936504809364048091A2
S1130E106804816080936804109252041092510413
S1130E2034CE1092700431CE90EF980F923008F0C7
S1130E30D0CD21E020937F0494E1909371048093BA
S1130E407E048091660490916704AC01A4E05695F9
S1130E504795AA95E1F750936504409364048F7015
S1130E6099279093670480936604209358040DCEC9
S1130E7090EF980F923008F0ACCD91E090937F04FE
S1130E8094E19093710480937E0480916604909120
S1130E9067042091620440E050E0522F550F9C01FA
S1130EA074E0369527957A95E1F7242B352B30930A
S1130EB06504209364048F7099279093670480934A
S1130EC06604E3CD609100017091010120916404F6
S1130ED0309165046217730769F44091510450918D
S1130EE05204403B544030F480914C048F5F809313
S1130EF04C0402C010924C0480917104813051F46E
S1130F0040914C044150423028F410925204109203
S1130F105104DAC041E0409370048830A1F5A9017E
S1130F20409550955370E0914F04F09150044E1742
S1130F305F07B9F45093650440936404109250041D
S1130F4010924F0480936F0480916604909167041B
S1130F5090936E0480936D0450936C0440936B04DF
S1130F60B3C020FD09C03093500420934F04109265
S1130F7005011092040104C01092500410924F0411
S1130F8010927004A1C08F3029F42F3F314009F032
S1130F906DC0F6CF803169F44091660450916704C6
S1130FA04F3F510509F062C02E3F310509F05EC084
S1130FB0E7CF823011F5911159C02091510430913D
S1130FC0520428303740B0F42091020130910301DB
S1130FD030936704209366047093650460936404FB
S1130FE09091680491609093680410925204109256
S1130FF051043CC01092700439C0853079F53091A9
S11310005A0490915B04E0915C04232F2F70329575
S11310103F703227292F2F70232792959F702927FD
S1131020022E000C330B4E2F4F7050E0241735075F
S113103011F01092700490915D049E2720915E043B
S1131040922720915F0492131092700420916804F7
S113105090915904922B9093680408C0893031F41C
S1131060943221F495E190936F0402C080936F044D
S1131070209166043091670430936E0420936D04CC
S1131080823029F430930301209302010DC087308C
S113109059F4209153048091640490916504822B47
S11310A09093650480936404809164049091650432
S11310B090936C0480936B0480916004909161041C
S11310C090936A048093690480917004882351F199
S11310D02091640430916504409166045091670442
S11310E06217730799F480910201909103018417A8
S11310F0950761F480915104909152048A3C984080
S113110028F48091680481608093680450930301FB
S11311104093020130930101209300011092520484
S113112010925104109258041092650410926404B1
S1131130109257041092540480916F04843109F082
S1131140AFCC87E880935704ABCCE7EBF5E0319163
S1131150DC012D91CD01321306C0B5E0E53CFB075F
S1131160B1F780E0089581E00895CF93DF93E09193
S11311701706F0911806309751F08081882339F0D2
S1131180DF010D900020E9F7AE1BA25001C0AFEFC4
S1131190CDECD5E080E090E29993AF3F19F0A81729
S11311A008F090838F5F31968034B1F78FB7F8944D
S11311B01092C8051092C7051092C6051092C50575
S11311C08FBFDF91CF91089588E00E940F25892B6E
S11311D061F081E10E940F25892B49F481E090910F
S11311E0B306903229F480E0089583E0089582E004
S11311F008950F931F93CF93DF9300D000D01F92D5
S1131200CDB7DEB70E94E40881111BC042E050E074
S113121063E070E0CE0101960E9491340091B8061B
S11312201091B90689819A818017910751F0602F36
S113123083E090E00E94B134612F84E090E00E944A
S1131240B1340E94E4088130D9F442E050E061E016
S113125070E0CE0101960E9491340091B80610917D
S1131260B90689819A818017910751F0602F81E036
S113127090E00E94B134612F82E090E00E94B1348A
S113128041E050E060E070E0CE0105960E949134A8
S11312900E94E4089D81891739F00E94E408682FB0
S11312A080E090E00E94B13441E050E065E070E0FD
S11312B0CE0104960E9491346091AD018C8168172F
S11312C021F085E090E00E94B134609114017091A6
S11312D0150141E050E0CE0103960E9491346091E3
S11312E0AD05262F30E08B8190E02817390731F0C7
S11312F080911401909115010E94B13441E050E0B5
S113130066E070E0CE0101960E9491346091A205DE
S11313108981681721F086E090E00E94B1340F9033
S11313200F900F900F900F90DF91CF911F910F911D
S11313300895CF93DF93EB0146E050E0BC0181EBCD
S113134095E00E94C33486E0E1EBF5E0DE01019014
S11313500D928A95E1F7DF91CF910895DC01ED912B
S1131360FC910190F081E02D099464E470E089E03F
S113137097E00E946F2F66E070E089E097E00E949A
S1131380AE0960E070E089E097E00E94AE0989E070
S113139097E00E94ED2F60E089E00C94E02464E47F
S11313A070E089E097E00E946F2F66E070E089E0CA
S11313B097E00E94AE0961E070E089E097E00E9446
S11313C0AE0989E097E00E94ED2F61E089E00C947A
S11313D0E0241F920F920FB60F9211242F933F9384
S11313E04F935F936F937F938F939F93AF93BF9329
S11313F0EF93FF930E94A102FF91EF91BF91AF91F0
S11314009F918F917F916F915F914F913F912F9118
S11314100F900FBE0F901F9018951F920F920FB64A
S11314200F9211242F933F934F935F936F937F9366
S11314308F939F93AF93BF93EF93FF93809119067C
S11314408C3408F447C01092190681E080931A0680
S11314508093CC050E94E408833069F48091A70549
S1131460853218F01092A7053AC08091A7058F5FC6
S11314708093A70534C08091C905882381F18091A8
S1131480C605833030F48091C6058F5F8093C6050E
S113149026C08091C8052091C70590E00D9630E0E4
S11314A08217930734F48091C8058F5F8093C80531
S11314B016C08091C505823030F48091C5058F5FD8
S11314C08093C5050CC01092C8051092C6051092F1
S11314D0C50505C0809119068F5F80931906FF9199
S11314E0EF91BF91AF919F918F917F916F915F9198
S11314F04F913F912F910F900FBE0F901F90189511
S11315008BE196E00C943825CF93DF93CDB7DEB70B
S113151027970FB6F894DEBF0FBECDBFA8959FE006
S113152088E10FB6F894A895809360000FBE90935D
S1131530600040E553EC60E070E089E097E00E94D1
S1131540612F61E088E00E94A42461E089E00E94A8
S1131550A42462E08BE00E94A42460E08CE00E945A
S1131560A42461E081E10E94A4240E94C30110929A
S113157080001092810010928500109284001092D5
S113158089001092880010928B0010928A001092A9
S11315906F0016BA84E395E09093890080938800E5
S11315A089E08093810082E080936F001092B00004
S11315B01092B1001092B2001092B3001092B400D5
S11315C01092700017BA1092B60013BC809170008C
S11315D08160809370008091B10087608093B10036
S11315E07894A89540E06AE08BE196E00E949B2CF9
S11315F08CEB92E09093AC068093AB0684E690E08B
S11316009093AA068093A90642E050E063E070E05C
S1131610CE0103960E9491348B819C819C012E52B1
S113162032422330384010F08EE292E290939F01D0
S113163080939E0142E050E061E070E0CE010196AB
S11316400E94913489819A819C012351324023392B
S1131650344010F083E192E090939D0180939C01CB
S113166041E050E065E070E0CE0107960E949134BD
S11316708F81803408F084E18093AD01609114017E
S11316807091150141E050E0CE0106960E9491341C
S113169081E09E81913009F080E08093AD0541E0C6
S11316A050E066E070E0CE0105960E9491348D8191
S11316B08F3F09F487E78093A20564E470E089E032
S11316C097E00E946F2F60E070E089E097E00E944D
S11316D0AE0960E070E089E097E00E94AE0989E01D
S11316E097E00E94ED2F64E470E089E097E00E94A7
S11316F06F2F61E070E089E097E00E94AE0960E03E
S113170070E089E097E00E94AE0989E097E00E94CA
S1131710ED2F64E470E089E097E00E946F2F62E0AF
S113172070E089E097E00E94AE0968E570E089E026
S113173097E00E94AE0989E097E00E94ED2F64E4EF
S113174070E089E097E00E946F2F63E070E089E029
S113175097E00E94AE096091AD0189E097E00E9494
S1131760102F89E097E00E94ED2F64E470E089E097
S113177097E00E946F2F64E070E089E097E00E9498
S1131780AE096091AD0189E097E00E94102F89E0D5
S113179097E00E94ED2F64E470E089E097E00E94F6
S11317A06F2F65E070E089E097E00E94AE096091D8
S11317B0A20589E097E00E94102F89E097E00E943B
S11317C0ED2F0E94B50964E470E089E097E00E947F
S11317D06F2F67E070E089E097E00E94AE0960E84F
S11317E070E089E097E00E94AE0989E097E00E94EA
S11317F0ED2F60919A0170919B0146E050E08AE9D7
S113180095E00E949134609198017091990142E0B1
S113181050E088E995E00E949134609196017091BE
S1131820970142E050E086E995E00E94913460918E
S113183094017091950146E050E080E995E00E94A2
S11318409134609192017091930142E050E08EE8EE
S113185095E00E949134609190017091910142E071
S113186050E08CE895E00E94913460918E01709173
S11318708F0146E050E086E895E00E949134609143
S11318808C0170918D0142E050E084E895E00E9463
S1131890913460918A0170918B0142E050E082E8BA
S11318A095E00E949134609188017091890146E02D
S11318B050E08CE795E00E9491346091860170912C
S11318C0870142E050E08AE795E00E9491346091FC
S11318D084017091850142E050E088E795E00E9420
S11318E09134609182017091830146E050E082E777
S11318F095E00E949134609180017091810142E0F1
S113190050E080E795E00E94913460917E017091EF
S11319107F0142E050E08EE695E00E9491346091B0
S11319207C0170917D0146E050E088E695E00E94DC
S1131930913460917A0170917B0142E050E086E637
S113194095E00E949134609178017091790142E0B0
S113195050E084E695E00E949134609176017091A4
S1131960770146E050E08EE595E00E949134609165
S113197074017091750142E050E08CE595E00E949D
S11319809134609172017091730142E050E08AE5F4
S113199095E00E949134609170017091710146E06C
S11319A050E084E595E00E94913460916E0170915D
S11319B06F0142E050E082E595E00E94913460912D
S11319C06C0170916D0142E050E080E595E00E9469
S11319D0913460916A0170916B0146E050E08AE4B1
S11319E095E00E949134609168017091690142E030
S11319F050E088E495E00E94913460916601709112
S1131A00670142E050E086E495E00E9491346091E1
S1131A1064017091650146E050E080E495E00E9425
S1131A209134609162017091630142E050E08EE371
S1131A3095E00E949134609160017091610142E0EF
S1131A4050E08CE395E00E94913460915E017091C6
S1131A505F0146E050E086E395E00E949134609196
S1131A605C0170915D0142E050E084E395E00E94E6
S1131A70913460915A0170915B0142E050E082E33D
S1131A8095E00E949134609158017091590146E0AB
S1131A9050E08CE295E00E9491346091560170917F
S1131AA0570142E050E08AE295E00E94913460914F
S1131AB054017091550142E050E088E295E00E94A3
S1131AC09134609152017091530146E050E082E2FA
S1131AD095E00E949134609150017091510142E06F
S1131AE050E080E295E00E94913460914E01709143
S1131AF04F0142E050E08EE195E00E949134609104
S1131B004C0170914D0146E050E088E195E00E945F
S1131B10913460914A0170914B0142E050E086E1BA
S1131B2095E00E949134609148017091490142E02E
S1131B3050E084E195E00E949134609146017091F7
S1131B40470146E050E08EE095E00E9491346091B8
S1131B5044017091450142E050E08CE095E00E9420
S1131B609134609142017091430142E050E08AE077
S1131B7095E00E949134609140017091410146E0EA
S1131B8050E084E095E00E94913460913E017091B0
S1131B903F0142E050E082E095E00E949134609180
S1131BA03C0170913D0142E050E080E095E00E94EC
S1131BB0913460913A0170913B0146E050E08AEF24
S1131BC094E00E949134609138017091390142E0AF
S1131BD050E088EF94E00E94913460913601709156
S1131BE0370142E050E086EF94E00E949134609126
S1131BF034017091350146E050E080EF94E00E949A
S1131C009134609132017091330142E050E08EEEE4
S1131C1094E00E949134609130017091310142E06E
S1131C2050E08CEE94E00E94913460912E0170910A
S1131C302F0146E050E086EE94E00E9491346091DA
S1131C402C0170912D0142E050E084EE94E00E945A
S1131C50913460912A0170912B0142E050E082EEB0
S1131C6094E00E949134609128017091290146E02A
S1131C7050E08CED94E00E949134609126017091C3
S1131C80270142E050E08AED94E00E949134609193
S1131C9024017091250142E050E088ED94E00E9417
S1131CA09134609122017091230146E050E082ED6D
S1131CB094E00E949134609120017091210146E0EA
S1131CC050E08CEC94E00E94913460911E0170917C
S1131CD01F0146E050E086EC94E00E94913460914C
S1131CE01C0170911D0146E050E080EC94E00E94DC
S1131CF0913460911A0170911B0146E050E08AEB27
S1131D0094E00E949134609118017091190146E0A9
S1131D1050E084EB94E00E9491346091160170913C
S1131D20170146E050E08EEA94E00E9491346091FD
S1131D3012017091130146E050E088EA94E00E9499
S1131D409134609110017091110146E050E082EAF3
S1131D5094E00E94913460910E0170910F0146E06D
S1131D6050E08CE994E00E94913460910C017091F0
S1131D700D0146E050E086E994E00E9491346091C0
S1131D800A0170910B0146E050E080E994E00E9462
S1131D909134609108017091090146E050E08AE8AD
S1131DA094E00E949134609106017091070146E02D
S1131DB050E084E894E00E94913481E08093AA0585
S1131DC027960FB6F894DEBF0FBECDBFDF91CF913B
S1131DD00895CF93C8E041E050E06AE770E089E0FD
S1131DE097E00E94E82F813069F489E097E00E942F
S1131DF0892E853A39F0A89588EC90E00E942E242B
S1131E00C15049F7CF910895E7EBF5E080E2819363
S1131E1095E0E53CF907D9F70E94E90E6AE770E01E
S1131E2089E097E00E946F2F67E070E089E097E017
S1131E300E94AE0989E097E00E94ED2F61E070E016
S1131E4080E090E00C94F223CF93C82F0E94E90E17
S1131E506AE770E089E097E00E946F2F64E070E029
S1131E6089E097E00E94AE096C2F70E089E097E06A
S1131E700E94AE0989E097E00E94ED2F61E070E0D6
S1131E8080E090E0CF910C94F223CF93DF93C82F9E
S1131E90D62F0E94E90E6AE770E089E097E00E947D
S1131EA06F2F61E070E089E097E00E94AE096C2F2B
S1131EB070E089E097E00E94AE096D2F89E097E019
S1131EC00E94102F89E097E00E94ED2F61E070E0FE
S1131ED080E090E0DF91CF910C94F223CF93C82F50
S1131EE00E94E408811105C0C33141F48091AC051E
S1131EF009C00E94E408813039F4F6CFC43121F4DA
S1131F008091AB0581111FC00E94E90E6AE770E061
S1131F1089E097E00E946F2F62E070E089E097E02B
S1131F200E94AE096C2F70E089E097E00E94AE0930
S1131F3089E097E00E94ED2F61E070E080E090E09E
S1131F40CF910C94F223CF910895CF93C82F0E9480
S1131F50E408811105C0C33141F48091AC0509C086
S1131F600E94E408813039F4F6CFC43121F4809121
S1131F70AB058823F9F00E94E90E6AE770E089E076
S1131F8097E00E946F2F63E070E089E097E00E9481
S1131F90AE096C2F70E089E097E00E94AE0989E0F9
S1131FA097E00E94ED2F61E070E080E090E0CF9137
S1131FB00C94F223CF9108956FE78BE196E00E9491
S1131FC0D42B83E10E94A50F81E08093AD050E948C
S1131FD0C3236093A3057093A4058093A5059093F0
S1131FE0A6050895CF93DF93E0911506F0911606A8
S1131FF0309751F08081882339F0DF010D90002063
S1132000E9F7AE1BA25001C0AFEFCDE0D6E080E00F
S113201090E29993AF3F19F0A81708F090838F5F6F
S113202031968830B1F71092C9050E94B50885E051
S11320300E94A50F82E2DF91CF910C94A50FCF935C
S1132040DF93E62FF0E0E954FA4F9081981741F1BD
S1132050D62FC82F80830E94E90E6AE770E089E0DA
S113206097E00E946F2F60E070E089E097E00E94A3
S1132070AE096C2F70E089E097E00E94AE096D2FE5
S113208089E097E00E94102F89E097E00E94ED2FED
S113209061E070E080E090E0DF91CF910C94F22356
S11320A0DF91CF910895EF92FF920F931F93CF93F7
S11320B0DF937C010E94A508882391F10E94E90E18
S11320C06AE770E089E097E00E946F2F6AE070E0B1
S11320D089E097E00E94AE0907EB15E0E7018EE086
S11320E0E80EF11CFE018991D8018D938D01608168
S11320F070E089E097E00E94AE09CE15DF0591F704
S113210089E097E00E94ED2F61E070E080E090E0CC
S1132110DF91CF911F910F91FF90EF900C94F223D8
S1132120DF91CF911F910F91FF90EF90089581E07F
S113213080931A068FEF9FEF9093AC018093AB01CD
S11321409093AA018093A9019093A6018093A5017D
S11321509093A8018093A7019093A4018093A30175
S11321609093A2018093A1010E94E408833021F49A
S11321708EEA91E00C94531008958DEB91E00C9449
S113218053100E94F20F8CEC91E00E94531083E1F3
S11321900E94A50F84E10E94A50F8BE196E00E94A6
S11321A0482961E081E10E94E02464E470E089E070
S11321B097E00E946F2F60E070E089E097E00E9452
S11321C0AE0961E070E089E097E00E94AE0989E021
S11321D097E00E94ED2F64E470E089E097E00E94AC
S11321E06F2F61E070E089E097E00E94AE0967E03C
S11321F070E089E097E00E94AE0989E097E00E94D0
S1132200ED2F0E94E90E6AE770E089E097E00E94F2
S11322106F2F66E070E089E097E00E94AE0989E0E4
S113222097E00E94ED2F61E070E080E090E00C9474
S1132230F2230E94E90E6AE770E089E097E00E94C9
S11322406F2F6CE070E089E097E00E94AE09809106
S1132250AD016FE370E0681B710989E097E00E94AB
S1132260AE0989E097E00E94ED2F61E070E080E024
S113227090E00C94F223E7EBF5E080E2819395E0A3
S1132280E53CF907D9F70E94E90E6AE770E089E0B6
S113229097E00E946F2F65E070E089E097E00E946C
S11322A0AE0989E097E00E94ED2F61E070E080E0E4
S11322B090E00C94F2231092AF051092B0050E94A6
S11322C03B110E9497100E94F20F0E94E408833091
S11322D089F00E94E408811102C00C94BD100E9490
S11322E0E408813019F48BED91E002C08CEC91E0AC
S11322F00C9453100895CF92DF92EF92FF920F93B4
S11323001F93CF93DF93CDB7DEB728970FB6F8941A
S1132310DEBF0FBECDBF0E94E408882329F00E94CF
S1132320E408813009F0CBC00091B8061091B906D9
S11323300E94E4089E01295F3F4F790181114FC03B
S1132340003127E212076CF0C80160E177E20E94D5
S1132350F033CB014AE0B7010E945C34FC01808178
S113236001C080E28983C80160E177E20E94F03312
S113237048EEC42E43E0D42EB6010E94F033CB01C4
S11323804AE0B7010E945C34FC0180818A83C80161
S1132390B6010E94F03354E6C52ED12CB6010E943A
S11323A0F033CB014AE0B7010E945C34FC01808128
S11323B08B83C801B6010E94F0336AE070E00E948A
S11323C0F033CB014AE0B7010E945C34FC01808108
S11323D08C8386E48D8389E00E946E0F48C0083E9A
S11323E0F3E01F076CF0C80168EE73E00E94F0335D
S11323F0CB014AE0B7010E945C34FC01808101C03A
S113240080E28983C80168EE73E00E94F03324E619
S1132410C22ED12CB6010E94F033CB014AE0B701A1
S11324200E945C34FC0180818A83C801B6010E9449
S1132430F0333AE0C32ED12CB6010E94F033CB0125
S11324404AE0B7010E945C34FC0180818B83C8019F
S1132450B6010E94F0334AE0B7010E945C34FC01EB
S113246080818C8381E48D8389E00E94A50F8DE4B3
S11324708E830E94E90E6AE770E089E097E00E948B
S11324806F2F6BE070E089E097E00E94AE098E0147
S11324900F5F1F4FF80161918F0170E089E097E0B1
S11324A00E94AE09E016F106A9F789E097E00E94C0
S11324B0ED2F61E070E080E090E00E94F223289626
S11324C00FB6F894DEBF0FBECDBFDF91CF911F9141
S11324D00F91FF90EF90DF90CF900895EF920F93BC
S11324E01F930E94BD100E94F20F1092CB0560E072
S11324F081E10E94E02420919E0130919F010AE035
S113250010E040E35AE26EE272E28BE196E00E9450
S11325106D2D82E0E82E02E022E042E061E08BE1F2
S113252096E00E94992D60E070E08BE196E00E94B5
S1132530512A40E35AE26EE272E28BE196E00E9495
S1132540B52B6AE070E08BE196E00E94CF2B62E34A
S11325508BE196E00E94DA2B64E470E089E097E076
S11325600E946F2F60E070E089E097E00E94AE095E
S113257060E070E089E097E00E94AE0989E097E0AE
S11325800E94ED2F64E470E089E097E00E946F2FD1
S113259061E070E089E097E00E94AE0960E070E0DD
S11325A089E097E00E94AE0989E097E00E94ED2F50
S11325B08091AD05882331F00E94E408811102C0A6
S11325C00E94DC0F1F910F91EF900C947B110F93DD
S11325D01F9360E081E10E94E0240E94F20F8BEDE2
S11325E091E00E94531083E10E94A50F84E10E94B0
S11325F0A50F20919C0130919D0109E010E045EA6E
S113260056E063E172E08BE196E00E94FE2C45EA1D
S113261056E063E172E08BE196E00E94A02B69E052
S113262070E08BE196E00E94CA2B62E38BE196E0B6
S11326300E94DA2B64E470E089E097E00E946F2F37
S113264060E070E089E097E00E94AE0960E070E02D
S113265089E097E00E94AE0989E097E00E94ED2F9F
S113266064E470E089E097E00E946F2F61E070E01D
S113267089E097E00E94AE0960E070E089E097E0AD
S11326800E94AE0989E097E00E94ED2F1F910F91FF
S11326900C947B11CF93DF93EC010E94E408811129
S11326A008C08091B8069091B906C817D90731F4CB
S11326B02CC00E94E408813041F5F3CF0E94E40865
S11326C081110AC0BE018BE196E00E94C229D09319
S11326D09F01C0939E010DC00E94E408813049F41B
S11326E0BE018BE196E00E94C229D0939D01C09364
S11326F09C010E947B110E94C3236093A3057093E5
S1132700A4058093A5059093A605DF91CF91089524
S11327101F93CF93DF931F92CDB7DEB741E050E014
S113272060E070E0CE0101960E949134198113306B
S113273008F010E061E088E00E94E0240E94040FA9
S11327400E94F20F123051F0111103C00E946E1258
S113275002C00E94E7120E947B1102C00E94C110B5
S113276064E470E089E097E00E946F2F60E070E01D
S113277089E097E00E94AE090E94E408882329F0CA
S11327800E94E40861E0813009F460E070E089E0CF
S113279097E00E94AE0989E097E00E94ED2F0E9425
S11327A0CF090E94191188E20E946E0F8AE10E94EB
S11327B06E0F8CE10E946E0F0E94E90E6AE770E0D2
S11327C089E097E00E946F2F68E070E089E097E06D
S11327D00E94AE0989E097E00E94ED2F61E070E06D
S11327E080E090E00E94F2230F90DF91CF911F913F
S11327F008950F931F93CF93DF938C01EB010E94F5
S1132800E408833039F40E9488130E94E40881119B
S11328100E946E120E94E408811102C0C80105C022
S11328200E94E408813039F4CE01DF91CF911F91E9
S11328300F910C944A13DF91CF911F910F9108953A
S1132840CF92DF92EF92FF920F931F93CF93DF9378
S1132850CDB7DEB760970FB6F894DEBF0FBECDBF1D
S1132860A8958BE00E940F25892B99F5A8958FE4F4
S113287093EC0197F1F700C00000A8958BE00E944B
S11328800F25892BE1F48091B00581110EC081E000
S11328908093B0058093AF058AEE91E00E945310B7
S11328A085E00E94A50F82E208C0813041F40E94B5
S11328B05B1187E00E94A50F86E00E94A50F9FE7A9
S11328C0ACEFBAE09150A040B040E1F700C0000086
S11328D0A8958091AA05811115C08091A8059091B1
S11328E0A905883EEDEF9E0740F00E94040F81E0A9
S11328F08093AA050E94971005C001969093A9059C
S11329008093A8050E94E408833009F0F3C0809105
S11329101A06882309F4EEC08091AA05882309F4D5
S1132920E9C010921A0688E00E94240F89E00E94F0
S1132930240F68E670E089E097E00E946F2F60E062
S113294070E089E097E00E94AE0989E097E00E9478
S1132950ED2F20E030E047E050E068E670E089E0E9
S113296097E00E94EB2F47E050E0BE016F5F7F4F7E
S113297089E097E00E9458239A81892F8077869571
S113298086958695282F220F220F820F9F70890F1C
S11329909B81292F2073E22EE694E694E6942E2D53
S11329A0220F220FE20E9F70E90E9C819770F92E80
S11329B09D81292F2073D22ED694D694D6942D2D72
S11329C0220F220FD20E9F70D90E9E8194FB1127E5
S11329D010F9110F212F220F220F120F9F70190FC0
S11329E00F81902F92959F700F70FAE09F9F000DBA
S11329F01124282F30E04091AB015091AC012417F1
S1132A00350709F13093AC012093AB016AE00E94D1
S1132A10D033C92E4AE0BE01615F7F4F90E00E942F
S1132A205C3463E0DC018C910E94450F4AE0BE01F6
S1132A30615F7F4F8C2D90E00E945C3464E0FC0168
S1132A4080810E94450F8E2D90E02091A901309144
S1132A50AA018217930711F19093AA018093A90107
S1132A608E2D6AE00E94D033E92E4AE0BE01615FF8
S1132A707F4F90E00E945C3461E0DC018C910E9405
S1132A80450F4AE0BE01615F7F4F8E2D90E00E94AA
S1132A905C3462E0FC0180810E94450F8F2D90E040
S1132AA02091A5013091A6018217930711F00C948F
S1132AB077208D2D90E02091A7013091A8018217F5
S1132AC0930711F00C949920812F90E02091A30199
S1132AD03091A4018217930711F00C94C220802F27
S1132AE090E02091A1013091A2018217930711F087
S1132AF00C94EB200E94E408833031F58091A70503
S1132B009091A001981701F18091AA058823E1F022
S1132B108091A705882311F40C9414218091A705B2
S1132B2090E00197FC01EB5FFB4F80810E94A50FB1
S1132B30E091A705F0E0EB5FFB4F80810E946E0FF0
S1132B408091A7058093A0010E94E408833009F4D2
S1132B5049C08091A3059091A405A091A505B091C9
S1132B60A605892B8A2B8B2BB9F00E94C3230091D5
S1132B70A3051091A4052091A5053091A605DC01BB
S1132B80CB01801B910BA20BB30B89389341A10598
S1132B90B10510F00C9418210E94E408811122C0A0
S1132BA08091A0059091A105803AFFE09F07A9F4C8
S1132BB01092A1051092A0058BE196E00E94172BBC
S1132BC08091AD0581110C9424218091D00687FF5A
S1132BD002C00C943C210C94242101969093A105ED
S1132BE08093A0050E94E40881116CC08091CC05FB
S1132BF0882309F467C08091B005811163C01092E5
S1132C00CC0520E040E060E08BE196E00E94F32DEB
S1132C108091E70680FD02C00C9443219091E80660
S1132C2090FD02C00C94432182FD02C00C94432108
S1132C308091CB05811107C081E08093CB050E9470
S1132C40F20F0E943B118BE196E00E94252790939E
S1132C501806809317068BE196E00E94F72690935E
S1132C60160680931506E0911706F0911806309722
S1132C7011F40C94D2211092CA050DEC15E09F01B9
S1132C80205C3F4FD8018191803211F00C94552182
S1132C9011962E173F07B9F780E09091C90591115D
S1132CA00C946521E0911506F0911606309711F009
S1132CB00C94DD218091A1019091A201892B11F442
S1132CC00C941A2281EB95E00E94C601882311F42A
S1132CD00C940923A8958091AF05882309F47BC639
S1132CE0813109F4CEC478F5883009F466C2A0F4C1
S1132CF0843009F452C150F4823009F4C3C008F09E
S1132D0008C1813009F47AC00C940923863009F48F
S1132D10CCC108F486C10DC28C3009F45EC330F412
S1132D208A3009F4D2C208F48CC213C38E3009F479
S1132D30DCC308F496C38F3009F41BC4803109F452
S1132D405CC40C940923843709F4E3C540F58F3639
S1132D5009F4A7C550F4833109F41BC508F4D5C49C
S1132D60843109F45AC50C940923813709F4B5C593
S1132D7008F4A5C5823709F4BEC5833711F00C9455
S1132D8009236AEB74E080911A0190911B010E945F
S1132D90990984E78093AF0581E693E0B6C088374C
S1132DA009F4E1C598F4863709F4C1C508F0CDC526
S1132DB06EEA74E080911601909117010E949909BE
S1132DC086E78093AF058FE793E09FC08A3709F4C5
S1132DD0E6C508F4D6C58B3709F4EFC58C3711F076
S1132DE00C94092364E874E0809106019091070132
S1132DF00E9499090E945B110C9409236AE975E009
S1132E0080919A0190919B010E9499090E94E40883
S1132E10811105C08091B8069091B90604C08091D3
S1132E2096059091970590939705809396050E9437
S1132E30E408813029F48091B8069091B90604C061
S1132E4080919805909199059093990580939805A0
S1132E50609196017091970142E050E086E995E017
S1132E600E94A134609198017091990142E050E070
S1132E7088E995E00E94A13482E08093AF0589EF50
S1132E8091E043C060E975E08091940190919501CF
S1132E900E9499090E94E408811105C08091B80636
S1132EA09091B90604C080918C0590918D05909302
S1132EB08D0580938C050E94E408813029F480916B
S1132EC0B8069091B90604C080918E0590918F0543
S1132ED090938F0580938E0560919001709191017C
S1132EE042E050E08CE895E00E94A13460919201A8
S1132EF07091930142E050E08EE895E00E94A13485
S1132F0083E08093AF0588E092E00E9453100C9414
S1132F10092366E875E080918E0190918F010E94EB
S1132F2099090E94E408811105C08091B806909126
S1132F30B90604C08091820590918305909383051E
S1132F40809382050E94E408813029F48091B806B8
S1132F509091B90604C08091840590918505909361
S1132F6085058093840560918A0170918B0142E00C
S1132F7050E082E895E00E94A13460918C01709148
S1132F808D0142E050E084E895E00E94A13484E0A1
S1132F908093AF0587E192E0B8CF6CE775E080914C
S1132FA08801909189010E9499090E94E408811185
S1132FB005C08091B8069091B90604C08091780547
S1132FC09091790590937905809378050E94E4089F
S1132FD0813029F48091B8069091B90604C080919B
S1132FE07A0590917B0590937B0580937A05609197
S1132FF084017091850142E050E088E795E00E94E9
S1133000A134609186017091870142E050E08AE723
S113301095E00E94A13485E08093AF0586E292E0BA
S113302074CF62E775E080918201909183010E94E0
S113303099090E94E408811105C08091B806909115
S1133040B90604C080916E0590916F0590936F0549
S113305080936E050E94E408813029F48091B806BB
S11330609091B90604C08091700590917105909378
S113307071058093700560917E0170917F0142E03B
S113308050E08EE695E00E94A13460918001709139
S1133090810142E050E080E795E00E94A13486E09F
S11330A08093AF0585E392E030CF68E675E08091C8
S11330B07C0190917D010E9499090E94E40881118C
S11330C005C08091B8069091B90604C0809164054A
S11330D09091650590936505809364050E94E408CA
S11330E0813029F48091B8069091B90604C080918A
S11330F066059091670590936705809366056091D6
S113310078017091790142E050E084E695E00E94F4
S1133110A13460917A0170917B0142E050E086E62F
S113312095E00E94A13487E08093AF0584E492E0A7
S1133130ECCE6EE575E080917601909177010E9466
S113314099090E94E408811105C08091B806909104
S1133150B90604C080915A0590915B0590935B0574
S113316080935A050E94E408813029F48091B806BE
S11331709091B90604C080915C0590915D0590938F
S11331805D0580935C05609172017091730142E06A
S113319050E08AE595E00E94A13460917401709139
S11331A0750142E050E08CE595E00E94A13488E08E
S11331B08093AF0583E592E0A8CE64E575E0809145
S11331C07001909171010E9499090E94E408811193
S11331D005C08091B8069091B90604C0809150054D
S11331E09091510590935105809350050E94E408F5
S11331F0813029F48091B8069091B90604C0809179
S11332005205909153059093530580935205609114
S11332106C0170916D0142E050E080E595E00E9400
S1133220A13460916E0170916F0142E050E082E53B
S113323095E00E94A13489E08093AF0582E692E094
S113324064CE6AE475E080916A0190916B010E94FA
S113325099090E94E408811105C08091B8069091F3
S1133260B90604C08091460590914705909347059F
S1133270809346050E94E408813029F48091B806C1
S11332809091B90604C080914805909149059093A6
S1133290490580934805609166017091670142E099
S11332A050E086E495E00E94A13460916801709139
S11332B0690142E050E088E495E00E94A1348AE08C
S11332C08093AF0581E792E020CE60E475E08091C1
S11332D06401909165010E9499090E94E40881119A
S11332E005C08091B8069091B90604C080913C0550
S11332F090913D0590933D0580933C050E94E40820
S1133300813029F48091B8069091B90604C0809167
S11333103E0590913F0590933F0580933E05609153
S113332060017091610142E050E08CE395E00E94FD
S1133330A134609162017091630142E050E08EE338
S113334095E00E94A1348BE08093AF0580E892E081
S1133350DCCD66E375E080915E0190915F010E948F
S113336099090E94E408811105C08091B8069091E2
S1133370B90604C0809132059091330590933305CA
S1133380809332050E94E408813029F48091B806C4
S11333909091B90604C080913405909135059093BD
S11333A035058093340560915A0170915B0142E0C8
S11333B050E082E395E00E94A13460915C01709139
S11333C05D0142E050E084E395E00E94A1348CE08A
S11333D08093AF058FE892E098CD6CE275E0809120
S11333E05801909159010E9499090E94E4088111A1
S11333F005C08091B8069091B90604C08091280553
S11334009091290590932905809328050E94E4084A
S1133410813029F48091B8069091B90604C0809156
S11334202A0590912B0590932B0580932A05609192
S113343054017091550142E050E088E295E00E9409
S1133440A134609156017091570142E050E08AE244
S113345095E00E94A1348DE08093AF058EE992E05F
S113346054CD62E275E080915201909153010E9423
S113347099090E94E408811105C08091B8069091D1
S1133480B90604C080911E0590911F0590931F05F5
S113349080931E050E94E408813029F48091B806C7
S11334A09091B90604C080912005909121059093D4
S11334B021058093200560914E0170914F0142E0F7
S11334C050E08EE195E00E94A1346091500170912A
S11334D0510142E050E080E295E00E94A1348EE088
S11334E08093AF058DEA92E010CD68E175E080919C
S11334F04C0190914D010E9499090E94E4088111A8
S113350005C08091B8069091B90604C08091140555
S11335109091150590931505809314050E94E40875
S1133520813029F48091B8069091B90604C0809145
S113353016059091170590931705809316056091D1
S113354048017091490142E050E084E195E00E9415
S1133550A13460914A0170914B0142E050E086E150
S113356095E00E94A1348FE08093AF058CEB92E04C
S1133570CCCC6EE075E080914601909147010E94A9
S113358099090E94E408811105C08091B8069091C0
S1133590B90604C080910A0590910B0590930B0520
S11335A080930A050E94E408813029F48091B806CA
S11335B09091B90604C080910C0590910D059093EB
S11335C00D0580930C05609142017091430142E026
S11335D050E08AE095E00E94A1346091440170912A
S11335E0450142E050E08CE095E00E94A13480E186
S11335F08093AF058BEC92E088CC64E075E0809119
S11336004001909141010E9499090E94E4088111AE
S113361005C08091B8069091B90604C08091000558
S11336209091010590930105809300050E94E408A0
S1133630813029F48091B8069091B90604C0809134
S11336400205909103059093030580930205609110
S11336503C0170913D0142E050E080E095E00E9421
S1133660A13460913E0170913F0142E050E082E05C
S113367095E00E94A13481E18093AF058AED92E048
S113368044CC6AEF74E080913A0190913B010E942E
S113369099090E94E408811105C08091B8069091AF
S11336A0B90604C08091F6049091F7049093F7044E
S11336B08093F6040E94E408813029F48091B806CE
S11336C09091B90604C08091F8049091F904909304
S11336D0F9048093F804609136017091370142E057
S11336E050E086EF94E00E94A1346091380170911B
S11336F0390142E050E088EF94E00E94A13482E175
S11337008093AF0589EE92E000CC60EF74E0809185
S11337103401909135010E9499090E94E4088111B5
S113372005C08091B8069091B90604C08091EC045C
S11337309091ED049093ED048093EC040E94E408CE
S1133740813029F48091B8069091B90604C0809123
S1133750EE049091EF049093EF048093EE04609153
S113376030017091310142E050E08CEE94E00E940F
S1133770A134609132017091330142E050E08EEE49
S113378094E00E94A13483E18093AF0588EF92E036
S1133790BCCB66EE74E080912E0190912F010E94C3
S11337A099090E94E408811105C08091B80690919E
S11337B0B90604C08091E2049091E3049093E30479
S11337C08093E2040E94E408813029F48091B806D1
S11337D09091B90604C08091E4049091E50490931B
S11337E0E5048093E40460912A0170912B0142E086
S11337F050E082EE94E00E94A13460912C0170911B
S11338002D0142E050E084EE94E00E94A13484E172
S11338108093AF0587E093E078CB6CED74E0809102
S11338202801909129010E9499090E94E4088111BC
S113383005C08091B8069091B90604C08091D8045F
S11338409091D9049093D9048093D8040E94E408F9
S1133850813029F48091B8069091B90604C0809112
S1133860DA049091DB049093DB048093DA04609192
S113387024017091250142E050E088ED94E00E941B
S1133880A134609126017091270142E050E08AED55
S113389094E00E94A1348FE68093AF0586E193E023
S11338A034CB62ED74E080912201909123010E9457
S11338B0990980E78093AF0585E293E026CB6CEC11
S11338C074E080912001909121010E94990981E77F
S11338D08093AF0584E393E018CB66EC74E08091A9
S11338E01E0190911F010E94990982E78093AF0500
S11338F083E493E00ACB60EC74E080911C01909126
S11339001D010E94990983E78093AF0582E593E046
S1133910FCCA64EB74E080911801909119010E9433
S1133920990985E78093AF0580E793E0EECA68EADA
S113393074E080911201909113010E94990987E724
S11339408093AF058EE893E0E0CA62EA74E0809168
S11339501001909111010E94990988E78093AF05A5
S11339608DE993E0D2CA6CE974E080910E019091E4
S11339700F010E94990989E78093AF058CEA93E0CF
S1133980C4CA66E974E080910C0190910D010E9413
S113399099098AE78093AF058BEB93E0B6CA60E997
S11339A074E080910A0190910B010E9499098BE7C0
S11339B08093AF058AEC93E0A8CA6AE874E080912A
S11339C00801909109010E9499098CE78093AF0541
S11339D089ED93E09ACA46E050E060EC74E081EB34
S11339E095E00E944F34892B09F50E94E408833046
S11339F019F40E9488130DC61092AE050E94F908AE
S1133A0083E10E94A50F8AE10E94A50F8CE10E9428
S1133A10A50F0E94B5090E94E408882309F4C3C5D0
S1133A200E94E408813009F0EFC5BDC50E94E40896
S1133A30833009F4EEC546E050E062ED74E081EBBA
S1133A4095E00E944F34892B39F48091AD0188238D
S1133A5009F4DFC5815010C046E050E06CEC74E01E
S1133A6081EB95E00E944F34892BB9F58091AD012B
S1133A708F3308F0CEC58F5F8093AD0164E470E0AE
S1133A8089E097E00E946F2F63E070E089E097E09F
S1133A900E94AE096091AD0189E097E00E94102F69
S1133AA089E097E00E94ED2F64E470E089E097E0FC
S1133AB00E946F2F64E070E089E097E00E94AE09F5
S1133AC06091AD0189E097E00E94102F89E097E0B2
S1133AD00E94ED2F0E94191139C146E050E066ECB6
S1133AE074E081EB95E00E944F34892B09F58091B5
S1133AF0AE05882371F084E20E94A50F8AE10E943A
S1133B006E0F8CE10E946E0F0E94CF091092AE05D9
S1133B1080C584E20E946E0F8AE10E94A50F8CE1A9
S1133B200E94A50F0E94B50981E08093AE0571C57E
S1133B3046E050E06AEB74E081EB95E00E944F347C
S1133B40892B49F50E94B5090E94E40881110BC034
S1133B508091B8069091B90690939F0180939E013D
S1133B600E94E71215C00E94E408813059F4809144
S1133B70B8069091B90690939D0180939C010E9490
S1133B80C11006C00E94E408823011F40E946E1233
S1133B900E94CF09DBC046E050E06EEA74E081EB9E
S1133BA095E00E944F34892BB1F48091AD058823B0
S1133BB059F061E38BE196E00E94D42B83E10E94EB
S1133BC06E0F1092AD05C2C00E94E408811121C598
S1133BD00E94DC0F1EC546E050E062EA74E081EB0F
S1133BE095E00E944F34892B29F48BE196E00E94E2
S1133BF0782A0EC046E050E068EA74E081EB95E074
S1133C000E944F34892B39F48BE196E00E94972A65
S1133C100E947B119BC046E050E066E974E081EBB2
S1133C2095E00E944F34892BD9F42091A205822F6C
S1133C3090E044E0959587954A95E1F7883009F43A
S1133C40E8C4873010F48F5F05C0873011F08150CD
S1133C5001C08EE02F70B0E18B9FC001112424C0FD
S1133C6046E050E06CE974E081EB95E00E944F344B
S1133C70892BE1F42091A205822F90E034E0959500
S1133C8087953A95E1F7882309F4C3C4883010F482
S1133C90815005C08E3011F08F5F01C087E02F7016
S1133CA0E0E18E9FC0011124822B38C046E050E031
S1133CB06AE874E081EB95E00E944F34892B91F41B
S1133CC09091A205892F8F70883009F4A2C487309F
S1133CD010F48F5F05C0873011F0815001C08EE071
S1133CE0907F1BC046E050E060E974E081EB95E012
S1133CF00E944F34892BA9F59091A205892F8F70CA
S1133D0009F487C4883010F4815005C08E3011F056
S1133D108F5F01C087E0907F8F70892B8093A2050D
S1133D2064E470E089E097E00E946F2F65E070E042
S1133D3089E097E00E94AE096091A20589E097E0CE
S1133D400E94102F89E097E00E94ED2F0E94C32368
S1133D506093A3057093A4058093A5059093A6058D
S1133D6058C446E050E064E874E081EB95E00E94BA
S1133D704F34892BD1F40E94E40881114AC49091F4
S1133D80C90581E089278093C9058091C9058111FE
S1133D9007C00E94F20F0E943B110E94BD1039C45B
S1133DA00E943B110E94B50834C446E050E064EB25
S1133DB074E081EB95E00E944F34892BC9F40E9492
S1133DC0E90E6AE770E089E097E00E946F2F6DE0EA
S1133DD070E089E097E00E94AE0989E097E00E94D4
S1133DE0ED2F61E070E080E090E00E94F22311C4C6
S1133DF046E050E06AE975E081EB95E00E944F34BB
S1133E00892B49F4609198057091990580919605E4
S1133E109091970569C146E050E060E975E081EB57
S1133E2095E00E944F34892B49F460918E0570917E
S1133E308F0580918C0590918D0556C146E050E028
S1133E4066E875E081EB95E00E944F34892B49F4D4
S1133E506091840570918505809182059091830518
S1133E6043C146E050E06CE775E081EB95E00E94C9
S1133E704F34892B49F460917A0570917B058091C8
S1133E8078059091790530C146E050E062E775E02D
S1133E9081EB95E00E944F34892B49F460917005C1
S1133EA07091710580916E0590916F051DC146E07A
S1133EB050E068E675E081EB95E00E944F34892B71
S1133EC049F460916605709167058091640590914D
S1133ED065050AC146E050E06EE575E081EB95E0CA
S1133EE00E944F34892B49F460915C0570915D0503
S1133EF080915A0590915B05F7C046E050E064E577
S1133F0075E081EB95E00E944F34892B49F4609170
S1133F105205709153058091500590915105E4C06C
S1133F2046E050E06AE475E081EB95E00E944F348E
S1133F30892B49F4609148057091490580914605A3
S1133F4090914705D1C046E050E060E475E081EB14
S1133F5095E00E944F34892B49F460913E0570919D
S1133F603F0580913C0590913D05BEC046E050E080
S1133F7066E375E081EB95E00E944F34892B49F4A8
S1133F806091340570913505809132059091330527
S1133F90ABC046E050E06CE275E081EB95E00E9436
S1133FA04F34892B49F460912A0570912B05809137
S1133FB028059091290598C046E050E062E275E03A
S1133FC081EB95E00E944F34892B49F460912005E0
S1133FD07091210580911E0590911F0585C046E0D2
S1133FE050E068E175E081EB95E00E944F34892B45
S1133FF049F460911605709117058091140590910C
S1134000150572C046E050E06EE075E081EB95E086
S11340100E944F34892B49F460910C0570910D0571
S113402080910A0590910B055FC046E050E064E082
S113403075E081EB95E00E944F34892B49F460913F
S113404002057091030580910005909101054CC013
S113405046E050E06AEF74E081EB95E00E944F3453
S1134060892B49F46091F8047091F9048091F60465
S11340709091F70439C046E050E060EF74E081EBC2
S113408095E00E944F34892B49F46091EE047091BD
S1134090EF048091EC049091ED0426C046E050E0DA
S11340A066EE74E081EB95E00E944F34892B49F46D
S11340B06091E4047091E5048091E2049091E3043A
S11340C013C046E050E06CED74E081EB95E00E9493
S11340D04F34892B09F09DC26091DA047091DB049E
S11340E08091D8049091D9040E94F91392C29093BC
S11340F0A6018093A5012091B00521110C945915B6
S1134100880F991FFC01E75DFB4FE080F18060E0C0
S1134110D7018C910E941F1061E0F70181810E94F8
S11341201F1062E0D70112968C910E941F100C940C
S113413059159093A8018093A7018091B00581112E
S11341400C9464158D2D6AE00E94D033F92E4AE058
S1134150BE01615F7F4F90E00E945C3464E0FC012B
S113416080810E941F104AE0BE01615F7F4F8F2D46
S113417090E00E945C3465E0DC018C910E941F1089
S11341800C9464159093A4018093A3018091B005CD
S113419081110C946F15812F6AE00E94D033192F7E
S11341A04AE0BE01615F7F4F90E00E945C3467E0AB
S11341B0FC0180810E941F104AE0BE01615F7F4FB5
S11341C0812F90E00E945C3468E0DC018C910E94B5
S11341D01F100C946F159093A2018093A1018091FC
S11341E0B00581110C947A15802F6AE00E94D033B7
S11341F0192F4AE0BE01615F7F4F90E00E945C345A
S11342006CE0FC0180810E941F104AE0BE01615FE6
S11342107F4F812F90E00E945C346DE0DC018C9133
S11342200E941F100C947A1585E290E00C9492156C
S11342301092A3051092A4051092A5051092A6054C
S11342400E94F9080C94CC1583E10E94A50F1092EA
S1134250AC058091D2068C3140F084E10E946E0F4F
S113426081E08093AB050C94F21584E10E94A50FC4
S11342701092AB050C94F21583E10E946E0F81E05D
S11342808093AC05E6CF0E94F20F1092CB058DEB24
S113429091E00E94A508882311F40C9462160E94F0
S11342A03B110E94BD100C9462169C91903211F443
S11342B00C944816891711F40C944816882311F4A9
S11342C00C94481681E00C944D16882321F00E942A
S11342D0B5080E943B112091170630911806EDE0B5
S11342E0F6E0D9018D919D019EED980F9D3520F446
S11342F0D8019C9189138C930F5F1F4FE017F1072E
S113430081F78FB7F8940091C8051091C7058FBF46
S11343108FE390E02291203211F0182F02C0019710
S1134320C8F71E3008F400E08FB7F8940093C8056E
S11343301093C7058FBFE02EF12CD701A353BA4FBA
S1134340FE0131969E01215F3F4FCF014D91419374
S11343502E173F07D9F70E94531085E0002319F068
S11343600E946E0F02C00E94A50F61E070E080E021
S113437090E00E94F223EDE0EE0EF11C812F90E01C
S1134380E816F90624F482E20E946E0F03C082E26A
S11343900E94A50F61E070E080E090E00E94F223AB
S11343A00C9452168091CA05893010F00C94521660
S11343B08F5F8093CA050C9452168091E70684FDA2
S11343C002C00C945A160DE016E09F01285F3F4F7F
S11343D0D8018191803209F08C9311962E173F07F2
S11343E0C1F78091C90581110C945A16E5E1F6E0F4
S11343F087E090E02291203219F40197D8F780E009
S1134400282F30E02F5F3F4F359527958095817099
S1134410E12C97E0F92EF81AF21A6F2D6E0DD801DF
S11344208D918D010E941F10E394B8E0EB12F5CF3B
S11344300C945A166BEAE62E61E0F62E09EA11E0B6
S113444027EA31E043EA51E061EA71E08BE196E06A
S11344500E942F28882311F40C946216E090A7017F
S1134460F090A8010091A3011091A401E091A10191
S1134470F091A2010330110528F46F0121E0C21A62
S1134480D10804C06F0132E0C31AD10827E1209F8C
S1134490C001219F900D112469E070E00E94DC337B
S11344A0C70104969B01280F391FC601969587956D
S11344B096958795280F391FC60160E971E00E941F
S11344C0DC33260F371FC60164E670E00E94DC333C
S11344D0C901861B970B67E070E00E94DC33AC01D6
S11344E0892B11F447E050E05093A6014093A501B5
S11344F0E05DF740F093A201E093A101198280915D
S1134500AB019091AC012AE030E0B9010E94DC33A8
S11345106295607F862B8A838091A9019091AA017C
S1134520B9010E94DC336295607F862B8B834C83B8
S1134530C701B9010E94DC336295607F862B8D83AD
S1134540C801B9010E94DC336295607F862B8E839B
S1134550CF01B9010E94DC336295607F862B8F8383
S113456068E670E089E097E00E946F2F60E070E0F9
S113457089E097E00E94AE098E010F5F1F4F7E0114
S113458088E0E80EF11CD8016D918D0189E097E077
S11345900E94102FE016F106B1F789E097E00E941F
S11345A0ED2F0C9462168BE196E00E9448290E943C
S11345B0F20F60E088E00E94E0240E94040F109251
S11345C0AC051092AB050E94E90E6AE770E089E041
S11345D097E00E946F2F69E070E089E097E00E9405
S11345E0AE0989E097E00E94ED2F61E070E080E081
S11345F090E00E94F22388E00E946E0F89E00E94FE
S11346006E0F0E94971005C060E081E10E94E024D3
S1134610D0CF60960FB6F894DEBF0FBECDBFDF914A
S1134620CF911F910F91FF90EF90DF90CF9008955D
S113463008950E9440240E9418230E94840AC0E026
S1134640D0E00E9420142097E1F30E940000F9CFEB
S11346500F931F93CF93DF93EC010E94C3236887CA
S113466079878A879B87E881F9810284F385E02D25
S1134670CE01099597FF17C00E94C32308851985A9
S11346802A853B85DC01CB01801B910BA20BB30B6C
S11346900C811D812E813F8180179107A207B307EA
S11346A010F38FEF9FEFDF91CF911F910F9108953A
S11346B0CF92DF92EF92FF920F931F93CF93DF93EA
S11346C06C017A018B01C0E0D0E0CE15DF0559F012
S11346D0C6010E94282397FD05C0F80181938F012C
S11346E02196F3CF7E01C701DF91CF911F910F91E6
S11346F0FF90EF90DF90CF9008951F920F920FB626
S11347000F9211242F933F938F939F93AF93BF9353
S11347108091FF0690910007A0910107B0910207D4
S11347203091FE0626E6230F2D3728F029EE230FBD
S11347300196A11DB11D2093FE068093FF06909360
S11347400007A0930107B09302078091030790919B
S11347500407A0910507B09106070196A11DB11D9C
S11347608093030790930407A0930507B09306076B
S1134770BF91AF919F918F913F912F910F900FBE59
S11347800F901F9018952FB7F8946091FF067091C1
S1134790000780910107909102072FBF08959FB7EA
S11347A0F8944091030750910407609105077091B4
S11347B0060786B5A89B06C08F3F21F04F5F5F4F69
S11347C06F4F7F4F9FBF762F652F542F44279A0139
S11347D0AB01280F311D411D511DA3E0B0E00E9423
S11347E0263408958F929F92AF92BF92CF92DF9218
S11347F0EF92FF926B017C010E94CF234B015C017D
S1134800C114D104E104F10401F10E94F42F0E94C7
S1134810CF23DC01CB0188199909AA09BB09883E79
S11348209340A105B10560F321E0C21AD108E10863
S1134830F10888EE880E83E0981EA11CB11CC114F7
S1134840D104E104F10419F7DBCFFF90EF90DF907E
S1134850CF90BF90AF909F908F900895000000007C
S1134860000000008230910550F09C01220F331F9C
S1134870220F331F0797820F931F0197F1F70895B3
S1134880789484B5826084BD84B5816084BD85B527
S1134890826085BD85B5816085BDEEE6F0E08081EE
S11348A081608083E1E8F0E010828081826080830F
S11348B0808181608083E0E8F0E080818160808392
S11348C0E1EBF0E0808184608083E0EBF0E08081C4
S11348D081608083EAE7F0E0808184608083808166
S11348E0826080838081816080838081806880830E
S11348F01092C1000895833081F028F4813099F03A
S11349008230A1F008958730A9F08830B9F084305E
S1134910D1F4809180008F7D03C0809180008F77D7
S113492080938000089584B58F7702C084B58F7D0D
S113493084BD08958091B0008F7703C08091B0004A
S11349408F7D8093B0000895CF93DF9390E0FC01B6
S1134950E85BFE4F2491FC01E45AFE4F84918823C6
S113496061F190E0880F991FFC01EC57FE4FC5914F
S1134970D491FC01E658FE4FA591B491611109C090
S11349809FB7F8948881209582238883EC912E2305
S11349900BC0623061F49FB7F8948881322F309550
S11349A083238883EC912E2B2C939FBF06C08FB753
S11349B0F894E8812E2B28838FBFDF91CF9108953F
S11349C01F93CF93DF93282F30E0F901EC5CFE4F67
S11349D08491F901E85BFE4FD491F901E45AFE4F4A
S11349E0C491CC23C1F0162F81110E947B24EC2F9B
S11349F0F0E0EE0FFF1FE658FE4FA591B4919FB76C
S1134A00F894111104C08C91D095D82302C0EC9174
S1134A10DE2BDC939FBFDF91CF911F910895CF933D
S1134A20DF93282F30E0F901EC5CFE4F8491F9010B
S1134A30E85BFE4FD491F901E45AFE4FC491CC23B4
S1134A4091F081110E947B24EC2FF0E0EE0FFF1F08
S1134A50E059FE4FA591B491EC91ED2381E090E0F3
S1134A6021F480E002C080E090E0DF91CF910895CE
S1134A70FC01E657FF4F108231961082319621E1F6
S1134A8030E03183208332962EE130E0318320837D
S1134A9032962AE030E031832083329640E45FE1AD
S1134AA060E070E040835183628373833F962FEF0D
S1134AB02083319634E23083319631E0308331966D
S1134AC0108231961082319640E050E85183408341
S1134AD0329641E050E05183408332961082F5963D
S1134AE030E23083319635E030833296208331973B
S1134AF010820895CF93DF93EC01C956DF4F61E034
S1134B0088810E94A4246AE070E080E090E00E9422
S1134B10F22360E088810E94E0246AE070E080E093
S1134B2090E00E94F22361E088810E94E0246AE020
S1134B3070E080E090E0DF91CF910C94F223CF926B
S1134B40EF920F93CF93DF93FC01DC01A352BF4F8D
S1134B509C9160FB97F940FB96F920FB95F900FBCB
S1134B6094F98E2D8F70907F982B9C931196CC92F4
S1134B70DB970C93EF01C856DF4F1A96E11005C07E
S1134B8080E288838C91826004C080E488838C9165
S1134B908D7F8C938C918160837C8C93DF01A055F5
S1134BA0BF4F1C92EF54FF4F81E08083DF91CF9180
S1134BB00F91EF90CF90089584579F4FFC0160812F
S1134BC0718189E097E00E946F2F62E170E089E0D3
S1134BD097E00E94AE0960E070E089E097E00E94EF
S1134BE0AE096FEF70E089E097E00E94AE0960E0E3
S1134BF070E089E097E00E94AE0960E070E089E02F
S1134C0097E00E94AE0960E070E089E097E00E94BE
S1134C10AE0989E097E00E94ED2F84EC99E00C94B2
S1134C202E24FC019C012F5B3F4F40E24193E2178D
S1134C30F307E1F7FC01E05CFF4F10820895FC01EB
S1134C40EF5BFF4F9C012E593F4F40E24193E21727
S1134C50F307E1F7FC01EF59FF4F10820895FC01BF
S1134C60EE59FF4F9C0125593F4F40E24193E21713
S1134C70F307E1F7FC01E659FF4F10820895CF9343
S1134C80DF93EC010E941126CE010E941F26CE0163
S1134C900E942F26FE01E857FF4F118210823E9694
S1134CA01082709711821082CC57DF4F19821882BC
S1134CB0DF91CF910895CF92DF92EF92FF920F93FD
S1134CC01F93CF93DF9300D0CDB7DEB7FC01EA5238
S1134CD0FF4F20812A833197208129839E012F5FF2
S1134CE03F4F6901FB018B010E5F1F4F20E030E055
S1134CF050E2D6014D916D014D3051F4FC01E55760
S1134D00FF4F41E04083FB01E20FF31F108211C00B
S1134D104A30A1F3403240F07B01E20EF31ED7018A
S1134D204C932F5F3F4F01C050833196E017F1073A
S1134D3001F70F900F90DF91CF911F910F91FF908A
S1134D40EF90DF90CF900895CF92DF92EF92FF9291
S1134D500F931F93CF93DF9300D000D0CDB7DEB76E
S1134D60FC01ED52FF4F20812983319620812A8353
S1134D70319620812B83319620812C839E012F5FD5
S1134D803F4F6901FB01AB014C5F5F4FE12CF12CFC
S1134D9030E2D6012D916D012D3051F4FC01E6571E
S1134DA0FF4F21E02083FB01EE0DFF1D108212C096
S1134DB02A30A1F3203248F08B010E0D1F1DD801BB
S1134DC02C93BFEFEB1AFB0A01C030833196E41732
S1134DD0F507F9F60F900F900F900F90DF91CF9198
S1134DE01F910F91FF90EF90DF90CF900895CF9394
S1134DF0DF93FC01E453FF4F208120FD03C080E0DA
S1134E0090E020C0FC01EF52FF4F208122952F70CB
S1134E10B1F7EC01319660816370EA54F10970E0F6
S1134E2071836083660F771F6E597F4F6C0F7D1FF0
S1134E30CE010E945B26FE01E659FF4F1082CE018F
S1134E408E599F4FDF91CF910895CF93DF93FC014B
S1134E50E453FF4F208120FD03C080E090E01CC09C
S1134E60FC01EF52FF4F208122952F702230A9F7C9
S1134E70EC01319660816F70EE54F10970E071833A
S1134E806083660F771F660F771F6C0F7D1FCE013F
S1134E900E94A4261FAECE01DF91CF9108954F92B8
S1134EA05F926F927F928F929F92AF92BF92CF92B6
S1134EB0DF92EF92FF920F931F93CF93DF93E90159
S1134EC057016A017B012AEDC20E2AEAD21E25E2AD
S1134ED0E21EF11CC701B60122E0660F771F881F8E
S1134EE0991F2A95D1F721EB3AE342E050E00E9462
S1134EF0043429013A0161EB7AE382E090E00E94F4
S1134F00C033DC01CB010396A11DB11D32E0B6957F
S1134F10A795979587953A95D1F7C81AD90AEA0AB9
S1134F20FB0AA70196012F5F3F4F4F4F5F4FA0EA47
S1134F30BFE00E94263429E03BE446E150E00E94B1
S1134F400434288339834A835B838FE1C80ED11CE0
S1134F50E11CF11CA5EBB5E00E942634DC01CB0179
S1134F6042E0B695A795979587954A95D1F7C81AC3
S1134F70D90AEA0AFB0AA0E5B0E0A70196010E945B
S1134F8026342FE839E040E050E00E940434F80170
S1134F902083318342835383AFE8B9E00E942634EF
S1134FA020E530E040E050E00E940434C21AD30A05
S1134FB0E40AF50AF501C082D182E282F382F801A3
S1134FC080809180A280B380C501B4012BE030E0E1
S1134FD040E050E00E94043469017A01F2E08F0E4F
S1134FE0911CA11CB11CACE0B0E00E942634A501C8
S1134FF09401261B370B480B590BF801208331838E
S11350004283538388819981AA81BB81C80ED91EAA
S1135010EA1EFB1EF4E2CF1AF3E1DF0AE108F1080D
S1135020A4E6B0E0A30192010E942634C60ED71E66
S1135030E81EF91EC882D982EA82FB82DF91CF91F1
S11350401F910F91FF90EF90DF90CF90BF90AF90A2
S11350509F908F907F906F905F904F9008952F92C4
S11350603F924F925F926F927F928F929F92AF92F4
S1135070BF92CF92DF92EF92FF920F931F93CF9341
S1135080DF93CDB7DEB764970FB6F894DEBF0FBEDB
S1135090CDBF7C8B6B8BDA01AC014F525F4FFA01B1
S11350A0408142954F70443009F0BEC0AC014E526D
S11350B05F4FFA014081BC016C527F4FFB0130808D
S11350C061507109FB0150816D5F7F4FFB0190803E
S11350D061507109FB0180804370442E512C612C76
S11350E0712C4FE0440C551C661C771C4A95D1F773
S11350F0432D4695D52ED794DD24D7946D2D642B5E
S1135100752F7695AB0160E070E044295529662936
S11351107729F82DFF70E4E0FE9F60011124792CBB
S1135120729476947694E3E07E22F601E7293F01B7
S113513030FAAA24A0F8B12CF4E0AA0CBB1CFA950E
S1135140E1F78294EFE08E22A828FCE3DF2EDA9CBC
S11351502001DB9C500C1124F92DFF71EEE1FE9F20
S11351605001112495FC04C0CC24C394D12C03C059
S1135170CC24CA94DC2CCA9C4001CB9C900CDA9CB5
S1135180900C11246301C40CD51CC80CD91CD7FE87
S113519009C0F0E6CF1AFAEFDF0A4150510961095C
S11351A071090DC0E1EACE16E5E0DE0644F0F0EA4E
S11351B0CF1AF5E0DF0A4F5F5F4F6F4F7F4F170144
S11351C0280139014D01AB88BC889E01215F3F4F06
S11351D079018E01055F1F4F285031090E944F2726
S11351E0C6016CE370E00E94DC338F819885F50181
S11351F0918380838B859C85F401918380838F8543
S11352009889F30191838083F201718360832CE395
S1135210269FC001279F900D1124C81AD90AF101B5
S1135220D182C08281E001C080E064960FB6F89418
S1135230DEBF0FBECDBFDF91CF911F910F91FF90C5
S1135240EF90DF90CF90BF90AF909F908F907F9022
S11352506F905F904F903F902F900895CF93DF937E
S1135260EC01C457DF4F8CE291E00E942E24688148
S1135270798141E050E089E097E00E94E82F89E0DD
S113528097E00E94892E87FFEECFDF91CF9108959A
S1135290CF93DF93EC01FC01EE51FF4F808187FD3A
S11352A007C060E00E94E0248CE291E00E942E247A
S11352B0CE010E942E29C457DF4F6881798189E08D
S11352C097E00E946F2F61E170E089E097E00E940F
S11352D0AE0989E097E00E94ED2F84EC99E0DF911C
S11352E0CF910C942E24AF92BF92CF92DF92EF9283
S11352F0FF920F931F93CF93DF93EC010E942E290B
S11353007E018CE8E80EF11CF7016081718189E06F
S113531097E00E946F2F60E170E089E097E00E94BF
S1135320AE0989E097E00E94ED2F5E01FBECAF0E21
S1135330B11CCE010E942E29F7016081718149E0E0
S113534050E089E097E00E94E82F8E010E531F4F32
S1135350680189E097E00E94892EF80181938F010A
S1135360EA15FB05B1F7F601808186FDE2CFDF91F6
S1135370CF911F910F91FF90EF90DF90CF90BF904E
S1135380AF9008958F929F92AF92BF92CF92DF9287
S1135390EF92FF920F931F93CF93DF93EC017B0166
S11353A00E942E29FE01E555FF4FF182E0825E0145
S11353B08EEAA80EB11CDE01A455BF4F8C91D50115
S11353C08C936E01BFEACB0ED11C8081F6018083E1
S11353D0F29680818E0103551F4F882359F0D8011E
S11353E09C918295880F880F807C9370892B8160B3
S11353F08D7F8C93FE01E457FF4F6081718189E0BA
S113540097E00E946F2F4E01B8E98B0E911CF401B6
S1135410608189E097E00E94102FD8016C9189E0A7
S113542097E00E94102FF501608189E097E00E94C7
S1135430102FD6016C9189E097E00E94102FFE0195
S1135440E055FF4F608189E097E00E94102FF4013E
S11354508081803431F47996608189E097E00E94FC
S1135460102F89E097E00E94ED2FCE010E942E2993
S1135470FE01E356FF4FF182E082C257DF4F68819D
S1135480798180E090E0DF91CF911F910F91FF909F
S1135490EF90DF90CF90BF90AF909F908F900C943F
S11354A0F223FC01E355FF4F2081237C2083DC01A0
S11354B0A856BF4F3C91303441F0603C710508F070
S11354C060E0FC01E055FF4F0BC0611538E1730744
S11354D040F42D7F2083FC01E055FF4F708331960B
S11354E06083FC01E356FF4F608171810C94C229F3
S11354F0FC01E356FF4F20813181DC01A556BF4FEB
S11355004D915C9111972417350720F012972D9136
S11355103C9107C0DC01A156BF4F4D915C91240F13
S1135520351F31832083608171810C94C229FC0171
S1135530E356FF4F20813181DC01A756BF4F4D91C7
S11355405C9111974217530720F012962D913C91CC
S113555007C0DC01A156BF4F4D915C91241B350B54
S113556031832083608171810C94C229CF92DF92B0
S1135570EF92FF920F931F93CF93DF938C01D62F5B
S1135580FC01E856FF4F8081803239F0803551F0BC
S113559026E0E22EF12CC3E409C098E0E92EF12CB8
S11355A0C3E204C088E0E82EF12CC3E5C8010E94E0
S11355B02E2968018CE8C80ED11CF6016081718126
S11355C089E097E00E946F2F6C2F89E097E00E949A
S11355D0102F6D2F89E097E00E94102F89E097E04B
S11355E00E94ED2FC8010E942E29F601608171816D
S11355F0A70189E097E00E94E82FD12CCD2DD0E0BF
S1135600CE15DF055CF489E097E00E94892EC00F77
S1135610D11FCE54DF4F8883D394F0CFDF91CF9145
S11356201F910F91FF90EF90DF90CF90089560E06D
S11356300C94B62AEF92FF920F931F93CF93DF93AC
S1135640EC01F62EE72E142F052F0E942E29C457A5
S1135650DF4F6881798189E097E00E946F2F62E1D2
S113566070E089E097E00E94AE0960E070E089E0B4
S113567097E00E94AE096E2D89E097E00E94102FFA
S11356806F2D89E097E00E94102F602F89E097E04A
S11356900E94102F612F89E097E00E94102F89E06B
S11356A097E00E94ED2F86E292E0DF91CF911F9167
S11356B00F91FF90EF900C942E240F931F93CF9390
S11356C0DF93EC018B01AB0161E072E00E941A2BC5
S11356D0CA55DF4F19830883DF91CF911F910F9132
S11356E00895FF920F931F93CF93DF93EC018B01E7
S11356F0F42EAB0162E072E00E941A2BFE01E85521
S1135700FF4F11830083C655DF4FF882DF91CF919D
S11357101F910F91FF90089524EF260F2F3478F4F2
S1135720FC01EE55FF4F608324E531E0629FA00148
S1135730639F500D112463E071E30C941A2B0895B8
S11357400F931F93CF93DF93EC018A01AB0160E0C9
S113575074E30E941A2BA80161E074E3CE01DF9187
S1135760CF911F910F910C941A2B0F931F93CF93EA
S1135770DF93EC018A01AB0160E074E10E941A2B13
S1135780A80161E074E1CE01DF91CF911F910F91E7
S11357900C941A2BAB0162E074E30C941A2BAB014A
S11357A062E074E10C941A2B462F50E065E071E13D
S11357B00C941A2B1F93CF93DF93EC01162F462FD3
S11357C050E060E070E40E941A2BC152DF4F18834E
S11357D0DF91CF911F910895CF93DF93EC010E9445
S11357E02E29FE01E457FF4F6081718189E097E023
S11357F00E946F2F61E070E089E097E00E94AE099B
S1135800FE01E352FF4F608189E097E00E94102F70
S1135810FE01E252FF4F608189E097E00E94102F61
S113582089E097E00E94ED2FCE010E942E29FE010F
S1135830E057FF4F6081718180E090E00E94F22385
S1135840FE01EE51FF4F808187FD07C061E00E9499
S1135850E0248CE291E00E942E24FE01ED55FF4FDE
S11358608081811114C0339660817181CE010E94C0
S11358705D2BFE01E655FF4FDE01A855BF4F6D912C
S11358807C914081CE01DF91CF910C94712BDF91FB
S1135890CF910895AF92BF92CF92DF92EF92FF9291
S11358A00F931F93CF93DF93EC01A62E142FB22EE8
S11358B0DE2CFC2C89E097E00E944F2FFE01E95674
S11358C0FF4FA0823D9681E0111101C080E08083EA
S11358D0FE01EB55FF4FF082FB960083C02EEB2CAC
S11358E00D2D20E04F2D612FCE010E949F25FE013A
S11358F0EE51FF4F808187FD07C060E00E94E024E5
S11359008CE291E00E942E24CE010E947A25CE01E1
S11359100E94EC2B6EE1CE010E94DA2BCE01DF91C6
S1135920CF911F910F91FF90EF90DF90CF90BF9098
S1135930AF900C947329CF92EF920F93242FC12C24
S1135940EE24E39405E040E00E944A2C6AEF70E004
S113595080E090E00F91EF90CF900C94F2230F939E
S11359601F93CF93DF93EC018C010F551F4FF80168
S113597080818130C1F1CE010E944829FE01E052AC
S1135980FF4F9081FD972081DE01A352BF4F8C9180
S11359903196308130FB87F98F7920FB84F9807F41
S11359A081608C93FA96908380E4E654F1098083B5
S11359B075968081807C816080833396108281E03B
S11359C031968083CE010E94EC2BFE01EE55FF4FF1
S11359D06081CE010E948C2BFE01E152FF4F608159
S11359E0CE010E94DA2BCF51DF4F188281E0F801FB
S11359F08083DF91CF911F910F910895EF92FF92D1
S1135A000F931F93CF93DF93EC017901FC01E756C9
S1135A10FF4F7183608332965183408334961183A0
S1135A2000832617370718F04217530708F47B0141
S1135A30CE010E94AF2CFE01E356FF4FF182E082BB
S1135A40B701CE01DF91CF911F910F91FF90EF909D
S1135A500C94C229CF93DF93EC010E944829FE01E4
S1135A60E052FF4F9081FD97208132963081DE0114
S1135A70AC55BF4FF89680814C9140FB87F930FBC1
S1135A8086F98F7D20FB84F9807F80833196908313
S1135A90E654F10980E2808375968081807C83607E
S1135AA0808333961082319681E08083CE010E94F8
S1135AB0EC2BFE01E152FF4F6081CE010E94DA2BF4
S1135AC0FE01EF51FF4F1082CE010E94DC25CF551D
S1135AD0DF4F1882DF91CF910895EF92FF920F93D9
S1135AE01F93CF93DF93EC017901FC01E756FF4F3D
S1135AF0718360833296518340833496118300838B
S1135B002617370718F04217530708F47B01CE0114
S1135B100E942A2DFE01E356FF4FF182E082B70175
S1135B20CE01DF91CF911F910F91FF90EF900C94D4
S1135B30C229CF92DF92EF920F931F93CF93DF93FB
S1135B406C01D62F142FC22F0E942E29C370C29528
S1135B50C07F1295110F110F107C0370802F880FD6
S1135B60880F012F0C2B9E2D9370082B092BD170BD
S1135B70F601E457FF4F6081718189E097E00E944C
S1135B806F2F62E170E089E097E00E94AE0960E067
S1135B9070E089E097E00E94AE0965E189E097E052
S1135BA00E94102F62E089E097E00E94102F602F7E
S1135BB089E097E00E94102F6D2F89E097E00E9402
S1135BC0102F89E097E00E94ED2F86E292E00E9478
S1135BD02E24C601DF91CF911F910F91EF90DF909A
S1135BE0CF900C943F26AF92BF92CF92DF92EF9268
S1135BF0FF920F931F93CF93DF93FC01E856FF4F5F
S1135C003081303209F06FC0022FF42EE62EEC0101
S1135C10359680819181209107073091080782177A
S1135C20930769F09093080780930707CE010E94B9
S1135C301126CE010E941F26CE010E942F26CE01DE
S1135C400E942E2910E0E0FA10F9F0FA11F900FB95
S1135C5012F97E018CE8E80EF11CF7016081718174
S1135C6089E097E00E946F2F64E270E089E097E09A
S1135C700E94AE09612F89E097E00E94102F89E00D
S1135C8097E00E94ED2F5E01F8EDAF0EB11CCE013E
S1135C900E942E29F701608171814DE050E089E076
S1135CA097E00E94E82F8E0105531F4F680189E099
S1135CB097E00E94892EF80181938F01EA15FB0574
S1135CC0B1F7F601808186FDE2CF86E292E0DF91B2
S1135CD0CF911F910F91FF90EF90DF90CF90BF90E5
S1135CE0AF900C942E24DF91CF911F910F91FF90D0
