S016000041726475696E6F5F5369343733352E737265634E
S11300000C94C9000C94F1000C94F1000C94F100D0
S11300100C94F1000C94F1000C94F1000C94F10098
S11300200C94F1000C940D0A0C94F1000C94E90961
S11300300C94F1000C94F1000C94F1000C94F10078
S11300400C9483230C94F1000C94F1000C94F100B3
S11300500C94F1000C94F1000C94F1000C94F10058
S11300600C9499320C94F100170306030600000067
S11300700000090911160000030F060A060A000011
S113008000000000010B1100010309050C05090023
S1130090000000050D0D1515000003080307171EC9
S11300A00307090D0005050F0F010000070B100BD6
S11300B010000000000107070D0D00000105030AF0
S11300C00E18030A040900101C283001010004075B
S11300D0131738071307130C18000C180101000339
S11300E0050C0F1E050C040B00101525250101003D
S11300F01C050C1122050C050C000D1A222A010105
S11301000002050C1122050C050C00000000000182
S1130110010002050C1122050C050C001010202012
S1130120010100010F15070B070B070B0F14000F3C
S1130130140001000000000800020100000304078D
S113014000000000000000000102040810204080AC
S1130150010204081020010204081020040404040D
S1130160040404040202020202020303030303035D
S113017000000000230026002900000000002500E4
S113018028002B0000000000240027002A00800A19
S1130190F62F11241FBECFEFD8E0DEBFCDBF14E091
S11301A0A0E0B1E0E6ECF9E602C005900D92AC33B4
S11301B0B107D9F727E0ACE3B4E001C01D92A33C3A
S11301C0B207E1F710E0C9ECD0E004C02197FE01CA
S11301D00E943734C73CD107C9F70E941F230C94EF
S11301E0E1340C94000090917204409161049111E7
S11301F005C04F3019F480937304C1C050916A0450
S11302009517F8F020916B049217D8F4E0917004DC
S1130210282F30E06091560470915704EE2341F08A
S1130220E92FE51B02C0220F331FEA95E2F702C053
S1130230660F771F262B372B3093570420935604D1
S113024022C050916C049517F0F020916D04921720
S1130250D0F4E0917004282F30E060915404709140
S11302605504EE2341F0E92FE51B02C0220F331F92
S1130270EA95E2F702C0660F771F262B372B3093DF
S11302805504209354044C31C9F423EF290F2D3025
S113029008F075C0282F30E083EF890F02C0220FC9
S11302A0331F8A95E2F74091520450915304242B52
S11302B0352B309353042093520461C04330C9F466
S11302C02FEE290F243008F05AC0282F30E08FEE8B
S11302D0890F02C0220F331F8A95E2F74091500420
S11302E050915104242B352B309351042093500406
S11302F046C0453009F043C02CEE290F2430A0F449
S1130300282F30E048EF490F02C0220F331F4A95CF
S1130310E2F74091540450915504242B352B30932B
S113032055042093540413C028EE290F243068F494
S1130330282F4CEE490F01C0220F4A95EAF730915D
S11303404904232B2093490402C09033C0F4E92FBD
S1130350E695E695E695492F4770F0E0E65BFB4F9E
S113036021E030E001C0220F4A95EAF7882319F012
S11303708081282B03C020958081282320839F5FC0
S11303809093720408952C9824980895FC01809108
S11303906004882309F4AFC090915F04913109F49B
S11303A079C048F4933089F0973009F492C09230C0
S11303B009F0A3C031C0983109F495C0923309F40F
S11303C054C0973109F099C065C080915B04909145
S11303D05C0420915B0430915C04892F992720955B
S11303E0309533278217930709F0A7C080915B04E7
S11303F090915C04992790935C0480935B048091B2
S1130400590490915A0420915B0430915C04982F14
S11304108827822B932B58C080915B0490915C04B5
S113042020915B0430915C04892F992720953095A5
S113043033278217930741F180915D0490915E0404
S11304408E3E974871F48BE080935F0480915B0447
S113045090915C04892F992790935E0480935D04A6
S113046013C088E380935F0448C020915B043091FB
S11304705C0480915B0490915C04232F33279927BB
S11304802817390709F059C080915B0490915C04E6
S113049099271AC080915B0490915C0420915B04BD
S11304A030915C048695817091E08927217033270F
S11304B091E029272170821709F43FC080915B04E1
S11304C090915C049695879590935C0480935B046B
S11304D014C080915D0490915E048F7D90935E04BE
S11304E080935D040AC080915B0490915C048D3715
S11304F0910519F422C080E0089580915F048083FF
S113050080915D0490915E049283818380915B0469
S113051090915C049483838380915804858381E063
S113052010925C0410925B0410925E0410925D04BD
S11305301092580410926004089510925F0480E0B1
S1130540EFCFCF93DF9383B1909160049111A8C250
S113055080719091480491115DC09091470481117C
S113056004C09F5F909347049BC2992309F181E0E3
S113057080934804809346041092450410925504D5
S11305801092540410925704109256041092490485
S11305901092510410925004109253041092520479
S11305A09FEF90937204809344041092430478C2A2
S11305B080914104909142048F3F2FEF920709F4F8
S11305C06FC2019690934204809341048091040188
S11305D0909105018F3F6FEF960709F461C2019670
S11305E09093050180930401883E924008F458C218
S11305F080913F0490914004892B09F451C21092D8
S1130600400410923F048FEF9FEF90930501809375
S1130610040146C290914604992309F4BCC088237E
S113062089F0809144048F5F809344048A3E08F4E7
S113063019C280915F0410924804109247041092EA
S1130640440410C2109272048091470491EE980FF2
S11306509B3028F4909144049650953070F090911A
S11306605F04943169F490EB980F9F3648F49091AD
S113067044049A539C36F0F003C063E271E04AC02C
S113068022EA280F243558F49091440432ED390FAE
S11306903C3208F412C29751973108F406C2909183
S11306A05F04943151F4243540F4909144049550FE
S11306B0983018F462E171E02DC094EC980F9031F9
S11306C030F4909144049C53903108F465C297ED42
S11306D0980F983108F4F4C198ED980F973108F405
S11306E0F6C195EF980F963008F0F8C19091440444
S11306F025EF290F263008F0F6C190933E0481516E
S1130700803108F0F5C110923D0480E480934304E5
S11307106CEA70E080914804882331F041E150E0B4
S113072081E694E00E944C348091710490916104BC
S113073080FF1DC0973139F1993029F1209163046C
S113074040914404241760F450E030E0220F331F3A
S1130750241735072CF08695817091E0892711C004
S113076090913D0491110FC0869581700AC0983014
S113077051F4809144048751883010F481E001C021
S113078080E00E94F30081E08093470410924404C7
S11307901092460467C190914504992309F455C108
S11307A0882309F405C2209144042F5F2093440454
S11307B090916E048091720498130BC030916F0471
S11307C0313039F43091710430FDFDC22F3208F01C
S11307D04EC140916104413021F52C3008F4C1C070
S11307E08B3008F4BEC091E0980F90936E04282FCC
S11307F030E02B503109322F22274091560450917A
S11308005704242B352B309357042093560490918E
S11308106C04890F8F5F80936D048AE08093440495
S1130820C7C14F3009F058C030916F04311199C0DD
S1130830263218F19BEF980F9230F8F481E0809300
S11308406F0488E18093610487E080936E041092C2
S11308506A0410926B0410926C0480936D0480916E
S1130860540490915504880F991F20917304822B8E
S113087090935504809354049BC14091650430E0E7
S113088050E0440F551F241735072CF0883008F426
S1130890E9C08AE035C08A3008F4F7C080E180936B
S11308A0610489E080936A0491E190936B0491E080
S11308B090936C0480936D0480915404909155043A
S11308C09C0122273370232B09F4DFC09093560434
S11308D0109257049927B4C0473109F042C03091AF
S11308E06F0431113EC04091650430E050E0440F84
S11308F0551F241735073CF08F3008F4B3C081E14D
S113090080936E0449C0813108F4BFC081E18093B3
S1130910610410926A048BE080936B0480936C04EE
S113092086E180936D048091540490915504209144
S1130930560430915704220F331F220F331FAC018A
S1130940D6E056954795DA95E1F7242B352B30936D
S11309505704209356048F73992720913D04822BCA
S11309606FC03091710430FF1BC060916504E22FA9
S1130970F0E070E0660F771FE617F7078CF0E82FBA
S1130980F0E0692F70E062507109E617F70744F050
S113099030916F04311104C081E080936F0408C169
S11309A02A3E08F472C0682F70E0292F30E02150ED
S11309B031096217730741F490916F04911104C0D7
S11309C08F5F8093720461C0423009F4FFC14C31DF
S11309D039F010924804109247041092440460C005
S11309E0882309F4F5C1803209F042C291E0909362
S11309F06F0492E09093610480936E04809152049A
S1130A00909153049C01322F22273295330F307E6C
S1130A104091560450915704242B352B309357049E
S1130A20209356044091540420E030E0342F330FD7
S1130A30330FF3E096958795FA95E1F7822B932B84
S1130A40909355048093540420C0811106C0809172
S1130A5047048F5F8093470405C081E08093450479
S1130A60809344048091480481110FC019C080917F
S1130A70470490916604891708F4ABCF90916704FA
S1130A80981708F4A6CF10926F0490916E04809189
S1130A907204981305C080916F04882309F412C26C
S1130AA080916004DF91CF91089580915F04843137
S1130AB009F400CE61E071E02DCE60EF70E02ACE43
S1130AC0909144049952983108F469C005CE9091EC
S1130AD0440493519D3008F465C003CE9AEE980FF8
S1130AE09B3070F403CE2AEE290F2B3048F405CE48
S1130AF09151903108F407CE81E080933D0408CEF3
S1130B002DEF280F253058F49091440439EE390F15
S1130B10383008F44AC09950953008F446C09DED29
S1130B20980F9B3068F4909144049B50963040F4A5
S1130B3010923E0481E080933D046AE870E0EACDBF
S1130B408650853070F4809144049FED980F913164
S1130B5040F480933E0481E080933D0469E770E0B3
S1130B60D9CD2A3090F48091440499EF980F9530B0
S1130B7020F092EF980F993040F480933E0481E086
S1130B8080933D0468E670E0C5CD1092480410924D
S1130B90610460E070E0BECD6FED70E0BBCD6EEC43
S1130BA070E0B8CD6DEB70E0B5CD6BE970E0B2CD1F
S1130BB08091710480FF91C0C091470490916304B7
S1130BC09C1708F048C090916104993099F4909171
S1130BD07204943079F4CC3068F080916E048432DD
S1130BE029F481E00E94F30081E032C080E00E9499
S1130BF0F3001EC0D1E0869581708D270E94F3001A
S1130C00809161048930D1F4809172048430B1F40C
S1130C10CC30A0F081E00E94F30080916504209123
S1130C20440430E090E0880F991F821793071CF466
S1130C3010923D044DC0D0933D044AC0809171048C
S1130C40869581700E94F30080917104869581706D
S1130C5080933D043DC080916204C817A8F180913F
S1130C60650420913E0440913D04821768F430E00D
S1130C7090E0880F991F8217930734F081E04111A7
S1130C8080E080933D0401C0842F909161049930E9
S1130C90C1F4909172049130A1F4813091F494E202
S1130CA090936E0425E020936A0424E120936B045E
S1130CB025E120936C0490936D04109257041092D4
S1130CC056040E94F30004C0109248041092440495
S1130CD08091440480933E0429C080916104833050
S1130CE041F590917204903131F58091470485501B
S1130CF08830D8F58091440424EC280F203130F456
S1130D001092450481E1809372045BC02AE0209331
S1130D10610490936C0490E290936D0490936E043C
S1130D208F50803100F581E00E94F3001092450459
S1130D3048C08C31F9F0809147049091620489177E
S1130D4088F590916604891780F09091670498174C
S1130D5060F08091440490916804891730F0909178
S1130D606904981710F080E0DFCF109248041092C5
S1130D70440427C0809172048830E9F690914404B9
S1130D809E529C32C0F69BE19093610410926A04D7
S1130D9080936B0480936C0480E180936D04809352
S1130DA06E04C4CF90916304981758F29091440450
S1130DB020916404921728F220916504291708F2FF
S1130DC0B2CF81E047CE21115ECE03CD81112CC07C
S1130DD080914104909142048830974010F581E05D
S1130DE080936F0482E08093610410926E0480917A
S1130DF002019091030190935704809356048091CB
S1130E0000019091010190935504809354048091C2
S1130E105804816080935804109242041092410453
S1130E2034CE1092600431CE90EF980F923008F0D7
S1130E30D0CD21E020936F0494E1909361048093DA
S1130E406E048091560490915704AC01A4E0569529
S1130E504795AA95E1F750935504409354048F7035
S1130E6099279093570480935604209348040DCEF9
S1130E7090EF980F923008F0ACCD91E090936F040E
S1130E8094E19093610480936E0480915604909150
S1130E9057042091520440E050E0522F550F9C011A
S1130EA074E0369527957A95E1F7242B352B30930A
S1130EB05504209354048F7099279093570480937A
S1130EC05604E3CD60910001709101012091540416
S1130ED0309155046217730769F4409141045091AD
S1130EE04204403B544030F480913C048F5F809333
S1130EF03C0402C010923C0480916104813051F49E
S1130F0040913C044150423028F410924204109223
S1130F104104DAC041E0409360048830A1F5A9019E
S1130F20409550955370E0913F04F09140044E1762
S1130F305F07B9F45093550440935404109240044D
S1130F4010923F0480935F0480915604909157045B
S1130F5090935E0480935D0450935C0440935B041F
S1130F60B3C020FD09C03093400420933F04109285
S1130F7005011092040104C01092400410923F0431
S1130F8010926004A1C08F3029F42F3F314009F042
S1130F906DC0F6CF803169F44091560450915704E6
S1130FA04F3F510509F062C02E3F310509F05EC084
S1130FB0E7CF823011F5911159C02091410430914D
S1130FC0420428303740B0F42091020130910301EB
S1130FD0309357042093560470935504609354043B
S1130FE09091580491609093580410924204109286
S1130FF041043CC01092600439C0853079F53091C9
S11310004A0490914B04E0914C04232F2F703295A5
S11310103F703227292F2F70232792959F702927FD
S1131020022E000C330B4E2F4F7050E0241735075F
S113103011F01092600490914D049E2720914E046B
S1131040922720914F049213109260042091580427
S113105090914904922B9093580408C0893031F43C
S1131060943221F495E190935F0402C080935F046D
S1131070209156043091570430935E0420935D040C
S1131080823029F430930301209302010DC087308C
S113109059F4209143048091540490915504822B77
S11310A09093550480935404809154049091550472
S11310B090935C0480935B0480915004909151045C
S11310C090935A048093590480916004882351F1C9
S11310D02091540430915504409156045091570482
S11310E06217730799F480910201909103018417A8
S11310F0950761F480914104909142048A3C9840A0
S113110028F480915804816080935804509303011B
S11311104093020130930101209300011092420494
S113112010924104109248041092550410925404F1
S1131130109247041092440480915F04843109F0B2
S1131140AFCC87E880934704ABCCE7EAF5E0319174
S1131150DC012D91CD01321306C0B5E0E53BFB0760
S1131160B1F780E0089581E00895CF93DF93E09193
S11311700706F0910806309751F08081882339F0F2
S1131180DF010D900020E9F7AE1BA25001C0AFEFC4
S1131190CDEBD5E080E090E29993AF3F19F0A8172A
S11311A008F090838F5F31968034B1F78FB7F8944D
S11311B01092B8051092B7051092B6051092B505B5
S11311C08FBFDF91CF91089588E00E941525892B68
S11311D061F081E10E941525892B49F481E0909109
S11311E0A306903229F480E0089583E0089582E014
S11311F008950F931F93CF93DF9300D000D01F92D5
S1131200CDB7DEB70E94E40881111BC042E050E074
S113121063E070E0CE0101960E9497340091A80625
S11312201091A90689819A818017910751F0602F46
S113123083E090E00E94B734612F84E090E00E9444
S1131240B7340E94E4088130D9F442E050E061E010
S113125070E0CE0101960E9497340091A806109187
S1131260A90689819A818017910751F0602F81E046
S113127090E00E94B734612F82E090E00E94B7347E
S113128041E050E060E070E0CE0105960E949734A2
S11312900E94E4089D81891739F00E94E408682FB0
S11312A080E090E00E94B73441E050E065E070E0F7
S11312B0CE0104960E9497346091AD018C81681729
S11312C021F085E090E00E94B734609114017091A0
S11312D0150141E050E0CE0103960E9497346091DD
S11312E09D05262F30E08B8190E02817390731F0D7
S11312F080911401909115010E94B73441E050E0AF
S113130066E070E0CE0101960E94973460919205E8
S11313108981681721F086E090E00E94B7340F902D
S11313200F900F900F900F90DF91CF911F910F911D
S11313300895CF93DF93EB0146E050E0BC0181EACE
S113134095E00E94C93486E0E1EAF5E0DE0101900F
S11313500D928A95E1F7DF91CF910895DC01ED912B
S1131360FC910190F081E02D099464E470E089EF30
S113137096E00E94752F66E070E089EF96E00E9487
S1131380AE0960E070E089EF96E00E94AE0989EF53
S113139096E00E94F32F60E089E00C94E62464E474
S11313A070E089EF96E00E94752F66E070E089EFA7
S11313B096E00E94AE0961E070E089EF96E00E9439
S11313C0AE0989EF96E00E94F32F61E089E00C9466
S11313D0E6241F920F920FB60F9211242F933F937E
S11313E04F935F936F937F938F939F93AF93BF9329
S11313F0EF93FF930E94A102FF91EF91BF91AF91F0
S11314009F918F917F916F915F914F913F912F9118
S11314100F900FBE0F901F9018951F920F920FB64A
S11314200F9211242F933F934F935F936F937F9366
S11314308F939F93AF93BF93EF93FF93809109068C
S11314408C3408F447C01092090681E080930A06A0
S11314508093BC050E94E408833069F48091970569
S1131460853218F0109297053AC0809197058F5FE6
S11314708093970534C08091B905882381F18091C8
S1131480B605833030F48091B6058F5F8093B6053E
S113149026C08091B8052091B70590E00D9630E004
S11314A08217930734F48091B8058F5F8093B80551
S11314B016C08091B505823030F48091B5058F5FF8
S11314C08093B5050CC01092B8051092B605109221
S11314D0B50505C0809109068F5F80930906FF91C9
S11314E0EF91BF91AF919F918F917F916F915F9198
S11314F04F913F912F910F900FBE0F901F90189511
S11315008BE096E00C943E25CF93DF93CDB7DEB706
S113151027970FB6F894DEBF0FBECDBFA8959FE006
S113152088E10FB6F894A895809360000FBE90935D
S1131530600040E553EC60E070E089EF96E00E94C3
S1131540672F61E088E00E94AA2461E089E00E949C
S1131550AA2462E08BE00E94AA2460E08CE00E944E
S1131560AA2461E081E10E94AA240E94C30110928E
S113157080001092810010928500109284001092D5
S113158089001092880010928B0010928A001092A9
S11315906F0016BA84E395E09093890080938800E5
S11315A089E08093810082E080936F001092B00004
S11315B01092B1001092B2001092B3001092B400D5
S11315C01092700017BA1092B60013BC809170008C
S11315D08160809370008091B10087608093B10036
S11315E07894A89540E06AE08BE096E00E94A12CF4
S11315F08CEB92E090939C0680939B0684E690E0AB
S113160090939A068093990642E050E063E070E07C
S1131610CE0103960E9497348B819C819C012E52AB
S113162032422330384010F08EE292E290939F01D0
S113163080939E0142E050E061E070E0CE010196AB
S11316400E94973489819A819C0123513240233925
S1131650344010F083E192E090939D0180939C01CB
S113166041E050E065E070E0CE0107960E949734B7
S11316708F81803408F084E18093AD01609114017E
S11316807091150141E050E0CE0106960E94973416
S113169081E09E81913009F080E080939D0541E0D6
S11316A050E066E070E0CE0105960E9497348D818B
S11316B08F3F09F487E78093920564E470E089EF33
S11316C096E00E94752F60E070E089EF96E00E943A
S11316D0AE0960E070E089EF96E00E94AE0989EF00
S11316E096E00E94F32F64E470E089EF96E00E9494
S11316F0752F61E070E089EF96E00E94AE0960E02A
S113170070E089EF96E00E94AE0989EF96E00E94AE
S1131710F32F64E470E089EF96E00E94752F62E095
S113172070E089EF96E00E94AE0968E570E089EF09
S113173096E00E94AE0989EF96E00E94F32F64E4DC
S113174070E089EF96E00E94752F63E070E089EF06
S113175096E00E94AE096091AD0189EF96E00E9487
S1131760162F89EF96E00E94F32F64E470E089EF6E
S113177096E00E94752F64E070E089EF96E00E9485
S1131780AE096091AD0189EF96E00E94162F89EFB2
S113179096E00E94F32F64E470E089EF96E00E94E3
S11317A0752F65E070E089EF96E00E94AE096091C4
S11317B0920589EF96E00E94162F89EF96E00E9429
S11317C0F32F0E94B50964E470E089EF96E00E946B
S11317D0752F67E070E089EF96E00E94AE0960E83B
S11317E070E089EF96E00E94AE0989EF96E00E94CE
S11317F0F32F60919A0170919B0146E050E08AE8D2
S113180095E00E949734609198017091990142E0AB
S113181050E088E895E00E949734609196017091B9
S1131820970142E050E086E895E00E949734609189
S113183094017091950146E050E080E895E00E94A3
S11318409734609192017091930142E050E08EE7E9
S113185095E00E949734609190017091910142E06B
S113186050E08CE795E00E94973460918E0170916E
S11318708F0146E050E086E795E00E94973460913E
S11318808C0170918D0142E050E084E795E00E9464
S1131890973460918A0170918B0142E050E082E7B5
S11318A095E00E949734609188017091890146E027
S11318B050E08CE695E00E94973460918601709127
S11318C0870142E050E08AE695E00E9497346091F7
S11318D084017091850142E050E088E695E00E9421
S11318E09734609182017091830146E050E082E672
S11318F095E00E949734609180017091810142E0EB
S113190050E080E695E00E94973460917E017091EA
S11319107F0142E050E08EE595E00E9497346091AB
S11319207C0170917D0146E050E088E595E00E94DD
S1131930973460917A0170917B0142E050E086E532
S113194095E00E949734609178017091790142E0AA
S113195050E084E595E00E9497346091760170919F
S1131960770146E050E08EE495E00E949734609160
S113197074017091750142E050E08CE495E00E949E
S11319809734609172017091730142E050E08AE4EF
S113199095E00E949734609170017091710146E066
S11319A050E084E495E00E94973460916E01709158
S11319B06F0142E050E082E495E00E949734609128
S11319C06C0170916D0142E050E080E495E00E946A
S11319D0973460916A0170916B0146E050E08AE3AC
S11319E095E00E949734609168017091690142E02A
S11319F050E088E395E00E9497346091660170910D
S1131A00670142E050E086E395E00E9497346091DC
S1131A1064017091650146E050E080E395E00E9426
S1131A209734609162017091630142E050E08EE26C
S1131A3095E00E949734609160017091610142E0E9
S1131A4050E08CE295E00E94973460915E017091C1
S1131A505F0146E050E086E295E00E949734609191
S1131A605C0170915D0142E050E084E295E00E94E7
S1131A70973460915A0170915B0142E050E082E238
S1131A8095E00E949734609158017091590146E0A5
S1131A9050E08CE195E00E9497346091560170917A
S1131AA0570142E050E08AE195E00E94973460914A
S1131AB054017091550142E050E088E195E00E94A4
S1131AC09734609152017091530146E050E082E1F5
S1131AD095E00E949734609150017091510142E069
S1131AE050E080E195E00E94973460914E0170913E
S1131AF04F0142E050E08EE095E00E9497346091FF
S1131B004C0170914D0146E050E088E095E00E9460
S1131B10973460914A0170914B0142E050E086E0B5
S1131B2095E00E949734609148017091490142E028
S1131B3050E084E095E00E949734609146017091F2
S1131B40470146E050E08EEF94E00E9497346091A4
S1131B5044017091450142E050E08CEF94E00E9412
S1131B609734609142017091430142E050E08AEF62
S1131B7094E00E949734609140017091410146E0E5
S1131B8050E084EF94E00E94973460913E0170919C
S1131B903F0142E050E082EF94E00E94973460916C
S1131BA03C0170913D0142E050E080EF94E00E94DE
S1131BB0973460913A0170913B0146E050E08AEE1F
S1131BC094E00E949734609138017091390142E0A9
S1131BD050E088EE94E00E94973460913601709151
S1131BE0370142E050E086EE94E00E949734609121
S1131BF034017091350146E050E080EE94E00E949B
S1131C009734609132017091330142E050E08EEDDF
S1131C1094E00E949734609130017091310142E068
S1131C2050E08CED94E00E94973460912E01709105
S1131C302F0146E050E086ED94E00E9497346091D5
S1131C402C0170912D0142E050E084ED94E00E945B
S1131C50973460912A0170912B0142E050E082EDAB
S1131C6094E00E949734609128017091290146E024
S1131C7050E08CEC94E00E949734609126017091BE
S1131C80270142E050E08AEC94E00E94973460918E
S1131C9024017091250142E050E088EC94E00E9418
S1131CA09734609122017091230146E050E082EC68
S1131CB094E00E949734609120017091210146E0E4
S1131CC050E08CEB94E00E94973460911E01709177
S1131CD01F0146E050E086EB94E00E949734609147
S1131CE01C0170911D0146E050E080EB94E00E94DD
S1131CF0973460911A0170911B0146E050E08AEA22
S1131D0094E00E949734609118017091190146E0A3
S1131D1050E084EA94E00E94973460911601709137
S1131D20170146E050E08EE994E00E9497346091F8
S1131D3012017091130146E050E088E994E00E949A
S1131D409734609110017091110146E050E082E9EE
S1131D5094E00E94973460910E0170910F0146E067
S1131D6050E08CE894E00E94973460910C017091EB
S1131D700D0146E050E086E894E00E9497346091BB
S1131D800A0170910B0146E050E080E894E00E9463
S1131D909734609108017091090146E050E08AE7A8
S1131DA094E00E949734609106017091070146E027
S1131DB050E084E794E00E949734A89568EE73E0BD
S1131DC080E090E00E94F823A89581E080939A0532
S1131DD027960FB6F894DEBF0FBECDBFDF91CF912B
S1131DE00895CF93C8E041E050E06AE770E089EFDE
S1131DF096E00E94EE2F813069F489EF96E00E940C
S1131E008F2E853A39F0A89588EC90E00E9434240E
S1131E10C15049F7CF910895E7EAF5E080E2819354
S1131E2095E0E53BF907D9F70E94F10E6AE770E007
S1131E3089EF96E00E94752F67E070E089EF96E0E5
S1131E400E94AE0989EF96E00E94F32F61E070E0F2
S1131E5080E090E00C94F823CF93C82F0E94F10EF9
S1131E606AE770E089EF96E00E94752F64E070E005
S1131E7089EF96E00E94AE096C2F70E089EF96E03E
S1131E800E94AE0989EF96E00E94F32F61E070E0B2
S1131E9080E090E0CF910C94F823CF93DF93C82F88
S1131EA0D62F0E94F10E6AE770E089EF96E00E9457
S1131EB0752F61E070E089EF96E00E94AE096C2F07
S1131EC070E089EF96E00E94AE096D2F89EF96E0ED
S1131ED00E94162F89EF96E00E94F32F61E070E0D4
S1131EE080E090E0DF91CF910C94F823CF93C82F3A
S1131EF00E94E408811105C0C33141F480919C051E
S1131F0009C00E94E408813039F4F6CFC43121F4C9
S1131F1080919B0581111FC00E94F10E6AE770E059
S1131F2089EF96E00E94752F62E070E089EF96E0F9
S1131F300E94AE096C2F70E089EF96E00E94AE0912
S1131F4089EF96E00E94F32F61E070E080E090E07A
S1131F50CF910C94F823CF910895CF93C82F0E946A
S1131F60E408811105C0C33141F480919C0509C086
S1131F700E94E408813039F4F6CFC43121F4809111
S1131F809B058823F9F00E94F10E6AE770E089EF5F
S1131F9096E00E94752F63E070E089EF96E00E945E
S1131FA0AE096C2F70E089EF96E00E94AE0989EFCC
S1131FB096E00E94F32F61E070E080E090E0CF9122
S1131FC00C94F823CF9108956FE78BE096E00E947C
S1131FD0DA2B83E10E94AD0F81E080939D050E947E
S1131FE0C92360939305709394058093950590930A
S1131FF096050895CF93DF93E0910506F0910606C8
S1132000309751F08081882339F0DF010D90002052
S1132010E9F7AE1BA25001C0AFEFCDEFD5E080E0F1
S113202090E29993AF3F19F0A81708F090838F5F5F
S113203031968830B1F71092B9050E94B50885E051
S11320400E94AD0F82E2DF91CF910C94AD0FCF933C
S1132050DF93E62FF0E0E955FA4F9081981741F1AC
S1132060D62FC82F80830E94F10E6AE770E089EFB3
S113207096E00E94752F60E070E089EF96E00E9480
S1132080AE096C2F70E089EF96E00E94AE096D2FC7
S113209089EF96E00E94162F89EF96E00E94F32FB5
S11320A061E070E080E090E0DF91CF910C94F82340
S11320B0DF91CF910895EF92FF920F931F93CF93E7
S11320C0DF937C010E94A508882391F10E94F10E00
S11320D06AE770E089EF96E00E94752F6AE070E08D
S11320E089EF96E00E94AE0907EA15E0E7018EE069
S11320F0E80EF11CFE018991D8018D938D01608158
S113210070E089EF96E00E94AE09CE15DF0591F7E5
S113211089EF96E00E94F32F61E070E080E090E0A8
S1132120DF91CF911F910F91FF90EF900C94F823C2
S1132130DF91CF911F910F91FF90EF9008958EEA58
S113214091E00C945B100E94FA0F8DEB91E00E94D9
S11321505B1083E10E94AD0F84E10E94AD0F8BE020
S113216096E00E944E2961E081E10E94E62464E445
S113217070E089EF96E00E94752F60E070E089EFCF
S113218096E00E94AE0961E070E089EF96E00E945B
S1132190AE0989EF96E00E94F32F64E470E089EFC2
S11321A096E00E94752F61E070E089EF96E00E944E
S11321B0AE0967E070E089EF96E00E94AE0989EF0E
S11321C096E00E94F32F0E94F10E6AE770E089EF17
S11321D096E00E94752F66E070E089EF96E00E9419
S11321E0AE0989EF96E00E94F32F61E070E080E091
S11321F090E00C94F8230E94F10E6AE770E089EFF6
S113220096E00E94752F6CE070E089EF96E00E94E2
S1132210AE098091AD016FE370E0681B710989EF2D
S113222096E00E94AE0989EF96E00E94F32F61E0E8
S113223070E080E090E00C94F823E7EAF5E080E2B7
S1132240819395E0E53BF907D9F70E94F10E6AE71F
S113225070E089EF96E00E94752F65E070E089EFE9
S113226096E00E94AE0989EF96E00E94F32F61E0A8
S113227070E080E090E00C94F82381E080930A06FB
S11322808FEF9FEF9093AC018093AB019093AA01E1
S11322908093A9019093A6018093A5019093A8012E
S11322A08093A7019093A4018093A3019093A2012A
S11322B08093A1010E94E408833011F40C941D1151
S11322C0089510929F051092A0050E941D110E946E
S11322D03D110E94FA0F0E94E408833089F00E94A5
S11322E0E408811102C00C949F100E94E40881301C
S11322F019F48CEC91E002C08DEB91E00C945B102E
S11323000895CF92DF92EF92FF920F931F93CF9392
S1132310DF93CDB7DEB728970FB6F894DEBF0FBEB4
S1132320CDBF0E94E408882329F00E94E40881308C
S113233009F0CBC00091A8061091A9060E94E408F8
S11323409E01295F3F4F790181114FC0003127E27F
S113235012076CF0C80160E177E20E94F633CB010A
S11323604AE0B7010E946234FC01808101C080E22E
S11323708983C80160E177E20E94F63348EEC42EF7
S113238043E0D42EB6010E94F633CB014AE0B701F4
S11323900E946234FC0180818A83C801B6010E94D4
S11323A0F63354E6C52ED12CB6010E94F633CB0188
S11323B04AE0B7010E946234FC0180818B83C8012A
S11323C0B6010E94F6336AE070E00E94F633CB0156
S11323D04AE0B7010E946234FC0180818C8386E468
S11323E08D8389E00E94760F48C0083EF3E01F0702
S11323F06CF0C80168EE73E00E94F633CB014AE04A
S1132400B7010E946234FC01808101C080E28983AB
S1132410C80168EE73E00E94F63324E6C22ED12C84
S1132420B6010E94F633CB014AE0B7010E94623440
S1132430FC0180818A83C801B6010E94F6333AE028
S1132440C32ED12CB6010E94F633CB014AE0B7016A
S11324500E946234FC0180818B83C801B6010E9412
S1132460F6334AE0B7010E946234FC0180818C8318
S113247081E48D8389E00E94AD0F8DE48E830E94F8
S1132480F10E6AE770E089EF96E00E94752F6BE029
S113249070E089EF96E00E94AE098E010F5F1F4F36
S11324A0F80161918F0170E089EF96E00E94AE0916
S11324B0E016F106A9F789EF96E00E94F32F61E098
S11324C070E080E090E00E94F82328960FB6F8941C
S11324D0DEBF0FBECDBFDF91CF911F910F91FF9053
S11324E0EF90DF90CF900895EF920F931F930E9487
S11324F09F100E94FA0F1092BB0560E081E10E94D8
S1132500E62420919E0130919F010AE010E040E30F
S11325105AE26EE272E28BE096E00E94732D82E052
S1132520E82E02E022E042E061E08BE096E00E94C7
S11325309F2D60E070E08BE096E00E94572A40E314
S11325405AE26EE272E28BE096E00E94BB2B6AE0F4
S113255070E08BE096E00E94D52B62E38BE096E07E
S11325600E94E02B64E470E089EF96E00E94752FEE
S113257060E070E089EF96E00E94AE0960E070E0F0
S113258089EF96E00E94AE0989EF96E00E94F32F4E
S113259064E470E089EF96E00E94752F61E070E0DA
S11325A089EF96E00E94AE0960E070E089EF96E062
S11325B00E94AE0989EF96E00E94F32F80919D0559
S11325C0882331F00E94E408811102C00E94E40FC4
S11325D01F910F91EF900C9481110F931F9360E062
S11325E081E10E94E6240E94FA0F8CEC91E00E94A3
S11325F05B1083E10E94AD0F84E10E94AD0F209136
S11326009C0130919D0109E010E045EA56E063E148
S113261072E08BE096E00E94042D45EA56E063E107
S113262072E08BE096E00E94A62B69E070E08BE0FC
S113263096E00E94D02B62E38BE096E00E94E02BB0
S113264064E470E089EF96E00E94752F60E070E02A
S113265089EF96E00E94AE0960E070E089EF96E0B1
S11326600E94AE0989EF96E00E94F32F64E470E0C3
S113267089EF96E00E94752F61E070E089EF96E0A3
S11326800E94AE0960E070E089EF96E00E94AE0916
S113269089EF96E00E94F32F1F910F910C94811102
S11326A0CF93DF93EC010E94E408811108C080916C
S11326B0A8069091A906C817D90731F42CC00E9426
S11326C0E408813041F5F3CF0E94E40881110AC087
S11326D0BE018BE096E00E94C829D0939F01C0936D
S11326E09E010DC00E94E408813049F4BE018BE0D4
S11326F096E00E94C829D0939D01C0939C010E943A
S113270081110E94C923609393057093940580936B
S1132710950590939605DF91CF9108951F93CF93DC
S1132720DF931F92CDB7DEB741E050E060E070E088
S1132730CE0101960E9497341981133008F010E0FD
S113274061E088E00E94E6240E940C0F0E94FA0FC8
S1132750123051F0111103C00E94741202C00E9481
S1132760ED120E94811102C00E94A31064E470E083
S113277089EF96E00E94752F60E070E089EF96E0A3
S11327800E94AE090E94E408882329F00E94E4080C
S113279061E0813009F460E070E089EF96E00E9426
S11327A0AE0989EF96E00E94F32F0E94CF090E94A0
S11327B0FB1088E20E94760F8AE10E94760F8CE17A
S11327C00E94760F0E94F10E6AE770E089EF96E0AE
S11327D00E94752F68E070E089EF96E00E94AE09D0
S11327E089EF96E00E94F32F61E070E080E090E0D2
S11327F00E94F8230F90DF91CF911F9108950F93BA
S11328001F93CF93DF938C01EB010E94E408833084
S113281039F40E948E130E94E40881110E947412FC
S11328200E94E408811102C0C80105C00E94E408A6
S1132830813039F4CE01DF91CF911F910F910C9427
S11328405013DF91CF911F910F910895CF92DF9292
S1132850EF92FF920F931F93CF93DF93CDB7DEB721
S113286060970FB6F894DEBF0FBECDBFA8958BE07E
S11328700E941525892B99F5A8958FE493EC01976F
S1132880F1F700C00000A8958BE00E941525892B64
S1132890E1F48091A00581110EC081E08093A00530
S11328A080939F058BED91E00E945B1085E00E9470
S11328B0AD0F82E208C0813041F40E94611187E0CB
S11328C00E94AD0F86E00E94AD0F9FE7ACEFBAE027
S11328D09150A040B040E1F700C00000A89580915D
S11328E09A05811115C08091980590919905883EAB
S11328F0EDEF9E0740F00E940C0F81E080939A0553
S11329000E943D1105C00196909399058093980506
S11329100E94E408833009F0F3C080910A068823FA
S113292009F4EEC080919A05882309F4E9C0109255
S11329300A0688E00E942C0F89E00E942C0F68E6AA
S113294070E089EF96E00E94752F60E070E089EFF7
S113295096E00E94AE0989EF96E00E94F32F20E0F2
S113296030E047E050E068E670E089EF96E00E94CE
S1132970F12F47E050E0BE016F5F7F4F89EF96E093
S11329800E945E239A81892F807786958695869505
S1132990282F220F220F820F9F70890F9B81292FCE
S11329A02073E22EE694E694E6942E2D220F220F55
S11329B0E20E9F70E90E9C819770F92E9D81292F5C
S11329C02073D22ED694D694D6942D2D220F220F76
S11329D0D20E9F70D90E9E8194FB112710F9110F0E
S11329E0212F220F220F120F9F70190F0F81902F8A
S11329F092959F700F70FAE09F9F000D1124282F6D
S1132A0030E04091AB015091AC012417350709F136
S1132A103093AC012093AB016AE00E94D633C92EF7
S1132A204AE0BE01615F7F4F90E00E94623463E040
S1132A30DC018C910E944D0F4AE0BE01615F7F4F23
S1132A408C2D90E00E94623464E0FC0180810E943D
S1132A504D0F8E2D90E02091A9013091AA0182178B
S1132A60930711F19093AA018093A9018E2D6AE036
S1132A700E94D633E92E4AE0BE01615F7F4F90E0A9
S1132A800E94623461E0DC018C910E944D0F4AE0A7
S1132A90BE01615F7F4F8E2D90E00E94623462E040
S1132AA0FC0180810E944D0F8F2D90E02091A501A3
S1132AB03091A6018217930711F00C947D208D2D7F
S1132AC090E02091A7013091A8018217930711F09B
S1132AD00C949F20812F90E02091A3013091A401B8
S1132AE08217930711F00C94C820802F90E0209156
S1132AF0A1013091A2018217930711F00C94F120E7
S1132B000E94E408833031F5809197059091A001EB
S1132B10981701F180919A058823E1F08091970537
S1132B20882311F40C941A218091970590E0019761
S1132B30FC01EA50FC4F80810E94AD0FE0919705A3
S1132B40F0E0EA50FC4F80810E94760F8091970557
S1132B508093A0010E94E408833009F449C0809165
S1132B60930590919405A0919505B0919605892BB4
S1132B708A2B8B2BB9F00E94C923009193051091E5
S1132B8094052091950530919605DC01CB01801BBD
S1132B90910BA20BB30B89389341A105B10510F039
S1132BA00C941E210E94E408811122C0809190059A
S1132BB090919105803AFFE09F07A9F41092910546
S1132BC0109290058BE096E00E941D2B80919D054C
S1132BD081110C942A218091C00687FF02C00C94B5
S1132BE042210C942A21019690939105809390059B
S1132BF00E94E40881116CC08091BC05882309F40B
S1132C0067C08091A005811163C01092BC0520E0CB
S1132C1040E060E08BE096E00E94F92D8091D706B9
S1132C2080FD02C00C9449219091D80690FD02C009
S1132C300C94492182FD02C00C9449218091BB056A
S1132C40811107C081E08093BB050E94FA0F0E94A6
S1132C501D118BE096E00E942B2790930806809329
S1132C6007068BE096E00E94FD269093060680936B
S1132C700506E0910706F0910806309711F40C94CC
S1132C80D8211092BA050DEB15E09F01205C3F4F4F
S1132C90D8018191803211F00C945B2111962E178A
S1132CA03F07B9F780E09091B90591110C946B211D
S1132CB0E0910506F0910606309711F00C94E3219B
S1132CC08091A1019091A201892B11F40C942022EE
S1132CD081EA95E00E94C601882311F40C940F2325
S1132CE0A89580919F05882309F47BC6813109F456
S1132CF0CEC478F5883009F466C2A0F4843009F4AF
S1132D0052C150F4823009F4C3C008F008C18130C4
S1132D1009F47AC00C940F23863009F4CCC108F46A
S1132D2086C10DC28C3009F45EC330F48A3009F4D4
S1132D30D2C208F48CC213C38E3009F4DCC308F485
S1132D4096C38F3009F41BC4803109F45CC40C941D
S1132D500F23843709F4E3C540F58F3609F4A7C57A
S1132D6050F4833109F41BC508F4D5C4843109F443
S1132D705AC50C940F23813709F4B5C508F4A5C5C9
S1132D80823709F4BEC5833711F00C940F236AEA25
S1132D9074E080911A0190911B010E94990984E7C3
S1132DA080939F0582E593E0B6C0883709F4E1C5B6
S1132DB098F4863709F4C1C508F0CDC56EE974E00E
S1132DC080911601909117010E94990986E78093DA
S1132DD09F0580E793E09FC08A3709F4E6C508F4AD
S1132DE0D6C58B3709F4EFC58C3711F00C940F233B
S1132DF064E774E080910601909107010E949909AB
S1132E000E9461110C940F236AE875E080919A0185
S1132E1090919B010E9499090E94E408811105C0C8
S1132E208091A8069091A90604C08091860590918E
S1132E30870590938705809386050E94E408813076
S1132E4029F48091A8069091A90604C08091880570
S1132E5090918905909389058093880560919601E6
S1132E607091970142E050E086E895E00E94A73413
S1132E70609198017091990142E050E088E895E0F2
S1132E800E94A73482E080939F058AEE91E043C0BC
S1132E9060E875E080919401909195010E949909F0
S1132EA00E94E408811105C08091A8069091A906AA
S1132EB004C080917C0590917D0590937D0580935D
S1132EC07C050E94E408813029F48091A806909141
S1132ED0A90604C080917E0590917F0590937F059B
S1132EE080937E05609190017091910142E050E0E1
S1132EF08CE795E00E94A734609192017091930150
S1132F0042E050E08EE795E00E94A73483E080938E
S1132F109F0589EF91E00E945B100C940F2366E7F4
S1132F2075E080918E0190918F010E9499090E9411
S1132F30E408811105C08091A8069091A90604C0F7
S1132F408091720590917305909373058093720537
S1132F500E94E408813029F48091A8069091A90682
S1132F6004C08091740590917505909375058093C4
S1132F70740560918A0170918B0142E050E082E710
S1132F8095E00E94A73460918C0170918D0142E01C
S1132F9050E084E795E00E94A73484E080939F0585
S1132FA088E092E0B8CF6CE675E08091880190915A
S1132FB089010E9499090E94E408811105C0809149
S1132FC0A8069091A90604C08091680590916905AE
S1132FD090936905809368050E94E408813029F480
S1132FE08091A8069091A90604C080916A059091E9
S1132FF06B0590936B0580936A05609184017091D1
S1133000850142E050E088E695E00E94A734609193
S113301086017091870142E050E08AE695E00E94C3
S1133020A73485E080939F0587E192E074CF62E640
S113303075E080918201909183010E9499090E9418
S1133040E408811105C08091A8069091A90604C0E6
S113305080915E0590915F0590935F0580935E0576
S11330600E94E408813029F48091A8069091A90671
S113307004C08091600590916105909361058093EF
S1133080600560917E0170917F0142E050E08EE521
S113309095E00E94A734609180017091810142E023
S11330A050E080E695E00E94A73486E080939F0577
S11330B086E292E030CF68E575E080917C019091E2
S11330C07D010E9499090E94E408811105C0809144
S11330D0A8069091A90604C08091540590915505C5
S11330E090935505809354050E94E408813029F497
S11330F08091A8069091A90604C0809156059091EC
S11331005705909357058093560560917801709107
S1133110790142E050E084E595E00E94A734609193
S11331207A0170917B0142E050E086E595E00E94CF
S1133130A73487E080939F0585E392E0ECCE6EE4AC
S113314075E080917601909177010E9499090E941F
S1133150E408811105C08091A8069091A90604C0D5
S113316080914A0590914B0590934B0580934A05B5
S11331700E94E408813029F48091A8069091A90660
S113318004C080914C0590914D0590934D0580931A
S11331904C05609172017091730142E050E08AE441
S11331A095E00E94A734609174017091750142E02A
S11331B050E08CE495E00E94A73488E080939F055A
S11331C084E492E0A8CE64E475E08091700190916B
S11331D071010E9499090E94E408811105C080913F
S11331E0A8069091A90604C08091400590914105DC
S11331F090934105809340050E94E408813029F4AE
S11332008091A8069091A90604C0809142059091EE
S11332104305909343058093420560916C0170913E
S11332206D0142E050E080E495E00E94A734609193
S11332306E0170916F0142E050E082E495E00E94DB
S1133240A73489E080939F0583E592E064CE6AE326
S113325075E080916A0190916B010E9499090E9426
S1133260E408811105C08091A8069091A90604C0C4
S113327080913605909137059093370580933605F4
S11332800E94E408813029F48091A8069091A9064F
S113329004C0809138059091390590933905809345
S11332A03805609166017091670142E050E086E361
S11332B095E00E94A734609168017091690142E031
S11332C050E088E395E00E94A7348AE080939F054C
S11332D082E692E020CE60E375E0809164019091F3
S11332E065010E9499090E94E408811105C080913A
S11332F0A8069091A90604C080912C0590912D05F3
S113330090932D0580932C050E94E408813029F4C4
S11333108091A8069091A90604C080912E059091F1
S11333202F0590932F0580932E0560916001709175
S1133330610142E050E08CE295E00E94A734609184
S113334062017091630142E050E08EE295E00E94D8
S1133350A7348BE080939F0581E792E0DCCD66E2A1
S113336075E080915E0190915F010E9499090E942D
S1133370E408811105C08091A8069091A90604C0B3
S11333808091220590912305909323058093220533
S11333900E94E408813029F48091A8069091A9063E
S11333A004C0809124059091250590932505809370
S11333B0240560915A0170915B0142E050E082E281
S11333C095E00E94A73460915C0170915D0142E038
S11333D050E084E295E00E94A7348CE080939F053E
S11333E080E892E098CD6CE175E08091580190916D
S11333F059010E9499090E94E408811105C0809135
S1133400A8069091A90604C0809118059091190509
S113341090931905809318050E94E408813029F4DB
S11334208091A8069091A90604C080911A059091F4
S11334301B0590931B0580931A05609154017091AC
S1133440550142E050E088E195E00E94A734609184
S113345056017091570142E050E08AE195E00E94E4
S1133460A7348DE080939F058FE892E054CD62E10C
S113347075E080915201909153010E9499090E9434
S1133480E408811105C08091A8069091A90604C0A2
S113349080910E0590910F0590930F0580930E0572
S11334A00E94E408813029F48091A8069091A9062D
S11334B004C080911005909111059093110580939B
S11334C0100560914E0170914F0142E050E08EE092
S11334D095E00E94A734609150017091510142E03F
S11334E050E080E195E00E94A7348EE080939F0530
S11334F08EE992E010CD68E075E080914C019091E6
S11335004D010E9499090E94E408811105C080912F
S1133510A8069091A90604C0809104059091050520
S113352090930505809304050E94E408813029F4F2
S11335308091A8069091A90604C0809106059091F7
S113354007059093070580930605609148017091E3
S1133550490142E050E084E095E00E94A734609184
S11335604A0170914B0142E050E086E095E00E94F0
S1133570A7348FE080939F058DEA92E0CCCC6EEF68
S113358074E080914601909147010E9499090E943C
S1133590E408811105C08091A8069091A90604C091
S11335A08091FA049091FB049093FB048093FA04B5
S11335B00E94E408813029F48091A8069091A9061C
S11335C004C08091FC049091FD049093FD048093C9
S11335D0FC04609142017091430142E050E08AEFA3
S11335E094E00E94A734609144017091450142E047
S11335F050E08CEF94E00E94A73480E180939F0513
S11336008CEB92E088CC64EF74E08091400190915F
S113361041010E9499090E94E408811105C080912A
S1133620A8069091A90604C08091F0049091F10439
S11336309093F1048093F0040E94E408813029F40B
S11336408091A8069091A90604C08091F2049091FB
S1133650F3049093F3048093F20460913C0170911D
S11336603D0142E050E080EF94E00E94A734609175
S11336703E0170913F0142E050E082EF94E00E94ED
S1133680A73481E180939F058BEC92E044CC6AEEF1
S113369074E080913A0190913B010E9499090E9443
S11336A0E408811105C08091A8069091A90604C080
S11336B08091E6049091E7049093E7048093E604F4
S11336C00E94E408813029F48091A8069091A9060B
S11336D004C08091E8049091E9049093E9048093F4
S11336E0E804609136017091370142E050E086EEC3
S11336F094E00E94A734609138017091390142E04E
S113370050E088EE94E00E94A73482E180939F0504
S11337108AED92E000CC60EE74E0809134019091E7
S113372035010E9499090E94E408811105C0809125
S1133730A8069091A90604C08091DC049091DD0450
S11337409093DD048093DC040E94E408813029F422
S11337508091A8069091A90604C08091DE049091FE
S1133760DF049093DF048093DE0460913001709154
S1133770310142E050E08CED94E00E94A734609166
S113378032017091330142E050E08EED94E00E94EA
S1133790A73483E180939F0589EE92E0BCCB66ED6C
S11337A074E080912E0190912F010E9499090E944A
S11337B0E408811105C08091A8069091A90604C06F
S11337C08091D2049091D3049093D3048093D20433
S11337D00E94E408813029F48091A8069091A906FA
S11337E004C08091D4049091D5049093D50480931F
S11337F0D40460912A0170912B0142E050E082EDE3
S113380094E00E94A73460912C0170912D0142E054
S113381050E084ED94E00E94A73484E180939F05F6
S113382088EF92E078CB6CEC74E080912801909161
S113383029010E9499090E94E408811105C0809120
S1133840A8069091A90604C08091C8049091C90467
S11338509093C9048093C8040E94E408813029F439
S11338608091A8069091A90604C08091CA04909101
S1133870CB049093CB048093CA046091240170918B
S1133880250142E050E088EC94E00E94A734609166
S113389026017091270142E050E08AEC94E00E94F6
S11338A0A7348FE680939F0587E093E034CB62ECE6
S11338B074E080912201909123010E94990980E78C
S11338C080939F0586E193E026CB6CEB74E08091B6
S11338D02001909121010E94990981E780939F051D
S11338E085E293E018CB66EB74E080911E01909121
S11338F01F010E94990982E780939F0584E393E066
S11339000ACB60EB74E080911C0190911D010E9430
S1133910990983E780939F0583E493E0FCCA64EAF2
S113392074E080911801909119010E94990985E72A
S113393080939F0581E693E0EECA68E974E0809184
S11339401201909113010E94990987E780939F05C2
S11339508FE793E0E0CA62E974E0809110019091EE
S113396011010E94990988E780939F058EE893E0EE
S1133970D2CA6CE874E080910E0190910F010E940C
S1133980990989E780939F058DE993E0C4CA66E8A5
S113399074E080910C0190910D010E9499098AE7CD
S11339A080939F058CEA93E0B6CA60E874E0809146
S11339B00A0190910B010E9499098BE780939F055E
S11339C08BEB93E0A8CA6AE774E0809108019091B8
S11339D009010E9499098CE780939F058AEC93E082
S11339E09ACA46E050E060EB74E081EA95E00E94F8
S11339F05534892B09F50E94E408833019F40E9498
S1133A008E130DC610929E050E94F90883E10E9450
S1133A10AD0F8AE10E94AD0F8CE10E94AD0F0E94B0
S1133A20B5090E94E408882309F4C3C50E94E40888
S1133A30813009F0EFC5BDC50E94E408833009F464
S1133A40EEC546E050E062EC74E081EA95E00E9445
S1133A505534892B39F48091AD01882309F4DFC5ED
S1133A60815010C046E050E06CEB74E081EA95E0D0
S1133A700E945534892BB9F58091AD018F3308F03C
S1133A80CEC58F5F8093AD0164E470E089EF96E06A
S1133A900E94752F63E070E089EF96E00E94AE0902
S1133AA06091AD0189EF96E00E94162F89EF96E0B0
S1133AB00E94F32F64E470E089EF96E00E94752F72
S1133AC064E070E089EF96E00E94AE096091AD0178
S1133AD089EF96E00E94162F89EF96E00E94F32F5B
S1133AE00E94FB1039C146E050E066EB74E081EAC5
S1133AF095E00E945534892B09F580919E05882311
S1133B0071F084E20E94AD0F8AE10E94760F8CE18D
S1133B100E94760F0E94CF0910929E0580C584E210
S1133B200E94760F8AE10E94AD0F8CE10E94AD0FD6
S1133B300E94B50981E080939E0571C546E050E07E
S1133B406AEA74E081EA95E00E945534892B49F5CC
S1133B500E94B5090E94E40881110BC08091A80657
S1133B609091A90690939F0180939E010E94ED126B
S1133B7015C00E94E408813059F48091A806909100
S1133B80A90690939D0180939C010E94A31006C0F6
S1133B900E94E408823011F40E9474120E94CF093A
S1133BA0DBC046E050E06EE974E081EA95E00E94F3
S1133BB05534892BB1F480919D05882359F061E334
S1133BC08BE096E00E94DA2B83E10E94760F10923C
S1133BD09D05C2C00E94E408811121C50E94E40F22
S1133BE01EC546E050E062E974E081EA95E00E9477
S1133BF05534892B29F48BE096E00E947E2A0EC06E
S1133C0046E050E068E974E081EA95E00E945534AA
S1133C10892B39F48BE096E00E949D2A0E94811141
S1133C209BC046E050E066E874E081EA95E00E94BB
S1133C305534892BD9F420919205822F90E044E0E9
S1133C40959587954A95E1F7883009F4E8C487305B
S1133C5010F48F5F05C0873011F0815001C08EE0F1
S1133C602F70B0E18B9FC001112424C046E050E0C6
S1133C706CE874E081EA95E00E945534892BE1F404
S1133C8020919205822F90E034E0959587953A959E
S1133C90E1F7882309F4C3C4883010F4815005C0C7
S1133CA08E3011F08F5F01C087E02F70E0E18E9FAE
S1133CB0C0011124822B38C046E050E06AE774E06A
S1133CC081EA95E00E945534892B91F490919205F4
S1133CD0892F8F70883009F4A2C4873010F48F5F65
S1133CE005C0873011F0815001C08EE0907F1BC069
S1133CF046E050E060E874E081EA95E00E945534C3
S1133D00892BA9F590919205892F8F7009F487C4A6
S1133D10883010F4815005C08E3011F08F5F01C0DF
S1133D2087E0907F8F70892B8093920564E470E024
S1133D3089EF96E00E94752F65E070E089EF96E0C8
S1133D400E94AE096091920589EF96E00E94162FB9
S1133D5089EF96E00E94F32F0E94C9236093930594
S1133D6070939405809395059093960558C446E006
S1133D7050E064E774E081EA95E00E945534892BB1
S1133D80D1F40E94E40881114AC49091B90581E0FC
S1133D9089278093B9058091B905811107C00E94D4
S1133DA0FA0F0E941D110E949F1039C40E941D1118
S1133DB00E94B50834C446E050E064EA74E081EA45
S1133DC095E00E945534892BC9F40E94F10E6AE7EC
S1133DD070E089EF96E00E94752F6DE070E089EF46
S1133DE096E00E94AE0989EF96E00E94F32F61E00D
S1133DF070E080E090E00E94F82311C446E050E0B7
S1133E006AE875E081EA95E00E945534892B49F40B
S1133E106091880570918905809186059091870548
S1133E2069C146E050E060E875E081EA95E00E94EF
S1133E305534892B49F460917E0570917F058091FA
S1133E407C0590917D0556C146E050E066E775E03B
S1133E5081EA95E00E945534892B49F460917405F8
S1133E6070917505809172059091730543C146E088
S1133E7050E06CE675E081EA95E00E945534892BA8
S1133E8049F460916A0570916B0580916805909181
S1133E90690530C146E050E062E675E081EA95E0EC
S1133EA00E945534892B49F4609160057091610535
S1133EB080915E0590915F051DC146E050E068E584
S1133EC075E081EA95E00E945534892B49F46091AC
S1133ED056057091570580915405909155050AC176
S1133EE046E050E06EE475E081EA95E00E945534C6
S1133EF0892B49F460914C0570914D0580914A05D8
S1133F0090914B05F7C046E050E064E475E081EA27
S1133F1095E00E945534892B49F4609142057091D3
S1133F2043058091400590914105E4C046E050E08E
S1133F306AE375E081EA95E00E945534892B49F4DF
S1133F406091380570913905809136059091370557
S1133F50D1C046E050E060E375E081EA95E00E945C
S1133F605534892B49F460912E0570912F05809169
S1133F702C0590912D05BEC046E050E066E275E048
S1133F8081EA95E00E945534892B49F46091240517
S1133F90709125058091220590912305ABC046E0E0
S1133FA050E06CE175E081EA95E00E945534892B7C
S1133FB049F460911A0570911B0580911805909140
S1133FC0190598C046E050E062E175E081EA95E0A9
S1133FD00E945534892B49F46091100570911105A4
S1133FE080910E0590910F0585C046E050E068E091
S1133FF075E081EA95E00E945534892B49F460917B
S1134000060570910705809104059091050572C01D
S113401046E050E06EEF74E081EA95E00E9455348A
S1134020892B49F46091FC047091FD048091FA0499
S11340309091FB045FC046E050E064EF74E081EAD5
S113404095E00E945534892B49F46091F2047091F3
S1134050F3048091F0049091F1044CC046E050E0E8
S11340606AEE74E081EA95E00E945534892B49F4A4
S11340706091E8047091E9048091E6049091E7046A
S113408039C046E050E060EE74E081EA95E00E94B9
S11340905534892B49F46091DE047091DF048091DA
S11340A0DC049091DD0426C046E050E066ED74E047
S11340B081EA95E00E945534892B49F46091D40437
S11340C07091D5048091D2049091D30413C046E03A
S11340D050E06CEC74E081EA95E00E945534892B41
S11340E009F09DC26091CA047091CB048091C80408
S11340F09091C9040E94FF1392C29093A6018093E9
S1134100A5012091A00521110C945F15880F991F1A
S1134110FC01E65EFB4FE080F18060E0D7018C910A
S11341200E94271061E0F70181810E94271062E05C
S1134130D70112968C910E9427100C945F159093CE
S1134140A8018093A7018091A00581110C946A15A0
S11341508D2D6AE00E94D633F92E4AE0BE01615FDC
S11341607F4F90E00E94623464E0FC0180810E94F1
S113417027104AE0BE01615F7F4F8F2D90E00E94BF
S1134180623465E0DC018C910E9427100C946A155E
S11341909093A4018093A3018091A00581110C94B4
S11341A07515812F6AE00E94D633192F4AE0BE01AB
S11341B0615F7F4F90E00E94623467E0FC01808180
S11341C00E9427104AE0BE01615F7F4F812F90E07B
S11341D00E94623468E0DC018C910E9427100C94E8
S11341E075159093A2018093A1018091A00581117E
S11341F00C948015802F6AE00E94D633192F4AE070
S1134200BE01615F7F4F90E00E9462346CE0FC016C
S113421080810E9427104AE0BE01615F7F4F812F99
S113422090E00E9462346DE0DC018C910E942710C2
S11342300C94801585E290E00C94981510929305E7
S11342401092940510929505109296050E94F90813
S11342500C94D21583E10E94AD0F10929C058091BD
S1134260C2068C3140F084E10E94760F81E0809395
S11342709B050C94F81584E10E94AD0F10929B05E8
S11342800C94F81583E10E94760F81E080939C05DD
S1134290E6CF0E94FA0F1092BB058EEA91E00E94CD
S11342A0A508882311F40C9468160E941D110E941D
S11342B09F100C9468169C91903211F40C944E1635
S11342C0891711F40C944E16882311F40C944E168D
S11342D081E00C945316882321F00E94B5080E94B3
S11342E01D112091070630910806EDEFF5E0D90184
S11342F08D919D019EED980F9D3520F4D8019C91E0
S113430089138C930F5F1F4FE017F10781F78FB765
S1134310F8940091B8051091B7058FBF8FE390E032
S11343202291203211F0182F02C00197C8F71E30D5
S113433008F400E08FB7F8940093B8051093B7051C
S11343408FBFE02EF12CD701A354BA4FFE01319652
S11343509E01215F3F4FCF014D9141932E173F079F
S1134360D9F70E945B1085E0002319F00E94760FB4
S113437002C00E94AD0F61E070E080E090E00E9416
S1134380F823EDE0EE0EF11C812F90E0E816F9061B
S113439024F482E20E94760F03C082E20E94AD0FF1
S11343A061E070E080E090E00E94F8230C945816DD
S11343B08091BA05893010F00C9458168F5F809361
S11343C0BA050C9458168091D70684FD02C00C944B
S11343D060160DEF15E09F01285F3F4FD8018191D2
S11343E0803209F08C9311962E173F07C1F7809104
S11343F0B90581110C946016E5E0F6E087E090E0E1
S11344002291203219F40197D8F780E0282F30E068
S11344102F5F3F4F3595279580958170E12C97E06C
S1134420F92EF81AF21A6F2D6E0DD8018D918D01A7
S11344300E942710E394B8E0EB12F5CF0C946016B9
S11344406BEAE62E61E0F62E09EA11E027EA31E094
S113445043EA51E061EA71E08BE096E00E9435287E
S1134460882311F40C946816E090A701F090A80139
S11344700091A3011091A401E091A101F091A20186
S11344800330110528F46F0121E0C21AD10804C0D9
S11344906F0132E0C31AD10827E1209FC001219F98
S11344A0900D112469E070E00E94E233C701049684
S11344B09B01280F391FC601969587959695879578
S11344C0280F391FC60160E971E00E94E233260F0C
S11344D0371FC60164E670E00E94E233C901861BFF
S11344E0970B67E070E00E94E233AC01892B11F472
S11344F047E050E05093A6014093A501E05DF740EA
S1134500F093A201E093A10119828091AB019091F3
S1134510AC012AE030E0B9010E94E2336295607F89
S1134520862B8A838091A9019091AA01B9010E94E6
S1134530E2336295607F862B8B834C83C701B9017C
S11345400E94E2336295607F862B8D83C801B90196
S11345500E94E2336295607F862B8E83CF01B9017E
S11345600E94E2336295607F862B8F8368E670E059
S113457089EF96E00E94752F60E070E089EF96E085
S11345800E94AE098E010F5F1F4F7E0188E0E80E86
S1134590F11CD8016D918D0189EF96E00E94162FD0
S11345A0E016F106B1F789EF96E00E94F32F0C9420
S11345B068168BE096E00E944E290E94FA0F60E094
S11345C088E00E94E6240E940C0F10929C05109231
S11345D09B050E94F10E6AE770E089EF96E00E9465
S11345E0752F69E070E089EF96E00E94AE0989EFCB
S11345F096E00E94F32F61E070E080E090E00E947A
S1134600F82388E00E94760F89E00E94760F0E94CA
S11346103D1105C060E081E10E94E624D0CF6096A0
S11346200FB6F894DEBF0FBECDBFDF91CF911F91BF
S11346300F91FF90EF90DF90CF90089508950E941E
S113464046240E941E230E94840AC0E0D0E00E94F7
S113465026142097E1F30E940000F9CF0F931F93D3
S1134660CF93DF93EC010E94C923688779878A87F7
S11346709B87E881F9810284F385E02DCE010995B9
S113468097FF17C00E94C923088519852A853B8591
S1134690DC01CB01801B910BA20BB30B0C811D81A0
S11346A02E813F8180179107A207B30710F38FEF84
S11346B09FEFDF91CF911F910F910895CF92DF92D9
S11346C0EF92FF920F931F93CF93DF936C017A01C4
S11346D08B01C0E0D0E0CE15DF0559F0C6010E9481
S11346E02E2397FD05C0F80181938F012196F3CF06
S11346F07E01C701DF91CF911F910F91FF90EF9041
S1134700DF90CF9008951F920F920FB60F9211244D
S11347102F933F938F939F93AF93BF938091EF0613
S11347209091F006A091F106B091F2063091EE0658
S113473026E6230F2D3728F029EE230F0196A11D1D
S1134740B11D2093EE068093EF069093F006A0939C
S1134750F106B093F2068091F3069091F406A091CD
S1134760F506B091F6060196A11DB11D8093F306DE
S11347709093F406A093F506B093F606BF91AF911B
S11347809F918F913F912F910F900FBE0F901F908B
S113479018952FB7F8946091EF067091F006809108
S11347A0F1069091F2062FBF08959FB7F8944091B7
S11347B0F3065091F4066091F5067091F60686B5FD
S11347C0A89B06C08F3F21F04F5F5F4F6F4F7F4F15
S11347D09FBF762F652F542F44279A01AB01280FD2
S11347E0311D411D511DA3E0B0E00E942C340895F9
S11347F08F929F92AF92BF92CF92DF92EF92FF92ED
S11348006B017C010E94D5234B015C01C114D104CE
S1134810E104F10401F10E94FA2F0E94D523DC0186
S1134820CB0188199909AA09BB09883E9340A105BF
S1134830B10560F321E0C21AD108E108F10888EE5D
S1134840880E83E0981EA11CB11CC114D104E1049C
S1134850F10419F7DBCFFF90EF90DF90CF90BF907A
S1134860AF909F908F90089500000000000000001A
S11348708230910550F09C01220F331F220F331F09
S11348800797820F931F0197F1F70895789484B5E1
S1134890826084BD84B5816084BD85B5826085BD38
S11348A085B5816085BDEEE6F0E08081816080831E
S11348B0E1E8F0E010828081826080838081816001
S11348C08083E0E8F0E0808181608083E1EBF0E0C8
S11348D0808184608083E0EBF0E08081816080836C
S11348E0EAE7F0E080818460808380818260808355
S11348F08081816080838081806880831092C10080
S11349000895833081F028F4813099F08230A1F049
S113491008958730A9F08830B9F08430D1F48091BB
S113492080008F7D03C0809180008F77809380000A
S1134930089584B58F7702C084B58F7D84BD0895B2
S11349408091B0008F7703C08091B0008F7D8093F9
S1134950B0000895CF93DF9390E0FC01E85BFE4F35
S11349602491FC01E45AFE4F8491882361F190E084
S1134970880F991FFC01EC57FE4FC591D491FC019F
S1134980E658FE4FA591B491611109C09FB7F89400
S11349908881209582238883EC912E230BC062307A
S11349A061F49FB7F8948881322F309583238883EC
S11349B0EC912E2B2C939FBF06C08FB7F894E881FF
S11349C02E2B28838FBFDF91CF9108951F93CF9310
S11349D0DF93282F30E0F901EC5CFE4F8491F9015C
S11349E0E85BFE4FD491F901E45AFE4FC491CC2305
S11349F0C1F0162F81110E948124EC2FF0E0EE0FFC
S1134A00FF1FE658FE4FA591B4919FB7F89411117A
S1134A1004C08C91D095D82302C0EC91DE2BDC939A
S1134A209FBFDF91CF911F910895CF93DF93282FDC
S1134A3030E0F901EC5CFE4F8491F901E85BFE4F34
S1134A40D491F901E45AFE4FC491CC2391F0811121
S1134A500E948124EC2FF0E0EE0FFF1FE059FE4F7F
S1134A60A591B491EC91ED2381E090E021F480E0F4
S1134A7002C080E090E0DF91CF910895FC01E657F9
S1134A80FF4F108231961082319621E130E031835C
S1134A90208332962EE130E03183208332962AE05F
S1134AA030E031832083329640E45FE160E070E0DF
S1134AB040835183628373833F962FEF2083319623
S1134AC034E23083319631E030833196108231966E
S1134AD01082319640E050E851834083329641E0A1
S1134AE050E05183408332961082F59630E2308351
S1134AF0319635E0308332962083319710820895C1
S1134B00CF93DF93EC01C956DF4F61E088810E94A7
S1134B10AA246AE070E080E090E00E94F82360E05C
S1134B2088810E94E6246AE070E080E090E00E94C0
S1134B30F82361E088810E94E6246AE070E080E066
S1134B4090E0DF91CF910C94F823CF92EF920F93E2
S1134B50CF93DF93FC01DC01A352BF4F9C9160FB18
S1134B6097F940FB96F920FB95F900FB94F98E2DFB
S1134B708F70907F982B9C931196CC92DB970C931B
S1134B80EF01C856DF4F1A96E11005C080E2888312
S1134B908C91826004C080E488838C918D7F8C9397
S1134BA08C918160837C8C93DF01A055BF4F1C9254
S1134BB0EF54FF4F81E08083DF91CF910F91EF900D
S1134BC0CF90089584579F4FFC016081718189EFD4
S1134BD096E00E94752F62E170E089EF96E00E94F2
S1134BE0AE0960E070E089EF96E00E94AE096FEFD5
S1134BF070E089EF96E00E94AE0960E070E089EF12
S1134C0096E00E94AE0960E070E089EF96E00E94B1
S1134C10AE0960E070E089EF96E00E94AE0989EF8A
S1134C2096E00E94F32F84EC99E00C943424FC0168
S1134C309C012F5B3F4F40E24193E217F307E1F7FA
S1134C40FC01E05CFF4F10820895FC01EF5BFF4F15
S1134C509C012E593F4F40E24193E217F307E1F7DD
S1134C60FC01EF59FF4F10820895FC01EE59FF4FEC
S1134C709C0125593F4F40E24193E217F307E1F7C6
S1134C80FC01E659FF4F10820895CF93DF93EC01A6
S1134C900E941726CE010E942526CE010E943526A9
S1134CA0FE01E857FF4F118210823E9610827097E2
S1134CB011821082CC57DF4F19821882DF91CF9175
S1134CC00895CF92DF92EF92FF920F931F93CF93A9
S1134CD0DF9300D0CDB7DEB7FC01EA52FF4F20814D
S1134CE02A833197208129839E012F5F3F4F6901D9
S1134CF0FB018B010E5F1F4F20E030E050E2D60134
S1134D004D916D014D3051F4FC01E557FF4F41E0E9
S1134D104083FB01E20FF31F108211C04A30A1F35C
S1134D20403240F07B01E20EF31ED7014C932F5F1B
S1134D303F4F01C050833196E017F10701F70F9000
S1134D400F90DF91CF911F910F91FF90EF90DF9023
S1134D50CF900895CF92DF92EF92FF920F931F931B
S1134D60CF93DF9300D000D0CDB7DEB7FC01ED5276
S1134D70FF4F20812983319620812A833196208117
S1134D802B83319620812C839E012F5F3F4F690135
S1134D90FB01AB014C5F5F4FE12CF12C30E2D601FB
S1134DA02D916D012D3051F4FC01E657FF4F21E0A8
S1134DB02083FB01EE0DFF1D108212C02A30A1F3E7
S1134DC0203248F08B010E0D1F1DD8012C93BFEF2C
S1134DD0EB1AFB0A01C030833196E417F507F9F6A4
S1134DE00F900F900F900F90DF91CF911F910F9123
S1134DF0FF90EF90DF90CF900895CF93DF93FC0165
S1134E00E453FF4F208120FD03C080E090E020C0E8
S1134E10FC01EF52FF4F208122952F70B1F7EC0176
S1134E20319660816370EA54F10970E071836083A4
S1134E30660F771F6E597F4F6C0F7D1FCE010E9446
S1134E406126FE01E659FF4F1082CE018E599F4F15
S1134E50DF91CF910895CF93DF93FC01E453FF4F8B
S1134E60208120FD03C080E090E01CC0FC01EF52D3
S1134E70FF4F208122952F702230A9F7EC01319643
S1134E8060816F70EE54F10970E071836083660F86
S1134E90771F660F771F6C0F7D1FCE010E94AA2615
S1134EA01FAECE01DF91CF9108954F925F926F9222
S1134EB07F928F929F92AF92BF92CF92DF92EF92A6
S1134EC0FF920F931F93CF93DF93E90157016A0178
S1134ED07B012AEDC20E2AEAD21E25E2E21EF11C53
S1134EE0C701B60122E0660F771F881F991F2A9514
S1134EF0D1F721EB3AE342E050E00E940A34290161
S1134F003A0161EB7AE382E090E00E94C633DC016F
S1134F10CB010396A11DB11D32E0B695A7959795D7
S1134F2087953A95D1F7C81AD90AEA0AFB0AA70164
S1134F3096012F5F3F4F4F4F5F4FA0EABFE00E94A3
S1134F402C3429E03BE446E150E00E940A342883F3
S1134F5039834A835B838FE1C80ED11CE11CF11CA9
S1134F60A5EBB5E00E942C34DC01CB0142E0B69500
S1134F70A795979587954A95D1F7C81AD90AEA0A49
S1134F80FB0AA0E5B0E0A70196010E942C342FE8AB
S1134F9039E040E050E00E940A34F8012083318374
S1134FA042835383AFE8B9E00E942C3420E530E01B
S1134FB040E050E00E940A34C21AD30AE40AF50A17
S1134FC0F501C082D182E282F382F801808091806F
S1134FD0A280B380C501B4012BE030E040E050E092
S1134FE00E940A3469017A01F2E08F0E911CA11C1F
S1134FF0B11CACE0B0E00E942C34A5019401261B46
S1135000370B480B590BF8012083318342835383B8
S113501088819981AA81BB81C80ED91EEA1EFB1E14
S1135020F4E2CF1AF3E1DF0AE108F108A4E6B0E004
S1135030A30192010E942C34C60ED71EE81EF91E4D
S1135040C882D982EA82FB82DF91CF911F910F91AE
S1135050FF90EF90DF90CF90BF90AF909F908F9094
S11350607F906F905F904F9008952F923F924F9250
S11350705F926F927F928F929F92AF92BF92CF92E4
S1135080DF92EF92FF920F931F93CF93DF93CDB7ED
S1135090DEB764970FB6F894DEBF0FBECDBF7C8B2E
S11350A06B8BDA01AC014F525F4FFA01408142959C
S11350B04F70443009F0BEC0AC014E525F4FFA014C
S11350C04081BC016C527F4FFB01308061507109FB
S11350D0FB0150816D5F7F4FFB019080615071092E
S11350E0FB0180804370442E512C612C712C4FE0C5
S11350F0440C551C661C771C4A95D1F7432D4695E4
S1135100D52ED794DD24D7946D2D642B752F7695E9
S1135110AB0160E070E04429552966297729F82D10
S1135120FF70E4E0FE9F60011124792C7294769460
S11351307694E3E07E22F601E7293F0130FAAA24BF
S1135140A0F8B12CF4E0AA0CBB1CFA95E1F7829408
S1135150EFE08E22A828FCE3DF2EDA9C2001DB9C02
S1135160500C1124F92DFF71EEE1FE9F5001112422
S113517095FC04C0CC24C394D12C03C0CC24CA9481
S1135180DC2CCA9C4001CB9C900CDA9C900C112422
S11351906301C40CD51CC80CD91CD7FE09C0F0E6A9
S11351A0CF1AFAEFDF0A41505109610971090DC0A4
S11351B0E1EACE16E5E0DE0644F0F0EACF1AF5E0C7
S11351C0DF0A4F5F5F4F6F4F7F4F1701280139018F
S11351D04D01AB88BC889E01215F3F4F79018E0150
S11351E0055F1F4F285031090E945527C6016CE303
S11351F070E00E94E2338F819885F501918380836A
S11352008B859C85F401918380838F859889F30134
S113521091838083F201718360832CE3269FC00114
S1135220279F900D1124C81AD90AF101D182C08296
S113523081E001C080E064960FB6F894DEBF0FBE33
S1135240CDBFDF91CF911F910F91FF90EF90DF9031
S1135250CF90BF90AF909F908F907F906F905F9012
S11352604F903F902F900895CF93DF93EC01C45754
S1135270DF4F8CE291E00E9434246881798141E01F
S113528050E089EF96E00E94EE2F89EF96E00E94AD
S11352908F2E87FFEECFDF91CF910895CF93DF93C9
S11352A0EC01FC01EE51FF4F808187FD07C060E0F7
S11352B00E94E6248CE291E00E943424CE010E94F4
S11352C03429C457DF4F6881798189EF96E00E94C1
S11352D0752F61E170E089EF96E00E94AE0989EFD5
S11352E096E00E94F32F84EC99E0DF91CF910C9427
S11352F03424AF92BF92CF92DF92EF92FF920F933A
S11353001F93CF93DF93EC010E9434297E018CE834
S1135310E80EF11CF7016081718189EF96E00E942B
S1135320752F60E170E089EF96E00E94AE0989EF85
S113533096E00E94F32F5E01FBECAF0EB11CCE0190
S11353400E943429F7016081718149E050E089EFBE
S113535096E00E94EE2F8E010E531F4F680189EFD5
S113536096E00E948F2EF80181938F01EA15FB05C8
S1135370B1F7F601808186FDE2CFDF91CF911F91D5
S11353800F91FF90EF90DF90CF90BF90AF90089572
S11353908F929F92AF92BF92CF92DF92EF92FF9241
S11353A00F931F93CF93DF93EC017B010E94342969
S11353B0FE01E555FF4FF182E0825E018EEAA80E00
S11353C0B11CDE01A455BF4F8C91D5018C936E01A5
S11353D0BFEACB0ED11C8081F6018083F2968081D6
S11353E08E0103551F4F882359F0D8019C91829553
S11353F0880F880F807C9370892B81608D7F8C93BC
S1135400FE01E457FF4F6081718189EF96E00E94AD
S1135410752F4E01B8E98B0E911CF401608189EF60
S113542096E00E94162FD8016C9189EF96E00E94B5
S1135430162FF501608189EF96E00E94162FD601A0
S11354406C9189EF96E00E94162FFE01E055FF4F04
S1135450608189EF96E00E94162FF40180818034E8
S113546031F47996608189EF96E00E94162F89EFD6
S113547096E00E94F32FCE010E943429FE01E356E8
S1135480FF4FF182E082C257DF4F6881798180E06B
S113549090E0DF91CF911F910F91FF90EF90DF90FB
S11354A0CF90BF90AF909F908F900C94F823FC0105
S11354B0E355FF4F2081237C2083DC01A856BF4F96
S11354C03C91303441F0603C710508F060E0FC012F
S11354D0E055FF4F0BC0611538E1730740F42D7F91
S11354E02083FC01E055FF4F708331966083FC01FB
S11354F0E356FF4F608171810C94C829FC01E35687
S1135500FF4F20813181DC01A556BF4F4D915C9145
S113551011972417350720F012972D913C9107C05D
S1135520DC01A156BF4F4D915C91240F351F31838F
S11355302083608171810C94C829FC01E356FF4FDC
S113554020813181DC01A756BF4F4D915C911197A9
S11355504217530720F012962D913C9107C0DC01AD
S1135560A156BF4F4D915C91241B350B3183208391
S1135570608171810C94C829CF92DF92EF92FF92DF
S11355800F931F93CF93DF938C01D62FFC01E85622
S1135590FF4F8081803239F0803551F026E0E22ED1
S11355A0F12CC3E409C098E0E92EF12CC3E204C055
S11355B088E0E82EF12CC3E5C8010E943429680173
S11355C08CE8C80ED11CF6016081718189EF96E0E8
S11355D00E94752F6C2F89EF96E00E94162F6D2F75
S11355E089EF96E00E94162F89EF96E00E94F32F30
S11355F0C8010E943429F60160817181A70189EFF5
S113560096E00E94EE2FD12CCD2DD0E0CE15DF05F3
S11356105CF489EF96E00E948F2EC00FD11FCE5408
S1135620DF4F8883D394F0CFDF91CF911F910F91F7
S1135630FF90EF90DF90CF90089560E00C94BC2A27
S1135640EF92FF920F931F93CF93DF93EC01F62E0B
S1135650E72E142F052F0E943429C457DF4F688189
S1135660798189EF96E00E94752F62E170E089EFFD
S113567096E00E94AE0960E070E089EF96E00E9437
S1135680AE096E2D89EF96E00E94162F6F2D89EFDB
S113569096E00E94162F602F89EF96E00E94162F45
S11356A0612F89EF96E00E94162F89EF96E00E9401
S11356B0F32F86E292E0DF91CF911F910F91FF903B
S11356C0EF900C9434240F931F93CF93DF93EC014A
S11356D08B01AB0161E072E00E94202BCA55DF4FC1
S11356E019830883DF91CF911F910F910895FF9241
S11356F00F931F93CF93DF93EC018B01F42EAB0137
S113570062E072E00E94202BFE01E855FF4F1183F6
S11357100083C655DF4FF882DF91CF911F910F911F
S1135720FF90089524EF260F2F3478F4FC01EE55F2
S1135730FF4F608324E531E0629FA001639F500D19
S1135740112463E071E30C94202B08950F931F93AD
S1135750CF93DF93EC018A01AB0160E074E30E9414
S1135760202BA80161E074E3CE01DF91CF911F915A
S11357700F910C94202B0F931F93CF93DF93EC0185
S11357808A01AB0160E074E10E94202BA80161E072
S113579074E1CE01DF91CF911F910F910C94202BD6
S11357A0AB0162E074E30C94202BAB0162E074E182
S11357B00C94202B462F50E065E071E10C94202BD3
S11357C01F93CF93DF93EC01162F462F50E060E038
S11357D070E40E94202BC152DF4F1883DF91CF91D8
S11357E01F910895CF93DF93EC010E943429FE01A9
S11357F0E457FF4F6081718189EF96E00E94752F15
S113580061E070E089EF96E00E94AE09FE01E35288
S1135810FF4F608189EF96E00E94162FFE01E2524D
S1135820FF4F608189EF96E00E94162F89EF96E082
S11358300E94F32FCE010E943429FE01E057FF4F4E
S11358406081718180E090E00E94F823FE01EE51B6
S1135850FF4F808187FD07C061E00E94E6248CE24F
S113586091E00E943424FE01ED55FF4F80818111A7
S113587014C0339660817181CE010E94632BFE01B6
S1135880E655FF4FDE01A855BF4F6D917C914081D5
S1135890CE01DF91CF910C94772BDF91CF910895B6
S11358A0AF92BF92CF92DF92EF92FF920F931F932A
S11358B0CF93DF93EC01A62E142FB22EDE2CFC2CFA
S11358C089EF96E00E94552FFE01E956FF4FA08212
S11358D03D9681E0111101C080E08083FE01EB550B
S11358E0FF4FF082FB960083C02EEB2C0D2D20E0A1
S11358F04F2D612FCE010E94A525FE01EE51FF4FD1
S1135900808187FD07C060E00E94E6248CE291E07C
S11359100E943424CE010E948025CE010E94F22BE5
S11359206EE1CE010E94E02BCE01DF91CF911F9159
S11359300F91FF90EF90DF90CF90BF90AF900C94B9
S11359407929CF92EF920F93242FC12CEE24E39464
S113595005E040E00E94502C6AEF70E080E090E0A7
S11359600F91EF90CF900C94F8230F931F93CF9344
S1135970DF93EC018C010F551F4FF80180818130BA
S1135980C1F1CE010E944E29FE01E052FF4F9081E9
S1135990FD972081DE01A352BF4F8C913196308157
S11359A030FB87F98F7920FB84F9807F81608C93A9
S11359B0FA96908380E4E654F10980837596808199
S11359C0807C816080833396108281E0319680836D
S11359D0CE010E94F22BFE01EE55FF4F6081CE01F5
S11359E00E94922BFE01E152FF4F6081CE010E9482
S11359F0E02BCF51DF4F188281E0F8018083DF91E3
S1135A00CF911F910F910895EF92FF920F931F93DF
S1135A10CF93DF93EC017901FC01E756FF4F7183CB
S1135A206083329651834083349611830083261712
S1135A30370718F04217530708F47B01CE010E9480
S1135A40B52CFE01E356FF4FF182E082B701CE018F
S1135A50DF91CF911F910F91FF90EF900C94C82983
S1135A60CF93DF93EC010E944E29FE01E052FF4FD9
S1135A709081FD97208132963081DE01AC55BF4F75
S1135A80F89680814C9140FB87F930FB86F98F7D35
S1135A9020FB84F9807F808331969083E654F1095A
S1135AA080E2808375968081807C836080833396D6
S1135AB01082319681E08083CE010E94F22BFE0198
S1135AC0E152FF4F6081CE010E94E02BFE01EF51B5
S1135AD0FF4F1082CE010E94E225CF55DF4F18827E
S1135AE0DF91CF910895EF92FF920F931F93CF937D
S1135AF0DF93EC017901FC01E756FF4F718360836A
S1135B0032965183408334961183008326173707D6
S1135B1018F04217530708F47B01CE010E94302D80
S1135B20FE01E356FF4FF182E082B701CE01DF911F
S1135B30CF911F910F91FF90EF900C94C829CF92B1
S1135B40DF92EF920F931F93CF93DF936C01D62FC5
S1135B50142FC22F0E943429C370C295C07F12959E
S1135B60110F110F107C0370802F880F880F012FE5
S1135B700C2B9E2D9370082B092BD170F601E45742
S1135B80FF4F6081718189EF96E00E94752F62E179
S1135B9070E089EF96E00E94AE0960E070E089EF62
S1135BA096E00E94AE0965E189EF96E00E94162F07
S1135BB062E089EF96E00E94162F602F89EF96E04D
S1135BC00E94162F6D2F89EF96E00E94162F89EF01
S1135BD096E00E94F32F86E292E00E943424C601EC
S1135BE0DF91CF911F910F91EF90DF90CF900C94A4
S1135BF04526AF92BF92CF92DF92EF92FF920F931E
S1135C001F93CF93DF93FC01E856FF4F308130326E
S1135C1009F06FC0022FF42EE62EEC013596808138
S1135C2091812091F7063091F8068217930769F065
S1135C309093F8068093F706CE010E941726CE01B2
S1135C400E942526CE010E943526CE010E943429C9
S1135C5010E0E0FA10F9F0FA11F900FB12F97E01F4
S1135C608CE8E80EF11CF7016081718189EF96E000
S1135C700E94752F64E270E089EF96E00E94AE09FD
S1135C80612F89EF96E00E94162F89EF96E00E941B
S1135C90F32F5E01F8EDAF0EB11CCE010E94342942
S1135CA0F701608171814DE050E089EF96E00E9438
S1135CB0EE2F8E0105531F4F680189EF96E00E9475
S1135CC08F2EF80181938F01EA15FB05B1F7F601D8
S1135CD0808186FDE2CF86E292E0DF91CF911F9131
S1135CE00F91FF90EF90DF90CF90BF90AF900C9406
