:100000000C9437030C9454030C9454030C94540331
:100010000C9454030C9454030C9454030C94540304
:100020000C9454030C9454030C9454030C945403F4
:100030000C9454030C9454030C9454030C945403E4
:100040000C9454030C9454030C9454030C945403D4
:100050000C9454030C9454030C9454030C945403C4
:100060000C9475030C945403220428042E043404C5
:1000700039043E04430448044D04520466046604F3
:10008000660466046604660466045704660466042F
:10009000660466045C04660466046604660466041A
:1000A000660461043D0759076007B2070A0819078B
:1000B0001E072307D808D808FC06120756080000B8
:1000C000800000041000008000000090000080000C
:1000D000055208000080000552480000800005021B
:1000E0000000008000045248000080000452080014
:1000F000008000015200000080000512080000800E
:10010000000510480000800001020000008000058A
:1001100042480000800002A9040000800002A924D7
:1001200000008000028100000080000229240000FD
:1001300080000229040000800000A9000000800067
:1001400002890400008000028824000080000081F1
:10015000000000800002A1240000800000000100D7
:100160000088000000000000840000000000008201
:1001700000000000000081000000000000808000FE
:10018000000000008040000000000080200000000F
:100190000000801000000000008008000000000047
:1001A00080040000000000800200000000008001C8
:1001B000000000000080008000000000800040007F
:1001C00000000080002000000000800010000000FF
:1001D000008000080000000048000000000000440B
:1001E000000000000000420000000000004100008C
:1001F00000000000408000000000004040000000BF
:10020000000040200000000000401000000000003E
:100210002400000000000022000000000000210077
:1002200000000000002080000000000020400000CE
:10023000000000202000000000002010000000004E
:100240000018000000000000140000000000001270
:1002500000000000000011000000000000108000FD
:10026000000000001040000000000010200000000E
:10027000000010100000000000046336808A0000B7
:1002800007A3E8380A0000047F15100A000005B330
:1002900018C488000005B3188088000003A318B8AC
:1002A00088000003A3170088000007C2F0FC880044
:1002B000000783F8B88800000388423888000003EC
:1002C0008843008800000463F8A888000007A3E8BA
:1002D0003888000001084546A8000003A1E8C4884A
:1002E000000007C4447C8A00000228423A880000CB
:1002F0000108427C8A0000078210F88A000007C2C9
:1003000010853500000388421296000003E0E0B833
:100310008A000000000022A2000000C841108300F3
:1003200000010842108400000608411098000007F0
:10033000C4447C00000003A1E8C40000000454454C
:100340004400000002AB58C4000000011518C400AE
:10035000000005B318C400000002284238840000E1
:1003600003E0E0B8000000008423680000000421DE
:10037000E8F80000000042F8BC00000003A318B831
:10038000000000046319B4000000056B5AAC0000C3
:100390000003884210860000049465484200000172
:1003A0009284300800000388421804000004631996
:1003B000B421000003A1E8F80000000108471288FA
:1003C00000000383F8B800000007A318FA1000002B
:1003D000078210F800000003E318BC21000007A307
:1003E000E838000000000000208C000007C000007A
:1003F00000000000000045440000039084210E002E
:100400000000208208200000038421084E0000071D
:10041000C222221F00000108422A3100000462A209
:100420002A31000002AB5AC6310000011518C6314E
:10043000000003A318C6310000010842109F00000D
:1004400003A307062E0000045257C62F0000059391
:1004500058C62E0000004217C62F000003A318C67E
:100460002E000004639ACE31000004631AD7710095
:100470000007C21084210000045251953100000190
:100480009284211C0000038842108E000004631F28
:10049000C631000007A31E862E0000004217843FCD
:1004A000000007C217843F000001D318C5270000D1
:1004B00003A210862E000003E317C62F000004637A
:1004C000F8C54400000383DAF62E00000100444220
:1004D0002E0000008888208200000001F07C0000CF
:1004E000000208208888000000886018C000000012
:1004F0000C6018C0000001910F462E000003A317E6
:10050000462E0000010844221F000003A317844C5C
:10051000000003A3083C3F00000211F4A98800007A
:1005200003A304111F000007C444422E00000388E7
:100530004210C4000003A33AE62E0000000222226B
:10054000000000018C000000000000000F8000008F
:10055000000088600000000000084F90800000014B
:100560002AE23AA4000000888420820000020821C8
:10057000088800000000000886000005935914A2B6
:10058000000006322222630000011F4F17C4000042
:100590000295F57D4A0000000000294A0000010094
:1005A00002108400000000000000000000000000B5
:1005B000000000000000000000000000CE800000ED
:1005C000000000B8400000000000FC4000000000F7
:1005D000087C400000000008FC400000000002020F
:1005E000400000000008F8400000000008784000CB
:1005F000000000007C0000000000085440000000E3
:100600000008B440000000000046000000000008A0
:10061000CC40000000000000033A0000000000028F
:10062000E1000000000003F1000000000021F100E3
:100630000000000023F10000000000080900000095
:10064000000023E1000000000021E10000000000A4
:1006500001F000000000002151000000000022D144
:1006600000000000000118000000000023311124E8
:100670001FBECFEFD8E0DEBFCDBF15E0A0E0B1E0F8
:10068000EAEEF3E102C005900D92A836B107D9F762
:1006900025E0A8E6B5E001C01D92A13FB207E1F751
:1006A0000E94B6060C94F3090C94000090936D051B
:1006B00080936C0570936B0560936A055093690590
:1006C000409368050895809300010895F8948093FD
:1006D000BA0085EC8093BC0078940895F894109249
:1006E000BC001092BA00789408951F920F920FB632
:1006F0000F9211242F933F934F935F936F937F93A8
:100700008F939F93AF93BF93EF93FF938091B90023
:10071000887F883A19F148F4803871F0803AB1F056
:10072000811127C01092BC0024C0803C11F1883C8C
:1007300001F1883BF1F412C0E0916C05F0916D0578
:100740003097B9F08091BB00099513C0E09168051E
:10075000F0916905309769F009950BC0E0916A0541
:10076000F0916B05309709F0099580910001809315
:10077000BB0085EC8093BC00FF91EF91BF91AF91DE
:100780009F918F917F916F915F914F913F912F91A9
:100790000F900FBE0F901F9018958FEF80930A0156
:1007A00080930901809308018093070180930601DB
:1007B000809305018093040180930301089580E0F4
:1007C00090E02FEFFC01E55FFE4F208301968E3015
:1007D0009105C1F708950895BF92CF92DF92EF92ED
:1007E000FF920F931F93CF93DF93CDB7DEB765973B
:1007F0000FB6F894DEBF0FBECDBF162F11706695F1
:10080000E62EF12C97E09E9D90019F9D300D1124C6
:100810002F583A4FF901DE011F9601900D929A95DB
:10082000E1F7F901D380C480B5800681482F50E0FC
:10083000FA01F097EE31F10508F048C0EC5CFF4F8B
:100840000C94E409112309F446C06CE076E06CC016
:10085000112309F443C065E076E066C0112309F472
:1008600040C06EEF75E060C01123F1F167EF75E0F5
:100870005BC01123E1F160EF75E056C01123D1F1A7
:1008800069EE75E051C01123C1F162EE75E04CC014
:100890001123B1F16BED75E047C01123A1F164EDB7
:1008A00075E042C0112391F16DEC75E03DC011235C
:1008B00081F166EC75E038C0112371F16FEB75E0E2
:1008C00033C0112361F168EB75E02EC0112351F1A3
:1008D0006AEA75E029C067E676E026C060E676E061
:1008E00023C069E576E020C062E576E01DC06BE4D8
:1008F00076E01AC064E476E017C06DE376E014C0D9
:1009000066E376E011C06FE276E00EC068E276E062
:100910000BC061E276E008C06AE176E005C063E101
:1009200076E002C061EB75E047E050E0CE0108964A
:100930000E94EA0987E0FE013896DE0111960190D7
:100940000D928A95E1F79C813D818E814F81DA8AF3
:10095000CB8ABC8A0D8B27E0FE013F96DE011896FC
:1009600001900D922A95E1F7111106C09B2D907C04
:100970008F73892B042F0AC02B2D2F73807C822B21
:100980002D2D207F9F70D22ED92AC32EDB86CC86B8
:100990008D870E8787E08E9DD0018F9DB00D11242D
:1009A000AF58BA4FFE01389601900D928A95E1F743
:1009B00065960FB6F894DEBF0FBECDBFDF91CF9125
:1009C0001F910F91FF90EF90DF90CF90BF9008950F
:1009D0000F931F93CF938C01C0E06C2FF80181918E
:1009E0008F010E94EC03CF5FC630B9F7CF911F9102
:1009F0000F910895CF93DF93CDB7DEB72E970FB643
:100A0000F894DEBF0FBECDBF893248F4E82FF0E086
:100A1000EE0FFF1FEB56FE4F6081718102C06CE14B
:100A200072E047E050E0CE0108960E94EA0987E0B4
:100A3000FE013896DE01119601900D928A95E1F73C
:100A400029813A814B815C816D817E818F8190E02B
:100A50002E960FB6F894DEBF0FBECDBFDF91CF91BB
:100A6000089598E087FF02C0409A01C04098880F1F
:100A7000419A2FE12A95F1F741982FE12A95F1F754
:100A8000915081F70895CF93C82F8AE50E946303A0
:100A900090910A019F3FA9F0E0910A01F0E0E55F23
:100AA000FE4FC08380910A018D3031F080910A01A0
:100AB0008F5F80930A01C4C08FEF80930A018AE0A0
:100AC00017C0809109018F3FB1F0E0910901F0E07A
:100AD000E55FFE4FC08380910901853031F0809140
:100AE00009018F5F80930901ABC0909309018BE0EE
:100AF00080930201A5C0209108012F3FA9F0E09149
:100B00000801F0E0E55FFE4FC0839091080191304D
:100B100031F0809108018F5F8093080191C080932C
:100B20000801109202018CC0909107019F3F99F03B
:100B3000E0910701F0E0E55FFE4FC083809107017F
:100B4000813031F0809107018F5F8093070178C079
:100B500020930701CDCF809106018F3F31F0C093E4
:100B60000B019093060182E0C3CF909105019F3F56
:100B700031F0C0930B018093050183E0B9CF8091E0
:100B800004018F3F31F0C0930B019093040184E086
:100B9000AFCF909103019F3F31F0C0930B01809341
:100BA00003018CE0A5CFC53031F0C63011F486E0EA
:100BB0009FCFC73019F4C093020142C0C83021F45E
:100BC00081E08093700538C0C93019F41092700527
:100BD00033C0CA3019F410920A0132C0CB3019F474
:100BE000109209012DC0C11103C01092080128C044
:100BF000C13019F41092070123C0C23019F41092C9
:100C000006011EC0C33019F41092050119C0C4308A
:100C100019F41092040114C0CC3019F4109203019D
:100C20000FC0CD3069F480910101813011F081E075
:100C300001C082E08093010185EACF910C946303A7
:100C4000CF910895CF93DF93CDB7DEB76C970FB6F2
:100C5000F894DEBF0FBECDBF90EE980F9F3560F5C4
:100C600090E0809727E0289FF001299FF00D112444
:100C7000E153FD4FDE011896822F01900D928A9567
:100C8000E1F7FE013896DE011196822F01900D9258
:100C90008A95E1F7FE013196DE011896822F0190C8
:100CA0000D928A95E1F7FE013896DE015696019085
:100CB0000D922A95E1F714C08A58843748F4E82F3A
:100CC000F0E0EE0FFF1FE951FE4F6081718102C01D
:100CD00063EA75E047E050E0CE0146960E94EA09DB
:100CE00087E0FE017696DE011F9601900D928A95AF
:100CF000E1F72F85388949895A896B897C898D89E3
:100D000090E06C960FB6F894DEBF0FBECDBFDF91BA
:100D1000CF910895DF92EF92FF920F931F93CF939D
:100D2000DF937C0104E010E087E0D82ED09EE00144
:100D3000D19ED00D1124CF58DA4FF70181917F0158
:100D40000E942206288339834A835B836C837D83D8
:100D50008E830F5F1F4F0231110541F7DF91CF9155
:100D60001F910F91FF90EF90DF900895CF93DF9345
:100D7000CDB7DEB7AA970FB6F894DEBF0FBECDBFD2
:100D80008FE087B94DEC53E06BEE73E083E495E0C0
:100D90000E94560384EF0E94660385EA0E94630363
:100DA000439A429817E08FEF0E9431051150D9F70E
:100DB000429A789489E191E00E948A06DD24DA94CF
:100DC00074E6E72EF12C0AE010E0809102018F3FDB
:100DD00009F41EC28FB7F894E0910201D09202018B
:100DE0008FBF8E2F90E08D30910508F0E1C1FC019E
:100DF000EE5AFF4F0C94E40989E50E9422062093E5
:100E0000B7053093B8054093B9055093BA05609380
:100E1000BB057093BC058093BD058BE091E00E94FB
:100E20008A0604C08BE091E00E94E8040E94DF0380
:100E3000BFC188E291E00E948A06BAC180E391E0D6
:100E40000E94E804B5C180E20E94220629833A8309
:100E50004B835C836D837E838F8381E795E027E0FE
:100E6000FE013196DC0101900D922A95E1F707967B
:100E700025E08F3E920799F79BC120910C0180914C
:100E80000B0130E02C5F3F4F97E0929FA001939FB2
:100E9000500D1124FA01EF58FA4F5F010E9422060B
:100EA000F501208331834283538364837583868372
:100EB000BDCF60910C0180910B010E94EC03B6CF75
:100EC00080910B010E94FA042CA33DA34EA35FA3C3
:100ED00068A779A78AA744FF0DC0809174058F7019
:100EE000507F582B5093740580917305807F4F700D
:100EF000482B51C045FF0DC080917B058F70507FFE
:100F0000582B50937B0580917A05807F4F70482B3A
:100F100053C046FF0DC0809182058F70507F582BC3
:100F20005093820580918105807F4F70482BA3C02C
:100F300047FF7CCF90918C059E7F8170892B809399
:100F40008C0580918A058770687F682B60938A057D
:100F50005093890580918805807F4F70482B40937E
:100F6000880564CF80910B010E94FA042D8F3E8F7B
:100F70004F8F58A369A37AA38BA344FF0FC0507F60
:100F80005095809174055823509374054F70409587
:100F90008091730548234093730548CF45FF0FC0E8
:100FA000507F509580917B05582350937B054F705F
:100FB000409580917A05482340937A0537CF46FFC4
:100FC0000DC0507F50958091820558235093820523
:100FD0004F7040958091810548234DC047FF26CF33
:100FE0008170809590918C05892380938C05687F12
:100FF000609580918A05682360938A055095809159
:1010000089055823509389054F7040958091880534
:101010004823A5CF80910B010E94FA042E8B3F8BB1
:10102000488F598F6A8F7B8F8C8F44FF0BC0507F06
:10103000809174055827509374054F708091730503
:101040004827A9CF45FF0BC0507F80917B055827CB
:1010500050937B054F7080917A054827ADCF46FFAE
:101060000DC0507F809182055827509382054F70A4
:1010700080918105482740938105D8CE47FFD6CE81
:10108000817090918C05892780938C05687F809171
:101090008A05682760938A058091890558275093AF
:1010A00089054F7080918805482759CF20910B0101
:1010B0002F3F69F480918C05817080938C0510928C
:1010C0008B0580918A05887F80938A05AFCE31EFAA
:1010D0003203500111248FE4A81A8CEFB80AC5011D
:1010E000B7010E94D009FB01B8010E94D0099B0101
:1010F000C501B8010E94D009EA30F10538F4EE0FBD
:10110000FF1FEF57FE4F6081718102C060E070E009
:10111000220F331FF901E359FE4F80809180009721
:1011200051F0059719F0612C712C09C04EEB642E1B
:1011300040E0742E04C035EC632E30E0732E47E09F
:1011400050E0CE010F960E94EA0947E050E0B4015A
:10115000CE0108960E94EA0947E050E0B301CE01B3
:1011600001960E94EA099D898E85892B9F81892B92
:101170008C7F90918C059370892B2C899D85922B67
:101180002E81922B90938B052B899C85922B2D8100
:10119000922B977020918A05287F922B90938A0535
:1011A000AB2811F48D7F01C0826080938C053ECE08
:1011B000BFB6F89481E0882351F1809102018F3FFE
:1011C00031F580910A018F3F11F59091090180E07E
:1011D0009F3FE9F4909108019F3F69F790910701C3
:1011E0009F3F49F7909106019F3F29F79091050194
:1011F0009F3F09F7909104019F3FE9F68091030119
:101200008F3F09F0CBC085EA0E946303C7C0BFBE11
:1012100080910101813009F0AFC080916E059091FD
:101220006F058A3F910508F4A1C010926F051092D6
:101230006E058091EF059091F0058131910529F4BB
:101240001092F0051092EF0505C001969093F005FD
:101250008093EF058091EF059091F0058231910523
:1012600080F4FC01E55AFE4FA080FC01E75BFE4FD5
:101270009080FC01E95CFE4F808084309105F0F0A5
:1012800003C0812C912CA12C20917005222359F0B0
:1012900027E0289FF001299FF00D1124EF58FA4F05
:1012A000828188600AC027E0289FF001299FF00D05
:1012B0001124EF58FA4F8281877F82834298809170
:1012C000EF059091F00527E0B22EB89EF001B99E8F
:1012D000F00D1124EF58FA4F868180950E94310558
:1012E0008091EF059091F005B89EF001B99EF00D48
:1012F0001124EF58FA4F858180950E943105809125
:10130000EF059091F005B89EF001B99EF00D112403
:10131000EF58FA4F848180950E9431058091EF0546
:101320009091F005B89EF001B99EF00D1124EF5890
:10133000FA4F838180950E9431058091EF0590914D
:10134000F005B89EF001B99EF00D1124EF58FA4F48
:101350008281882980950E943105892D80950E947F
:1013600031058A2D80950E94310516C00196909313
:101370006F0580936E0529CD80910101823009F0BF
:1013800024CD10920101429887E0B82E8FEF0E9481
:101390003105BA94B110FACF429A17CD80E00BCF45
:1013A000AA1BBB1B51E107C0AA1FBB1FA617B7078B
:1013B00010F0A61BB70B881F991F5A95A9F78095A7
:1013C0009095BC01CD010895EE0FFF1F0590F4919B
:1013D000E02D0994FB01DC0102C005900D92415003
:0A13E0005040D8F70895F894FFCFAD
:1013EA00A501FFFFFFFFFFFFFFFFFFFFFFFFFFFF5B
:1013FA00FFFFFFFFFFFFFFFFFF2D52E164696F2030
:10140A006279204D656B2D0020202020202020208D
:10141A002020202020200010204080000000000012
:10142A0000000000000000000000000000000000B2
:10143A000000008040201008040201000000002083
:10144A00100804020100000000000000000B010463
:10145A0001FD00F600EF00E800E100DA00D300CC5D
:10146A000051014A0143013C0135012E01270120A7
:10147A0001190112017002690262025B0254024DF3
:10148A000246023F02380231022A0223021C0215D6
:10149A00020E0207020002F901F201EB01E401DD8A
:1014AA0001D601CF01C801C101BA01B301AC01A53E
:1014BA00019E0197019001890182017B0174016DEE
:1014CA000166015F0158010A03A305A305EE02E0C4
:1014DA0002A305A305A305A305A305A305A305A3C5
:1014EA0005A305A305A3050A03A305A305E702E0CF
:1014FA0002A305A305A305A305A305A305A305A3A5
:10150A0005A305A305A305A305A305A305A305A391
:10151A0005A305A305A305A305A305A305A305A381
:10152A0005A305A305A305A305A305FC02A30503BB
:10153A0003A305A305C402A305A3058502A305A366
:10154A0005A305F502A802A305A305A305B602A3F0
:10155A0005A305A305A305A3059A02A305A305A34D
:10156A0005A305A305A3058C02A305A305D202A31F
:10157A0005A305A305CB02A305A3057E02A305A324
:10158A0005A305F502AF02A305A305A305BD02A3A2
:10159A0005A305A305A3057702A102A305A305A335
:1015AA0005A305A305A3059302A305A305D9020074
:1015BA00000000000000000001000210840000008A
:1015CA000000294A00000295F57D4A0000011F4FDC
:1015DA0017C400000632222263000005935914A2A0
:1015EA0000000000000886000002082108880000A8
:1015FA0000888420820000012AE23AA40000000840
:10160A004F908000000088600000000000000F80FA
:10161A00000000018C0000000000000222220000ED
:10162A000003A33AE62E000003884210C400000714
:10163A00C444422E000003A304111F00000211F447
:10164A00A988000003A3083C3F000003A317844CA9
:10165A000000010844221F000003A317462E0000C1
:10166A0001910F462E0000000C6018C0000000888F
:10167A006018C00000020820888800000001F07C81
:10168A0000000000888820820000010044422E00E9
:10169A00000383DAF62E00000463F8C54400000351
:1016AA00E317C62F000003A210862E000001D318EC
:1016BA00C527000007C217843F0000004217843F75
:1016CA00000007A31E862E000004631FC631000017
:1016DA00038842108E0000019284211C00000452EB
:1016EA00519531000007C2108421000004631AD703
:1016FA0071000004639ACE31000003A318C62E00BD
:10170A0000004217C62F0000059358C62E00000499
:10171A005257C62F000003A307062E0000010842F5
:10172A00109F000003A318C6310000011518C63126
:10173A00000002AB5AC63100000462A22A3100003E
:10174A000108422A31000007C222221F0000038436
:10175A0021084E0000002082082000000390842106
:10176A000E00000000004544000007C00000000011
:10177A0000000000208C000007A3E83800000003E6
:10178A00E318BC210000078210F800000007A31824
:10179A00FA1000000383F8B8000000010847128815
:1017AA00000003A1E8F8000000046319B421000056
:1017BA00038842180400000192843008000004944F
:1017CA00654842000003884210860000056B5AAC47
:1017DA00000000046319B400000003A318B8000055
:1017EA00000042F8BC0000000421E8F800000000F4
:1017FA0084236800000003E0E0B8000000022842E9
:10180A003884000005B318C4000000011518C4008C
:10181A00000002AB58C40000000454454400000014
:10182A0003A1E8C400000007C4447C0000000608C5
:10183A0041109800000108421084000000C84110BD
:08184A0083000000000022A24F
:00000001FF
