S02B00004D6963726F6368697053747564696F2070726F6A656B74202D20564644206472697665722E7372652E
S11300000C9437030C9454030C9454030C9454032D
S11300100C9454030C9454030C9454030C94540300
S11300200C9454030C9454030C9454030C945403F0
S11300300C9454030C9454030C9454030C945403E0
S11300400C9454030C9454030C9454030C945403D0
S11300500C9454030C9454030C9454030C945403C0
S11300600C9471030C945403030409040F04150441
S11300701A041F04240429042E04330447044704E7
S11300804704470447044704470438044704470423
S1130090470447043D04470447044704470447040E
S11300A0470442040B0727072E078007D807E706F3
S11300B0EC06F106A608A608DB06E0062408000004
S11300C08000000410000080000000900000800008
S11300D00552080000800005524800008000050217
S11300E00000008000045248000080000452080010
S11300F0008000015200000080000512080000800A
S11301000005104800008000010200000080000586
S113011042480000800002A9040000800002A924D3
S113012000008000028100000080000229240000F9
S113013080000229040000800000A9000000800063
S113014002890400008000028824000080000081ED
S1130150000000800002A1240000800000000100D3
S113016000880000000000008400000000000082FD
S113017000000000000081000000000000808000FA
S1130180000000008040000000000080200000000B
S11301900000801000000000008008000000000043
S11301A080040000000000800200000000008001C4
S11301B0000000000080008000000000800040007B
S11301C000000080002000000000800010000000FB
S11301D00080000800000000480000000000004407
S11301E00000000000004200000000000041000088
S11301F000000000408000000000004040000000BB
S1130200000040200000000000401000000000003A
S11302102400000000000022000000000000210073
S113022000000000002080000000000020400000CA
S1130230000000202000000000002010000000004A
S1130240001800000000000014000000000000126C
S113025000000000000011000000000000108000F9
S1130260000000001040000000000010200000000A
S1130270000010100000000000046336808A0000B3
S113028007A3E8380A0000047F15100A000005B32C
S113029018C488000005B3188088000003A318B8A8
S11302A088000003A3170088000007C2F0FC880040
S11302B0000783F8B88800000388423888000003E8
S11302C08843008800000463F8A888000007A3E8B6
S11302D03888000001084546A8000003A1E8C48846
S11302E0000007C4447C8A00000228423A880000C7
S11302F00108427C8A0000078210F88A000007C2C5
S113030010853500000388421296000003E0E0B82F
S11303108A000000000022A2000000C841108300EF
S113032000010842108400000608411098000007EC
S1130330C4447C00000003A1E8C400000004544548
S11303404400000002AB58C4000000011518C400AA
S1130350000005B318C400000002284238840000DD
S113036003E0E0B8000000008423680000000421DA
S1130370E8F80000000042F8BC00000003A318B82D
S1130380000000046319B4000000056B5AAC0000BF
S1130390000388421086000004946548420000016E
S11303A09284300800000388421804000004631992
S11303B0B421000003A1E8F80000000108471288F6
S11303C000000383F8B800000007A318FA10000027
S11303D0078210F800000003E318BC21000007A303
S11303E0E838000000000000208C000007C0000076
S11303F000000000000045440000039084210E002A
S11304000000208208200000038421084E00000719
S1130410C222221F00000108422A3100000462A205
S11304202A31000002AB5AC6310000011518C6314A
S1130430000003A318C6310000010842109F000009
S113044003A307062E0000045257C62F000005938D
S113045058C62E0000004217C62F000003A318C67A
S11304602E000004639ACE31000004631AD7710091
S11304700007C2108421000004525195310000018C
S11304809284211C0000038842108E000004631F24
S1130490C631000007A31E862E0000004217843FC9
S11304A0000007C217843F000001D318C5270000CD
S11304B003A210862E000003E317C62F0000046376
S11304C0F8C54400000383DAF62E0000010044421C
S11304D02E0000008888208200000001F07C0000CB
S11304E0000208208888000000886018C00000000E
S11304F00C6018C0000001910F462E000003A317E2
S1130500462E0000010844221F000003A317844C58
S1130510000003A3083C3F00000211F4A988000076
S113052003A304111F000007C444422E00000388E3
S11305304210C4000003A33AE62E00000002222267
S1130540000000018C000000000000000F8000008B
S1130550000088600000000000084F908000000147
S11305602AE23AA4000000888420820000020821C4
S1130570088800000000000886000005935914A2B2
S1130580000006322222630000011F4F17C400003E
S11305900295F57D4A0000000000294A0000010090
S11305A002108400000000000000000000000000B1
S11305B0000000000000000000000000CE800000E9
S11305C0000000B8400000000000FC4000000000F3
S11305D0087C400000000008FC400000000002020B
S11305E0400000000008F8400000000008784000C7
S11305F0000000007C0000000000085440000000DF
S11306000008B4400000000000460000000000089C
S1130610CC40000000000000033A0000000000028B
S1130620E1000000000003F1000000000021F100DF
S11306300000000023F10000000000080900000091
S1130640000023E1000000000021E10000000000A0
S113065001F000000000002151000000000022D140
S113066000000000000118000000000023311124E4
S11306701FBECFEFD8E0DEBFCDBF15E0A0E0B1E0F4
S1130680E6E8F3E102C005900D92AA36B107D9F766
S113069025E0AAE6B5E001C01D92A13FB207E1F74B
S11306A00E9497060C94C1090C94000090936D0568
S11306B080936C0570936B0560936A05089580932D
S11306C000010895F8948093BA0085EC8093BC00EF
S11306D078940895F8941092BC001092BA0078941B
S11306E008951F920F920FB60F9211242F933F93E8
S11306F04F935F936F937F938F939F93AF93BF9326
S1130700EF93FF938091B900887F883AB9F028F479
S1130710882301F1803841F01FC0803CE9F0883C17
S1130720D9F0883BC9F40AC0E0916C05F0916D05DD
S1130730309791F08091BB0009950EC0E0916A0555
S1130740F0916B05309709F0099580910001809331
S1130750BB0002C01092BC0085EC8093BC00FF91EA
S1130760EF91BF91AF919F918F917F916F915F9125
S11307704F913F912F910F900FBE0F901F9018959E
S113078080E090E02FEFFC01E55FFE4F20830196AF
S11307908E309105C1F708950895BF92CF92DF92EC
S11307A0EF92FF920F931F93CF93DF93CDB7DEB7F2
S11307B065970FB6F894DEBF0FBECDBF162F11702C
S11307C06695E62EF12C97E09E9D90019F9D300D3D
S11307D011242F583A4FF901DE011F9601900D9212
S11307E09A95E1F7F901D380C480B5800681482F3A
S11307F050E0FA01F097EE31F10508F048C0EC5CE6
S1130800FF4F0C94B209112309F446C06CE076E062
S11308106CC0112309F443C065E076E066C011237F
S113082009F440C06EEF75E060C01123F1F167EF89
S113083075E05BC01123E1F160EF75E056C0112350
S1130840D1F169EE75E051C01123C1F162EE75E09A
S11308504CC01123B1F16BED75E047C01123A1F138
S113086064ED75E042C0112391F16DEC75E03DC07B
S1130870112381F166EC75E038C0112371F16FEB3F
S113088075E033C0112361F168EB75E02EC01123CC
S113089051F16AEA75E029C067E676E026C060E6B1
S11308A076E023C069E576E020C062E576E01DC00D
S11308B06BE476E01AC064E476E017C06DE376E09A
S11308C014C066E376E011C06FE276E00EC068E221
S11308D076E00BC061E276E008C06AE176E005C02C
S11308E063E176E002C061EB75E047E050E0CE01E1
S11308F008960E94B80987E0FE013896DE01119639
S113090001900D928A95E1F79C813D818E814F8102
S1130910DA8ACB8ABC8A0D8B27E0FE013F96DE0182
S1130920189601900D922A95E1F7111106C09B2D9E
S1130930907C8F73892B042F0AC02B2D2F73807CFE
S1130940822B2D2D207F9F70D22ED92AC32EDB8699
S1130950CC868D870E8787E08E9DD0018F9DB00D4C
S11309601124AF58BA4FFE01389601900D928A9522
S1130970E1F765960FB6F894DEBF0FBECDBFDF91E9
S1130980CF911F910F91FF90EF90DF90CF90BF9088
S113099008950F931F93CF938C01C0E06C2FF8013F
S11309A081918F010E94CD03CF5FC630B9F7CF91FB
S11309B01F910F910895CF93DF93CDB7DEB72E9794
S11309C00FB6F894DEBF0FBECDBF893248F4E82FCE
S11309D0F0E0EE0FFF1FEA56FE4F6081718102C006
S11309E06CE172E047E050E0CE0108960E94B8093D
S11309F087E0FE013896DE01119601900D928A95EA
S1130A00E1F729813A814B815C816D817E818F81FF
S1130A1090E02E960FB6F894DEBF0FBECDBFDF91E7
S1130A20CF91089598E087FF02C0409A01C0409892
S1130A30880F419A2FE12A95F1F741982FE12A95E1
S1130A40F1F7915081F70895CF93C82F8AE50E945A
S1130A505F0390910A019F3FA9F0E0910A01F0E041
S1130A60E55FFE4FC08380910A018D3031F08091A3
S1130A700A018F5F80930A01C4C08FEF80930A013B
S1130A808AE017C0809109018F3FB1F0E09109011C
S1130A90F0E0E55FFE4FC08380910901853031F0BD
S1130AA0809109018F5F80930901ABC09093090184
S1130AB08BE080930201A5C0209108012F3FA9F08B
S1130AC0E0910801F0E0E55FFE4FC08390910801DA
S1130AD0913031F0809108018F5F8093080191C0BB
S1130AE080930801109202018CC0909107019F3FEE
S1130AF099F0E0910701F0E0E55FFE4FC08380913B
S1130B000701813031F0809107018F5F80930701E5
S1130B1078C020930701CDCF809106018F3F31F03B
S1130B20C0930B019093060182E0C3CF909105011D
S1130B309F3F31F0C0930B018093050183E0B9CF4F
S1130B40809104018F3F31F0C0930B019093040115
S1130B5084E0AFCF909103019F3F31F0C0930B012C
S1130B60809303018CE0A5CFC53031F0C63011F479
S1130B7086E09FCFC73019F4C093020142C0C83049
S1130B8021F481E08093700538C0C93019F41092C3
S1130B90700533C0CA3019F410920A0132C0CB3048
S1130BA019F4109209012DC0C11103C0109208015B
S1130BB028C0C13019F41092070123C0C23019F4BF
S1130BC0109206011EC0C33019F41092050119C019
S1130BD0C43019F41092040114C0CC3019F41092EA
S1130BE003010FC0CD3069F480910101813011F00F
S1130BF081E001C082E08093010185EACF910C94E9
S1130C005F03CF910895CF93DF93CDB7DEB76C9791
S1130C100FB6F894DEBF0FBECDBF90EE980F9F3590
S1130C2060F590E0809727E0289FF001299FF00D60
S1130C301124E053FD4FDE011896822F01900D928E
S1130C408A95E1F7FE013896DE011196822F019014
S1130C500D928A95E1F7FE013196DE011896822FF6
S1130C6001900D928A95E1F7FE013896DE015696C1
S1130C7001900D922A95E1F714C08A58843748F4FC
S1130C80E82FF0E0EE0FFF1FE851FE4F6081718105
S1130C9002C063EA75E047E050E0CE0146960E9448
S1130CA0B80987E0FE017696DE011F9601900D9249
S1130CB08A95E1F72F85388949895A896B897C8916
S1130CC08D8990E06C960FB6F894DEBF0FBECDBF51
S1130CD0DF91CF910895DF92EF92FF920F931F93CC
S1130CE0CF93DF937C0104E010E087E0D82ED09E00
S1130CF0E001D19ED00D1124CF58DA4FF701819134
S1130D007F010E940306288339834A835B836C83B3
S1130D107D838E830F5F1F4F0231110541F7DF91F1
S1130D20CF911F910F91FF90EF90DF900895CF9393
S1130D30DF93CDB7DEB7AA970FB6F894DEBF0FBE28
S1130D40CDBF8FE087B96CEC73E084E295E00E943C
S1130D50560384EF0E94620385EA0E945F03439A6C
S1130D60429817E08FEF0E9412051150D9F7429A6A
S1130D70789489E191E00E946B06DD24DA9474E6AC
S1130D80E72EF12C0AE010E0809102018F3F09F474
S1130D900DC28FB7F894E0910201D09202018FBF87
S1130DA08E2F90E08D30910508F0D0C1FC01EE5AF1
S1130DB0FF4F0C94B2098BE091E00E946B0604C0D3
S1130DC08BE091E00E94C9040E94C003BFC189E284
S1130DD091E00E946B06BAC181E391E00E94C904CC
S1130DE0B5C180E20E94030629833A834B835C8366
S1130DF06D837E838F8381E795E027E0FE01319642
S1130E00DC0101900D922A95E1F7079625E08F3ECB
S1130E10920799F79BC120910C0180910B0130E05E
S1130E202C5F3F4F97E0929FA001939F500D112498
S1130E30FA01EF58FA4F5F010E940306F50120837F
S1130E40318342835383648375838683BDCF6091EA
S1130E500C0180910B010E94CD03B6CF80910B0150
S1130E600E94DB042CA33DA34EA35FA368A779A72C
S1130E708AA744FF0DC0809174058F70507F582B52
S1130E805093740580917305807F4F70482B51C037
S1130E9045FF0DC080917B058F70507F582B509378
S1130EA07B0580917A05807F4F70482B53C046FFA5
S1130EB00DC0809182058F70507F582B509382050E
S1130EC080918105807F4F70482BA3C047FF7CCF62
S1130ED090918C059E7F8170892B80938C058091E5
S1130EE08A058770687F682B60938A05509389050B
S1130EF080918805807F4F70482B4093880564CF8C
S1130F0080910B010E94DB042D8F3E8F4F8F58A3DD
S1130F1069A37AA38BA344FF0FC0507F509580919F
S1130F2074055823509374054F7040958091730550
S1130F3048234093730548CF45FF0FC0507F509519
S1130F4080917B05582350937B054F704095809189
S1130F507A05482340937A0537CF46FF0DC0507F6A
S1130F605095809182055823509382054F70409587
S1130F708091810548234DC047FF26CF817080951D
S1130F8090918C05892380938C05687F609580916E
S1130F908A05682360938A055095809189055823B2
S1130FA0509389054F704095809188054823A5CFBB
S1130FB080910B010E94DB042E8B3F8B488F598F4D
S1130FC06A8F7B8F8C8F44FF0BC0507F8091740598
S1130FD05827509374054F70809173054827A9CF03
S1130FE045FF0BC0507F80917B05582750937B05AC
S1130FF04F7080917A054827ADCF46FF0DC0507FD2
S1131000809182055827509382054F708091810505
S1131010482740938105D8CE47FFD6CE8170909162
S11310208C05892780938C05687F80918A056827C1
S113103060938A05809189055827509389054F70DC
S113104080918805482759CF20910B012F3F69F4DF
S113105080918C05817080938C0510928B05809112
S11310608A05887F80938A05AFCE31EF3203500121
S113107011248FE4A81A8CEFB80AC501B7010E94A5
S11310809E09FB01B8010E949E099B01C501B8019C
S11310900E949E09EA30F10538F4EE0FFF1FEE5767
S11310A0FE4F6081718102C060E070E0220F331F47
S11310B0F901E259FE4F80809180009751F0059725
S11310C019F0612C712C09C04EEB642E40E0742E93
S11310D004C035EC632E30E0732E47E050E0CE01BF
S11310E00F960E94B80947E050E0B401CE0108967B
S11310F00E94B80947E050E0B301CE0101960E9476
S1131100B8099D898E85892B9F81892B8C7F90912D
S11311108C059370892B2C899D85922B2E81922B83
S113112090938B052B899C85922B2D81922B977004
S113113020918A05287F922B90938A05AB2811F47D
S11311408D7F01C0826080938C053ECEBFB6F8943B
S113115081E0882351F1809102018F3F31F5809124
S11311600A018F3F11F59091090180E09F3FE9F456
S1131170909108019F3F69F7909107019F3F49F7BC
S1131180909106019F3F29F7909105019F3F09F730
S1131190909104019F3FE9F6809103018F3F09F08C
S11311A0CBC085EA0E945F03C7C0BFBE8091010126
S11311B0813009F0AFC080916E0590916F058A3F30
S11311C0910508F4A1C010926F0510926E058091EC
S11311D0EF059091F0058131910529F41092F00505
S11311E01092EF0505C001969093F0058093EF05EA
S11311F08091EF059091F0058231910580F4FC0116
S1131200E45AFE4FA080FC01E65BFE4F9080FC0197
S1131210E85CFE4F808084309105F0F003C0812C9F
S1131220912CA12C20917005222359F027E0289FAE
S1131230F001299FF00D1124EF58FA4F8281886044
S11312400AC027E0289FF001299FF00D1124EF58D0
S1131250FA4F8281877F828342988091EF05909133
S1131260F00527E0B22EB89EF001B99EF00D1124CE
S1131270EF58FA4F868180950E9412058091EF0500
S11312809091F005B89EF001B99EF00D1124EF582D
S1131290FA4F858180950E9412058091EF05909107
S11312A0F005B89EF001B99EF00D1124EF58FA4FE5
S11312B0848180950E9412058091EF059091F0053C
S11312C0B89EF001B99EF00D1124EF58FA4F8381B6
S11312D080950E9412058091EF059091F005B89ECB
S11312E0F001B99EF00D1124EF58FA4F828188293C
S11312F080950E941205892D80950E9412058A2DE1
S113130080950E94120516C0019690936F058093F4
S11313106E053ACD80910101823009F035CD1092ED
S11313200101429887E0B82E8FEF0E941205BA940B
S1131330B110FACF429A28CD80E00BCFAA1BBB1B79
S113134051E107C0AA1FBB1FA617B70710F0A61BC1
S1131350B70B881F991F5A95A9F780959095BC01E2
S1131360CD010895EE0FFF1F0590F491E02D09942F
S1131370FB01DC0102C005900D9241505040D8F7AA
S10913800895F894FFCF6C
S1131386A501FFFFFFFFFFFFFFFFFFFFFFFFFFFFBB
S1131396FFFFFFFFFFFFFFFFFF2D52C3A164696F2D
S11313A6206279204D656B2D0020202020202020EE
S11313B62020202020202000102040800000000053
S11313C60000000000000000000000000000000013
S11313D60000000080402010080402010000000004
S11313E620100804020100000000000000000B01A8
S11313F60401FD00F600EF00E800E100DA00D30086
S1131406CC0051014A0143013C0135012E0127015B
S11314162001190112017002690262025B02540280
S11314264D0246023F02380231022A0223021C02FE
S113143615020E0207020002F901F201EB01E401B2
S1131446DD01D601CF01C801C101BA01B301AC0166
S1131456A5019E0197019001890182017B01740116
S11314666D0166015F0158010A03A305A305EE0297
S1131476E002A305A305A305A305A305A305A305E8
S1131486A305A305A305A3050A03A305A305E7026C
S1131496E002A305A305A305A305A305A305A305C8
S11314A6A305A305A305A305A305A305A305A305F2
S11314B6A305A305A305A305A305A305A305A305E2
S11314C6A305A305A305A305A305A305FC02A3057C
S11314D60303A305A305C402A305A3058502A30567
S11314E6A305A305F502A802A305A305A305B60251
S11314F6A305A305A305A305A3059A02A305A305AE
S1131506A305A305A305A3058C02A305A305D2027F
S1131516A305A305A305CB02A305A3057E02A30584
S1131526A305A305F502AF02A305A305A305BD0202
S1131536A305A305A305A3057702A102A305A30595
S1131546A305A305A305A3059302A305A305D90231
S113155600000000000000000001000210840000EA
S1131566000000294A00000295F57D4A0000011F8B
S11315764F17C40000063222226300000593591453
S1131586A200000000000886000002082108880066
S11315960000888420820000012AE23AA4000000A8
S11315A6084F908000000088600000000000000FD3
S11315B680000000018C00000000000002222200CE
S11315C6000003A33AE62E000003884210C400007C
S11315D607C444422E000003A304111F0000021195
S11315E6F4A988000003A3083C3F000003A3178462
S11315F64C0000010844221F000003A317462E00D6
S11316060001910F462E0000000C6018C000000077
S1131616886018C00000020820888800000001F0D5
S11316267C00000000888820820000010044422ECD
S113163600000383DAF62E00000463F8C5440000B4
S113164603E317C62F000003A210862E000001D361
S113165618C527000007C217843F000000421784FC
S11316663F000007A31E862E000004631FC6310038
S113167600038842108E0000019284211C0000049D
S113168652519531000007C2108421000004631AE8
S1131696D771000004639ACE31000003A318C62E46
S11316A60000004217C62F0000059358C62E0000FE
S11316B6045257C62F000003A307062E0000010894
S11316C642109F000003A318C6310000011518C676
S11316D631000002AB5AC63100000462A22A31006E
S11316E6000108422A31000007C222221F0000031B
S11316F68421084E00000020820820000003908404
S1131706210E00000000004544000007C000000050
S11317160000000000208C000007A3E83800000049
S113172603E318BC210000078210F800000007A399
S113173618FA1000000383F8B800000001084712E5
S113174688000003A1E8F8000000046319B421002E
S11317560003884218040000019284300800000443
S113176694654842000003884210860000056B5ABF
S1131776AC000000046319B400000003A318B80009
S113178600000042F8BC0000000421E8F800000054
S11317960084236800000003E0E0B800000002288B
S11317A6423884000005B318C4000000011518C4AB
S11317B600000002AB58C400000004544544000075
S11317C60003A1E8C400000007C4447C000000062E
S11317D60841109800000108421084000000C84126
S10D17E61083000000000022A2009E
S9030000FC
