S016000041726475696E6F5F5369343733352E737265634E
S11300000C94C9000C94F1000C94F1000C94F100D0
S11300100C94F1000C94F1000C94F1000C94F10098
S11300200C94F1000C940D0A0C94F1000C94E90961
S11300300C94F1000C94F1000C94F1000C94F10078
S11300400C946C280C94F1000C94F1000C94F100C5
S11300500C94F1000C94F1000C94F1000C94F10058
S11300600C9482370C94F100170306030600000079
S11300700000090911160000030F060A060A000011
S113008000000000010B1100010309050C05090023
S1130090000000050D0D1515000003080307171EC9
S11300A00307090D0005050F0F010000070B100BD6
S11300B010000000000107070D0D00000105030AF0
S11300C00E18030A040900101C283001010004075B
S11300D0131738071307130C18000C180101000339
S11300E0050C0F1E050C040B00101525250101003D
S11300F01C050C1122050C050C000D1A222A010105
S11301000002050C1122050C050C00000000000182
S1130110010002050C1122050C050C001010202012
S1130120010100010F15070B070B070B0F14000F3C
S1130130140001000000000800020100000304078D
S113014000000000000000000102040810204080AC
S1130150010204081020010204081020040404040D
S1130160040404040202020202020303030303035D
S113017000000000230026002900000000002500E4
S113018028002B0000000000240027002A00AB0AEE
S1130190DF3411241FBECFEFD8E0DEBFCDBF14E0A3
S11301A0A0E0B1E0E8E0F9E702C005900D92A831C3
S11301B0B107D9F727E0A8E1B4E001C01D92AF3937
S11301C0B207E1F710E0C9ECD0E004C02197FE01CA
S11301D00E942039C73CD107C9F70E9408280C9413
S11301E0823C0C94000090914E0440913D04911186
S11301F005C04F3019F480934F04C1C05091460498
S11302009517F8F0209147049217D8F4E0914C0424
S1130210282F30E06091320470913304EE2341F0D2
S1130220E92FE51B02C0220F331FEA95E2F702C053
S1130230660F771F262B372B309333042093320419
S113024022C0509148049517F0F020914904921768
S1130250D0F4E0914C04282F30E060913004709188
S11302603104EE2341F0E92FE51B02C0220F331FB6
S1130270EA95E2F702C0660F771F262B372B3093DF
S11302803104209330044C31C9F423EF290F2D306D
S113029008F075C0282F30E083EF890F02C0220FC9
S11302A0331F8A95E2F740912E0450912F04242B9A
S11302B0352B30932F0420932E0461C04330C9F4AE
S11302C02FEE290F243008F05AC0282F30E08FEE8B
S11302D0890F02C0220F331F8A95E2F740912C0444
S11302E050912D04242B352B30932D0420932C0472
S11302F046C0453009F043C02CEE290F2430A0F449
S1130300282F30E048EF490F02C0220F331F4A95CF
S1130310E2F74091300450913104242B352B309373
S113032031042093300413C028EE290F243068F4DC
S1130330282F4CEE490F01C0220F4A95EAF730915D
S11303402504232B2093250402C09033C0F4E92F05
S1130350E695E695E695492F4770F0E0EA5DFB4F98
S113036021E030E001C0220F4A95EAF7882319F012
S11303708081282B03C020958081282320839F5FC0
S113038090934E0408952C9824980895FC0180912C
S11303903C04882309F4AFC090913B04913109F4E3
S11303A079C048F4933089F0973009F492C09230C0
S11303B009F0A3C031C0983109F495C0923309F40F
S11303C054C0973109F099C065C080913704909169
S11303D038042091370430913804892F99272095C7
S11303E0309533278217930709F0A7C0809137040B
S11303F0909138049927909338048093370480911E
S11304003504909136042091370430913804982FA4
S11304108827822B932B58C08091370490913804FD
S11304202091370430913804892F992720953095ED
S113043033278217930741F18091390490913A044C
S11304408E3E974871F48BE080933B04809137048F
S113045090913804892F992790933A048093390412
S113046013C088E380933B0448C020913704309143
S113047038048091370490913804232F3327992727
S11304802817390709F059C080913704909138042E
S113049099271AC080913704909138042091370429
S11304A0309138048695817091E089272170332733
S11304B091E029272170821709F43FC08091370405
S11304C090913804969587959093380480933704D7
S11304D014C08091390490913A048F7D90933A042A
S11304E0809339040AC080913704909138048D3781
S11304F0910519F422C080E0089580913B04808323
S11305008091390490913A049283818380913704D5
S1130510909138049483838380913404858381E0AB
S1130520109238041092370410923A04109239044D
S11305301092340410923C04089510923B0480E01D
S1130540EFCFCF93DF9383B190913C049111A8C274
S113055080719091240491115DC0909123048111C4
S113056004C09F5F909323049BC2992309F181E007
S11305708093240480932204109221041092310465
S11305801092300410923304109232041092250415
S113059010922D0410922C0410922F0410922E0409
S11305A09FEF90934E048093200410921F0478C20E
S11305B080911D0490911E048F3F2FEF920709F440
S11305C06FC2019690931E0480931D0480910401D0
S11305D0909105018F3F6FEF960709F461C2019670
S11305E09093050180930401883E924008F458C218
S11305F080911B0490911C04892B09F451C2109220
S11306001C0410921B048FEF9FEF909305018093BD
S1130610040146C290912204992309F4BCC08823A2
S113062089F0809120048F5F809320048A3E08F42F
S113063019C280913B041092240410922304109256
S1130640200410C210924E048091230491EE980F5E
S11306509B3028F4909120049650953070F090913E
S11306603B04943169F490EB980F9F3648F49091D1
S113067020049A539C36F0F003C063E271E04AC050
S113068022EA280F243558F49091200432ED390FD2
S11306903C3208F412C29751973108F406C2909183
S11306A03B04943151F4243540F490912004955046
S11306B0983018F462E171E02DC094EC980F9031F9
S11306C030F4909120049C53903108F465C297ED66
S11306D0980F983108F4F4C198ED980F973108F405
S11306E0F6C195EF980F963008F0F8C19091200468
S11306F025EF290F263008F0F6C190931A04815192
S1130700803108F0F5C11092190480E480931F042D
S11307106CEA70E080912404882331F041E150E0D8
S11307208DE394E00E94353980914D0490913D040D
S113073080FF1DC0973139F1993029F120913F0490
S113074040912004241760F450E030E0220F331F5E
S1130750241735072CF08695817091E0892711C004
S11307609091190491110FC0869581700AC0983038
S113077051F4809120048751883010F481E001C045
S113078080E00E94F30081E080932304109220040F
S11307901092220467C190912104992309F455C150
S11307A0882309F405C2209120042F5F209320049C
S11307B090914A0480914E0498130BC030914B04DD
S11307C0313039F430914D0430FDFDC22F3208F040
S11307D04EC140913D04413021F52C3008F4C1C094
S11307E08B3008F4BEC091E0980F90934A04282FF0
S11307F030E02B503109322F22274091320450919E
S11308003304242B352B30933304209332049091FA
S11308104804890F8F5F809349048AE08093200401
S1130820C7C14F3009F058C030914B04311199C001
S1130830263218F19BEF980F9230F8F481E0809300
S11308404B0488E180933D0487E080934A0410922E
S113085046041092470410924804809349048091FE
S1130860300490913104880F991F20914F04822BFA
S113087090933104809330049BC14091410430E053
S113088050E0440F551F241735072CF0883008F426
S1130890E9C08AE035C08A3008F4F7C080E180936B
S11308A03D0489E08093460491E19093470491E0EC
S11308B090934804809349048091300490913104CA
S11308C09C0122273370232B09F4DFC09093320458
S11308D0109233049927B4C0473109F042C03091D3
S11308E04B0431113EC04091410430E050E0440FCC
S11308F0551F241735073CF08F3008F4B3C081E14D
S113090080934A0449C0813108F4BFC081E18093D7
S11309103D04109246048BE080934704809348047E
S113092086E18093490480913004909131042091B0
S1130930320430913304220F331F220F331FAC01D2
S1130940D6E056954795DA95E1F7242B352B30936D
S11309503304209332048F73992720911904822B36
S11309606FC030914D0430FF1BC060914104E22FF1
S1130970F0E070E0660F771FE617F7078CF0E82FBA
S1130980F0E0692F70E062507109E617F70744F050
S113099030914B04311104C081E080934B0408C1B1
S11309A02A3E08F472C0682F70E0292F30E02150ED
S11309B031096217730741F490914B04911104C0FB
S11309C08F5F80934E0461C0423009F4FFC14C3103
S11309D039F010922404109223041092200460C071
S11309E0882309F4F5C1803209F042C291E0909362
S11309F04B0492E090933D0480934A0480912E042A
S1130A0090912F049C01322F22273295330F307E90
S1130A104091320450913304242B352B309333040A
S1130A20209332044091300420E030E0342F330F1F
S1130A30330FF3E096958795FA95E1F7822B932B84
S1130A40909331048093300420C0811106C08091BA
S1130A5023048F5F8093230405C081E080932104E5
S1130A60809320048091240481110FC019C08091C7
S1130A70230490914204891708F4ABCF9091430466
S1130A80981708F4A6CF10924B0490914A048091D1
S1130A904E04981305C080914B04882309F412C2B4
S1130AA080913C04DF91CF91089580913B0484317F
S1130AB009F400CE61E071E02DCE60EF70E02ACE43
S1130AC0909120049952983108F469C005CE909110
S1130AD0200493519D3008F465C003CE9AEE980F1C
S1130AE09B3070F403CE2AEE290F2B3048F405CE48
S1130AF09151903108F407CE81E08093190408CE17
S1130B002DEF280F253058F49091200439EE390F39
S1130B10383008F44AC09950953008F446C09DED29
S1130B20980F9B3068F4909120049B50963040F4C9
S1130B3010921A0481E0809319046AE870E0EACD07
S1130B408650853070F4809120049FED980F913188
S1130B5040F480931A0481E08093190469E770E0FB
S1130B60D9CD2A3090F48091200499EF980F9530D4
S1130B7020F092EF980F993040F480931A0481E0AA
S1130B808093190468E670E0C5CD10922404109295
S1130B903D0460E070E0BECD6FED70E0BBCD6EEC67
S1130BA070E0B8CD6DEB70E0B5CD6BE970E0B2CD1F
S1130BB080914D0480FF91C0C091230490913F0423
S1130BC09C1708F048C090913D04993099F4909195
S1130BD04E04943079F4CC3068F080914A04843225
S1130BE029F481E00E94F30081E032C080E00E9499
S1130BF0F3001EC0D1E0869581708D270E94F3001A
S1130C0080913D048930D1F480914E048430B1F454
S1130C10CC30A0F081E00E94F30080914104209147
S1130C20200430E090E0880F991F821793071CF48A
S1130C30109219044DC0D09319044AC080914D04F8
S1130C40869581700E94F30080914D048695817091
S1130C50809319043DC080913E04C817A8F1809187
S1130C60410420911A0440911904821768F430E079
S1130C7090E0880F991F8217930734F081E04111A7
S1130C8080E08093190401C0842F90913D04993031
S1130C90C1F490914E049130A1F4813091F494E226
S1130CA090934A0425E02093460424E120934704CA
S1130CB025E1209348049093490410923304109240
S1130CC032040E94F30004C0109224041092200401
S1130CD08091200480931A0429C080913D048330BC
S1130CE041F590914E04903131F580912304855063
S1130CF08830D8F58091200424EC280F203130F47A
S1130D001092210481E180934E045BC02AE0209379
S1130D103D049093480490E29093490490934A04CC
S1130D208F50803100F581E00E94F300109221047D
S1130D3048C08C31F9F08091230490913E048917C6
S1130D4088F590914204891780F090914304981794
S1130D5060F08091200490914404891730F09091C0
S1130D604504981710F080E0DFCF1092240410920D
S1130D70200427C080914E048830E9F69091200425
S1130D809E529C32C0F69BE190933D04109246041F
S1130D90809347048093480480E1809349048093BE
S1130DA04A04C4CF90913F04981758F290912004BC
S1130DB020914004921728F220914104291708F247
S1130DC0B2CF81E047CE21115ECE03CD81112CC07C
S1130DD080911D0490911E048830974010F581E0A5
S1130DE080934B0482E080933D0410924A048091E6
S1130DF00201909103019093330480933204809113
S1130E00000190910101909331048093300480910A
S1130E10340481608093340410921E0410921D04E3
S1130E2034CE10923C0431CE90EF980F923008F0FB
S1130E30D0CD21E020934B0494E190933D04809322
S1130E404A048091320490913304AC01A4E0569595
S1130E504795AA95E1F750933104409330048F707D
S1130E6099279093330480933204209324040DCE65
S1130E7090EF980F923008F0ACCD91E090934B0432
S1130E8094E190933D0480934A04809132049091BC
S1130E90330420912E0440E050E0522F550F9C0162
S1130EA074E0369527957A95E1F7242B352B30930A
S1130EB03104209330048F709927909333048093E6
S1130EC03204E3CD6091000170910101209130045E
S1130ED0309131046217730769F440911D045091F5
S1130EE01E04403B544030F4809118048F5F80937B
S1130EF0180402C01092180480913D04813051F40A
S1130F00409118044150423028F410921E0410926B
S1130F101D04DAC041E040933C048830A1F5A901E6
S1130F20409550955370E0911B04F0911C044E17AA
S1130F305F07B9F4509331044093300410921C04B9
S1130F4010921B0480933B048091320490913304EB
S1130F5090933A04809339045093380440933704AF
S1130F60B3C020FD09C030931C0420931B041092CD
S1130F7005011092040104C010921C0410921B0479
S1130F8010923C04A1C08F3029F42F3F314009F066
S1130F906DC0F6CF803169F440913204509133042E
S1130FA04F3F510509F062C02E3F310509F05EC084
S1130FB0E7CF823011F5911159C020911D04309171
S1130FC01E0428303740B0F420910201309103010F
S1130FD030933304209332047093310460933004CB
S1130FE09091340491609093340410921E041092F2
S1130FF01D043CC010923C0439C0853079F5309111
S1131000260490912704E0912804232F2F70329511
S11310103F703227292F2F70232792959F702927FD
S1131020022E000C330B4E2F4F7050E0241735075F
S113103011F010923C04909129049E2720912A04D7
S1131040922720912B04921310923C042091340493
S113105090912504922B9093340408C0893031F484
S1131060943221F495E190933B0402C080933B04B5
S1131070209132043091330430933A04209339049C
S1131080823029F430930301209302010DC087308C
S113109059F420911F048091300490913104822BE3
S11310A09093310480933004809130049091310402
S11310B0909338048093370480912C0490912D04EC
S11310C0909336048093350480913C04882351F135
S11310D02091300430913104409132045091330412
S11310E06217730799F480910201909103018417A8
S11310F0950761F480911D0490911E048A3C9840E8
S113110028F4809134048160809334045093030163
S113111040930201309301012093000110921E04B8
S113112010921D0410922404109231041092300481
S1131130109223041092200480913B04843109F01E
S1131140AFCC87E880932304ABCCE3E8F5E031919E
S1131150DC012D91CD01321306C0B5E0E139FB0766
S1131160B1F780E0089581E00895CF93DF93E09193
S1131170E305F091E405309751F08081882339F03C
S1131180DF010D900020E9F7AE1BA25001C0AFEFC4
S1131190C9E9D5E080E090E29993AF3F19F0A81730
S11311A008F090838F5F31968034B1F78FB7F8944D
S11311B01092940510929305109292051092910545
S11311C08FBFDF91CF91089588E00E94FE29892B7B
S11311D061F081E10E94FE29892B49F481E090911C
S11311E07F06903229F480E0089583E0089582E038
S11311F008950F931F93CF93DF9300D000D01F92D5
S1131200CDB7DEB70E94E40881111BC042E050E074
S113121063E070E0CE0101960E94113C00918406C7
S11312201091850689819A818017910751F0602F6A
S113123083E090E00E94213C612F84E090E00E94D2
S1131240213C0E94E4088130D9F442E050E061E09E
S113125070E0CE0101960E94113C00918406109129
S1131260850689819A818017910751F0602F81E06A
S113127090E00E94213C612F82E090E00E94213C9A
S113128041E050E060E070E0CE0105960E94113C20
S11312900E94E4089D81891739F00E94E408682FB0
S11312A080E090E00E94213C41E050E065E070E085
S11312B0CE0104960E94113C6091AD018C816817A7
S11312C021F085E090E00E94213C6091140170912E
S11312D0150141E050E0CE0103960E94113C60915B
S11312E07905262F30E08B8190E02817390731F0FB
S11312F080911401909115010E94213C41E050E03D
S113130066E070E0CE0101960E94113C60916E058A
S11313108981681721F086E090E00E94213C0F90BB
S11313200F900F900F900F90DF91CF911F910F911D
S11313300895CF93DF93EB0146E050E0BC018DE7C5
S113134095E00E94333C86E0EDE7F5E0DE01019094
S11313500D928A95E1F7DF91CF910895DC01ED912B
S1131360FC910190F081E02D099464E470E085ED36
S113137096E00E945E3466E070E085ED96E00E949F
S1131380AE0960E070E085ED96E00E94AE0985ED5F
S113139096E00E94DC3460E089E00C94CF2964E498
S11313A070E085ED96E00E945E3466E070E085EDC5
S11313B096E00E94AE0961E070E085ED96E00E943F
S11313C0AE0985ED96E00E94DC3461E089E00C947E
S11313D0CF291F920F920FB60F9211242F933F9390
S11313E04F935F936F937F938F939F93AF93BF9329
S11313F0EF93FF930E94A102FF91EF91BF91AF91F0
S11314009F918F917F916F915F914F913F912F9118
S11314100F900FBE0F901F9018951F920F920FB64A
S11314200F9211242F933F934F935F936F937F9366
S11314308F939F93AF93BF93EF93FF930E94E4081E
S1131440811105C09091E505977009F46AC09091E7
S1131450E505903630F48091E5058F5F8093E505CE
S113146069C01092E5058330A9F48091760588233C
S113147009F460C081E08093E605809173058532AC
S113148019F41092730556C0809173058F5F809391
S1131490730550C080919505811110C0809191050C
S11314A0833031F41092910581E08093950542C018
S11314B0809191058F5F809391053CC08091940544
S11314C02091930590E00C9630E08217930714F076
S11314D01092940580919405882351F0809194058D
S11314E02091930590E00D9630E08217930731F434
S11314F0809192058330C9F41092920580919405ED
S11315002091930590E00D9630E08217930734F410
S1131510809194058F5F809394050CC0109294057C
S113152009C091E09093980592CF809192058F5FC6
S113153080939205FF91EF91BF91AF919F918F910D
S11315407F916F915F914F913F912F910F900FBEBB
S11315500F901F90189587EE95E00C94272A0F930F
S11315601F93CF93DF938C0168E670E085ED96E0DE
S11315700E945E3460E070E085ED96E00E94AE0962
S1131580E801095F1F4F699185ED96E00E94FF33E2
S1131590C017D107C1F785ED96E0DF91CF911F9178
S11315A00F910C94DC34CF93DF93CDB7DEB72E9735
S11315B00FB6F894DEBF0FBECDBFA8959FE088E1BB
S11315C00FB6F894A895809360000FBE90936000C6
S11315D040E553EC60E070E085ED96E00E94503405
S11315E061E088E00E94932961E089E00E949329E8
S11315F062E08BE00E94932960E08CE00E949329D2
S113160061E081E10E9493290E94C301109280004D
S1131610109281001092850010928400109289002B
S11316201092880010928B0010928A0010926F0022
S113163016BA84E395E0909389008093880089E04A
S11316408093810082E080936F001092B00010922A
S1131650B1001092B2001092B3001092B400109234
S1131660700017BA1092B60013BC809170008160AC
S1131670809370008091B10087608093B10078946A
S1131680A89540E06AE087EE95E00E948A318CEBF1
S113169092E0909378068093770684E690E09093A6
S11316A076068093750642E050E063E070E0CE0178
S11316B00A960E94113C8A859B859C012E523242D7
S11316C02330384010F08EE292E290939F01809391
S11316D09E0142E050E061E070E0CE0108960E9475
S11316E0113C888599859C0123513240233934402B
S11316F010F083E192E090939D0180939C0141E07E
S113170050E065E070E0CE010E960E94113C8E859B
S1131710803408F084E18093AD01609114017091EC
S1131720150141E050E0CE010D960E94113C81E08C
S11317309D85913009F080E08093790541E050E087
S113174066E070E0CE010C960E94113C8C858F3FC0
S113175009F487E780936E0564E470E085ED96E014
S11317600E945E3460E070E085ED96E00E94AE0970
S113177060E070E085ED96E00E94AE0985ED96E0AC
S11317800E94DC3464E470E085ED96E00E945E34EF
S113179061E070E085ED96E00E94AE0960E070E0E3
S11317A085ED96E00E94AE0985ED96E00E94DC345A
S11317B064E470E085ED96E00E945E3462E070E0DF
S11317C085ED96E00E94AE0968E570E085ED96E04F
S11317D00E94AE0985ED96E00E94DC3464E470E07A
S11317E085ED96E00E945E3463E070E085ED96E05E
S11317F00E94AE096091AD0185ED96E00E94FF3331
S113180085ED96E00E94DC3464E470E085ED96E0BA
S11318100E945E3464E070E085ED96E00E94AE09BB
S11318206091AD0185ED96E00E94FF3385ED96E071
S11318300E94DC3464E470E085ED96E00E945E343E
S113184065E070E085ED96E00E94AE0960916E055A
S113185085ED96E00E94FF3385ED96E00E94DC342E
S11318600E94B50964E470E085ED96E00E945E3460
S113187067E070E085ED96E00E94AE0960E870E0F4
S113188085ED96E00E94AE0985ED96E00E94DC3479
S113189060919A0170919B0146E050E086E695E0E4
S11318A00E94113C609198017091990142E050E0CE
S11318B084E695E00E94113C609196017091970135
S11318C042E050E082E695E00E94113C6091940170
S11318D07091950146E050E08CE595E00E94113C42
S11318E0609192017091930142E050E08AE595E0A5
S11318F00E94113C609190017091910142E050E08E
S113190088E595E00E94113C60918E0170918F01F1
S113191046E050E082E595E00E94113C60918C0124
S113192070918D0142E050E080E595E00E94113C09
S113193060918A0170918B0142E050E08EE495E061
S11319400E94113C609188017091890146E050E049
S113195088E495E00E94113C6091860170918701B2
S113196042E050E086E495E00E94113C60918401DD
S11319707091850142E050E084E495E00E94113CBE
S1131980609182017091830146E050E08EE395E01E
S11319900E94113C609180017091810142E050E00D
S11319A08CE395E00E94113C60917E0170917F016F
S11319B042E050E08AE395E00E94113C60917C0192
S11319C070917D0146E050E084E395E00E94113C73
S11319D060917A0170917B0142E050E082E395E0EE
S11319E00E94113C609178017091790142E050E0CD
S11319F080E395E00E94113C60917601709177013B
S1131A0046E050E08AE295E00E94113C6091740146
S1131A107091750142E050E088E295E00E94113C2B
S1131A20609172017091730142E050E086E295E0AA
S1131A300E94113C609170017091710146E050E088
S1131A4080E295E00E94113C60916E0170916F01FB
S1131A5042E050E08EE195E00E94113C60916C01FF
S1131A6070916D0142E050E08CE195E00E94113CE0
S1131A7060916A0170916B0146E050E086E195E067
S1131A800E94113C609168017091690142E050E04C
S1131A9084E195E00E94113C6091660170916701B8
S1131AA042E050E082E195E00E94113C60916401C3
S1131AB07091650146E050E08CE095E00E94113C95
S1131AC0609162017091630142E050E08AE095E028
S1131AD00E94113C609160017091610142E050E00C
S1131AE088E095E00E94113C60915E0170915F0175
S1131AF046E050E082E095E00E94113C60915C0178
S1131B0070915D0142E050E080E095E00E94113C5C
S1131B1060915A0170915B0142E050E08EEF94E0D5
S1131B200E94113C609158017091590146E050E0C7
S1131B3088EF94E00E94113C609156017091570126
S1131B4042E050E086EF94E00E94113C6091540121
S1131B507091550142E050E084EF94E00E94113C02
S1131B60609152017091530146E050E08EEE94E092
S1131B700E94113C609150017091510142E050E08B
S1131B808CEE94E00E94113C60914E0170914F01E3
S1131B9042E050E08AEE94E00E94113C60914C01D6
S1131BA070914D0146E050E084EE94E00E94113CB7
S1131BB060914A0170914B0142E050E082EE94E062
S1131BC00E94113C609148017091490142E050E04B
S1131BD080EE94E00E94113C6091460170914701AF
S1131BE046E050E08AED94E00E94113C609144018B
S1131BF07091450142E050E088ED94E00E94113C70
S1131C00609142017091430142E050E086ED94E01E
S1131C100E94113C609140017091410146E050E006
S1131C2080ED94E00E94113C60913E0170913F016F
S1131C3042E050E08EEC94E00E94113C60913C0143
S1131C4070913D0142E050E08CEC94E00E94113C24
S1131C5060913A0170913B0146E050E086EC94E0DB
S1131C600E94113C609138017091390142E050E0CA
S1131C7084EC94E00E94113C60913601709137012C
S1131C8042E050E082EC94E00E94113C6091340107
S1131C907091350146E050E08CEB94E00E94113CD9
S1131CA0609132017091330142E050E08AEB94E09C
S1131CB00E94113C609130017091310142E050E08A
S1131CC088EB94E00E94113C60912E0170912F01E9
S1131CD046E050E082EB94E00E94113C60912C01BC
S1131CE070912D0142E050E080EB94E00E94113CA1
S1131CF060912A0170912B0142E050E08EEA94E059
S1131D000E94113C609128017091290146E050E045
S1131D1088EA94E00E94113C6091260170912701A9
S1131D2042E050E086EA94E00E94113C6091240174
S1131D307091250142E050E084EA94E00E94113C55
S1131D40609122017091230146E050E08EE994E015
S1131D500E94113C609120017091210146E050E005
S1131D6088E994E00E94113C60911E0170911F016A
S1131D7046E050E082E994E00E94113C60911C012D
S1131D8070911D0146E050E08CE894E00E94113C03
S1131D9060911A0170911B0146E050E086E894E0DE
S1131DA00E94113C609118017091190146E050E0C5
S1131DB080E894E00E94113C609116017091170133
S1131DC046E050E08AE794E00E94113C60911201E1
S1131DD07091130146E050E084E794E00E94113CC6
S1131DE0609110017091110146E050E08EE694E09C
S1131DF00E94113C60910E0170910F0146E050E089
S1131E0088E694E00E94113C60910C0170910D01F0
S1131E1046E050E082E694E00E94113C60910A01A1
S1131E2070910B0146E050E08CE594E00E94113C77
S1131E30609108017091090146E050E086E594E064
S1131E400E94113C609106017091070146E050E048
S1131E5080E594E00E94113CA89587E0EEEAF1E069
S1131E60DE01119601900D928A95E1F7CE0101965B
S1131E700E94AF0A2E960FB6F894DEBF0FBECDBFF8
S1131E80DF91CF910895CF93C8E041E050E06AE735
S1131E9070E085ED96E00E94D734813069F485EDD9
S1131EA096E00E947833853A39F0A89588EC90E062
S1131EB00E941D29C15049F7CF910895E3E8F5E048
S1131EC080E2819395E0E139F907D9F70E94430F45
S1131ED06AE770E085ED96E00E945E3467E070E0AA
S1131EE085ED96E00E94AE0985ED96E00E94DC3413
S1131EF061E070E080E090E00C94E128CF93C82F7B
S1131F000E94430F6AE770E085ED96E00E945E341C
S1131F1064E070E085ED96E00E94AE096C2F70E0FD
S1131F2085ED96E00E94AE0985ED96E00E94DC34D2
S1131F3061E070E080E090E0CF910C94E128CF93D1
S1131F40DF93C82FD62F0E94430F6AE770E085ED18
S1131F5096E00E945E3461E070E085ED96E00E94B8
S1131F60AE096C2F70E085ED96E00E94AE096D2FEE
S1131F7085ED96E00E94FF3385ED96E00E94DC3407
S1131F8061E070E080E090E0DF91CF910C94E12873
S1131F90E3E8F5E080E2819395E0E139F907D9F7C8
S1131FA00E94430F6AE770E085ED96E00E945E347C
S1131FB065E070E085ED96E00E94AE0985ED96E05F
S1131FC00E94DC3461E070E080E090E00C94E12851
S1131FD0CF93DF93E62FF0E0ED57FA4F90819817F7
S1131FE041F1D62FC82F80830E94430F6AE770E027
S1131FF085ED96E00E945E3460E070E085ED96E049
S11320000E94AE096C2F70E085ED96E00E94AE0947
S11320106D2F85ED96E00E94FF3385ED96E00E94DA
S1132020DC3461E070E080E090E0DF91CF910C94CB
S1132030E128DF91CF91089581E08093E6058FEF49
S11320409FEF9093AC018093AB019093AA0180938E
S1132050A9019093A6018093A5019093A801809370
S1132060A7019093A4018093A3019093A20180936C
S1132070A1010E94E408833091F40E94C80F66E035
S11320808EE20E94E80F69E08EE20E94E80F6AE0A7
S113209082E30E94E80F6BE080E30C94E80F08955C
S11320A0CF93C82F0E94E408811105C0C33141F4C5
S11320B08091780509C00E94E408813039F4F6CF94
S11320C0C43121F48091770581111FC00E94430F10
S11320D06AE770E085ED96E00E945E3462E070E0AD
S11320E085ED96E00E94AE096C2F70E085ED96E0D8
S11320F00E94AE0985ED96E00E94DC3461E070E058
S113210080E090E0CF910C94E128CF910895EF9274
S1132110FF920F931F93CF93DF937C010E94A50836
S1132120882391F10E94430F6AE770E085ED96E001
S11321300E945E346AE070E085ED96E00E94AE098C
S113214003E815E0E7018EE0E80EF11CFE01899139
S1132150D8018D938D01608170E085ED96E00E9439
S1132160AE09CE15DF0591F785ED96E00E94DC34CB
S113217061E070E080E090E0DF91CF911F910F91DA
S1132180FF90EF900C94E128DF91CF911F910F9174
S1132190FF90EF90089585EB91E00C948710CF9316
S11321A0C82F0E94E408811105C0C33141F4809115
S11321B0780509C00E94E408813039F4F6CFC431AF
S11321C021F4809177058823F9F00E94430F6AE790
S11321D070E085ED96E00E945E3463E070E085ED8A
S11321E096E00E94AE096C2F70E085ED96E00E94A7
S11321F0AE0985ED96E00E94DC3461E070E080E099
S113220090E0CF910C94E128CF910895CF93DF9380
S1132210E091E105F091E205309751F08081882347
S113222039F0DF010D900020E9F7AE1BA25001C088
S1132230AFEFC9EDD5E080E090E29993AF3F19F09C
S1132240A81708F090838F5F31968830B1F7109209
S113225095050E94B50885E00E94CF1082E2DF91C7
S1132260CF910C94CF1010927B0510927C050E94A4
S1132270C80F0E941C100E9406110E94E4088330BB
S113228089F00E94E408811102C00C94CB100E94D2
S1132290E408813019F484EC91E002C083ED91E00C
S11322A00C94871008956FE787EE95E00E94C33081
S11322B083E10E94CF1081E0809379050E94B228C7
S11322C060936F0570937005809371059093720508
S11322D008950E94061183ED91E00E94871083E126
S11322E00E94CF1084E10E94CF1087EE95E00E94F7
S11322F0372E61E081E10E94CF2964E470E085ED2E
S113230096E00E945E3460E070E085ED96E00E9405
S1132310AE0961E070E085ED96E00E94AE0985EDBE
S113232096E00E94DC3464E470E085ED96E00E945F
S11323305E3461E070E085ED96E00E94AE0967E0EE
S113234070E085ED96E00E94AE0985ED96E00E946E
S1132350DC340E94430F6AE770E085ED96E00E944A
S11323605E3466E070E085ED96E00E94AE0985ED8E
S113237096E00E94DC3461E070E080E090E00C9430
S1132380E1280E94430F6AE770E085ED96E00E9421
S11323905E346CE070E085ED96E00E94AE098091B9
S11323A0AD016FE370E0681B710985ED96E00E9452
S11323B0AE0985ED96E00E94DC3461E070E080E0D7
S11323C090E00C94E128CF92DF92EF92FF920F936A
S11323D01F93CF93DF93CDB7DEB728970FB6F8944A
S11323E0DEBF0FBECDBF0E94E408882329F00E94FF
S11323F0E408813009F0CBC0009184061091850671
S11324000E94E4089E01295F3F4F790181114FC06A
S1132410003127E212076CF0C80160E177E20E9404
S1132420DF38CB014AE0B7010E944B39FC018081BF
S113243001C080E28983C80160E177E20E94DF384D
S113244048EEC42E43E0D42EB6010E94DF38CB01FF
S11324504AE0B7010E944B39FC0180818A83C8019C
S1132460B6010E94DF3854E6C52ED12CB6010E9475
S1132470DF38CB014AE0B7010E944B39FC0180816F
S11324808B83C801B6010E94DF386AE070E00E94C5
S1132490DF38CB014AE0B7010E944B39FC0180814F
S11324A08C8386E48D8389E00E94501048C0083EE6
S11324B0F3E01F076CF0C80168EE73E00E94DF3898
S11324C0CB014AE0B7010E944B39FC01808101C075
S11324D080E28983C80168EE73E00E94DF3824E655
S11324E0C22ED12CB6010E94DF38CB014AE0B701DD
S11324F00E944B39FC0180818A83C801B6010E9485
S1132500DF383AE0C32ED12CB6010E94DF38CB016C
S11325104AE0B7010E944B39FC0180818B83C801DA
S1132520B6010E94DF384AE0B7010E944B39FC0132
S113253080818C8381E48D8389E00E94CF108DE4B7
S11325408E830E94430F6AE770E085ED96E00E9457
S11325505E346BE070E085ED96E00E94AE098E017A
S11325600F5F1F4FF80161918F0170E085ED96E0D8
S11325700E94AE09E016F106A9F785ED96E00E94E7
S1132580DC3461E070E080E090E00E94E12828966D
S11325900FB6F894DEBF0FBECDBFDF91CF911F9170
S11325A00F91FF90EF90DF90CF900895EF920F93EB
S11325B01F930E94CB100E9406111092970560E0B1
S11325C081E10E94CF2920919E0130919F010AE070
S11325D010E040E35AE26EE272E287EE95E00E9478
S11325E05C3282E0E82E02E022E042E061E087EE25
S11325F095E00E94883260E070E087EE95E00E94EA
S1132600402F40E35AE26EE272E287EE95E00E94C8
S1132610A4306AE070E087EE95E00E94BE3062E389
S113262087EE95E00E94C93064E470E085ED96E0A1
S11326300E945E3460E070E085ED96E00E94AE0991
S113264060E070E085ED96E00E94AE0985ED96E0CD
S11326500E94DC3464E470E085ED96E00E945E3410
S113266061E070E085ED96E00E94AE0960E070E004
S113267085ED96E00E94AE0985ED96E00E94DC347B
S113268080917905882331F00E94E408811102C009
S11326900E9453111F910F91EF900C94E311CF936B
S11326A0DF93EC010E94E408811108C08091840644
S11326B090918506C817D90731F42CC00E94E4080C
S11326C0813041F5F3CF0E94E40881110AC0BE01B4
S11326D087EE95E00E94B12ED0939F01C0939E0196
S11326E00DC00E94E408813049F4BE0187EE95E0F4
S11326F00E94B12ED0939D01C0939C010E94E311CE
S11327000E94B22860936F057093700580937105E1
S113271090937205DF91CF9108950F931F9360E01A
S113272081E10E94CF290E94061184EC91E00E946D
S1132730871083E10E94CF1084E10E94CF10209182
S11327409C0130919D0109E010E045EA56E063E107
S113275072E087EE95E00E94ED3145EA56E063E1D0
S113276072E087EE95E00E948F3069E070E087EEBA
S113277095E00E94B93062E387EE95E00E94C9308B
S113278064E470E085ED96E00E945E3460E070E001
S113279085ED96E00E94AE0960E070E085ED96E07C
S11327A00E94AE0985ED96E00E94DC3464E470E09A
S11327B085ED96E00E945E3461E070E085ED96E080
S11327C00E94AE0960E070E085ED96E00E94AE09DB
S11327D085ED96E00E94DC341F910F910C94E31177
S11327E01F93CF93DF931F92CDB7DEB741E050E044
S11327F060E070E0CE0101960E94113C1981133013
S113280008F010E061E088E00E94CF290E945E0F8A
S11328100E940611123051F0111103C00E94D61209
S113282002C00E948D130E94E31102C00E9469112C
S113283064E470E085ED96E00E945E3460E070E050
S113284085ED96E00E94AE090E94E408882329F0F1
S11328500E94E40861E0813009F460E070E085EDF5
S113286096E00E94AE0985ED96E00E94DC340E9459
S1132870CF090E94C11188E20E9450108AE10E948F
S113288050108CE10E9450100E94430F6AE770E0E0
S113289085ED96E00E945E3468E070E085ED96E098
S11328A00E94AE0985ED96E00E94DC3461E070E0A0
S11328B080E090E00E94E1280F90DF91CF911F917A
S11328C008950F931F93CF93DF938C01EB010E9424
S11328D0E408833039F40E94F0130E94E408811163
S11328E00E94D6120E94E408811102C0C80105C0EA
S11328F00E94E408813039F4CE01DF91CF911F9119
S11329000F910C944F13DF91CF911F910F91089564
S1132910CF92DF92EF92FF920F931F93CF93DF93A7
S1132920CDB7DEB760970FB6F894DEBF0FBECDBF4C
S1132930A8958BE00E94FE29892B99F5A8958FE430
S113294093EC0197F1F700C00000A8958BE00E947A
S1132950FE29892BE1F480917C0581110EC081E070
S113296080937C0580937B0582EE91E00E94871022
S113297085E00E94CF1082E208C0813041F40E94B9
S1132980331187E00E94CF1086E00E94CF109FE7AA
S1132990ACEFBAE09150A040B040E1F700C00000B5
S11329A0A89580917605811115C080917405909148
S11329B07505883EEDEF9E0740F00E945E0F81E0B2
S11329C0809376050E941C1005C0019690937505AE
S11329D0809374050E94E408833009F0EFC080916D
S11329E0E605882309F4EAC080917605882309F472
S11329F0E5C01092E60588E00E947E0F89E00E94FF
S1132A007E0F68E670E085ED96E00E945E3460E03B
S1132A1070E085ED96E00E94AE0985ED96E00E9497
S1132A20DC3420E030E047E050E068E670E085ED1B
S1132A3096E00E94DA3447E050E0BE016F5F7F4FBA
S1132A4085ED96E00E9447289A81892F80778695A4
S1132A5086958695282F220F220F820F9F70890F4B
S1132A609B81292F2073E22EE694E694E6942E2D82
S1132A70220F220FE20E9F70E90E9C819770F92EAF
S1132A809D81292F2073D22ED694D694D6942D2DA1
S1132A90220F220FD20E9F70D90E9E8194FB112714
S1132AA010F9110F212F220F220F120F9F70190FEF
S1132AB00F81902F92959F700F70BAE09B9F000D2D
S1132AC01124282F30E04091AB015091AC01241720
S1132AD0350709F13093AC012093AB016AE00E9401
S1132AE0BF38C92E4AE0BE01615F7F4F90E00E946B
S1132AF04B3963E0DC018C910E949F0F4AE0BE01D8
S1132B00615F7F4F8C2D90E00E944B3964E0FC01A3
S1132B1080810E949F0F8E2D90E02091A901309119
S1132B20AA018217930711F19093AA018093A90136
S1132B308E2D6AE00E94BF38E92E4AE0BE01615F33
S1132B407F4F90E00E944B3961E0DC018C910E9440
S1132B509F0F4AE0BE01615F7F4F8E2D90E00E947F
S1132B604B3962E0FC0180810E949F0F8F2D90E021
S1132B702091A5013091A6018217930709F0C9C3DA
S1132B808D2D90E02091A7013091A8018217930721
S1132B9009F0DFC3812F90E02091A3013091A401BB
S1132BA08217930709F0FCC3802F90E02091A101C4
S1132BB03091A2018217930709F019C40E94E40816
S1132BC0833029F5809173059091A0019817F9F04D
S1132BD0809176058823D9F080917305882309F4C0
S1132BE02DC48091730590E00197FC01EF52FC4FD6
S1132BF080810E94CF10E0917305F0E0EF52FC4F0A
S1132C0080810E945010809173058093A0010E94DE
S1132C10E408833009F444C080916F0590917005F5
S1132C20A0917105B0917205892B8A2B8B2BB1F081
S1132C300E94B22800916F051091700520917105D2
S1132C4030917205DC01CB01801B910BA20BB30BFD
S1132C5089389341A105B10508F0F3C30E94E40843
S1132C6081111EC080916C0590916D05803AFFE042
S1132C709F0789F410926D0510926C0587EE95E01C
S1132C800E940630809179058111E6C380919C06EB
S1132C9087FDF8C3E1C3019690936D0580936C059D
S1132CA00E94E408811161C080919805882309F489
S1132CB05CC080917C05811158C01092980520E079
S1132CC040E060E087EE95E00E94E2328091B30636
S1132CD080FFDFC39091B40690FFDBC382FFD9C3AA
S1132CE080919705811107C081E0809397050E9428
S1132CF006110E94C80F87EE95E00E94142C909351
S1132D00E4058093E30587EE95E00E94E62B90931B
S1132D10E2058093E105E091E305F091E405309745
S1132D2009F43BC41092960509E915E09F01205C63
S1132D303F4FD8018191803209F0B9C31196E2174F
S1132D40F307C1F780E0909195059111BCC3E09120
S1132D50E105F091E205309709F03AC48091A101B0
S1132D609091A201892B09F46CC48DE795E00E942F
S1132D70C601882311F40C94F82710918205117070
S1132D8080917C05813009F071C211110C94F827EF
S1132D9080917B05813109F486C108F063C08830D5
S1132DA009F41FC170F5843009F4F1C0B8F482301D
S1132DB009F4CEC008F0DDC0813011F00C94F8277E
S1132DC066E675E080919A0190919B010E949909B1
S1132DD081EF91E00E94871082E0C7C0863009F439
S1132DE0E4C008F0F0C06EE375E080918201909138
S1132DF083010E9499098DE292E00E94871086E087
S1132E00B4C08C3009F417C198F48A3009F4F7C0BF
S1132E1008F003C166E175E080916A0190916B014D
S1132E200E94990989E692E00E9487108AE09DC079
S1132E308E3009F41CC108F40CC18F3009F425C18B
S1132E40803111F00C94F82760ED74E0809140011A
S1132E50909141010E94990983ED92E00E948710AC
S1132E6081E183C0843709F4F8C1D8F58F3609F4B9
S1132E7044C1D0F4833109F432C108F422C184314D
S1132E8011F00C94F82768EA74E08091280190917D
S1132E9029010E94990987E00E9450108FE093E075
S1132EA00E9487108FE661C0813709F44BC108F492
S1132EB038C1823709F454C1833711F00C94F827D0
S1132EC066E874E080911A0190911B010E949909AF
S1132ED087E00E9450108BE493E00E94871086E7FD
S1132EE044C0883709F45EC1C8F4863709F446C182
S1132EF008F4A5C16EE674E080911001909111016F
S1132F000E94990986E00E94CF1087E00E94501029
S1132F108AE593E00E94871088E727C08A3709F47E
S1132F2069C108F453C18B3709F478C18C3711F0A7
S1132F300C94F82760E574E08091060190910701F4
S1132F400E94990986E993E00E94871084E70DC0E6
S1132F506CE575E080919401909195010E94990926
S1132F6080E092E00E94871083E080937B050C94BC
S1132F70F82762E575E080918E0190918F010E949F
S1132F8099098FE092E00E94871084E0EECF68E414
S1132F9075E080918801909189010E9499098EE1E0
S1132FA092E00E94871085E0E0CF64E375E08091B1
S1132FB07C0190917D010E9499098CE392E00E942A
S1132FC0871087E0D2CF6AE275E080917601909114
S1132FD077010E9499098BE492E00E94871088E0AF
S1132FE0C4CF60E275E080917001909171010E94FC
S1132FF099098AE592E00E94871089E0B6CF6CE0D7
S113300075E080916401909165010E94990988E7B7
S113301092E00E9487108BE0A8CF62E075E0809177
S11330205E0190915F010E94990988E892E00E94F4
S113303087108CE09ACF68EF74E0809158019091EA
S113304059010E94990987E992E00E9487108DE056
S11330508CCF6EEE74E080915201909153010E94E6
S1133060990986EA92E00E9487108EE07ECF64EE92
S113307074E080914C0190914D010E94990985EB77
S113308092E00E9487108FE070CF6AED74E0809127
S11330904601909147010E94990984EC92E00E94B4
S11330A0871080E162CF66EC74E080913A019091E0
S11330B03B010E94990982EE92E00E94871082E10E
S11330C054CF6CEB74E080913401909135010E94EF
S11330D0990981EF92E00E94871083E146CF62EB69
S11330E074E080912E0190912F010E94990980E053
S11330F093E00E94871084E138CF6EE974E08091F8
S11331002201909123010E94990987E00E94CF1027
S113311086E00E9450108FE093E00E94871080E7C1
S113312024CF68E974E080912001909121010E94EC
S1133130990986E00E94CF108EE193E00E948710E7
S113314081E713CF62E974E080911E0190911F0121
S11331500E9499098DE293E00E94871082E705CFCF
S11331606CE874E080911C0190911D010E94990902
S11331708CE393E00E94871083E7F7CE64E774E062
S113318080911201909113010E94990987E00E9495
S1133190CF1086E00E9450108BE493E00E948710C9
S11331A087E7E3CE68E674E080910E0190910F0109
S11331B00E94990987E00E94CF1086E00E94501077
S11331C08AE593E00E94871089E7CFCE62E674E037
S11331D080910C0190910D010E94990987E00E9451
S11331E0501086E00E94CF1089E693E00E94871079
S11331F08AE7BBCE6CE574E080910A0190910B01E3
S11332000E94990986E00E94501087E00E94CF1026
S113321089E693E00E9487108BE7A7CE66E574E009
S113322080910801909109010E94990986E00E9409
S1133230CF1088E793E00E94871085E796CE6AE76F
S113324074E080911601909117010E94990987E812
S113325093E00E9487108CE788CE60E874E0809148
S11332601801909119010E949909CBC78230A9F4E1
S113327011110C94F8270E94E408811107C00E94E0
S1133280E408833009F077C20C94F8270E94E4081C
S1133290813011F00C94F827F2CF0E94E4088330B7
S11332A051F480916205909163058E52924283306D
S11332B09840A0F004C00E94E408882391F30E947F
S11332C0E408813009F0A0C78091640590916505F8
S11332D0835192408339944008F096C745E050E00A
S11332E066E675E08DE795E00E943E39892B09F08A
S11332F08BC7111189C780917C05811185C76091A5
S113330064057091650580916205909163050C9444
S113331051259093A6018093A50120917C0521114C
S11333202FCC880F991FFC01EB50FC4FE080F180FB
S113333060E0D7018C910E94E80F61E0F701818180
S11333400E94E80F62E0D70112968C910E94E80F68
S113335017CC9093A8018093A70180917C058111DB
S113336019CC8D2D6AE00E94BF38F92E4AE0BE01C7
S1133370615F7F4F90E00E944B3964E0FC018081E3
S11333800E94E80F4AE0BE01615F7F4F8F2D90E0FD
S11333900E944B3965E0DC018C910E94E80FFACB66
S11333A09093A4018093A30180917C058111FCCBAF
S11333B0812F6AE00E94BF38192F4AE0BE01615F85
S11333C07F4F90E00E944B3967E0FC0180810E94AE
S11333D0E80F4AE0BE01615F7F4F812F90E00E94B9
S11333E04B3968E0DC018C910E94E80FDDCB9093AF
S11333F0A2018093A10180917C058111DFCB802FF4
S11334006AE00E94BF38192F4AE0BE01615F7F4F16
S113341090E00E944B396CE0FC0180810E94E80F2F
S11334204AE0BE01615F7F4F812F90E00E944B39DB
S11334306DE0DC018C910E94E80FC0CB85E290E046
S1133440D4CB10926F0510927005109271051092F2
S113345072050E94F90802CC83E10E94CF101092F9
S1133460780580919E068C3138F084E10E945010DA
S113347081E08093770514CC84E10E94CF101092F0
S113348077050ECC83E10E94501081E0809378058B
S1133490E8CF0E9406111092970585EB91E00E94F7
S11334A0A508882309F461CC0E94CB105ECC9C91C2
S11334B0903209F443CC891709F440CC882309F4E9
S11334C03DCC81E040CC882321F00E94B5080E94C5
S11334D0C80F2091E3053091E405E9EDF5E0D90149
S11334E08D919D019EED980F9D3520F4D8019C91FE
S11334F089138C930F5F1F4FE017F10781F78FE358
S113350090E02291203219F08093930502C0019734
S1133510C0F7809193058E3010F410929405FE014B
S1133520319620E030E0CF0140919405D901A756AF
S1133530BA4FA40FB11D4C9141932F5F3F4F2E30D2
S1133540310591F70E94871080919405882321F01A
S113355085E00E94501003C085E00E94CF1061E016
S113356070E080E090E00E94E12880919405209131
S1133570930590E00D9630E08217930724F482E2DD
S11335800E94501003C082E20E94CF1061E070E0FC
S113359080E090E00E94E128DACB809196058830A3
S11335A020F48F5F80939605D2CB883009F0CFCB7F
S11335B0109296050E94061185EB91E00E94A508E1
S11335C0882309F4C4CB109297050E94CB10BFCB7B
S11335D08091B30684FFC2CB09ED15E09F01285FFB
S11335E03F4FD8018191803209F08C9311962E17A8
S11335F03F07C1F7809195058111B0CBE1EEF5E06D
S113360087E090E02291203219F40197D8F780E006
S1133610282F30E02F5F3F4F359527958095817097
S1133620E12C97E0F92EF81AF21A6F2D6E0DD801DD
S11336308D918D010E94E80FE394B8E0EB12F5CF71
S11336408DCB6BEAE62E61E0F62E09EA11E027EA5B
S113365031E043EA51E061EA71E087EE95E00E94CF
S11336601E2D882309F481CBE090A701F090A801D6
S11336700091A3011091A401E091A101F091A20194
S11336800330110528F46F0121E0C21AD10804C0E7
S11336906F0132E0C31AD10827E1209FC001219FA6
S11336A0900D112469E070E00E94CB38C7010496A4
S11336B09B01280F391FC601969587959695879586
S11336C0280F391FC60160E971E00E94CB38260F2C
S11336D0371FC60164E670E00E94CB38C901861B1F
S11336E0970B67E070E00E94CB38AC01892B11F492
S11336F047E050E05093A6014093A501E05DF740F8
S1133700F093A201E093A10119828091AB01909101
S1133710AC012AE030E0B9010E94CB386295607FA9
S1133720862B8A838091A9019091AA01B9010E94F4
S1133730CB386295607F862B8B834C83C701B9019C
S11337400E94CB386295607F862B8D83C801B901B6
S11337500E94CB386295607F862B8E83CF01B9019E
S11337600E94CB386295607F862B8F83CE010196B1
S11337700E94AF0AFACA45E050E066E675E08DE7BC
S113378095E00E943E39892BC9F50E94E408811115
S113379018C00091840610918506602F80919601CF
S11337A0909197010E94213C8091960190919701FC
S11337B0612F01960E94213C0093620510936305DA
S11337C020C50E94E408813009F01BC500918406DD
S11337D010918506602F80919801909199010E9423
S11337E0213C8091980190919901612F01960E944A
S11337F0213C009364051093650503C545E050E042
S11338006CE575E08DE795E00E943E39892BC9F59A
S11338100E94E408811118C0009184061091850665
S1133820602F80919001909191010E94213C8091A0
S1133830900190919101612F01960E94213C009387
S1133840580510935905DDC40E94E408813009F03D
S1133850D8C40091840610918506602F809192014E
S1133860909193010E94213C809192019091930147
S1133870612F01960E94213C00935A0510935B0529
S1133880C0C445E050E062E575E08DE795E00E9434
S11338903E39892BC9F50E94E408811118C00091B2
S11338A0840610918506602F80918A0190918B0186
S11338B00E94213C80918A0190918B01612F019695
S11338C00E94213C00934E0510934F059AC40E9418
S11338D0E408813009F095C40091840610918506AE
S11338E0602F80918C0190918D010E94213C8091E8
S11338F08C0190918D01612F01960E94213C0093CF
S11339005005109351057DC445E050E068E475E02E
S11339108DE795E00E943E39892BC9F50E94E408A1
S1133920811118C00091840610918506602F809142
S11339308401909185010E94213C809184019091A1
S11339408501612F01960E94213C00934405109348
S1133950450557C40E94E408813009F052C400911F
S1133960840610918506602F8091860190918701CD
S11339700E94213C8091860190918701612F0196DC
S11339800E94213C00934605109347053AC445E044
S113399050E06EE375E08DE795E00E943E39892B97
S11339A0C9F50E94E408811118C0009184061091A1
S11339B08506602F80917E0190917F010E94213CB9
S11339C080917E0190917F01612F01960E94213C9C
S11339D000933A0510933B0514C40E94E408813017
S11339E009F00FC40091840610918506602F809120
S11339F08001909181010E94213C809180019091ED
S1133A008101612F01960E94213C00933C05109393
S1133A103D05F7C345E050E064E375E08DE795E0CC
S1133A200E943E39892BC9F50E94E408811118C00F
S1133A300091840610918506602F80917801909101
S1133A4079010E94213C8091780190917901612F44
S1133A5001960E94213C0093300510933105D1C397
S1133A600E94E408813009F0CCC3009184061091CF
S1133A708506602F80917A0190917B010E94213C00
S1133A8080917A0190917B01612F01960E94213CE3
S1133A900093320510933305B4C345E050E06AE265
S1133AA075E08DE795E00E943E39892BC9F50E94A7
S1133AB0E408811118C00091840610918506602FD6
S1133AC080917201909173010E94213C8091720156
S1133AD090917301612F01960E94213C0093260569
S1133AE0109327058EC30E94E408813009F089C32E
S1133AF00091840610918506602F80917401909145
S1133B0075010E94213C8091740190917501612F8F
S1133B1001960E94213C009328051093290571C346
S1133B2045E050E060E275E08DE795E00E943E39A3
S1133B30892BC9F50E94E408811118C000918406FC
S1133B4010918506602F80916C0190916D010E9407
S1133B50213C80916C0190916D01612F01960E942E
S1133B60213C00931C0510931D054BC30E94E408DF
S1133B70813009F046C30091840610918506602FB8
S1133B8080916E0190916F010E94213C80916E01A1
S1133B9090916F01612F01960E94213C00931E05B4
S1133BA010931F052EC345E050E066E175E08DE7F4
S1133BB095E00E943E39892BC9F50E94E4088111E1
S1133BC018C00091840610918506602F80916601CB
S1133BD0909167010E94213C809166019091670158
S1133BE0612F01960E94213C009312051093130546
S1133BF008C30E94E408813009F003C300918406DD
S1133C0010918506602F80916801909169010E944E
S1133C10213C8091680190916901612F01960E9475
S1133C20213C0093140510931505EBC245E050E0C8
S1133C306CE075E08DE795E00E943E39892BC9F56B
S1133C400E94E408811118C0009184061091850631
S1133C50602F80916001909161010E94213C8091CC
S1133C60600190916101612F01960E94213C0093B3
S1133C70080510930905C5C20E94E408813009F0C3
S1133C80C0C20091840610918506602F8091620164
S1133C90909163010E94213C8091620190916301A3
S1133CA0612F01960E94213C00930A0510930B0595
S1133CB0A8C245E050E062E075E08DE795E00E941F
S1133CC03E39892BC9F50E94E408811118C000917E
S1133CD0840610918506602F80915A0190915B01B2
S1133CE00E94213C80915A0190915B01612F0196C1
S1133CF00E94213C0093FE041093FF0482C20E94A0
S1133D00E408813009F07DC2009184061091850693
S1133D10602F80915C0190915D010E94213C809113
S1133D205C0190915D01612F01960E94213C0093FA
S1133D3000051093010565C245E050E068EF74E0AA
S1133D408DE795E00E943E39892BC9F50E94E4086D
S1133D50811118C00091840610918506602F80910E
S1133D605401909155010E94213C809154019091FD
S1133D705501612F01960E94213C0093F404109395
S1133D80F5043FC20E94E408813009F03AC2009170
S1133D90840610918506602F8091560190915701F9
S1133DA00E94213C8091560190915701612F019608
S1133DB00E94213C0093F6041093F70422C245E0CC
S1133DC050E06EEE74E08DE795E00E943E39892B59
S1133DD0C9F50E94E408811118C00091840610916D
S1133DE08506602F80914E0190914F010E94213CE5
S1133DF080914E0190914F01612F01960E94213CC8
S1133E000093EA041093EB04FCC10E94E40881309F
S1133E1009F0F7C10091840610918506602F809106
S1133E205001909151010E94213C80915001909148
S1133E305101612F01960E94213C0093EC041093E0
S1133E40ED04DFC145E050E064EE74E08DE795E0F9
S1133E500E943E39892BC9F50E94E408811118C0DB
S1133E600091840610918506602F809148019091FD
S1133E7049010E94213C8091480190914901612FA0
S1133E8001960E94213C0093E0041093E104B9C11F
S1133E900E94E408813009F0B4C1009184061091B5
S1133EA08506602F80914A0190914B010E94213C2C
S1133EB080914A0190914B01612F01960E94213C0F
S1133EC00093E2041093E3049CC145E050E06AEDE2
S1133ED074E08DE795E00E943E39892BC9F50E9474
S1133EE0E408811118C00091840610918506602FA2
S1133EF080914201909143010E94213C80914201B2
S1133F0090914301612F01960E94213C0093D604B5
S1133F101093D70476C10E94E408813009F071C17E
S1133F200091840610918506602F80914401909140
S1133F3045010E94213C8091440190914501612FEB
S1133F4001960E94213C0093D8041093D90459C1CE
S1133F5045E050E060ED74E08DE795E00E943E3965
S1133F60892BC9F50E94E408811118C000918406C8
S1133F7010918506602F80913C0190913D010E9433
S1133F80213C80913C0190913D01612F01960E945A
S1133F90213C0093CC041093CD0433C10E94E40867
S1133FA0813009F02EC10091840610918506602F9E
S1133FB080913E0190913F010E94213C80913E01FD
S1133FC090913F01612F01960E94213C0093CE0401
S1133FD01093CF0416C145E050E066EC74E08DE721
S1133FE095E00E943E39892BC9F50E94E4088111AD
S1133FF018C00091840610918506602F80913601C7
S1134000909137010E94213C8091360190913701B3
S1134010612F01960E94213C0093C2041093C304B3
S1134020F0C00E94E408813009F0EBC000918406DE
S113403010918506602F80913801909139010E947A
S1134040213C8091380190913901612F01960E94A1
S1134050213C0093C4041093C504D3C045E050E050
S11340606CEB74E08DE795E00E943E39892BC9F52D
S11340700E94E408811118C00091840610918506FD
S1134080602F80913001909131010E94213C8091F8
S1134090300190913101612F01960E94213C0093DF
S11340A0B8041093B904ADC00E94E408813009F04B
S11340B0A8C00091840610918506602F809132017A
S11340C0909133010E94213C8091320190913301FF
S11340D0612F01960E94213C0093BA041093BB0403
S11340E090C045E050E062EB74E08DE795E00E94FB
S11340F03E39892BC9F50E94E408811118C000914A
S1134100840610918506602F80912A0190912B01DD
S11341100E94213C80912A0190912B01612F0196EC
S11341200E94213C0093AE041093AF046AC00E9425
S1134130E408813009F065C0009184061091850679
S1134140602F80912C0190912D010E94213C80913F
S11341502C0190912D01612F01960E94213C009326
S1134160B0041093B1044DC045E050E068EA74E037
S11341708DE795E00E943E39892BC1F50E94E40841
S1134180811118C00091840610918506602F8091DA
S11341902401909125010E94213C80912401909159
S11341A02501612F01960E94213C0093A4041093E1
S11341B0A50427C00E94E408813019F50091840603
S11341C010918506602F80912601909127010E940D
S11341D0213C8091260190912701612F01960E9434
S11341E0213C0093A6041093A7040BC045E050E0C3
S11341F060E874E08DE795E00E943E39892B09F070
S1134200F7C60E943311F4C60E94E408833049F0D3
S11342100E94E408882329F00E94E408813071F5A3
S113422014C080915805909159058E529242833062
S1134230984090F745E050E06CE575E08DE795E037
S11342400E943E39892B59F019C080915A059091EA
S11342505B05835192408339944060F30FC0111180
S11342600DC080917C05811109C060915A0570913F
S11342705B05809158059091590513C40E94E40888
S1134280833049F00E94E408882329F00E94E4085E
S1134290813071F514C080914E0590914F058E5276
S11342A092428330984090F745E050E062E575E033
S11342B08DE795E00E943E39892B59F019C0809111
S11342C0500590915105835192408339944060F395
S11342D00FC011110DC080917C05811109C060913E
S11342E050057091510580914E0590914F05D9C3A9
S11342F00E94E408833049F00E94E408882329F0EE
S11343000E94E408813071F514C0809144059091B5
S113431045058E5292428330984090F745E050E034
S113432068E475E08DE795E00E943E39892B59F0E9
S113433019C0809146059091470583519240833975
S1134340944060F30FC011110DC080917C05811160
S113435009C060914605709147058091440590918C
S113436045059FC30E94E408833049F00E94E40895
S1134370882329F00E94E408813071F514C08091EB
S11343803A0590913B058E5292428330984090F7C3
S113439045E050E06EE375E08DE795E00E943E391C
S11343A0892B59F019C080913C0590913D058351AA
S11343B092408339944060F30FC011110DC0809175
S11343C07C05811109C060913C0570913D05809187
S11343D03A0590913B0565C30E94E408833049F097
S11343E00E94E408882329F00E94E408813071F5D2
S11343F014C080913005909131058E5292428330E1
S1134400984090F745E050E064E375E08DE795E06F
S11344100E943E39892B59F019C080913205909140
S11344203305835192408339944060F30FC01111D6
S11344300DC080917C05811109C060913205709195
S1134440330580913005909131052BC30E94E40817
S1134450833049F00E94E408882329F00E94E4088C
S1134460813029F514C080912605909127058E523C
S113447092428330984090F745E050E06AE275E05C
S11344808DE795E00E943E39892B59F010C0809148
S1134490280590912905835192408339944060F313
S11344A006C0111104C080917C058823D1F10E94BB
S11344B0E408833049F00E94E408882329F00E942C
S11344C0E4088130B9F514C080911C0590911D0554
S11344D08E5292428330984090F745E050E060E27B
S11344E075E08DE795E00E943E39892B59F022C092
S11344F080911E0590911F05835192408339944009
S113450060F318C0111116C080917C05811112C08E
S113451060911E0570911F0580911C0590911D05E9
S1134520C0C260912805709129058091260590915B
S11345302705B7C20E94E408833049F00E94E408CA
S1134540882329F00E94E408813071F514C0809119
S11345501205909113058E5292428330984090F741
S113456045E050E066E175E08DE795E00E943E3954
S1134570892B59F019C08091140590911505835128
S113458092408339944060F30FC011110DC08091A3
S11345907C05811109C06091140570911505809105
S11345A01205909113057DC20E94E408833049F0FE
S11345B00E94E408882329F00E94E408813071F500
S11345C014C080910805909109058E52924283305F
S11345D0984090F745E050E06CE075E08DE795E099
S11345E00E943E39892B59F019C080910A05909197
S11345F00B05835192408339944060F30FC011112D
S11346000DC080917C05811109C060910A057091EB
S11346100B05809108059091090543C20E94E408A6
S1134620833049F00E94E408882329F00E94E408BA
S1134630813071F514C08091FE049091FF048E5274
S113464092428330984090F745E050E062E075E094
S11346508DE795E00E943E39892B59F019C080916D
S1134660000590910105835192408339944060F391
S11346700FC011110DC080917C05811109C060919A
S11346800005709101058091FE049091FF0409C218
S11346900E94E408833049F00E94E408882329F04A
S11346A00E94E408813071F514C08091F404909163
S11346B0F5048E5292428330984090F745E050E0E2
S11346C068EF74E08DE795E00E943E39892B59F03C
S11346D019C08091F6049091F70483519240833974
S11346E0944060F30FC011110DC080917C058111BD
S11346F009C06091F6047091F7048091F4049091DC
S1134700F504CFC10E94E408833049F00E94E40814
S1134710882329F00E94E408813071F514C0809147
S1134720EA049091EB048E5292428330984090F7C1
S113473045E050E06EEE74E08DE795E00E943E396E
S1134740892B59F019C08091EC049091ED048351A8
S113475092408339944060F30FC011110DC08091D1
S11347607C05811109C06091EC047091ED04809185
S1134770EA049091EB0495C10E94E408833049F067
S11347800E94E408882329F00E94E408813029F576
S113479014C08091E0049091E1048E5292428330DF
S11347A0984090F745E050E064EE74E08DE795E0C2
S11347B00E943E39892B59F010C08091E2049091F7
S11347C0E304835192408339944060F306C011118D
S11347D004C080917C058823D1F10E94E4088330D1
S11347E049F00E94E408882329F00E94E4088130FB
S11347F0B9F514C08091D6049091D7048E52924298
S11348008330984090F745E050E06AED74E08DE71E
S113481095E00E943E39892B59F022C08091D8043A
S11348209091D904835192408339944060F318C025
S1134830111116C080917C05811112C06091D804B9
S11348407091D9048091D6049091D7042AC16091C3
S1134850E2047091E3048091E0049091E10421C1A9
S11348600E94E408833049F00E94E408882329F078
S11348700E94E408813071F514C08091CC049091B9
S1134880CD048E5292428330984090F745E050E038
S113489060ED74E08DE795E00E943E39892B59F074
S11348A019C08091CE049091CF04835192408339F2
S11348B0944060F30FC011110DC080917C058111EB
S11348C009C06091CE047091CF048091CC04909182
S11348D0CD04E7C00E94E408833049F00E94E40854
S11348E0882329F00E94E408813071F514C0809176
S11348F0C2049091C3048E5292428330984090F740
S113490045E050E066EC74E08DE795E00E943E39A6
S1134910892B59F019C08091C4049091C504835126
S113492092408339944060F30FC011110DC08091FF
S11349307C05811109C06091C4047091C504809103
S1134940C2049091C304ADC00E94E408833049F0CE
S11349500E94E408882329F00E94E408813071F55C
S113496014C08091B8049091B9048E52924283305D
S1134970984090F745E050E06CEB74E08DE795E0EB
S11349800E943E39892B59F019C08091BA04909144
S1134990BB04835192408339944060F30FC01111DA
S11349A00DC080917C05811109C06091BA04709199
S11349B0BB048091B8049091B90473C00E94E408C8
S11349C0833049F00E94E408882329F00E94E40817
S11349D0813071F514C08091AE049091AF048E5271
S11349E092428330984090F745E050E062EB74E0E7
S11349F08DE795E00E943E39892B59F019C08091CA
S1134A00B0049091B104835192408339944060F38F
S1134A100FC011110DC080917C05811109C06091F6
S1134A20B0047091B1048091AE049091AF0439C088
S1134A300E94E408833049F00E94E408882329F0A6
S1134A400E94E408813081F514C08091A4049091FF
S1134A50A5048E5292428330984090F745E050E08E
S1134A6068EA74E08DE795E00E943E39892B59F09D
S1134A701BC08091A6049091A7048351924083396E
S1134A80944060F311C011110FC080917C05811115
S1134A900BC06091A6047091A7048091A404909126
S1134AA0A5040E946114A4C20E94E408882321F092
S1134AB00E94E4088130F9F445E050E068E974E0CC
S1134AC08DE795E00E943E39892BA9F480917C05FD
S1134AD0811111C087EE95E00E94672F0E94E311B7
S1134AE00E94B22860936F057093700580937105DE
S1134AF0909372057DC20E94E408882321F00E94ED
S1134B00E408813099F445E050E06EE974E08DE703
S1134B1095E00E943E39892B49F480917C058111EE
S1134B2005C087EE95E00E94862FD8CF0E94E40846
S1134B30833089F145E050E062E974E08DE795E067
S1134B400E943E39892B39F5111125C080917C05CD
S1134B50811121C080917A05882371F084E20E943A
S1134B60CF108AE10E9450108CE10E9450100E94E4
S1134B70CF0910927A053CC284E20E9450108AE167
S1134B800E94CF108CE10E94CF100E94B50981E0F1
S1134B9080937A052DC20E94E408882321F00E94A4
S1134BA0E408813001F545E050E060E874E08DE709
S1134BB095E00E943E39892BB1F4111114C0809103
S1134BC07C05811110C00E94430F85EA93E00E9486
S1134BD0871085E00E94CF1082E20E94CF1082E00D
S1134BE080937C0505C245E050E06CE874E08DE7F5
S1134BF095E00E943E39892B09F055C0111153C02C
S1134C0080917C0581114FC00E94E408833019F41F
S1134C100E94F013EDC110927A050E94F90883E115
S1134C200E94CF108AE10E94CF108CE10E94CF1025
S1134C300E94B5090E94E408882309F44AC00E942E
S1134C40E408813009F445C060E081E10E94CF2985
S1134C5060E088E00E94CF290E945E0F10927805E0
S1134C60109277050E94430F6AE770E085ED96E0A5
S1134C700E945E3469E070E085ED96E00E94AE0922
S1134C8085ED96E00E94DC3461E070E080E090E025
S1134C900E94E12888E00E94501089E00E94501090
S1134CA00E941C10A5C10E94E408833009F441C08D
S1134CB045E050E066E874E08DE795E00E943E39F7
S1134CC0892BB9F5111135C080917C05882341F0F9
S1134CD030C087EE95E00E94372E0E940611B8CFAF
S1134CE00E94B5090E94E40881110BC080918406DA
S1134CF09091850690939F0180939E010E948D134D
S1134D0015C00E94E408813059F480918406909182
S1134D10850690939D0180939C010E94691106C0B1
S1134D200E94E408823011F40E94D6120E94CF0936
S1134D30D7CE0E94E408811126C045E050E06AE71E
S1134D4074E08DE795E00E943E39892BE1F411115E
S1134D501AC080917C05811116C080917905882341
S1134D6059F061E387EE95E00E94C33083E10E942D
S1134D70501010927905B4CE0E94E408811138C114
S1134D800E94531135C10E94E408833089F045E044
S1134D9050E064E774E08DE795E00E943E39892B8A
S1134DA039F48091AD018F3308F022C18F5F15C0B3
S1134DB00E94E408833009F441C045E050E06EE607
S1134DC074E08DE795E00E943E39892BB9F5809116
S1134DD0AD01882309F40CC181508093AD0164E4D2
S1134DE070E085ED96E00E945E3463E070E085ED4E
S1134DF096E00E94AE096091AD0185ED96E00E94B7
S1134E00FF3385ED96E00E94DC3464E470E085EDC8
S1134E1096E00E945E3464E070E085ED96E00E94C6
S1134E20AE096091AD0185ED96E00E94FF3385EDFA
S1134E3096E00E94DC340E94C11152CE0E94E40824
S1134E40833051F045E050E06CE574E08DE795E087
S1134E500E943E39892B79F00E94E408833059F18D
S1134E6045E050E066E574E08DE795E00E943E3948
S1134E70892B99F020C090916E05892F8F7009F4C9
S1134E80B7C0883010F4815005C08E3011F08F5FA8
S1134E9001C087E0907F8F700CC090916E05892FC0
S1134EA08F70883009F4A4C0873008F042C08F5F47
S1134EB0907F892B25C00E94E408833009F43FC009
S1134EC045E050E068E674E08DE795E00E943E39E5
S1134ED0892BA9F520916E05822F90E044E09595E9
S1134EE087954A95E1F7382F882309F481C0383033
S1134EF0A8F581502F7030E1839FC0011124822BCB
S1134F0080936E0564E470E085ED96E00E945E3463
S1134F1065E070E085ED96E00E94AE0960916E0553
S1134F2085ED96E00E94FF3385ED96E00E94DC3427
S1134F30D7CD873011F08150BBCF8EE0B9CF0E941E
S1134F40E408833089F045E050E062E674E08DE7E0
S1134F5095E00E943E39892B81F106C03E3011F064
S1134F608F5FC8CF87E0C6CF45E050E060E574E0CE
S1134F708DE795E00E943E39892BD1F5111138C097
S1134F8080917C05811134C00E94430F6AE770E070
S1134F9085ED96E00E945E346DE070E085ED96E06C
S1134FA00E94AE0985ED96E00E94DC3461E070E079
S1134FB080E090E00E94E1281BC020916E05822FC2
S1134FC090E034E0959587953A95E1F7382F88304D
S1134FD079F0373010F48F5F05C0373011F081500D
S1134FE001C08EE02F70A0E18A9FC001112487CFF9
S1134FF060960FB6F894DEBF0FBECDBFDF91CF91A0
S11350001F910F91FF90EF90DF90CF900895089536
S11350100E942F290E9407280E94D30AC0E0D0E0F2
S11350200E9488142097E1F30E940000F9CF0F93A7
S11350301F93CF93DF93EC010E94B228688779878E
S11350408A879B87E881F9810284F385E02DCE016C
S1135050099597FF17C00E94B228088519852A85EB
S11350603B85DC01CB01801B910BA20BB30B0C81A4
S11350701D812E813F8180179107A207B30710F38A
S11350808FEF9FEFDF91CF911F910F910895CF92F2
S1135090DF92EF92FF920F931F93CF93DF936C01F4
S11350A07A018B01C0E0D0E0CE15DF0559F0C601CE
S11350B00E94172897FD05C0F80181938F0121965E
S11350C0F3CF7E01C701DF91CF911F910F91FF9024
S11350D0EF90DF90CF9008951F920F920FB60F922A
S11350E011242F933F938F939F93AF93BF938091FA
S11350F0CB069091CC06A091CD06B091CE0630910E
S1135100CA0626E6230F2D3728F029EE230F019631
S1135110A11DB11D2093CA068093CB069093CC06A3
S1135120A093CD06B093CE068091CF069091D00681
S1135130A091D106B091D2060196A11DB11D809314
S1135140CF069093D006A093D106B093D206BF9118
S1135150AF919F918F913F912F910F900FBE0F9020
S11351601F9018952FB7F8946091CB067091CC06D8
S11351708091CD069091CE062FBF08959FB7F894E5
S11351804091CF065091D0066091D1067091D2061D
S113519086B5A89B06C08F3F21F04F5F5F4F6F4FCE
S11351A07F4F9FBF762F652F542F44279A01AB0161
S11351B0280F311D411D511DA3E0B0E00E94153997
S11351C008958F929F92AF92BF92CF92DF92EF9207
S11351D0FF926B017C010E94BE284B015C01C1144B
S11351E0D104E104F10401F10E94E3340E94BE28D9
S11351F0DC01CB0188199909AA09BB09883E9340AF
S1135200A105B10560F321E0C21AD108E108F10853
S113521088EE880E83E0981EA11CB11CC114D10431
S1135220E104F10419F7DBCFFF90EF90DF90CF900A
S1135230BF90AF909F908F900895000000000000F1
S113524000008230910550F09C01220F331F220F81
S1135250331F0797820F931F0197F1F708957894EE
S113526084B5826084BD84B5816084BD85B5826067
S113527085BD85B5816085BDEEE6F0E08081816005
S11352808083E1E8F0E01082808182608083808105
S113529081608083E0E8F0E0808181608083E1EBDD
S11352A0F0E0808184608083E0EBF0E080818160C5
S11352B08083EAE7F0E0808184608083808182607B
S11352C08083808181608083808180688083109264
S11352D0C1000895833081F028F4813099F0823040
S11352E0A1F008958730A9F08830B9F08430D1F462
S11352F0809180008F7D03C0809180008F778093A0
S11353008000089584B58F7702C084B58F7D84BDF5
S113531008958091B0008F7703C08091B0008F7D95
S11353208093B0000895CF93DF9390E0FC01E85B95
S1135330FE4F2491FC01E45AFE4F8491882361F1CD
S113534090E0880F991FFC01EC57FE4FC591D49152
S1135350FC01E658FE4FA591B491611109C09FB7B5
S1135360F8948881209582238883EC912E230BC0A6
S1135370623061F49FB7F8948881322F309583238B
S11353808883EC912E2B2C939FBF06C08FB7F89483
S1135390E8812E2B28838FBFDF91CF9108951F932F
S11353A0CF93DF93282F30E0F901EC5CFE4F84911A
S11353B0F901E85BFE4FD491F901E45AFE4FC49120
S11353C0CC23C1F0162F81110E946A29EC2FF0E042
S11353D0EE0FFF1FE658FE4FA591B4919FB7F894C6
S11353E0111104C08C91D095D82302C0EC91DE2B0E
S11353F0DC939FBFDF91CF911F910895CF93DF93EB
S1135400282F30E0F901EC5CFE4F8491F901E85B50
S1135410FE4FD491F901E45AFE4FC491CC2391F08C
S113542081110E946A29EC2FF0E0EE0FFF1FE05972
S1135430FE4FA591B491EC91ED2381E090E021F42D
S113544080E002C080E090E0DF91CF910895FC01FC
S1135450E657FF4F108231961082319621E130E0F9
S11354603183208332962EE130E0318320833296DB
S11354702AE030E031832083329640E45FE160E04B
S113548070E040835183628373833F962FEF2083C0
S1135490319634E23083319631E030833196108294
S11354A031961082319640E050E851834083329621
S11354B041E050E05183408332961082F59630E209
S11354C03083319635E030833296208331971082D1
S11354D00895CF93DF93EC01C956DF4F61E08881D3
S11354E00E9493296AE070E080E090E00E94E12845
S11354F060E088810E94CF296AE070E080E090E05B
S11355000E94E12861E088810E94CF296AE070E06E
S113551080E090E0DF91CF910C94E128CF92EF925C
S11355200F93CF93DF93FC01DC01A352BF4F9C91F7
S113553060FB97F940FB96F920FB95F900FB94F981
S11355408E2D8F70907F982B9C931196CC92DB9725
S11355500C93EF01C856DF4F1A96E11005C080E2A4
S113556088838C91826004C080E488838C918D7FD1
S11355708C938C918160837C8C93DF01A055BF4F09
S11355801C92EF54FF4F81E08083DF91CF910F9104
S1135590EF90CF90089584579F4FFC0160817181F3
S11355A085ED96E00E945E3462E170E085ED96E060
S11355B00E94AE0960E070E085ED96E00E94AE09BD
S11355C06FEF70E085ED96E00E94AE0960E070E058
S11355D085ED96E00E94AE0960E070E085ED96E00E
S11355E00E94AE0960E070E085ED96E00E94AE098D
S11355F085ED96E00E94DC3484EC99E00C941D293E
S1135600FC019C012F5B3F4F40E24193E217F307FB
S1135610E1F7FC01E05CFF4F10820895FC01EF5BB1
S1135620FF4F9C012E593F4F40E24193E217F3078D
S1135630E1F7FC01EF59FF4F10820895FC01EE5988
S1135640FF4F9C0125593F4F40E24193E217F30776
S1135650E1F7FC01E659FF4F10820895CF93DF93E1
S1135660EC010E94002BCE010E940E2BCE010E9461
S11356701E2BFE01E857FF4F118210823E961082C6
S1135680709711821082CC57DF4F19821882DF91F4
S1135690CF910895CF92DF92EF92FF920F931F93D1
S11356A0CF93DF9300D0CDB7DEB7FC01EA52FF4FB2
S11356B020812A833197208129839E012F5F3F4FC8
S11356C06901FB018B010E5F1F4F20E030E050E2C7
S11356D0D6014D916D014D3051F4FC01E557FF4F5A
S11356E041E04083FB01E20FF31F108211C04A30F6
S11356F0A1F3403240F07B01E20EF31ED7014C933C
S11357002F5F3F4F01C050833196E017F10701F737
S11357100F900F90DF91CF911F910F91FF90EF9019
S1135720DF90CF900895CF92DF92EF92FF920F9384
S11357301F93CF93DF9300D000D0CDB7DEB7FC0129
S1135740ED52FF4F20812983319620812A8331969F
S113575020812B83319620812C839E012F5F3F4F24
S11357606901FB01AB014C5F5F4FE12CF12C30E28E
S1135770D6012D916D012D3051F4FC01E657FF4FF8
S113578021E02083FB01EE0DFF1D108212C02A30A0
S1135790A1F3203248F08B010E0D1F1DD8012C936C
S11357A0BFEFEB1AFB0A01C030833196E417F5070B
S11357B0F9F60F900F900F900F90DF91CF911F91FA
S11357C00F91FF90EF90DF90CF900895CF93DF93E8
S11357D0FC01E453FF4F208120FD03C080E090E0F2
S11357E020C0FC01EF52FF4F208122952F70B1F7AA
S11357F0EC01319660816370EA54F10970E07183C1
S11358006083660F771F6E597F4F6C0F7D1FCE012B
S11358100E944A2BFE01E659FF4F1082CE018E5999
S11358209F4FDF91CF910895CF93DF93FC01E45311
S1135830FF4F208120FD03C080E090E01CC0FC01EC
S1135840EF52FF4F208122952F702230A9F7EC01EF
S1135850319660816F70EE54F10970E0718360835A
S1135860660F771F660F771F6C0F7D1FCE010E9496
S1135870932B1FAECE01DF91CF9108954F925F928B
S11358806F927F928F929F92AF92BF92CF92DF924C
S1135890EF92FF920F931F93CF93DF93E901570188
S11358A06A017B012AEDC20E2AEAD21E25E2E21E1B
S11358B0F11CC701B60122E0660F771F881F991FEC
S11358C02A95D1F721EB3AE342E050E00E94F33805
S11358D029013A0161EB7AE382E090E00E94AF385B
S11358E0DC01CB010396A11DB11D32E0B695A7954D
S11358F0979587953A95D1F7C81AD90AEA0AFB0A07
S1135900A70196012F5F3F4F4F4F5F4FA0EABFE0C3
S11359100E94153929E03BE446E150E00E94F33847
S1135920288339834A835B838FE1C80ED11CE11C31
S1135930F11CA5EBB5E00E941539DC01CB0142E076
S1135940B695A795979587954A95D1F7C81AD90A18
S1135950EA0AFB0AA0E5B0E0A70196010E94153906
S11359602FE839E040E050E00E94F338F80120834A
S1135970318342835383AFE8B9E00E94153920E5AF
S113598030E040E050E00E94F338C21AD30AE40A3F
S1135990F50AF501C082D182E282F382F8018080A7
S11359A09180A280B380C501B4012BE030E040E0D7
S11359B050E00E94F33869017A01F2E08F0E911CE5
S11359C0A11CB11CACE0B0E00E941539A501940102
S11359D0261B370B480B590BF80120833183428374
S11359E0538388819981AA81BB81C80ED91EEA1E7E
S11359F0FB1EF4E2CF1AF3E1DF0AE108F108A4E6A2
S1135A00B0E0A30192010E941539C60ED71EE81E0C
S1135A10F91EC882D982EA82FB82DF91CF911F915D
S1135A200F91FF90EF90DF90CF90BF90AF909F9039
S1135A308F907F906F905F904F9008952F923F9238
S1135A404F925F926F927F928F929F92AF92BF928A
S1135A50CF92DF92EF92FF920F931F93CF93DF9336
S1135A60CDB7DEB764970FB6F894DEBF0FBECDBFD7
S1135A707C8B6B8BDA01AC014F525F4FFA01408192
S1135A8042954F70443009F0BEC0AC014E525F4F96
S1135A90FA014081BC016C527F4FFB0130806150A0
S1135AA07109FB0150816D5F7F4FFB019080615054
S1135AB07109FB0180804370442E512C612C712CA0
S1135AC04FE0440C551C661C771C4A95D1F7432DB6
S1135AD04695D52ED794DD24D7946D2D642B752F40
S1135AE07695AB0160E070E0442955296629772951
S1135AF0F82DFF70E4E0FE9F60011124792C72946C
S1135B0076947694E3E07E22F601E7293F0130FAA9
S1135B10AA24A0F8B12CF4E0AA0CBB1CFA95E1F776
S1135B208294EFE08E22A828FCE3DF2EDA9C200189
S1135B30DB9C500C1124F92DFF71EEE1FE9F500106
S1135B40112495FC04C0CC24C394D12C03C0CC24D0
S1135B50CA94DC2CCA9C4001CB9C900CDA9C900C1F
S1135B6011246301C40CD51CC80CD91CD7FE09C070
S1135B70F0E6CF1AFAEFDF0A4150510961097109C1
S1135B800DC0E1EACE16E5E0DE0644F0F0EACF1AF5
S1135B90F5E0DF0A4F5F5F4F6F4F7F4F170128011A
S1135BA039014D01AB88BC889E01215F3F4F7901CB
S1135BB08E01055F1F4F285031090E943E2CC601FB
S1135BC06CE370E00E94CB388F819885F501918356
S1135BD080838B859C85F401918380838F8598894C
S1135BE0F30191838083F201718360832CE3269F08
S1135BF0C001279F900D1124C81AD90AF101D1823E
S1135C00C08281E001C080E064960FB6F894DEBFE4
S1135C100FBECDBFDF91CF911F910F91FF90EF90F9
S1135C20DF90CF90BF90AF909F908F907F906F90B8
S1135C305F904F903F902F900895CF93DF93EC01A6
S1135C40C457DF4F8CE291E00E941D29688179815D
S1135C5041E050E085ED96E00E94D73485ED96E072
S1135C600E94783387FFEECFDF91CF910895CF93D1
S1135C70DF93EC01FC01EE51FF4F808187FD07C0EB
S1135C8060E00E94CF298CE291E00E941D29CE01A0
S1135C900E941D2EC457DF4F6881798185ED96E0FF
S1135CA00E945E3461E170E085ED96E00E94AE09E9
S1135CB085ED96E00E94DC3484EC99E0DF91CF918D
S1135CC00C941D29AF92BF92CF92DF92EF92FF9274
S1135CD00F931F93CF93DF93EC010E941D2E7E013F
S1135CE08CE8E80EF11CF7016081718185ED96E086
