S016000041726475696E6F5F5369343733352E737265634E
S11300000C94C9000C94F1000C94F1000C94F100D0
S11300100C94F1000C94F1000C94F1000C94F10098
S11300200C94F1000C940D0A0C94F1000C94E90961
S11300300C94F1000C94F1000C94F1000C94F10078
S11300400C949D230C94F1000C94F1000C94F10099
S11300500C94F1000C94F1000C94F1000C94F10058
S11300600C94B3320C94F10017030603060000004D
S11300700000090911160000030F060A060A000011
S113008000000000010B1100010309050C05090023
S1130090000000050D0D1515000003080307171EC9
S11300A00307090D0005050F0F010000070B100BD6
S11300B010000000000107070D0D00000105030AF0
S11300C00E18030A040900101C283001010004075B
S11300D0131738071307130C18000C180101000339
S11300E0050C0F1E050C040B00101525250101003D
S11300F01C050C1122050C050C000D1A222A010105
S11301000002050C1122050C050C00000000000182
S1130110010002050C1122050C050C001010202012
S1130120010100010F15070B070B070B0F14000F3C
S1130130140001000000000800020100000304078D
S113014000000000000000000102040810204080AC
S1130150010204081020010204081020040404040D
S1130160040404040202020202020303030303035D
S113017000000000230026002900000000002500E4
S113018028002B0000000000240027002A00800A19
S1130190103011241FBECFEFD8E0DEBFCDBF14E076
S11301A0A0E0B1E0EAE8FFE602C005900D92A434B5
S11301B0B107D9F727E0A4E4B4E001C01D92AB3C39
S11301C0B207E1F710E0C9ECD0E004C02197FE01CA
S11301D00E945134C73CD107C9F70E9439230C94BB
S11301E0C3370C94000090917A04409169049111F2
S11301F005C04F3019F480937B04C1C05091720440
S11302009517F8F0209173049217D8F4E0917804CC
S1130210282F30E060915E0470915F04EE2341F07A
S1130220E92FE51B02C0220F331FEA95E2F702C053
S1130230660F771F262B372B30935F0420935E04C1
S113024022C0509174049517F0F020917504921710
S1130250D0F4E0917804282F30E060915C04709130
S11302605D04EE2341F0E92FE51B02C0220F331F8A
S1130270EA95E2F702C0660F771F262B372B3093DF
S11302805D0420935C044C31C9F423EF290F2D3015
S113029008F075C0282F30E083EF890F02C0220FC9
S11302A0331F8A95E2F740915A0450915B04242B42
S11302B0352B30935B0420935A0461C04330C9F456
S11302C02FEE290F243008F05AC0282F30E08FEE8B
S11302D0890F02C0220F331F8A95E2F74091580418
S11302E050915904242B352B3093590420935804EE
S11302F046C0453009F043C02CEE290F2430A0F449
S1130300282F30E048EF490F02C0220F331F4A95CF
S1130310E2F740915C0450915D04242B352B30931B
S11303205D0420935C0413C028EE290F243068F484
S1130330282F4CEE490F01C0220F4A95EAF730915D
S11303405104232B2093510402C09033C0F4E92FAD
S1130350E695E695E695492F4770F0E0EE5AFB4F97
S113036021E030E001C0220F4A95EAF7882319F012
S11303708081282B03C020958081282320839F5FC0
S113038090937A0408952C9824980895FC01809100
S11303906804882309F4AFC090916704913109F48B
S11303A079C048F4933089F0973009F492C09230C0
S11303B009F0A3C031C0983109F495C0923309F40F
S11303C054C0973109F099C065C08091630490913D
S11303D064042091630430916404892F9927209543
S11303E0309533278217930709F0A7C080916304DF
S11303F0909164049927909364048093630480919A
S11304006104909162042091630430916404982FF4
S11304108827822B932B58C08091630490916404A5
S11304202091630430916404892F99272095309595
S113043033278217930741F18091650490916604F4
S11304408E3E974871F48BE0809367048091630437
S113045090916404892F992790936604809365048E
S113046013C088E38093670448C0209163043091EB
S113047064048091630490916404232F33279927A3
S11304802817390709F059C08091630490916404D6
S113049099271AC0809163049091640420916304A5
S11304A0309164048695817091E089272170332707
S11304B091E029272170821709F43FC080916304D9
S11304C09091640496958795909364048093630453
S11304D014C080916504909166048F7D90936604A6
S11304E0809365040AC080916304909164048D37FD
S11304F0910519F422C080E00895809167048083F7
S11305008091650490916604928381838091630451
S1130510909164049483838380916004858381E053
S1130520109264041092630410926604109265049D
S1130530109260041092680408951092670480E099
S1130540EFCFCF93DF9383B1909168049111A8C248
S113055080719091500491115DC090914F0481116C
S113056004C09F5F90934F049BC2992309F181E0DB
S11305708093500480934E0410924D0410925D04B5
S113058010925C0410925F0410925E041092510465
S1130590109259041092580410925B0410925A0459
S11305A09FEF90937A0480934C0410924B0478C28A
S11305B08091490490914A048F3F2FEF920709F4E8
S11305C06FC2019690934A04809349048091040178
S11305D0909105018F3F6FEF960709F461C2019670
S11305E09093050180930401883E924008F458C218
S11305F08091470490914804892B09F451C21092C8
S11306004804109247048FEF9FEF90930501809365
S1130610040146C290914E04992309F4BCC0882376
S113062089F080914C048F5F80934C048A3E08F4D7
S113063019C2809167041092500410924F041092D2
S11306404C0410C210927A0480914F0491EE980FDA
S11306509B3028F490914C049650953070F0909112
S11306606704943169F490EB980F9F3648F49091A5
S11306704C049A539C36F0F003C063E271E04AC024
S113068022EA280F243558F490914C0432ED390FA6
S11306903C3208F412C29751973108F406C2909183
S11306A06704943151F4243540F490914C049550EE
S11306B0983018F462E171E02DC094EC980F9031F9
S11306C030F490914C049C53903108F465C297ED3A
S11306D0980F983108F4F4C198ED980F973108F405
S11306E0F6C195EF980F963008F0F8C190914C043C
S11306F025EF290F263008F0F6C190934604815166
S1130700803108F0F5C11092450480E480934B04D5
S11307106CEA70E080915004882331F041E150E0AC
S113072089E694E00E94663480917904909169048A
S113073080FF1DC0973139F1993029F120916B0464
S113074040914C04241760F450E030E0220F331F32
S1130750241735072CF08695817091E0892711C004
S11307609091450491110FC0869581700AC098300C
S113077051F480914C048751883010F481E001C019
S113078080E00E94F30081E080934F0410924C04B7
S113079010924E0467C190914D04992309F455C1F8
S11307A0882309F405C220914C042F5F20934C0444
S11307B09091760480917A0498130BC03091770459
S11307C0313039F43091790430FDFDC22F3208F014
S11307D04EC140916904413021F52C3008F4C1C068
S11307E08B3008F4BEC091E0980F90937604282FC4
S11307F030E02B503109322F222740915E04509172
S11308005F04242B352B30935F0420935E04909176
S11308107404890F8F5F809375048AE080934C047D
S1130820C7C14F3009F058C030917704311199C0D5
S1130830263218F19BEF980F9230F8F481E0809300
S1130840770488E18093690487E0809376041092AA
S1130850720410927304109274048093750480914E
S11308605C0490915D04880F991F20917B04822B76
S113087090935D0480935C049BC140916D0430E0CF
S113088050E0440F551F241735072CF0883008F426
S1130890E9C08AE035C08A3008F4F7C080E180936B
S11308A0690489E08093720491E19093730491E068
S11308B0909374048093750480915C0490915D041A
S11308C09C0122273370232B09F4DFC090935E042C
S11308D010925F049927B4C0473109F042C03091A7
S11308E0770431113EC040916D0430E050E0440F74
S11308F0551F241735073CF08F3008F4B3C081E14D
S11309008093760449C0813108F4BFC081E18093AB
S11309106904109272048BE08093730480937404CE
S113092086E18093750480915C0490915D0420912C
S11309305E0430915F04220F331F220F331FAC017A
S1130940D6E056954795DA95E1F7242B352B30936D
S11309505F0420935E048F73992720914504822BB2
S11309606FC03091790430FF1BC060916D04E22F99
S1130970F0E070E0660F771FE617F7078CF0E82FBA
S1130980F0E0692F70E062507109E617F70744F050
S113099030917704311104C081E08093770408C159
S11309A02A3E08F472C0682F70E0292F30E02150ED
S11309B031096217730741F490917704911104C0CF
S11309C08F5F80937A0461C0423009F4FFC14C31D7
S11309D039F01092500410924F0410924C0460C0ED
S11309E0882309F4F5C1803209F042C291E0909362
S11309F0770492E0909369048093760480915A047A
S1130A0090915B049C01322F22273295330F307E64
S1130A1040915E0450915F04242B352B30935F0486
S1130A2020935E0440915C0420E030E0342F330FC7
S1130A30330FF3E096958795FA95E1F7822B932B84
S1130A4090935D0480935C0420C0811106C0809162
S1130A504F048F5F80934F0405C081E080934D0461
S1130A6080934C048091500481110FC019C080916F
S1130A704F0490916E04891708F4ABCF90916F04E2
S1130A80981708F4A6CF1092770490917604809179
S1130A907A04981305C080917704882309F412C25C
S1130AA080916804DF91CF91089580916704843127
S1130AB009F400CE61E071E02DCE60EF70E02ACE43
S1130AC090914C049952983108F469C005CE9091E4
S1130AD04C0493519D3008F465C003CE9AEE980FF0
S1130AE09B3070F403CE2AEE290F2B3048F405CE48
S1130AF09151903108F407CE81E08093450408CEEB
S1130B002DEF280F253058F490914C0439EE390F0D
S1130B10383008F44AC09950953008F446C09DED29
S1130B20980F9B3068F490914C049B50963040F49D
S1130B301092460481E0809345046AE870E0EACDAF
S1130B408650853070F480914C049FED980F91315C
S1130B5040F48093460481E08093450469E770E0A3
S1130B60D9CD2A3090F480914C0499EF980F9530A8
S1130B7020F092EF980F993040F48093460481E07E
S1130B808093450468E670E0C5CD1092500410923D
S1130B90690460E070E0BECD6FED70E0BBCD6EEC3B
S1130BA070E0B8CD6DEB70E0B5CD6BE970E0B2CD1F
S1130BB08091790480FF91C0C0914F0490916B049F
S1130BC09C1708F048C090916904993099F4909169
S1130BD07A04943079F4CC3068F0809176048432CD
S1130BE029F481E00E94F30081E032C080E00E9499
S1130BF0F3001EC0D1E0869581708D270E94F3001A
S1130C00809169048930D1F480917A048430B1F4FC
S1130C10CC30A0F081E00E94F30080916D0420911B
S1130C204C0430E090E0880F991F821793071CF45E
S1130C30109245044DC0D09345044AC08091790474
S1130C40869581700E94F300809179048695817065
S1130C50809345043DC080916A04C817A8F180912F
S1130C606D042091460440914504821768F430E0F5
S1130C7090E0880F991F8217930734F081E04111A7
S1130C8080E08093450401C0842F909169049930D9
S1130C90C1F490917A049130A1F4813091F494E2FA
S1130CA09093760425E02093720424E12093730446
S1130CB025E1209374049093750410925F041092BC
S1130CC05E040E94F30004C01092500410924C047D
S1130CD080914C048093460429C080916904833038
S1130CE041F590917A04903131F580914F0485500B
S1130CF08830D8F580914C0424EC280F203130F44E
S1130D0010924D0481E180937A045BC02AE0209321
S1130D1069049093740490E290937504909376041C
S1130D208F50803100F581E00E94F30010924D0451
S1130D3048C08C31F9F080914F0490916A0489176E
S1130D4088F590916E04891780F090916F0498173C
S1130D5060F080914C0490917004891730F0909168
S1130D607104981710F080E0DFCF109250041092B5
S1130D704C0427C080917A048830E9F690914C04A1
S1130D809E529C32C0F69BE19093690410927204C7
S1130D90809373048093740480E18093750480933A
S1130DA07604C4CF90916B04981758F290914C0438
S1130DB020916C04921728F220916D04291708F2EF
S1130DC0B2CF81E047CE21115ECE03CD81112CC07C
S1130DD08091490490914A048830974010F581E04D
S1130DE08093770482E08093690410927604809162
S1130DF002019091030190935F0480935E048091BB
S1130E0000019091010190935D0480935C048091B2
S1130E10600481608093600410924A041092490433
S1130E2034CE1092680431CE90EF980F923008F0CF
S1130E30D0CD21E02093770494E1909369048093CA
S1130E40760480915E0490915F04AC01A4E0569511
S1130E504795AA95E1F750935D0440935C048F7025
S1130E60992790935F0480935E04209350040DCEE1
S1130E7090EF980F923008F0ACCD91E09093770406
S1130E8094E1909369048093760480915E04909138
S1130E905F0420915A0440E050E0522F550F9C010A
S1130EA074E0369527957A95E1F7242B352B30930A
S1130EB05D0420935C048F70992790935F04809362
S1130EC05E04E3CD609100017091010120915C0406
S1130ED030915D046217730769F44091490450919D
S1130EE04A04403B544030F4809144048F5F809323
S1130EF0440402C01092440480916904813051F486
S1130F00409144044150423028F410924A04109213
S1130F104904DAC041E0409368048830A1F5A9018E
S1130F20409550955370E0914704F09148044E1752
S1130F305F07B9F450935D0440935C041092480435
S1130F40109247048093670480915E0490915F043B
S1130F5090936604809365045093640440936304FF
S1130F60B3C020FD09C03093480420934704109275
S1130F7005011092040104C0109248041092470421
S1130F8010926804A1C08F3029F42F3F314009F03A
S1130F906DC0F6CF803169F440915E0450915F04D6
S1130FA04F3F510509F062C02E3F310509F05EC084
S1130FB0E7CF823011F5911159C020914904309145
S1130FC04A0428303740B0F42091020130910301E3
S1130FD030935F0420935E0470935D0460935C041B
S1130FE09091600491609093600410924A0410926E
S1130FF049043CC01092680439C0853079F53091B9
S1131000520490915304E0915404232F2F7032958D
S11310103F703227292F2F70232792959F702927FD
S1131020022E000C330B4E2F4F7050E0241735075F
S113103011F010926804909155049E272091560453
S1131040922720915704921310926804209160040F
S113105090915104922B9093600408C0893031F42C
S1131060943221F495E19093670402C0809367045D
S113107020915E0430915F043093660420936504EC
S1131080823029F430930301209302010DC087308C
S113109059F420914B0480915C0490915D04822B5F
S11310A090935D0480935C0480915C0490915D0452
S11310B0909364048093630480915804909159043C
S11310C0909362048093610480916804882351F1B1
S11310D020915C0430915D0440915E0450915F0462
S11310E06217730799F480910201909103018417A8
S11310F0950761F48091490490914A048A3C984090
S113110028F480916004816080936004509303010B
S113111040930201309301012093000110924A048C
S1131120109249041092500410925D0410925C04D1
S113113010924F0410924C0480916704843109F09A
S1131140AFCC87E880934F04ABCCEFEAF5E0319164
S1131150DC012D91CD01321306C0B5E0ED3BFB0758
S1131160B1F780E0089581E00895CF93DF93E09193
S11311700F06F0911006309751F08081882339F0E2
S1131180DF010D900020E9F7AE1BA25001C0AFEFC4
S1131190C5ECD5E080E090E29993AF3F19F0A81731
S11311A008F090838F5F31968034B1F78FB7F8944D
S11311B01092C0051092BF051092BE051092BD0595
S11311C08FBFDF91CF91089588E00E942F25892B4E
S11311D061F081E10E942F25892B49F481E09091EF
S11311E0AB06903229F480E0089583E0089582E00C
S11311F008950F931F93CF93DF9300D000D01F92D5
S1131200CDB7DEB70E94E40881111BC042E050E074
S113121063E070E0CE0101960E9442370091B0066F
S11312201091B10689819A818017910751F0602F3E
S113123083E090E00E946237612F84E090E00E9496
S113124062370E94E4088130D9F442E050E061E062
S113125070E0CE0101960E9442370091B0061091D1
S1131260B10689819A818017910751F0602F81E03E
S113127090E00E946237612F82E090E00E94623722
S113128041E050E060E070E0CE0105960E944237F4
S11312900E94E4089D81891739F00E94E408682FB0
S11312A080E090E00E94623741E050E065E070E049
S11312B0CE0104960E9442376091AD018C8168177B
S11312C021F085E090E00E946237609114017091F2
S11312D0150141E050E0CE0103960E94423760912F
S11312E0A505262F30E08B8190E02817390731F0CF
S11312F080911401909115010E94623741E050E001
S113130066E070E0CE0101960E94423760919A0532
S11313108981681721F086E090E00E9462370F907F
S11313200F900F900F900F90DF91CF911F910F911D
S11313300895CF93DF93EB0146E050E0BC0189EAC6
S113134095E00E94743786E0E9EAF5E0DE01019059
S11313500D928A95E1F7DF91CF910895DC01ED912B
S1131360FC910190F081E02D099464E470E081E047
S113137097E00E948F2F66E070E081E097E00E9482
S1131380AE0960E070E081E097E00E94AE0981E080
S113139097E00E940D3060E089E00C94002564E43D
S11313A070E081E097E00E948F2F66E070E081E0BA
S11313B097E00E94AE0961E070E081E097E00E944E
S11313C0AE0981E097E00E940D3061E089E00C9461
S11313D000251F920F920FB60F9211242F933F9363
S11313E04F935F936F937F938F939F93AF93BF9329
S11313F0EF93FF930E94A102FF91EF91BF91AF91F0
S11314009F918F917F916F915F914F913F912F9118
S11314100F900FBE0F901F9018951F920F920FB64A
S11314200F9211242F933F934F935F936F937F9366
S11314308F939F93AF93BF93EF93FF938091110684
S11314408C3408F447C01092110681E08093120690
S11314508093C4050E94E408833069F480919F0559
S1131460853218F010929F053AC080919F058F5FD6
S113147080939F0534C08091C105882381F18091B8
S1131480BE05833030F48091BE058F5F8093BE0526
S113149026C08091C0052091BF0590E00D9630E0F4
S11314A08217930734F48091C0058F5F8093C00541
S11314B016C08091BD05823030F48091BD058F5FE8
S11314C08093BD050CC01092C0051092BE05109209
S11314D0BD0505C0809111068F5F80931106FF91B1
S11314E0EF91BF91AF919F918F917F916F915F9198
S11314F04F913F912F910F900FBE0F901F90189511
S113150083E196E00C9458250F931F93CF93DF93B8
S11315108C0168E670E081E097E00E948F2F60E024
S113152070E081E097E00E94AE09E801095F1F4F77
S1131530699181E097E00E94302FC017D107C1F76D
S113154081E097E0DF91CF911F910F910C940D30C2
S1131550CF93DF93CDB7DEB72E970FB6F894DEBFE7
S11315600FBECDBFA8959FE088E10FB6F894A8956B
S1131570809360000FBE9093600040E553EC60E000
S113158070E081E097E00E94812F61E088E00E9492
S1131590C42461E089E00E94C42462E08BE00E94DC
S11315A0C42460E08CE00E94C42461E081E10E94D4
S11315B0C4240E94C30110928000109281001092F2
S11315C08500109284001092890010928800109275
S11315D08B0010928A0010926F0016BA84E395E093
S11315E0909389008093880089E08093810082E051
S11315F080936F001092B0001092B1001092B2006C
S11316001092B3001092B4001092700017BA1092A6
S1131610B60013BC8091700081608093700080914B
S1131620B10087608093B1007894A89540E06AE0A7
S113163083E196E00E94BB2C8CEB92E09093A4068D
S11316408093A30684E690E09093A2068093A1067B
S113165042E050E063E070E0CE010A960E94423717
S11316608A859B859C012E5232422330384010F0EB
S11316708EE292E290939F0180939E0142E050E0BB
S113168061E070E0CE0108960E9442378885998512
S11316909C01235132402339344010F083E192E01D
S11316A090939D0180939C0141E050E065E070E0DF
S11316B0CE010E960E9442378E85803408F084E174
S11316C08093AD01609114017091150141E050E0E7
S11316D0CE010D960E94423781E09D85913009F03C
S11316E080E08093A50541E050E066E070E0CE0123
S11316F00C960E9442378C858F3F09F487E78093CC
S11317009A0564E470E081E097E00E948F2F60E026
S113171070E081E097E00E94AE0960E070E081E053
S113172097E00E94AE0981E097E00E940D3064E4E6
S113173070E081E097E00E948F2F61E070E081E02B
S113174097E00E94AE0960E070E081E097E00E94BB
S1131750AE0981E097E00E940D3064E470E081E01E
S113176097E00E948F2F62E070E081E097E00E9492
S1131770AE0968E570E081E097E00E94AE0981E07F
S113178097E00E940D3064E470E081E097E00E94ED
S11317908F2F63E070E081E097E00E94AE096091D2
S11317A0AD0181E097E00E94302F81E097E00E9434
S11317B00D3064E470E081E097E00E948F2F64E0D4
S11317C070E081E097E00E94AE096091AD0181E094
S11317D097E00E94302F81E097E00E940D3064E48E
S11317E070E081E097E00E948F2F65E070E081E077
S11317F097E00E94AE0960919A0581E097E00E940B
S1131800302F81E097E00E940D300E94B50964E416
S113181070E081E097E00E948F2F67E070E081E044
S113182097E00E94AE0960E870E081E097E00E94D2
S1131830AE0981E097E00E940D3060919A017091A9
S11318409B0146E050E082E995E00E9442376091B6
S113185098017091990142E050E080E995E00E947E
S11318604237609196017091970142E050E08EE812
S113187095E00E944237609194017091950146E091
S113188050E088E895E00E9442376091920170919F
S1131890930142E050E086E895E00E94423760916F
S11318A090017091910142E050E084E895E00E943B
S11318B0423760918E0170918F0146E050E08EE7CF
S11318C095E00E94423760918C0170918D0142E055
S11318D050E08CE795E00E94423760918A01709154
S11318E08B0142E050E08AE795E00E944237609124
S11318F088017091890146E050E084E795E00E94F8
S11319004237609186017091870142E050E082E79E
S113191095E00E944237609184017091850142E014
S113192050E080E795E00E94423760918201709117
S1131930830146E050E08AE695E00E9442376091D8
S113194080017091810142E050E088E695E00E94B8
S1131950423760917E0170917F0142E050E086E65B
S113196095E00E94423760917C0170917D0146E0D0
S113197050E080E695E00E94423760917A017091D0
S11319807B0142E050E08EE595E00E944237609191
S113199078017091790142E050E08CE595E00E9475
S11319A04237609176017091770146E050E086E518
S11319B095E00E944237609174017091750142E094
S11319C050E084E595E00E94423760917201709185
S11319D0730142E050E082E595E00E944237609155
S11319E070017091710146E050E08CE495E00E9432
S11319F0423760916E0170916F0142E050E08AE4D9
S1131A0095E00E94423760916C0170916D0142E053
S1131A1050E088E495E00E94423760916A01709139
S1131A206B0146E050E082E495E00E944237609109
S1131A3068017091690142E050E080E495E00E9401
S1131A404237609166017091670142E050E08EE395
S1131A5095E00E944237609164017091650146E00F
S1131A6050E088E395E00E944237609162017091F2
S1131A70630142E050E086E395E00E9442376091C2
S1131A8060017091610142E050E084E395E00E94BE
S1131A90423760915E0170915F0146E050E08EE252
S1131AA095E00E94423760915C0170915D0142E0D3
S1131AB050E08CE295E00E94423760915A017091A7
S1131AC05B0142E050E08AE295E00E944237609177
S1131AD058017091590146E050E084E295E00E947B
S1131AE04237609156017091570142E050E082E222
S1131AF095E00E944237609154017091550142E093
S1131B0050E080E295E00E9442376091520170916A
S1131B10530146E050E08AE195E00E94423760912B
S1131B2050017091510142E050E088E195E00E943B
S1131B30423760914E0170914F0142E050E086E1DE
S1131B4095E00E94423760914C0170914D0146E04E
S1131B5050E080E195E00E94423760914A01709123
S1131B604B0142E050E08EE095E00E9442376091E4
S1131B7048017091490142E050E08CE095E00E94F8
S1131B804237609146017091470146E050E086E09B
S1131B9095E00E944237609144017091450142E012
S1131BA050E084E095E00E944237609142017091D8
S1131BB0430142E050E082E095E00E9442376091A8
S1131BC040017091410146E050E08CEF94E00E94A6
S1131BD0423760913E0170913F0142E050E08AEF4C
S1131BE094E00E94423760913C0170913D0142E0D3
S1131BF050E088EF94E00E94423760913A0170917E
S1131C003B0146E050E082EF94E00E94423760914D
S1131C1038017091390142E050E080EF94E00E9475
S1131C204237609136017091370142E050E08EEE08
S1131C3094E00E944237609134017091350146E08E
S1131C4050E088EE94E00E94423760913201709136
S1131C50330142E050E086EE94E00E944237609106
S1131C6030017091310142E050E084EE94E00E9432
S1131C70423760912E0170912F0146E050E08EEDC5
S1131C8094E00E94423760912C0170912D0142E052
S1131C9050E08CED94E00E94423760912A017091EB
S1131CA02B0142E050E08AED94E00E9442376091BB
S1131CB028017091290146E050E084ED94E00E94EF
S1131CC04237609126017091270142E050E082ED95
S1131CD094E00E944237609124017091250142E012
S1131CE050E080ED94E00E944237609122017091AF
S1131CF0230146E050E08AEC94E00E944237609170
S1131D0020017091210146E050E084EC94E00E94AF
S1131D10423760911E0170911F0146E050E08EEB46
S1131D2094E00E94423760911C0170911D0146E0CD
S1131D3050E088EB94E00E94423760911A01709160
S1131D401B0146E050E082EB94E00E944237609130
S1131D5018017091190146E050E08CEA94E00E9469
S1131D604237609116017091170146E050E086EA0F
S1131D7094E00E944237609112017091130146E091
S1131D8050E080EA94E00E94423760911001709123
S1131D90110146E050E08AE994E00E9442376091E4
S1131DA00E0170910F0146E050E084E994E00E9436
S1131DB0423760910C0170910D0146E050E08EE8CD
S1131DC094E00E94423760910A0170910B0146E051
S1131DD050E088E894E00E944237609108017091D5
S1131DE0090146E050E082E894E00E9442376091A5
S1131DF006017091070146E050E08CE794E00E94F0
S1131E004237A89587E0EEEAF1E0DE0111960190F1
S1131E100D928A95E1F7CE0101960E94840A2E96CE
S1131E200FB6F894DEBF0FBECDBFDF91CF910895FA
S1131E30CF93C8E041E050E06AE770E081E097E0CA
S1131E400E940830813069F481E097E00E94A92E55
S1131E50853A39F0A89588EC90E00E944E24C15050
S1131E6049F7CF910895EFEAF5E080E2819395E098
S1131E70ED3BF907D9F70E94180F6AE770E081E09B
S1131E8097E00E948F2F67E070E081E097E00E9466
S1131E90AE0981E097E00E940D3061E070E080E0DF
S1131EA090E00C941224CF93C82F0E94180F6AE775
S1131EB070E081E097E00E948F2F64E070E081E0A1
S1131EC097E00E94AE096C2F70E081E097E00E94D9
S1131ED0AE0981E097E00E940D3061E070E080E09F
S1131EE090E0CF910C941224CF93DF93C82FD62F78
S1131EF00E94180F6AE770E081E097E00E948F2F3C
S1131F0061E070E081E097E00E94AE096C2F70E020
S1131F1081E097E00E94AE096D2F81E097E00E9476
S1131F20302F81E097E00E940D3061E070E080E0A6
S1131F3090E0DF91CF910C941224CF93C82F0E948C
S1131F40E408811105C0C33141F48091A40509C09E
S1131F500E94E408813039F4F6CFC43121F4809131
S1131F60A30581111FC00E94180F6AE770E081E089
S1131F7097E00E948F2F62E070E081E097E00E947A
S1131F80AE096C2F70E081E097E00E94AE0981E019
S1131F9097E00E940D3061E070E080E090E0CF9126
S1131FA00C941224CF910895CF93C82F0E94E40873
S1131FB0811105C0C33141F48091A40509C00E9478
S1131FC0E408813039F4F6CFC43121F48091A305BB
S1131FD08823F9F00E94180F6AE770E081E097E027
S1131FE00E948F2F63E070E081E097E00E94AE09C9
S1131FF06C2F70E081E097E00E94AE0981E097E0E9
S11320000E940D3061E070E080E090E0CF910C948C
S11320101224CF9108956FE783E196E00E94F42B98
S113202083E10E94D40F81E08093A5050E94E323FD
S113203060939B0570939C0580939D0590939E05EA
S11320400895CF93DF93E0910D06F0910E0630973B
S113205051F08081882339F0DF010D900020E9F7E9
S1132060AE1BA25001C0AFEFC5E0D6E080E090E225
S11320709993AF3F19F0A81708F090838F5F3196BA
S11320808830B1F71092C1050E94B50885E00E941E
S1132090D40F82E2DF91CF910C94D40FCF93DF93CE
S11320A0E62FF0E0E155FA4F9081981741F1D62FD1
S11320B0C82F80830E94180F6AE770E081E097E0E0
S11320C00E948F2F60E070E081E097E00E94AE09EB
S11320D06C2F70E081E097E00E94AE096D2F81E0E3
S11320E097E00E94302F81E097E00E940D3061E07C
S11320F070E080E090E0DF91CF910C941224DF91A6
S1132100CF910895EF92FF920F931F93CF93DF9394
S11321107C010E94A508882391F10E94180F6AE7A8
S113212070E081E097E00E948F2F6AE070E081E028
S113213097E00E94AE090FEA15E0E7018EE0E80E91
S1132140F11CFE018991D8018D938D01608170E0AD
S113215081E097E00E94AE09CE15DF0591F781E09A
S113216097E00E940D3061E070E080E090E0DF9144
S1132170CF911F910F91FF90EF900C941224DF9157
S1132180CF911F910F91FF90EF90089585EB91E00F
S11321900C9482100E94211084EC91E00E94821021
S11321A083E10E94D40F84E10E94D40F83E196E07E
S11321B00E94682961E081E10E94002564E470E0E6
S11321C081E097E00E948F2F60E070E081E097E06B
S11321D00E94AE0961E070E081E097E00E94AE09E0
S11321E081E097E00E940D3064E470E081E097E0C4
S11321F00E948F2F61E070E081E097E00E94AE09B9
S113220067E070E081E097E00E94AE0981E097E02A
S11322100E940D300E94180F6AE770E081E097E099
S11322200E948F2F66E070E081E097E00E94AE0983
S113223081E097E00E940D3061E070E080E090E082
S11322400C9412240E94180F6AE770E081E097E072
S11322500E948F2F6CE070E081E097E00E94AE094D
S11322608091AD016FE370E0681B710981E097E034
S11322700E94AE0981E097E00E940D3061E070E0B9
S113228080E090E00C941224EFEAF5E080E2819380
S113229095E0ED3BF907D9F70E94180F6AE770E063
S11322A081E097E00E948F2F65E070E081E097E085
S11322B00E94AE0981E097E00E940D3061E070E079
S11322C080E090E00C94122481E0809312068FEF5A
S11322D09FEF9093AC018093AB019093AA018093FC
S11322E0A9019093A6018093A5019093A8018093DE
S11322F0A7019093A4018093A3019093A2018093DA
S1132300A1010E94E408833091F40E94441166E024
S11323108EE20E944E1069E08EE20E944E106AE046
S113232082E30E944E106BE080E30C944E100895FB
S11323301092A7051092A8050E9444110E946411EE
S11323400E9421100E94E408833089F00E94E4086E
S1132350811102C00C94C6100E94E408813019F463
S113236083ED91E002C084EC91E00C948210089516
S1132370CF92DF92EF92FF920F931F93CF93DF934D
S1132380CDB7DEB728970FB6F894DEBF0FBECDBF2A
S11323900E94E408882329F00E94E408813009F0AF
S11323A0CBC00091B0061091B1060E94E4089E01D2
S11323B0295F3F4F790181114FC0003127E2120795
S11323C06CF0C80160E177E20E941034CB014AE06E
S11323D0B7010E947C34FC01808101C080E28983C2
S11323E0C80160E177E20E94103448EEC42E43E055
S11323F0D42EB6010E941034CB014AE0B7010E94EA
S11324007C34FC0180818A83C801B6010E941034A7
S113241054E6C52ED12CB6010E941034CB014AE0FB
S1132420B7010E947C34FC0180818B83C801B60112
S11324300E9410346AE070E00E941034CB014AE03C
S1132440B7010E947C34FC0180818C8386E48D83F7
S113245089E00E949D0F48C0083EF3E01F076CF01E
S1132460C80168EE73E00E941034CB014AE0B70162
S11324700E947C34FC01808101C080E28983C80110
S113248068EE73E00E94103424E6C22ED12CB6010B
S11324900E941034CB014AE0B7010E947C34FC0155
S11324A080818A83C801B6010E9410343AE0C32EA9
S11324B0D12CB6010E941034CB014AE0B7010E942E
S11324C07C34FC0180818B83C801B6010E941034E6
S11324D04AE0B7010E947C34FC0180818C8381E452
S11324E08D8389E00E94D40F8DE48E830E94180F9F
S11324F06AE770E081E097E00E948F2F6BE070E064
S113250081E097E00E94AE098E010F5F1F4FF80132
S113251061918F0170E081E097E00E94AE09E016BE
S1132520F106A9F781E097E00E940D3061E070E0C8
S113253080E090E00E94122428960FB6F894DEBF43
S11325400FBECDBFDF91CF911F910F91FF90EF9000
S1132550DF90CF900895EF920F931F930E94C610BF
S11325600E9421101092C30560E081E10E940025C1
S113257020919E0130919F010AE010E040E35AE26D
S11325806EE272E283E196E00E948D2D82E0E82EF5
S113259002E022E042E061E083E196E00E94B92D8E
S11325A060E070E083E196E00E94712A40E35AE221
S11325B06EE272E283E196E00E94D52B6AE070E05D
S11325C083E196E00E94EF2B62E383E196E00E94B0
S11325D0FA2B64E470E081E097E00E948F2F60E0C2
S11325E070E081E097E00E94AE0960E070E081E075
S11325F097E00E94AE0981E097E00E940D3064E408
S113260070E081E097E00E948F2F61E070E081E04C
S113261097E00E94AE0960E070E081E097E00E94DC
S1132620AE0981E097E00E940D308091A5058823D2
S113263031F00E94E408811102C00E940B101F9126
S11326400F91EF900C94B8110F931F9360E081E108
S11326500E9400250E94211083ED91E00E948210C7
S113266083E10E94D40F84E10E94D40F20919C0145
S113267030919D0109E010E045EA56E063E172E023
S113268083E196E00E941E2D45EA56E063E172E084
S113269083E196E00E94C02B69E070E083E196E05C
S11326A00E94EA2B62E383E196E00E94FA2B64E441
S11326B070E081E097E00E948F2F60E070E081E09D
S11326C097E00E94AE0960E070E081E097E00E942C
S11326D0AE0981E097E00E940D3064E470E081E08F
S11326E097E00E948F2F61E070E081E097E00E9404
S11326F0AE0960E070E081E097E00E94AE0981E0FD
S113270097E00E940D301F910F910C94B811CF9354
S1132710DF93EC010E94E408811108C08091B006A7
S11327209091B106C817D90731F42CC00E94E4086F
S1132730813041F5F3CF0E94E40881110AC0BE0143
S113274083E196E00E94E229D0939F01C0939E0109
S11327500DC00E94E408813049F4BE0183E196E093
S11327600E94E229D0939D01C0939C010E94B8115C
S11327700E94E32360939B0570939C0580939D05C1
S113278090939E05DF91CF9108951F93CF93DF938C
S11327901F92CDB7DEB741E050E060E070E0CE01BB
S11327A001960E9442371981133008F010E061E06D
S11327B088E00E9400250E94330F0E9421101230ED
S11327C051F0111103C00E94AB1202C00E942413E5
S11327D00E94B81102C00E94CA1064E470E081E053
S11327E097E00E948F2F60E070E081E097E00E9404
S11327F0AE090E94E408882329F00E94E40861E0FD
S1132800813009F460E070E081E097E00E94AE0955
S113281081E097E00E940D300E94CF090E942211AE
S113282088E20E949D0F8CE10E949D0F8AE10E9424
S11328309D0F0E94180F6AE770E081E097E00E9404
S11328408F2F68E070E081E097E00E94AE0981E09C
S113285097E00E940D3061E070E080E090E00E941B
S113286012240F90DF91CF911F9108950F931F931E
S1132870CF93DF938C01EB010E94E408833039F499
S11328800E94C5130E94E40881110E94AB120E94A9
S1132890E408811102C0C80105C00E94E408813027
S11328A039F4CE01DF91CF911F910F910C948713CE
S11328B0DF91CF911F910F910895CF92DF92EF9204
S11328C0FF920F931F93CF93DF93CDB7DEB760973B
S11328D00FB6F894DEBF0FBECDBFA8958BE00E9463
S11328E02F25892B99F5A8958FE493EC0197F1F79F
S11328F000C00000A8958BE00E942F25892BE1F4ED
S11329008091A80581110EC081E08093A805809371
S1132910A70582EE91E00E94821085E00E94D40F08
S113292082E208C0813041F40E94981187E00E943D
S1132930D40F86E00E94D40F9FE7ACEFBAE0915029
S1132940A040B040E1F700C00000A8958091A20526
S1132950811115C08091A0059091A105883EEDEFED
S11329609E0740F00E94330F81E08093A2050E94ED
S1132970641105C001969093A1058093A0050E945F
S1132980E408833009F0F3C080911206882309F427
S1132990EEC08091A205882309F4E9C010921206C2
S11329A088E00E94530F89E00E94530F68E670E0AC
S11329B081E097E00E948F2F60E070E081E097E073
S11329C00E94AE0981E097E00E940D3020E030E0E3
S11329D047E050E068E670E081E097E00E940B3049
S11329E047E050E0BE016F5F7F4F81E097E00E94B7
S11329F078239A81892F8077869586958695282FC6
S1132A00220F220F820F9F70890F9B81292F207321
S1132A10E22EE694E694E6942E2D220F220FE20E87
S1132A209F70E90E9C819770F92E9D81292F207348
S1132A30D22ED694D694D6942D2D220F220FD20EB8
S1132A409F70D90E9E8194FB112710F9110F212F2D
S1132A50220F220F120F9F70190F0F81902F929542
S1132A609F700F70EAE09E9F000D1124282F30E024
S1132A704091AB015091AC012417350709F1309313
S1132A80AC012093AB016AE00E94F033C92E4AE006
S1132A90BE01615F7F4F90E00E947C3463E0DC0103
S1132AA08C910E94740F4AE0BE01615F7F4F8C2DB0
S1132AB090E00E947C3464E0FC0180810E94740FE9
S1132AC08E2D90E02091A9013091AA0182179307DD
S1132AD011F19093AA018093A9018E2D6AE00E94BE
S1132AE0F033E92E4AE0BE01615F7F4F90E00E941F
S1132AF07C3461E0DC018C910E94740F4AE0BE01D9
S1132B00615F7F4F8E2D90E00E947C3462E0FC0177
S1132B1080810E94740F8F2D90E02091A501309147
S1132B20A6018217930711F00C94B4208D2D90E028
S1132B302091A7013091A8018217930711F00C94FA
S1132B40D620812F90E02091A3013091A401821717
S1132B50930711F00C94FF20802F90E02091A101A5
S1132B603091A2018217930711F00C9428210E943E
S1132B70E408833031F580919F059091A001981766
S1132B8001F18091A2058823E1F080919F058823BB
S1132B9011F40C94512180919F0590E00197FC0160
S1132BA0E350FC4F80810E94D40FE0919F05F0E038
S1132BB0E350FC4F80810E949D0F80919F0580937C
S1132BC0A0010E94E408833009F449C080919B0568
S1132BD090919C05A0919D05B0919E05892B8A2B0F
S1132BE08B2BB9F00E94E32300919B0510919C0567
S1132BF020919D0530919E05DC01CB01801B910B3A
S1132C00A20BB30B89389341A105B10510F00C94C4
S1132C1055210E94E408811122C080919805909169
S1132C209905803AFFE09F07A9F410929905109244
S1132C30980583E196E00E94372B8091A5058111C8
S1132C400C9461218091C80687FF02C00C947921FD
S1132C500C946121019690939905809398050E94A4
S1132C60E40881116CC08091C405882309F467C00D
S1132C708091A805811163C01092C40520E040E052
S1132C8060E083E196E00E94132E8091DF0680FDD0
S1132C9002C00C9480219091E00690FD02C00C9437
S1132CA0802182FD02C00C9480218091C305811192
S1132CB007C081E08093C3050E9421100E94441143
S1132CC083E196E00E9445279093100680930F06B7
S1132CD083E196E00E94172790930E0680930D06D9
S1132CE0E0910F06F0911006309711F40C940F2226
S1132CF01092C20505EC15E09F01205C3F4FD801FE
S1132D008191803211F00C94922111962E173F0775
S1132D10B9F780E09091C10591110C94A221E09142
S1132D200D06F0910E06309711F00C941A22809142
S1132D30A1019091A201892B11F40C94572289EAE4
S1132D4095E00E94C601882311F40C942923A895C8
S1132D508091A705882309F47BC6813109F4CEC488
S1132D6078F5883009F466C2A0F4843009F452C1BD
S1132D7050F4823009F4C3C008F008C1813009F46A
S1132D807AC00C942923863009F4CCC108F486C196
S1132D900DC28C3009F45EC330F48A3009F4D2C217
S1132DA008F48CC213C38E3009F4DCC308F496C350
S1132DB08F3009F41BC4803109F45CC40C942923BA
S1132DC0843709F4E3C540F58F3609F4A7C550F4F8
S1132DD0833109F41BC508F4D5C4843109F45AC5F8
S1132DE00C942923813709F4B5C508F4A5C58237A5
S1132DF009F4BEC5833711F00C94292362EB74E007
S1132E0080911A0190911B010E94990984E7809393
S1132E10A70589E593E0B6C0883709F4E1C598F4BD
S1132E20863709F4C1C508F0CDC566EA74E080911F
S1132E301601909117010E94990986E78093A705CE
S1132E4087E793E09FC08A3709F4E6C508F4D6C53E
S1132E508B3709F4EFC58C3711F00C9429236CE7F8
S1132E6074E080910601909107010E9499090E94E3
S1132E7098110C94292362E975E080919A0190914C
S1132E809B010E9499090E94E408811105C0809168
S1132E90B0069091B10604C080918E0590918F0583
S1132EA090938F0580938E050E94E408813029F465
S1132EB08091B0069091B10604C0809190059091E4
S1132EC0910590939105809390056091960170917E
S1132ED0970142E050E08EE895E00E9452376091FD
S1132EE098017091990142E050E080E995E00E94D8
S1132EF0523782E08093A70581EF91E043C068E8F0
S1132F0075E080919401909195010E9499090E9425
S1132F10E408811105C08091B0069091B10604C007
S1132F20809184059091850590938505809384050F
S1132F300E94E408813029F48091B0069091B10692
S1132F4004C08091860590918705909387058093AE
S1132F508605609190017091910142E050E084E80F
S1132F6095E00E945237609192017091930142E082
S1132F7050E086E895E00E94523783E08093A705ED
S1132F8080E092E00E9482100C9429236EE775E0A1
S1132F9080918E0190918F010E9499090E94E4080A
S1132FA0811105C08091B0069091B10604C0809152
S1132FB07A0590917B0590937B0580937A050E9416
S1132FC0E408813029F48091B0069091B10604C0E0
S1132FD080917C0590917D0590937D0580937C057F
S1132FE060918A0170918B0142E050E08AE795E09C
S1132FF00E94523760918C0170918D0142E050E043
S11330008CE795E00E94523784E08093A7058FE017
S113301092E0B8CF64E775E08091880190918901CE
S11330200E9499090E94E408811105C08091B006AC
S11330309091B10604C080917005909171059093B0
S11330407105809370050E94E408813029F4809111
S1133050B0069091B10604C08091720590917305F9
S1133060909373058093720560918401709185013A
S113307042E050E080E795E00E945237609186017B
S11330807091870142E050E082E795E00E94523758
S113309085E08093A7058EE192E074CF6AE675E03F
S11330A080918201909183010E9499090E94E40811
S11330B0811105C08091B0069091B10604C0809141
S11330C066059091670590936705809366050E9455
S11330D0E408813029F48091B0069091B10604C0CF
S11330E080916805909169059093690580936805BE
S11330F060917E0170917F0142E050E086E695E0A8
S11331000E945237609180017091810142E050E049
S113311088E695E00E94523786E08093A7058DE209
S113312092E030CF60E675E080917C0190917D0162
S11331300E9499090E94E408811105C08091B0069B
S11331409091B10604C080915C0590915D059093C7
S11331505D0580935C050E94E408813029F4809128
S1133160B0069091B10604C080915E0590915F0510
S113317090935F0580935E05609178017091790169
S113318042E050E08CE595E00E94523760917A016C
S113319070917B0142E050E08EE595E00E94523749
S11331A087E08093A7058CE392E0ECCE66E575E0BA
S11331B080917601909177010E9499090E94E40818
S11331C0811105C08091B0069091B10604C0809130
S11331D052059091530590935305809352050E9494
S11331E0E408813029F48091B0069091B10604C0BE
S11331F080915405909155059093550580935405FD
S1133200609172017091730142E050E082E595E0B3
S11332100E945237609174017091750142E050E050
S113322084E595E00E94523788E08093A7058BE4FB
S113323092E0A8CE6CE475E08091700190917101E8
S11332400E9499090E94E408811105C08091B0068A
S11332509091B10604C080914805909149059093DE
S11332604905809348050E94E408813029F480913F
S1133270B0069091B10604C080914A0590914B0527
S113328090934B0580934A0560916C0170916D0198
S113329042E050E088E495E00E94523760916E016C
S11332A070916F0142E050E08AE495E00E94523749
S11332B089E08093A7058AE592E064CE62E475E034
S11332C080916A0190916B010E9499090E94E4081F
S11332D0811105C08091B0069091B10604C080911F
S11332E03E0590913F0590933F0580933E050E94D3
S11332F0E408813029F48091B0069091B10604C0AD
S1133300809140059091410590934105809340053B
S1133310609166017091670142E050E08EE395E0B0
S11333200E945237609168017091690142E050E057
S113333080E495E00E9452378AE08093A70589E6ED
S113334092E020CE68E375E080916401909165017C
S11333500E9499090E94E408811105C08091B00679
S11333609091B10604C080913405909135059093F5
S11333703505809334050E94E408813029F4809156
S1133380B0069091B10604C080913605909137053E
S113339090933705809336056091600170916101C7
S11333A042E050E084E395E00E945237609162016C
S11333B07091630142E050E086E395E00E94523749
S11333C08BE08093A70588E792E0DCCD6EE275E0A0
S11333D080915E0190915F010E9499090E94E40826
S11333E0811105C08091B0069091B10604C080910E
S11333F02A0590912B0590932B0580932A050E9412
S1133400E408813029F48091B0069091B10604C09B
S113341080912C0590912D0590932D0580932C057A
S113342060915A0170915B0142E050E08AE295E0BC
S11334300E94523760915C0170915D0142E050E05E
S11334408CE295E00E9452378CE08093A70587E8D0
S113345092E098CD64E275E0809158019091590111
S11334600E9499090E94E408811105C08091B00668
S11334709091B10604C0809120059091210590930C
S11334802105809320050E94E408813029F480916D
S1133490B0069091B10604C0809122059091230555
S11334A090932305809322056091540170915501F6
S11334B042E050E080E295E00E945237609156016C
S11334C07091570142E050E082E295E00E94523749
S11334D08DE08093A70586E992E054CD6AE175E01A
S11334E080915201909153010E9499090E94E4082D
S11334F0811105C08091B0069091B10604C08091FD
S113350016059091170590931705809316050E9450
S1133510E408813029F48091B0069091B10604C08A
S113352080911805909119059093190580931805B9
S113353060914E0170914F0142E050E086E195E0C8
S11335400E945237609150017091510142E050E065
S113355088E195E00E9452378EE08093A70585EAC2
S113356092E010CD60E175E080914C0190914D01A5
S11335700E9499090E94E408811105C08091B00657
S11335809091B10604C080910C0590910D05909323
S11335900D0580930C050E94E408813029F4809184
S11335A0B0069091B10604C080910E0590910F056C
S11335B090930F0580930E05609148017091490125
S11335C042E050E08CE095E00E94523760914A015D
S11335D070914B0142E050E08EE095E00E9452373A
S11335E08FE08093A70584EB92E0CCCC66E075E095
S11335F080914601909147010E9499090E94E40834
S1133600811105C08091B0069091B10604C08091EB
S113361002059091030590930305809302050E948F
S1133620E408813029F48091B0069091B10604C079
S113363080910405909105059093050580930405F8
S1133640609142017091430142E050E082E095E0D4
S11336500E945237609144017091450142E050E06C
S113366084E095E00E94523780E18093A70583ECC3
S113367092E088CC6CEF74E080914001909141011C
S11336800E9499090E94E408811105C08091B00646
S11336909091B10604C08091F8049091F90490933C
S11336A0F9048093F8040E94E408813029F480919D
S11336B0B0069091B10604C08091FA049091FB0485
S11336C09093FB048093FA0460913C0170913D0156
S11336D042E050E088EF94E00E94523760913E014E
S11336E070913F0142E050E08AEF94E00E9452372B
S11336F081E18093A70582ED92E044CC62EF74E00F
S113370080913A0190913B010E9499090E94E4083A
S1133710811105C08091B0069091B10604C08091DA
S1133720EE049091EF049093EF048093EE040E94D2
S1133730E408813029F48091B0069091B10604C068
S11337408091F0049091F1049093F1048093F0043B
S1133750609136017091370142E050E08EEE94E0C2
S11337600E945237609138017091390142E050E073
S113377080EF94E00E94523782E18093A70581EEA6
S113378092E000CC68EE74E08091340190913501B0
S11337900E9499090E94E408811105C08091B00635
S11337A09091B10604C08091E4049091E504909353
S11337B0E5048093E4040E94E408813029F48091B4
S11337C0B0069091B10604C08091E6049091E7049C
S11337D09093E7048093E604609130017091310185
S11337E042E050E084EE94E00E945237609132014E
S11337F07091330142E050E086EE94E00E9452372B
S113380083E18093A70580EF92E0BCCB6EED74E07A
S113381080912E0190912F010E9499090E94E40841
S1133820811105C08091B0069091B10604C08091C9
S1133830DA049091DB049093DB048093DA040E9411
S1133840E408813029F48091B0069091B10604C057
S11338508091DC049091DD049093DD048093DC047A
S113386060912A0170912B0142E050E08AED94E0CE
S11338700E94523760912C0170912D0142E050E07A
S11338808CED94E00E94523784E18093A7058FEF7A
S113389092E078CB64ED74E0809128019091290145
S11338A00E9499090E94E408811105C08091B00624
S11338B09091B10604C08091D0049091D10490936A
S11338C0D1048093D0040E94E408813029F48091CB
S11338D0B0069091B10604C08091D2049091D304B3
S11338E09093D3048093D2046091240170912501B4
S11338F042E050E080ED94E00E945237609126014E
S11339007091270142E050E082ED94E00E9452372A
S11339108FE68093A7058EE093E034CB6AEC74E0E5
S113392080912201909123010E94990980E780935C
S1133930A7058DE193E026CB64EC74E0809120012F
S1133940909121010E94990981E78093A7058CE257
S113395093E018CB6EEB74E080911E0190911F01EF
S11339600E94990982E78093A7058BE393E00ACB31
S113397068EB74E080911C0190911D010E949909EB
S113398083E78093A7058AE493E0FCCA6CEA74E0B9
S113399080911801909119010E94990985E78093FB
S11339A0A70588E693E0EECA60EA74E0809112010C
S11339B0909113010E94990987E78093A70586E8EF
S11339C093E0E0CA6AE974E08091100190911101DA
S11339D00E94990988E78093A70585E993E0D2CAF4
S11339E064E974E080910E0190910F010E9499099D
S11339F089E78093A70584EA93E0C4CA6EE874E07B
S1133A0080910C0190910D010E9499098AE780939D
S1133A10A70583EB93E0B6CA68E874E080910A01D5
S1133A2090910B010E9499098BE78093A70582EC82
S1133A3093E0A8CA62E874E08091080190910901BA
S1133A400E9499098CE78093A70581ED93E09ACAB7
S1133A5046E050E068EB74E089EA95E00E946F3438
S1133A60892B09F50E94E408833019F40E94C513D8
S1133A70F0C51092A6050E94F90883E10E94D40FB4
S1133A808AE10E94D40F8CE10E94D40F0E94B509F0
S1133A900E94E408882309F4A6C50E94E408813042
S1133AA009F0D2C5A0C50E94E408833009F4D1C549
S1133AB046E050E06AEC74E089EA95E00E946F34D5
S1133AC0892B39F48091AD01882309F4C2C5815052
S1133AD010C046E050E064EC74E089EA95E00E948E
S1133AE06F34892BB9F58091AD018F3308F0B1C5DE
S1133AF08F5F8093AD0164E470E081E097E00E9401
S1133B008F2F63E070E081E097E00E94AE0960913E
S1133B10AD0181E097E00E94302F81E097E00E94A0
S1133B200D3064E470E081E097E00E948F2F64E040
S1133B3070E081E097E00E94AE096091AD0181E000
S1133B4097E00E94302F81E097E00E940D300E94A0
S1133B50221139C146E050E06EEB74E089EA95E049
S1133B600E946F34892B09F58091A605882371F092
S1133B7084E20E94D40F8AE10E949D0F8CE10E948E
S1133B809D0F0E94CF091092A60563C584E20E948E
S1133B909D0F8AE10E94D40F8CE10E94D40F0E94F1
S1133BA0B50981E08093A60554C546E050E062EB78
S1133BB074E089EA95E00E946F34892B49F50E94EC
S1133BC0B5090E94E40881110BC08091B006909160
S1133BD0B10690939F0180939E010E94241315C007
S1133BE00E94E408813059F48091B0069091B106A6
S1133BF090939D0180939C010E94CA1006C00E946C
S1133C00E408823011F40E94AB120E94CF09DBC099
S1133C1046E050E066EA74E089EA95E00E946F3479
S1133C20892BB1F48091A505882359F061E383E1E0
S1133C3096E00E94F42B83E10E949D0F1092A5054B
S1133C40C2C00E94E408811104C50E940B1001C582
S1133C5046E050E06AE974E089EA95E00E946F3436
S1133C60892B29F483E196E00E94982A0EC046E04D
S1133C7050E060EA74E089EA95E00E946F34892B91
S1133C8039F483E196E00E94B72A0E94B8119BC0E0
S1133C9046E050E06EE874E089EA95E00E946F34F3
S1133CA0892BD9F420919A05822F90E044E09595D0
S1133CB087954A95E1F7883009F4CBC4873010F42E
S1133CC08F5F05C0873011F0815001C08EE02F70E6
S1133CD0A0E18A9FC001112424C046E050E064E9B9
S1133CE074E089EA95E00E946F34892BE1F4209115
S1133CF09A05822F90E034E0959587953A95E1F7FF
S1133D00882309F4A6C4883010F4815005C08E308D
S1133D1011F08F5F01C087E02F70B0E18B9FC0016D
S1133D201124822B38C046E050E062E874E089EA4E
S1133D3095E00E946F34892B91F490919A05892F14
S1133D408F70883009F485C4873010F48F5F05C004
S1133D50873011F0815001C08EE0907F1BC046E097
S1133D6050E068E874E089EA95E00E946F34892B9A
S1133D70A9F590919A05892F8F7009F46AC4883047
S1133D8010F4815005C08E3011F08F5F01C087E0C0
S1133D90907F8F70892B80939A0564E470E081E0B2
S1133DA097E00E948F2F65E070E081E097E00E9429
S1133DB0AE0960919A0581E097E00E94302F81E07E
S1133DC097E00E940D300E94E32360939B0570935B
S1133DD09C0580939D0590939E053BC446E050E06E
S1133DE06CE774E089EA95E00E946F34892BD1F482
S1133DF00E94E40881112DC49091C10581E08927B6
S1133E008093C1058091C105811107C00E942110D2
S1133E100E9444110E94C6101CC40E9444110E94B6
S1133E20B50817C446E050E06CEA74E089EA95E00E
S1133E300E946F34892BC9F40E94180F6AE770E05E
S1133E4081E097E00E948F2F6DE070E081E097E0C1
S1133E500E94AE0981E097E00E940D3061E070E0BD
S1133E6080E090E00E941224F4C346E050E062E94E
S1133E7075E089EA95E00E946F34892B49F46091DA
S1133E8090057091910580918E0590918F0569C17F
S1133E9046E050E068E875E089EA95E00E946F34F6
S1133EA0892B49F46091860570918705809184057A
S1133EB09091850556C146E050E06EE775E089EAC9
S1133EC095E00E946F34892B49F460917C057091D0
S1133ED07D0580917A0590917B0543C146E050E0D1
S1133EE064E775E089EA95E00E946F34892B49F410
S1133EF060917205709173058091700590917105C0
S1133F0030C146E050E06AE675E089EA95E00E9437
S1133F106F34892B49F4609168057091690580912B
S1133F206605909167051DC146E050E060E675E0C6
S1133F3089EA95E00E946F34892B49F460915E050B
S1133F4070915F0580915C0590915D050AC146E022
S1133F5050E066E575E089EA95E00E946F34892BAC
S1133F6049F46091540570915505809152059091E2
S1133F705305F7C046E050E06CE475E089EA95E04B
S1133F800E946F34892B49F460914A0570914B0566
S1133F908091480590914905E4C046E050E062E410
S1133FA075E089EA95E00E946F34892B49F46091A9
S1133FB040057091410580913E0590913F05D1C027
S1133FC046E050E068E375E089EA95E00E946F34CA
S1133FD0892B49F460913605709137058091340539
S1133FE090913505BEC046E050E06EE275E089EA86
S1133FF095E00E946F34892B49F460912C057091EF
S11340002D0580912A0590912B05ABC046E050E028
S113401064E275E089EA95E00E946F34892B49F4E3
S113402060912205709123058091200590912105CE
S113403098C046E050E06AE175E089EA95E00E94A4
S11340406F34892B49F4609118057091190580919A
S113405016059091170585C046E050E060E175E0D3
S113406089EA95E00E946F34892B49F460910E052A
S113407070910F0580910C0590910D0572C046E07A
S113408050E066E075E089EA95E00E946F34892B80
S113409049F46091040570910505809102059091A1
S11340A003055FC046E050E06CEF74E089EA95E0F8
S11340B00E946F34892B49F46091FA047091FB04D7
S11340C08091F8049091F9044CC046E050E062EF0E
S11340D074E089EA95E00E946F34892B49F4609179
S11340E0F0047091F1048091EE049091EF0439C0D2
S11340F046E050E068EE74E089EA95E00E946F348F
S1134100892B49F46091E6047091E7048091E404FA
S11341109091E50426C046E050E06EED74E089EA33
S113412095E00E946F34892B49F46091DC0470910E
S1134130DD048091DA049091DB0413C046E050E082
S113414064ED74E089EA95E00E946F34892B09F0EC
S113415080C26091D2047091D3048091D004909174
S1134160D1040E94361475C29093A6018093A501D0
S11341702091A80521110C949615880F991FFC0114
S1134180EF5DFB4FE080F18060E0D7018C910E94ED
S11341904E1061E0F70181810E944E1062E0D70168
S11341A012968C910E944E100C9496159093A8012F
S11341B08093A7018091A80581110C94A1158D2DE0
S11341C06AE00E94F033F92E4AE0BE01615F7F4F3E
S11341D090E00E947C3464E0FC0180810E944E10D7
S11341E04AE0BE01615F7F4F8F2D90E00E947C34D6
S11341F065E0DC018C910E944E100C94A115909303
S1134200A4018093A3018091A80581110C94AC159D
S1134210812F6AE00E94F033192F4AE0BE01615FEA
S11342207F4F90E00E947C3467E0FC0180810E9413
S11342304E104AE0BE01615F7F4F812F90E00E94E3
S11342407C3468E0DC018C910E944E100C94AC1517
S11342509093A2018093A1018091A80581110C94EF
S1134260B715802F6AE00E94F033192F4AE0BE018F
S1134270615F7F4F90E00E947C346CE0FC018081A0
S11342800E944E104AE0BE01615F7F4F812F90E093
S11342900E947C346DE0DC018C910E944E100C94E1
S11342A0B71585E290E00C94CF1510929B051092FF
S11342B09C0510929D0510929E050E94F9080C948D
S11342C0091683E10E94D40F1092A4058091CA06B6
S11342D08C3140F084E10E949D0F81E08093A3051E
S11342E00C942F1684E10E94D40F1092A3050C9411
S11342F02F1683E10E949D0F81E08093A405E6CFF1
S11343000E9421101092C30585EB91E00E94A5083C
S1134310882311F40C949F160E9444110E94C61025
S11343200C949F169C91903211F40C948516891765
S113433011F40C948516882311F40C94851681E0ED
S11343400C948A16882321F00E94B5080E94441117
S113435020910F0630911006E5E0F6E0D9018D9129
S11343609D019EED980F9D3520F4D8019C918913F1
S11343708C930F5F1F4FE017F10781F78FB7F89405
S11343800091C0051091BF058FBF8FE390E022918B
S1134390203211F0182F02C00197C8F71E3008F41C
S11343A000E08FB7F8940093C0051093BF058FBF4A
S11343B0E02EF12CD701AB53BA4FFE0131969E018A
S11343C0215F3F4FCF014D9141932E173F07D9F7FE
S11343D00E94821085E0002319F00E949D0F02C004
S11343E00E94D40F61E070E080E090E00E9412240B
S11343F0EDE0EE0EF11C812F90E0E816F90624F4AE
S113440082E20E949D0F03C082E20E94D40F61E009
S113441070E080E090E00E9412240C948F1680914A
S1134420C205893010F00C948F168F5F8093C205FB
S11344300C948F168091DF0684FD02C00C949716AD
S113444005E016E09F01285F3F4FD801819180323B
S113445009F08C9311962E173F07C1F78091C1057F
S113446081110C949716EDE0F6E087E090E022913C
S1134470203219F40197D8F780E0282F30E02F5F1D
S11344803F4F3595279580958170E12C97E0F92E63
S1134490F81AF21A6F2D6E0DD8018D918D010E94BC
S11344A04E10E394B8E0EB12F5CF0C9497166BEA38
S11344B0E62E61E0F62E09EA11E027EA31E043EA4C
S11344C051E061EA71E083E196E00E944F2888237D
S11344D011F40C949F16E090A701F090A8010091AC
S11344E0A3011091A401E091A101F091A201033074
S11344F0110528F46F0121E0C21AD10804C06F012C
S113450032E0C31AD10827E1209FC001219F900DFA
S1134510112469E070E00E94FC33C70104969B01FA
S1134520280F391FC6019695879596958795280F6C
S1134530391FC60160E971E00E94FC33260F371F62
S1134540C60164E670E00E94FC33C901861B970B28
S113455067E070E00E94FC33AC01892B11F447E062
S113456050E05093A6014093A501E05DF740F0931D
S1134570A201E093A10119828091AB019091AC0159
S11345802AE030E0B9010E94FC336295607F862BFB
S11345908A838091A9019091AA01B9010E94FC33F8
S11345A06295607F862B8B834C83C701B9010E947F
S11345B0FC336295607F862B8D83C801B9010E940C
S11345C0FC336295607F862B8E83CF01B9010E94F4
S11345D0FC336295607F862B8F83CE0101960E9407
S11345E0840A0C949F1683E196E00E9468290E9435
S11345F0211060E088E00E9400250E94330F109291
S1134600A4051092A3050E94180F6AE770E081E0E8
S113461097E00E948F2F69E070E081E097E00E94AC
S1134620AE0981E097E00E940D3061E070E080E027
S113463090E00E94122488E00E949D0F89E00E946D
S11346409D0F0E94641105C060E081E10E94002575
S1134650D0CF60960FB6F894DEBF0FBECDBFDF910A
S1134660CF911F910F91FF90EF90DF90CF9008951D
S113467008950E9460240E9438230E94A80AC0E082
S1134680D0E00E945D142097E1F30E940000F9CF6E
S11346900F931F93CF93DF93EC010E94E32368876A
S11346A079878A879B87E881F9810284F385E02DE5
S11346B0CE01099597FF17C00E94E3230885198549
S11346C02A853B85DC01CB01801B910BA20BB30B2C
S11346D00C811D812E813F8180179107A207B307AA
S11346E010F38FEF9FEFDF91CF911F910F910895FA
S11346F0CF92DF92EF92FF920F931F93CF93DF93AA
S11347006C017A018B01C0E0D0E0CE15DF0559F0D1
S1134710C6010E94482397FD05C0F80181938F01CB
S11347202196F3CF7E01C701DF91CF911F910F91A5
S1134730FF90EF90DF90CF9008951F920F920FB6E5
S11347400F9211242F933F938F939F93AF93BF9313
S11347508091F7069091F806A091F906B091FA06B7
S11347603091F60626E6230F2D3728F029EE230F85
S11347700196A11DB11D2093F6068093F706909330
S1134780F806A093F906B093FA068091FB0690917F
S1134790FC06A091FD06B091FE060196A11DB11D77
S11347A08093FB069093FC06A093FD06B093FE064F
S11347B0BF91AF919F918F913F912F910F900FBE19
S11347C00F901F9018952FB7F8946091F706709189
S11347D0F8068091F9069091FA062FBF08959FB7C5
S11347E0F8944091FB065091FC066091FD0670918F
S11347F0FE0686B5A89B06C08F3F21F04F5F5F4F32
S11348006F4F7F4F9FBF762F652F542F44279A01F8
S1134810AB01280F311D411D511DA3E0B0E00E94E2
S1134820463408958F929F92AF92BF92CF92DF92B7
S1134830EF92FF926B017C010E94EF234B015C011C
S1134840C114D104E104F10401F10E9414300E9466
S1134850EF23DC01CB0188199909AA09BB09883E19
S11348609340A105B10560F321E0C21AD108E10823
S1134870F10888EE880E83E0981EA11CB11CC114B7
S1134880D104E104F10419F7DBCFFF90EF90DF903E
S1134890CF90BF90AF909F908F900895000000003C
S11348A0000000008230910550F09C01220F331F5C
S11348B0220F331F0797820F931F0197F1F7089573
S11348C0789484B5826084BD84B5816084BD85B5E7
S11348D0826085BD85B5816085BDEEE6F0E08081AE
S11348E081608083E1E8F0E01082808182608083CF
S11348F0808181608083E0E8F0E080818160808352
S1134900E1EBF0E0808184608083E0EBF0E0808183
S113491081608083EAE7F0E0808184608083808125
S113492082608083808181608083808180688083CD
S11349301092C1000895833081F028F4813099F0F9
S11349408230A1F008958730A9F08830B9F084301E
S1134950D1F4809180008F7D03C0809180008F7797
S113496080938000089584B58F7702C084B58F7DCD
S113497084BD08958091B0008F7703C08091B0000A
S11349808F7D8093B0000895CF93DF9390E0FC0176
S1134990E85BFE4F2491FC01E45AFE4F8491882386
S11349A061F190E0880F991FFC01EC57FE4FC5910F
S11349B0D491FC01E658FE4FA591B491611109C050
S11349C09FB7F8948881209582238883EC912E23C5
S11349D00BC0623061F49FB7F8948881322F309510
S11349E083238883EC912E2B2C939FBF06C08FB713
S11349F0F894E8812E2B28838FBFDF91CF910895FF
S1134A001F93CF93DF93282F30E0F901EC5CFE4F26
S1134A108491F901E85BFE4FD491F901E45AFE4F09
S1134A20C491CC23C1F0162F81110E949B24EC2F3A
S1134A30F0E0EE0FFF1FE658FE4FA591B4919FB72B
S1134A40F894111104C08C91D095D82302C0EC9134
S1134A50DE2BDC939FBFDF91CF911F910895CF93FD
S1134A60DF93282F30E0F901EC5CFE4F8491F901CB
S1134A70E85BFE4FD491F901E45AFE4FC491CC2374
S1134A8091F081110E949B24EC2FF0E0EE0FFF1FA8
S1134A90E059FE4FA591B491EC91ED2381E090E0B3
S1134AA021F480E002C080E090E0DF91CF9108958E
S1134AB0FC01E657FF4F108231961082319621E1B6
S1134AC030E03183208332962EE130E0318320833D
S1134AD032962AE030E031832083329640E45FE16D
S1134AE060E070E040835183628373833F962FEFCD
S1134AF02083319634E23083319631E0308331962D
S1134B00108231961082319640E050E85183408300
S1134B10329641E050E05183408332961082F596FC
S1134B2030E23083319635E03083329620833197FA
S1134B3010820895CF93DF93EC01C956DF4F61E0F3
S1134B4088810E94C4246AE070E080E090E00E94C2
S1134B50122460E088810E9400256AE070E080E011
S1134B6090E00E94122461E088810E9400256AE09E
S1134B7070E080E090E0DF91CF910C941224CF920A
S1134B80EF920F93CF93DF93FC01DC01A352BF4F4D
S1134B909C9160FB97F940FB96F920FB95F900FB8B
S1134BA094F98E2D8F70907F982B9C931196CC92B4
S1134BB0DB970C93EF01C856DF4F1A96E11005C03E
S1134BC080E288838C91826004C080E488838C9125
S1134BD08D7F8C938C918160837C8C93DF01A055B5
S1134BE0BF4F1C92EF54FF4F81E08083DF91CF9140
S1134BF00F91EF90CF90089584579F4FFC016081EF
S1134C00718181E097E00E948F2F62E170E081E082
S1134C1097E00E94AE0960E070E081E097E00E94B6
S1134C20AE096FEF70E081E097E00E94AE0960E0AA
S1134C3070E081E097E00E94AE0960E070E081E0FE
S1134C4097E00E94AE0960E070E081E097E00E9486
S1134C50AE0981E097E00E940D3084EC99E00C9459
S1134C604E24FC019C012F5B3F4F40E24193E2172D
S1134C70F307E1F7FC01E05CFF4F10820895FC01AB
S1134C80EF5BFF4F9C012E593F4F40E24193E217E7
S1134C90F307E1F7FC01EF59FF4F10820895FC017F
S1134CA0EE59FF4F9C0125593F4F40E24193E217D3
S1134CB0F307E1F7FC01E659FF4F10820895CF9303
S1134CC0DF93EC010E943126CE010E943F26CE01E3
S1134CD00E944F26FE01E857FF4F118210823E9634
S1134CE01082709711821082CC57DF4F198218827C
S1134CF0DF91CF910895CF92DF92EF92FF920F93BD
S1134D001F93CF93DF9300D0CDB7DEB7FC01EA52F7
S1134D10FF4F20812A833197208129839E012F5FB1
S1134D203F4F6901FB018B010E5F1F4F20E030E014
S1134D3050E2D6014D916D014D3051F4FC01E5571F
S1134D40FF4F41E04083FB01E20FF31F108211C0CB
S1134D504A30A1F3403240F07B01E20EF31ED7014A
S1134D604C932F5F3F4F01C050833196E017F107FA
S1134D7001F70F900F90DF91CF911F910F91FF904A
S1134D80EF90DF90CF900895CF92DF92EF92FF9251
S1134D900F931F93CF93DF9300D000D0CDB7DEB72E
S1134DA0FC01ED52FF4F20812983319620812A8313
S1134DB0319620812B83319620812C839E012F5F95
S1134DC03F4F6901FB01AB014C5F5F4FE12CF12CBC
S1134DD030E2D6012D916D012D3051F4FC01E657DE
S1134DE0FF4F21E02083FB01EE0DFF1D108212C056
S1134DF02A30A1F3203248F08B010E0D1F1DD8017B
S1134E002C93BFEFEB1AFB0A01C030833196E417F1
S1134E10F507F9F60F900F900F900F90DF91CF9157
S1134E201F910F91FF90EF90DF90CF900895CF9353
S1134E30DF93FC01E453FF4F208120FD03C080E099
S1134E4090E020C0FC01EF52FF4F208122952F708B
S1134E50B1F7EC01319660816370EA54F10970E0B6
S1134E6071836083660F771F6E597F4F6C0F7D1FB0
S1134E70CE010E947B26FE01E659FF4F1082CE012F
S1134E808E599F4FDF91CF910895CF93DF93FC010B
S1134E90E453FF4F208120FD03C080E090E01CC05C
S1134EA0FC01EF52FF4F208122952F702230A9F789
S1134EB0EC01319660816F70EE54F10970E07183FA
S1134EC06083660F771F660F771F6C0F7D1FCE01FF
S1134ED00E94C4261FAECE01DF91CF9108954F9258
S1134EE05F926F927F928F929F92AF92BF92CF9276
S1134EF0DF92EF92FF920F931F93CF93DF93E90119
S1134F0057016A017B012AEDC20E2AEAD21E25E26C
S1134F10E21EF11CC701B60122E0660F771F881F4D
S1134F20991F2A95D1F721EB3AE342E050E00E9421
S1134F30243429013A0161EB7AE382E090E00E9493
S1134F40E033DC01CB010396A11DB11D32E0B6951F
S1134F50A795979587953A95D1F7C81AD90AEA0A79
S1134F60FB0AA70196012F5F3F4F4F4F5F4FA0EA07
S1134F70BFE00E94463429E03BE446E150E00E9451
S1134F802434288339834A835B838FE1C80ED11C80
S1134F90E11CF11CA5EBB5E00E944634DC01CB0119
S1134FA042E0B695A795979587954A95D1F7C81A83
S1134FB0D90AEA0AFB0AA0E5B0E0A70196010E941B
S1134FC046342FE839E040E050E00E942434F801F0
S1134FD02083318342835383AFE8B9E00E9446348F
S1134FE020E530E040E050E00E942434C21AD30AA5
S1134FF0E40AF50AF501C082D182E282F382F80163
S113500080809180A280B380C501B4012BE030E0A0
S113501040E050E00E94243469017A01F2E08F0EEE
S1135020911CA11CB11CACE0B0E00E944634A50167
S11350309401261B370B480B590BF801208331834D
S11350404283538388819981AA81BB81C80ED91E6A
S1135050EA1EFB1EF4E2CF1AF3E1DF0AE108F108CD
S1135060A4E6B0E0A30192010E944634C60ED71E06
S1135070E81EF91EC882D982EA82FB82DF91CF91B1
S11350801F910F91FF90EF90DF90CF90BF90AF9062
S11350909F908F907F906F905F904F9008952F9284
S11350A03F924F925F926F927F928F929F92AF92B4
S11350B0BF92CF92DF92EF92FF920F931F93CF9301
S11350C0DF93CDB7DEB764970FB6F894DEBF0FBE9B
S11350D0CDBF7C8B6B8BDA01AC014F525F4FFA0171
S11350E0408142954F70443009F0BEC0AC014E522D
S11350F05F4FFA014081BC016C527F4FFB0130804D
S113510061507109FB0150816D5F7F4FFB019080FD
S113511061507109FB0180804370442E512C612C35
S1135120712C4FE0440C551C661C771C4A95D1F732
S1135130432D4695D52ED794DD24D7946D2D642B1D
S1135140752F7695AB0160E070E0442955296629F6
S11351507729F82DFF70E4E0FE9F60011124792C7B
S1135160729476947694E3E07E22F601E7293F0177
S113517030FAAA24A0F8B12CF4E0AA0CBB1CFA95CE
S1135180E1F78294EFE08E22A828FCE3DF2EDA9C7C
S11351902001DB9C500C1124F92DFF71EEE1FE9FE0
S11351A05001112495FC04C0CC24C394D12C03C019
S11351B0CC24CA94DC2CCA9C4001CB9C900CDA9C75
S11351C0900C11246301C40CD51CC80CD91CD7FE47
S11351D009C0F0E6CF1AFAEFDF0A4150510961091C
S11351E071090DC0E1EACE16E5E0DE0644F0F0EA0E
S11351F0CF1AF5E0DF0A4F5F5F4F6F4F7F4F170104
S1135200280139014D01AB88BC889E01215F3F4FC5
S113521079018E01055F1F4F285031090E946F27C5
S1135220C6016CE370E00E94FC338F819885F50120
S1135230918380838B859C85F401918380838F8502
S11352409889F30191838083F201718360832CE355
S1135250269FC001279F900D1124C81AD90AF10175
S1135260D182C08281E001C080E064960FB6F894D8
S1135270DEBF0FBECDBFDF91CF911F910F91FF9085
S1135280EF90DF90CF90BF90AF909F908F907F90E2
S11352906F905F904F903F902F900895CF93DF933E
S11352A0EC01C457DF4F8CE291E00E944E246881E8
S11352B0798141E050E081E097E00E94083081E08C
S11352C097E00E94A92E87FFEECFDF91CF9108953A
S11352D0CF93DF93EC01FC01EE51FF4F808187FDFA
S11352E007C060E00E9400258CE291E00E944E24F9
S11352F0CE010E944E29C457DF4F6881798181E035
S113530097E00E948F2F61E170E081E097E00E94B6
S1135310AE0981E097E00E940D3084EC99E0DF91C2
S1135320CF910C944E24AF92BF92CF92DF92EF9222
S1135330FF920F931F93CF93DF93EC010E944E29AA
S11353407E018CE8E80EF11CF7016081718181E037
S113535097E00E948F2F60E170E081E097E00E9467
S1135360AE0981E097E00E940D305E01FBECAF0EC8
S1135370B11CCE010E944E29F7016081718149E080
S113538050E081E097E00E9408308E010E531F4FD9
S1135390680181E097E00E94A92EF80181938F01B2
S11353A0EA15FB05B1F7F601808186FDE2CFDF91B6
S11353B0CF911F910F91FF90EF90DF90CF90BF900E
S11353C0AF9008958F929F92AF92BF92CF92DF9247
S11353D0EF92FF920F931F93CF93DF93EC017B0126
S11353E00E944E29FE01E555FF4FF182E0825E01E5
S11353F08EEAA80EB11CDE01A455BF4F8C91D501D5
S11354008C936E01BFEACB0ED11C8081F6018083A0
S1135410F29680818E0103551F4F882359F0D801DD
S11354209C918295880F880F807C9370892B816072
S11354308D7F8C93FE01E457FF4F6081718181E081
S113544097E00E948F2F4E01B8E98B0E911CF40156
S1135450608181E097E00E94302FD8016C9181E057
S113546097E00E94302FF501608181E097E00E946F
S1135470302FD6016C9181E097E00E94302FFE011D
S1135480E055FF4F608181E097E00E94302FF401E6
S11354908081803431F47996608181E097E00E94C4
S11354A0302F81E097E00E940D30CE010E944E29FA
S11354B0FE01E356FF4FF182E082C257DF4F68815D
S11354C0798180E090E0DF91CF911F910F91FF905F
S11354D0EF90DF90CF90BF90AF909F908F900C94FF
S11354E01224FC01E355FF4F2081237C2083DC013F
S11354F0A856BF4F3C91303441F0603C710508F030
S113550060E0FC01E055FF4F0BC0611538E1730703
S113551040F42D7F2083FC01E055FF4F70833196CA
S11355206083FC01E356FF4F608171810C94E22992
S1135530FC01E356FF4F20813181DC01A556BF4FAA
S11355404D915C9111972417350720F012972D91F6
S11355503C9107C0DC01A156BF4F4D915C91240FD3
S1135560351F31832083608171810C94E229FC0111
S1135570E356FF4F20813181DC01A756BF4F4D9187
S11355805C9111974217530720F012962D913C918C
S113559007C0DC01A156BF4F4D915C91241B350B14
S11355A031832083608171810C94E229CF92DF9250
S11355B0EF92FF920F931F93CF93DF938C01D62F1B
S11355C0FC01E856FF4F8081803239F0803551F07C
S11355D026E0E22EF12CC3E409C098E0E92EF12C78
S11355E0C3E204C088E0E82EF12CC3E5C8010E94A0
S11355F04E2968018CE8C80ED11CF60160817181C6
S113560081E097E00E948F2F6C2F81E097E00E9449
S1135610302F6D2F81E097E00E94302F81E097E0DA
S11356200E940D30C8010E944E29F60160817181EB
S1135630A70181E097E00E940830D12CCD2DD0E065
S1135640CE15DF055CF481E097E00E94A92EC00F1F
S1135650D11FCE54DF4F8883D394F0CFDF91CF9105
S11356601F910F91FF90EF90DF90CF90089560E02D
S11356700C94D62AEF92FF920F931F93CF93DF934C
S1135680EC01F62EE72E142F052F0E944E29C45745
S1135690DF4F6881798181E097E00E948F2F62E17A
S11356A070E081E097E00E94AE0960E070E081E084
S11356B097E00E94AE096E2D81E097E00E94302FA2
S11356C06F2D81E097E00E94302F602F81E097E0FA
S11356D00E94302F612F81E097E00E94302F81E0FB
S11356E097E00E940D3086E292E0DF91CF911F9106
S11356F00F91FF90EF900C944E240F931F93CF9330
S1135700DF93EC018B01AB0161E072E00E943A2B64
S1135710CA55DF4F19830883DF91CF911F910F91F1
S11357200895FF920F931F93CF93DF93EC018B01A6
S1135730F42EAB0162E072E00E943A2BFE01E855C0
S1135740FF4F11830083C655DF4FF882DF91CF915D
S11357501F910F91FF90089524EF260F2F3478F4B2
S1135760FC01EE55FF4F608324E531E0629FA00108
S1135770639F500D112463E071E30C943A2B089558
S11357800F931F93CF93DF93EC018A01AB0160E089
S113579074E30E943A2BA80161E074E3CE01DF9127
S11357A0CF911F910F910C943A2B0F931F93CF938A
S11357B0DF93EC018A01AB0160E074E10E943A2BB3
S11357C0A80161E074E1CE01DF91CF911F910F91A7
S11357D00C943A2BAB0162E074E30C943A2BAB01CA
S11357E062E074E10C943A2B462F50E065E071E1DD
S11357F00C943A2B1F93CF93DF93EC01162F462F73
S113580050E060E070E40E943A2BC152DF4F1883ED
S1135810DF91CF911F910895CF93DF93EC010E9404
S11358204E29FE01E457FF4F6081718181E097E0CA
S11358300E948F2F61E070E081E097E00E94AE0942
S1135840FE01E352FF4F608181E097E00E94302F18
S1135850FE01E252FF4F608181E097E00E94302F09
S113586081E097E00E940D30CE010E944E29FE0196
S1135870E057FF4F6081718180E090E00E94122424
S1135880FE01EE51FF4F808187FD07C061E00E9459
S113589000258CE291E00E944E24FE01ED55FF4F5D
S11358A08081811114C0339660817181CE010E9480
S11358B07D2BFE01E655FF4FDE01A855BF4F6D91CC
S11358C07C914081CE01DF91CF910C94912BDF919B
S11358D0CF910895AF92BF92CF92DF92EF92FF9251
S11358E00F931F93CF93DF93EC01A62E142FB22EA8
S11358F0DE2CFC2C81E097E00E946F2FFE01E9561C
S1135900FF4FA0823D9681E0111101C080E08083A9
S1135910FE01EB55FF4FF082FB960083C02EEB2C6B
S11359200D2D20E04F2D612FCE010E94BF25FE01D9
S1135930EE51FF4F808187FD07C060E00E94002583
S11359408CE291E00E944E24CE010E949A25CE0161
S11359500E940C2C6EE1CE010E94FA2BCE01DF9145
S1135960CF911F910F91FF90EF90DF90CF90BF9058
S1135970AF900C949329CF92EF920F93242FC12CC4
S1135980EE24E39405E040E00E946A2C6AEF70E0A4
S113599080E090E00F91EF90CF900C9412240F933D
S11359A01F93CF93DF93EC018C010F551F4FF80128
S11359B080818130C1F1CE010E946829FE01E0524C
S11359C0FF4F9081FD972081DE01A352BF4F8C9140
S11359D03196308130FB87F98F7920FB84F9807F01
S11359E081608C93FA96908380E4E654F109808375
S11359F075968081807C816080833396108281E0FB
S1135A0031968083CE010E940C2CFE01EE55FF4F8F
S1135A106081CE010E94AC2BFE01E152FF4F6081F8
S1135A20CE010E94FA2BCF51DF4F188281E0F8019A
S1135A308083DF91CF911F910F910895EF92FF9290
S1135A400F931F93CF93DF93EC017901FC01E75689
S1135A50FF4F718360833296518340833496118360
S1135A6000832617370718F04217530708F47B0101
S1135A70CE010E94CF2CFE01E356FF4FF182E0825B
S1135A80B701CE01DF91CF911F910F91FF90EF905D
S1135A900C94E229CF93DF93EC010E946829FE0164
S1135AA0E052FF4F9081FD97208132963081DE01D4
S1135AB0AC55BF4FF89680814C9140FB87F930FB81
S1135AC086F98F7D20FB84F9807F808331969083D3
S1135AD0E654F10980E2808375968081807C83603E
S1135AE0808333961082319681E08083CE010E94B8
S1135AF00C2CFE01E152FF4F6081CE010E94FA2B73
S1135B00FE01EF51FF4F1082CE010E94FC25CF55BC
S1135B10DF4F1882DF91CF910895EF92FF920F9398
S1135B201F93CF93DF93EC017901FC01E756FF4FFC
S1135B30718360833296518340833496118300834A
S1135B402617370718F04217530708F47B01CE01D4
S1135B500E944A2DFE01E356FF4FF182E082B70115
S1135B60CE01DF91CF911F910F91FF90EF900C9494
S1135B70E229CF92DF92EF920F931F93CF93DF939B
S1135B806C01D62F142FC22F0E944E29C370C295C8
S1135B90C07F1295110F110F107C0370802F880F96
S1135BA0880F012F0C2B9E2D9370082B092BD1707D
S1135BB0F601E457FF4F6081718181E097E00E9414
S1135BC08F2F62E170E081E097E00E94AE0960E00F
S1135BD070E081E097E00E94AE0965E181E097E022
S1135BE00E94302F62E081E097E00E94302F602F06
S1135BF081E097E00E94302F6D2F81E097E00E94B2
S1135C00302F81E097E00E940D3086E292E00E94FE
S1135C104E24C601DF91CF911F910F91EF90DF9039
S1135C20CF900C945F26AF92BF92CF92DF92EF9207
S1135C30FF920F931F93CF93DF93FC01E856FF4F1E
S1135C403081303209F06FC0022FF42EE62EEC01C1
S1135C503596808191812091FF063091000782174B
S1135C60930769F0909300078093FF06CE010E948A
S1135C703126CE010E943F26CE010E944F26CE013E
S1135C800E944E2910E0E0FA10F9F0FA11F900FB35
S1135C9012F97E018CE8E80EF11CF7016081718134
S1135CA081E097E00E948F2F64E270E081E097E04A
S1135CB00E94AE09612F81E097E00E94302F81E0BD
S1135CC097E00E940D305E01F8EDAF0EB11CCE01DD
S1135CD00E944E29F701608171814DE050E081E01E
S1135CE097E00E9408308E0105531F4F680181E040
