:100000000C94C9000C94F1000C94F1000C94F100D4
:100010000C94F1000C94F1000C94F1000C94F1009C
:100020000C94F1000C94450E0C94F1000C94E30E2A
:100030000C94F1000C94F1000C94F1000C94F1007C
:100040000C9425280C94F1000C94F1000C94F10010
:100050000C94F1000C94F1000C94F1000C94F1005C
:100060000C943A370C94F1001703060306000000C5
:100070000000090911160000030F060A060A000015
:1000800000000000010B1100010309050C05090027
:10009000000000050D0D1515000003080307171ECD
:1000A0000307090D0005050F0F010000070B100BDA
:1000B00010000000000107070D0D00000105030AF4
:1000C0000E18030A040900101C283001010004075F
:1000D000131738071307130C18000C18010100033D
:1000E000050C0F1E050C040B001015252501010041
:1000F0001C050C1122050C050C000D1A222A010109
:100100000002050C1122050C050C00000000000186
:10011000010002050C1122050C050C001010202016
:10012000010100010F15070B070B070B0F14000F40
:100130001400010000000008000201000003040791
:1001400000000000000000000102040810204080B0
:100150000102040810200102040810200404040411
:100160000404040402020202020203030303030361
:1001700000000000230026002900000000002500E8
:1001800028002B0000000000240027002A00070F91
:10019000973411241FBECFEFD8E0DEBFCDBF14E0EF
:1001A000A0E0B1E0E8E7F8E702C005900D92A631C3
:1001B000B107D9F727E0A6E1B4E001C01D92AD393F
:1001C000B207E1F710E0C9ECD0E004C02197FE01CE
:1001D0000E94D838C73CD107C9F70E94C1270C94A8
:1001E0003A3C0C94000090914C0440913B049111D6
:1001F00005C04F3019F480934D04C1C050914404A0
:100200009517F8F0209145049217D8F4E0914A042C
:10021000282F30E06091300470913104EE2341F0DA
:10022000E92FE51B02C0220F331FEA95E2F702C057
:10023000660F771F262B372B309331042093300421
:1002400022C0509146049517F0F020914704921770
:10025000D0F4E0914A04282F30E060912E04709190
:100260002F04EE2341F0E92FE51B02C0220F331FBC
:10027000EA95E2F702C0660F771F262B372B3093E3
:100280002F0420932E044C31C9F423EF290F2D3075
:1002900008F075C0282F30E083EF890F02C0220FCD
:1002A000331F8A95E2F740912C0450912D04242BA2
:1002B000352B30932D0420932C0461C04330C9F4B6
:1002C0002FEE290F243008F05AC0282F30E08FEE8F
:1002D000890F02C0220F331F8A95E2F740912A044A
:1002E00050912B04242B352B30932B0420932A047C
:1002F00046C0453009F043C02CEE290F2430A0F44D
:10030000282F30E048EF490F02C0220F331F4A95D3
:10031000E2F740912E0450912F04242B352B30937B
:100320002F0420932E0413C028EE290F243068F4E4
:10033000282F4CEE490F01C0220F4A95EAF7309161
:100340002304232B2093230402C09033C0F4E92F0D
:10035000E695E695E695492F4770F0E0EC5DFB4F9A
:1003600021E030E001C0220F4A95EAF7882319F016
:100370008081282B03C020958081282320839F5FC4
:1003800090934C0408952C9824980895FC01809132
:100390003A04882309F4AFC090913904913109F4EB
:1003A00079C048F4933089F0973009F492C09230C4
:1003B00009F0A3C031C0983109F495C0923309F413
:1003C00054C0973109F099C065C08091350490916F
:1003D00036042091350430913604892F99272095D1
:1003E000309533278217930709F0A7C08091350411
:1003F0009091360499279093360480933504809128
:100400003304909134042091350430913604982FB0
:100410008827822B932B58C0809135049091360405
:100420002091350430913604892F992720953095F5
:1004300033278217930741F1809137049091380454
:100440008E3E974871F48BE0809339048091350497
:1004500090913604892F992790933804809337041C
:1004600013C088E38093390448C02091350430914B
:1004700036048091350490913604232F3327992731
:100480002817390709F059C0809135049091360436
:1004900099271AC080913504909136042091350433
:1004A000309136048695817091E089272170332739
:1004B00091E029272170821709F43FC0809135040B
:1004C00090913604969587959093360480933504E1
:1004D00014C080913704909138048F7D9093380434
:1004E000809337040AC080913504909136048D378B
:1004F000910519F422C080E0089580913904808329
:1005000080913704909138049283818380913504DF
:10051000909136049483838380913204858381E0B3
:100520001092360410923504109238041092370459
:100530001092320410923A0408951092390480E027
:10054000EFCFCF93DF9383B190913A049111A8C27A
:1005500080719091220491115DC0909121048111CC
:1005600004C09F5F909321049BC2992309F181E00D
:10057000809322048093200410921F0410922F0471
:1005800010922E0410923104109230041092230421
:1005900010922B0410922A0410922D0410922C0415
:1005A0009FEF90934C0480931E0410921D0478C218
:1005B00080911B0490911C048F3F2FEF920709F448
:1005C0006FC2019690931C0480931B0480910401D8
:1005D000909105018F3F6FEF960709F461C2019674
:1005E0009093050180930401883E924008F458C21C
:1005F0008091190490911A04892B09F451C2109228
:100600001A04109219048FEF9FEF909305018093C5
:10061000040146C290912004992309F4BCC08823A8
:1006200089F080911E048F5F80931E048A3E08F437
:1006300019C2809139041092220410922104109260
:100640001E0410C210924C048091210491EE980F68
:100650009B3028F490911E049650953070F0909144
:100660003904943169F490EB980F9F3648F49091D7
:100670001E049A539C36F0F003C063E271E04AC056
:1006800022EA280F243558F490911E0432ED390FD8
:100690003C3208F412C29751973108F406C2909187
:1006A0003904943151F4243540F490911E0495504E
:1006B000983018F462E171E02DC094EC980F9031FD
:1006C00030F490911E049C53903108F465C297ED6C
:1006D000980F983108F4F4C198ED980F973108F409
:1006E000F6C195EF980F963008F0F8C190911E046E
:1006F00025EF290F263008F0F6C190931804815198
:10070000803108F0F5C11092170480E480931D0435
:100710006CEA70E080912204882331F041E150E0DE
:100720008BE394E00E94ED3880914B0490913B0460
:1007300080FF1DC0973139F1993029F120913D0496
:1007400040911E04241760F450E030E0220F331F64
:10075000241735072CF08695817091E0892711C008
:100760009091170491110FC0869581700AC098303E
:1007700051F480911E048751883010F481E001C04B
:1007800080E00E94F30081E08093210410921E0417
:100790001092200467C190911F04992309F455C158
:1007A000882309F405C220911E042F5F20931E04A4
:1007B0009091480480914C0498130BC030914904E7
:1007C000313039F430914B0430FDFDC22F3208F046
:1007D0004EC140913B04413021F52C3008F4C1C09A
:1007E0008B3008F4BEC091E0980F90934804282FF6
:1007F00030E02B503109322F2227409130045091A4
:100800003104242B352B3093310420933004909104
:100810004604890F8F5F809347048AE080931E040B
:10082000C7C14F3009F058C030914904311199C007
:10083000263218F19BEF980F9230F8F481E0809304
:10084000490488E180933B0487E080934804109238
:10085000440410924504109246048093470480910A
:100860002E0490912F04880F991F20914D04822B04
:1008700090932F0480932E049BC140913F0430E05D
:1008800050E0440F551F241735072CF0883008F42A
:10089000E9C08AE035C08A3008F4F7C080E180936F
:1008A0003B0489E08093440491E19093450491E0F6
:1008B000909346048093470480912E0490912F04D6
:1008C0009C0122273370232B09F4DFC0909330045E
:1008D000109231049927B4C0473109F042C03091D9
:1008E000490431113EC040913F0430E050E0440FD4
:1008F000551F241735073CF08F3008F4B3C081E151
:100900008093480449C0813108F4BFC081E18093DD
:100910003B04109244048BE080934504809346048A
:1009200086E18093470480912E0490912F042091BA
:10093000300430913104220F331F220F331FAC01DA
:10094000D6E056954795DA95E1F7242B352B309371
:100950003104209330048F73992720911704822B40
:100960006FC030914B0430FF1BC060913F04E22FF9
:10097000F0E070E0660F771FE617F7078CF0E82FBE
:10098000F0E0692F70E062507109E617F70744F054
:1009900030914904311104C081E08093490408C1B9
:1009A0002A3E08F472C0682F70E0292F30E02150F1
:1009B00031096217730741F490914904911104C001
:1009C0008F5F80934C0461C0423009F4FFC14C3109
:1009D00039F0109222041092210410921E0460C07B
:1009E000882309F4F5C1803209F042C291E0909366
:1009F000490492E090933B048093480480912C0436
:100A000090912D049C01322F22273295330F307E96
:100A10004091300450913104242B352B3093310414
:100A20002093300440912E0420E030E0342F330F27
:100A3000330FF3E096958795FA95E1F7822B932B88
:100A400090932F0480932E0420C0811106C08091C2
:100A500021048F5F8093210405C081E080931F04EF
:100A600080931E048091220481110FC019C08091CF
:100A7000210490914004891708F4ABCF9091410470
:100A8000981708F4A6CF10924904909148048091D9
:100A90004C04981305C080914904882309F412C2BC
:100AA00080913A04DF91CF91089580913904843187
:100AB00009F400CE61E071E02DCE60EF70E02ACE47
:100AC00090911E049952983108F469C005CE909116
:100AD0001E0493519D3008F465C003CE9AEE980F22
:100AE0009B3070F403CE2AEE290F2B3048F405CE4C
:100AF0009151903108F407CE81E08093170408CE1D
:100B00002DEF280F253058F490911E0439EE390F3F
:100B1000383008F44AC09950953008F446C09DED2D
:100B2000980F9B3068F490911E049B50963040F4CF
:100B30001092180481E0809317046AE870E0EACD0F
:100B40008650853070F480911E049FED980F91318E
:100B500040F48093180481E08093170469E770E003
:100B6000D9CD2A3090F480911E0499EF980F9530DA
:100B700020F092EF980F993040F48093180481E0B0
:100B80008093170468E670E0C5CD1092220410929D
:100B90003B0460E070E0BECD6FED70E0BBCD6EEC6D
:100BA00070E0B8CD6DEB70E0B5CD6BE970E0B2CD23
:100BB00080914B0480FF91C0C091210490913D042D
:100BC0009C1708F048C090913B04993099F490919B
:100BD0004C04943079F4CC3068F08091480484322D
:100BE00029F481E00E94F30081E032C080E00E949D
:100BF000F3001EC0D1E0869581708D270E94F3001E
:100C000080913B048930D1F480914C048430B1F45C
:100C1000CC30A0F081E00E94F30080913F0420914D
:100C20001E0430E090E0880F991F821793071CF490
:100C3000109217044DC0D09317044AC080914B0402
:100C4000869581700E94F30080914B048695817097
:100C5000809317043DC080913C04C817A8F180918F
:100C60003F042091180440911704821768F430E083
:100C700090E0880F991F8217930734F081E04111AB
:100C800080E08093170401C0842F90913B04993039
:100C9000C1F490914C049130A1F4813091F494E22C
:100CA0009093480425E02093440424E120934504D4
:100CB00025E120934604909347041092310410924A
:100CC00030040E94F30004C01092220410921E040B
:100CD00080911E048093180429C080913B048330C6
:100CE00041F590914C04903131F58091210485506B
:100CF0008830D8F580911E0424EC280F203130F480
:100D000010921F0481E180934C045BC02AE0209381
:100D10003B049093460490E29093470490934804D8
:100D20008F50803100F581E00E94F30010921F0483
:100D300048C08C31F9F08091210490913C048917CE
:100D400088F590914004891780F09091410498179C
:100D500060F080911E0490914204891730F09091C8
:100D60004304981710F080E0DFCF10922204109215
:100D70001E0427C080914C048830E9F690911E042F
:100D80009E529C32C0F69BE190933B041092440427
:100D9000809345048093460480E1809347048093C8
:100DA0004804C4CF90913D04981758F290911E04C6
:100DB00020913E04921728F220913F04291708F24F
:100DC000B2CF81E047CE21115ECE03CD81112CC080
:100DD00080911B0490911C048830974010F581E0AD
:100DE0008093490482E080933B04109248048091F0
:100DF000020190910301909331048093300480911B
:100E000000019091010190932F0480932E04809112
:100E1000320481608093320410921C0410921B04EF
:100E200034CE10923A0431CE90EF980F923008F001
:100E3000D0CD21E02093490494E190933B0480932A
:100E400048048091300490913104AC01A4E056959F
:100E50004795AA95E1F750932F0440932E048F7085
:100E600099279093310480933004209322040DCE6F
:100E700090EF980F923008F0ACCD91E09093490438
:100E800094E190933B0480934804809130049091C6
:100E9000310420912C0440E050E0522F550F9C016A
:100EA00074E0369527957A95E1F7242B352B30930E
:100EB0002F0420932E048F709927909331048093F0
:100EC0003004E3CD609100017091010120912E0466
:100ED00030912F046217730769F440911B045091FD
:100EE0001C04403B544030F4809116048F5F809383
:100EF000160402C01092160480913B04813051F414
:100F0000409116044150423028F410921C04109273
:100F10001B04DAC041E040933A048830A1F5A901EE
:100F2000409550955370E0911904F0911A044E17B2
:100F30005F07B9F450932F0440932E0410921A04C3
:100F400010921904809339048091300490913104F7
:100F500090933804809337045093360440933504BB
:100F6000B3C020FD09C030931A04209319041092D5
:100F700005011092040104C010921A041092190481
:100F800010923A04A1C08F3029F42F3F314009F06C
:100F90006DC0F6CF803169F4409130045091310436
:100FA0004F3F510509F062C02E3F310509F05EC088
:100FB000E7CF823011F5911159C020911B04309177
:100FC0001C0428303740B0F4209102013091030115
:100FD000309331042093300470932F0460932E04D7
:100FE0009091320491609093320410921C041092FC
:100FF0001B043CC010923A0439C0853079F5309119
:10100000240490912504E0912604232F2F7032951B
:101010003F703227292F2F70232792959F70292701
:10102000022E000C330B4E2F4F7050E02417350763
:1010300011F010923A04909127049E2720912804E1
:10104000922720912904921310923A04209132049D
:1010500090912304922B9093320408C0893031F48C
:10106000943221F495E19093390402C080933904BD
:1010700020913004309131043093380420933704A8
:10108000823029F430930301209302010DC0873090
:1010900059F420911D0480912E0490912F04822BED
:1010A00090932F0480932E0480912E0490912F040E
:1010B000909336048093350480912A0490912B04F8
:1010C000909334048093330480913A04882351F13F
:1010D00020912E0430912F0440913004509131041E
:1010E0006217730799F480910201909103018417AC
:1010F000950761F480911B0490911C048A3C9840F0
:1011000028F480913204816080933204509303016B
:1011100040930201309301012093000110921C04BE
:1011200010921B041092220410922F0410922E048D
:101130001092210410921E0480913904843109F028
:10114000AFCC87E880932104ABCCE1E8F5E03191A6
:10115000DC012D91CD01321306C0B5E0EF38FB075D
:10116000B1F780E0089581E00895CF93DF93E09197
:10117000E105F091E205309739F0DF010D90002094
:10118000E9F7AE1BA25001C0AFEFC7E9D5E080E0A0
:1011900090E29993AF3F19F0A81708F090838F5F02
:1011A00031968034B1F71092920510929105109209
:1011B000900510928F05DF91CF91089588E00E94ED
:1011C000B629892B61F081E10E94B629892B49F467
:1011D00081E090917D06903229F480E0089583E0CB
:1011E000089582E008950F931F93CF93DF9300D06B
:1011F00000D01F92CDB7DEB70E94DE0881111BC060
:1012000042E050E063E070E0CE0101960E94C93BED
:10121000009182061091830689819A818017910737
:1012200051F0602F83E090E00E94D93B612F84E071
:1012300090E00E94D93B0E94DE088130D9F442E060
:1012400050E061E070E0CE0101960E94C93B009140
:1012500082061091830689819A818017910751F047
:10126000602F81E090E00E94D93B612F82E090E006
:101270000E94D93B41E050E060E070E0CE0105966D
:101280000E94C93B0E94DE089D81891739F00E94A7
:10129000DE08682F80E090E00E94D93B41E050E0FA
:1012A00065E070E0CE0104960E94C93B6091AD01FB
:1012B0008C81681721F085E090E00E94D93B609115
:1012C00014017091150141E050E0CE0103960E9497
:1012D000C93B60917705262F30E08B8190E028177D
:1012E000390731F080911401909115010E94D93B8A
:1012F00041E050E066E070E0CE0101960E94C93BFB
:1013000060916C058981681721F086E090E00E9469
:10131000D93B0F900F900F900F900F90DF91CF91CE
:101320001F910F910895CF93DF93EB0146E050E0BA
:10133000BC018BE795E00E94EB3B86E0EBE7F5E034
:10134000DE0101900D928A95E1F7DF91CF9108952A
:10135000DC01ED91FC910190F081E02D099464E4B1
:1013600070E083ED96E00E94163466E070E083ED55
:1013700096E00E94A80960E070E083ED96E00E948C
:10138000A80983ED96E00E94943460E089E00C9413
:101390008729E1E8F5E080E2819395E0EF38F907ED
:1013A000D9F76AE770E083ED96E00E94163467E0B3
:1013B00070E083ED96E00E94A80983ED96E00E941C
:1013C000943461E070E080E090E00C94A028CF932A
:1013D000C82F6AE770E083ED96E00E94163464E05F
:1013E00070E083ED96E00E94A8096C2F70E083ED19
:1013F00096E00E94A80983ED96E00E94943461E093
:1014000070E080E090E0CF910C94A028E1E8F5E056
:1014100080E2819395E0EF38F907D9F76AE770E049
:1014200083ED96E00E94163465E070E083ED96E06F
:101430000E94A80983ED96E00E94943461E070E078
:1014400080E090E00C94A028EF92FF920F931F93FE
:10145000CF93DF937C010E94A508882381F16AE77E
:1014600070E083ED96E00E9416346AE070E083ED50
:1014700096E00E94A80901E815E0E7018EE0E80E79
:10148000F11CFE018991D8018D938D01608170E07E
:1014900083ED96E00E94A809CE15DF0591F783ED54
:1014A00096E00E94943461E070E080E090E0DF918B
:1014B000CF911F910F91FF90EF900C94A028DF9196
:1014C000CF911F910F91FF90EF90089585EB91E0E0
:1014D0000C94240A6AE770E083ED96E00E941634CB
:1014E0006CE070E083ED96E00E94A8098091AD0168
:1014F0006FE370E0681B710983ED96E00E94A80914
:1015000083ED96E00E94943461E070E080E090E02A
:101510000C94A028CF93C82F0E94DE08811105C02B
:10152000C33141F48091760509C00E94DE08813004
:1015300039F4F6CFC43121F48091750581111DC0B5
:101540006AE770E083ED96E00E94163462E070E096
:1015500083ED96E00E94A8096C2F70E083ED96E081
:101560000E94A80983ED96E00E94943461E070E047
:1015700080E090E0CF910C94A028CF910895CF9374
:10158000C82F0E94DE08811105C0C33141F480914B
:10159000760509C00E94DE08813039F4F6CFC431E7
:1015A00021F4809175058823E9F06AE770E083ED06
:1015B00096E00E94163463E070E083ED96E00E94AE
:1015C000A8096C2F70E083ED96E00E94A80983EDD6
:1015D00096E00E94943461E070E080E090E0CF916A
:1015E0000C94A028CF910895CF93DF93E091DF056D
:1015F000F091E005309739F0DF010D900020E9F718
:10160000AE1BA25001C0AFEFC7EDD5E080E090E285
:101610009993AF3F19F0A81708F090838F5F319628
:101620008830B1F7109293050E94B50885E00E94BA
:10163000BF0A82E2DF91CF910C94BF0A6FE785EE7B
:1016400095E00E947B3083E10E94BF0A81E0809395
:1016500077050E946F2860936D0570936E058093E7
:101660006F059093700508950E94F40A84EC91E050
:101670000E94240A83E10E94BF0A84E10E94BF0AFB
:1016800085EE95E00E94EF2D61E081E10E948729BF
:1016900064E470E083ED96E00E94163460E070E050
:1016A00083ED96E00E94A80961E070E083ED96E08A
:1016B0000E94A80983ED96E00E94943464E470E0EF
:1016C00083ED96E00E94163461E070E083ED96E0D1
:1016D0000E94A80967E070E083ED96E00E94A809E7
:1016E00083ED96E00E9494346AE770E083ED96E023
:1016F0000E94163466E070E083ED96E00E94A8092F
:1017000083ED96E00E94943461E070E080E090E028
:101710000C94A02864E470E083ED96E00E941634F7
:1017200066E070E083ED96E00E94A80961E070E059
:1017300083ED96E00E94A80983ED96E00E94943420
:1017400061E089E00C948729CF92DF92EF92FF92BB
:101750000F931F93CF93DF93CDB7DEB728970FB6C4
:10176000F894DEBF0FBECDBF0E94DE08882329F0AB
:101770000E94DE08813009F0C9C0009182061091F4
:1017800083060E94DE089E01295F3F4F7901811187
:101790004FC0003127E212076CF0C80160E177E228
:1017A0000E949738CB014AE0B7010E940339FC013F
:1017B000808101C080E28983C80160E177E20E94F4
:1017C000973848EEC42E43E0D42EB6010E949738D5
:1017D000CB014AE0B7010E940339FC0180818A8372
:1017E000C801B6010E94973854E6C52ED12CB60127
:1017F0000E949738CB014AE0B7010E940339FC01EF
:1018000080818B83C801B6010E9497386AE070E03E
:101810000E949738CB014AE0B7010E940339FC01CE
:1018200080818C8386E48D8389E00E948A0A48C087
:10183000083EF3E01F076CF0C80168EE73E00E94F9
:101840009738CB014AE0B7010E940339FC0180813F
:1018500001C080E28983C80168EE73E00E94973876
:1018600024E6C22ED12CB6010E949738CB014AE063
:10187000B7010E940339FC0180818A83C801B60147
:101880000E9497383AE0C32ED12CB6010E949738B7
:10189000CB014AE0B7010E940339FC0180818B83B0
:1018A000C801B6010E9497384AE0B7010E94033987
:1018B000FC0180818C8381E48D8389E00E94BF0AD2
:1018C0008DE48E836AE770E083ED96E00E94163423
:1018D0006BE070E083ED96E00E94A8098E010F5F37
:1018E0001F4FF80161918F0170E083ED96E00E9437
:1018F000A809E016F106A9F783ED96E00E9494345A
:1019000061E070E080E090E00E94A02828960FB689
:10191000F894DEBF0FBECDBFDF91CF911F910F9125
:10192000FF90EF90DF90CF900895EF920F931F9369
:101930000E94660A0E94F40A1092950560E081E117
:101940000E94872920919E0130919F010AE010E0BA
:1019500040E35AE26EE272E285EE95E00E941432B4
:1019600082E0E82E02E022E042E061E085EE95E0D0
:101970000E94403260E070E085EE95E00E94F82E13
:1019800040E35AE26EE272E285EE95E00E945C303E
:101990006AE070E085EE95E00E94763062E385EEC5
:1019A00095E00E94813064E470E083ED96E00E944F
:1019B000163460E070E083ED96E00E94A80960E0D4
:1019C00070E083ED96E00E94A80983ED96E00E9406
:1019D000943464E470E083ED96E00E94163461E094
:1019E00070E083ED96E00E94A80960E070E083ED6E
:1019F00096E00E94A80983ED96E00E9494348091BD
:101A00007705882331F00E94DE08811102C00E9410
:101A10001E0B1F910F91EF900C94A40B0F931F932B
:101A200060E081E10E9487290E94F40A83ED91E041
:101A30000E94240A83E10E94BF0A84E10E94BF0A37
:101A400020919C0130919D0109E010E045EA56E0AB
:101A500063E172E085EE95E00E94A53145EA56E02B
:101A600063E172E085EE95E00E94473069E070E046
:101A700085EE95E00E94713062E385EE95E00E946C
:101A8000813064E470E083ED96E00E94163460E0FB
:101A900070E083ED96E00E94A80960E070E083EDBD
:101AA00096E00E94A80983ED96E00E94943464E4D5
:101AB00070E083ED96E00E94163461E070E083ED03
:101AC00096E00E94A80960E070E083ED96E00E9435
:101AD000A80983ED96E00E9494341F910F910C9415
:101AE000A40B1F93CF93DF931F92CDB7DEB741E0D6
:101AF00050E060E070E0CE0101960E94C93B198180
:101B0000133008F010E061E088E00E9487290E940D
:101B1000C9090E94F40A123051F0111103C00E9449
:101B2000950C02C00E940E0D0E94A40B02C00E94E0
:101B3000340B64E470E083ED96E00E94163460E0BC
:101B400070E083ED96E00E94A8090E94DE088823D9
:101B500029F00E94DE0861E0813009F460E070E065
:101B600083ED96E00E94A80983ED96E00E949434EC
:101B70000E948A0B0E946A0A88E20E948A0A8AE10D
:101B80000E948A0A8CE10E948A0A6AE770E083ED6B
:101B900096E00E94163468E070E083ED96E00E94C3
:101BA000A80983ED96E00E94943461E070E080E043
:101BB00090E00E94A0280F90DF91CF911F9108958F
:101BC000CF93DF93EC010E94DE08811108C0809161
:101BD000820690918306C817D90731F42CC00E9461
:101BE000DE08813041F5F3CF0E94DE0881110AC082
:101BF000BE0185EE95E00E94692ED0939F01C093AF
:101C00009E010DC00E94DE08813049F4BE0185EEC0
:101C100095E00E94692ED0939D01C0939C010E9483
:101C2000A40B0E946F2860936D0570936E058093DE
:101C30006F0590937005DF91CF9108950F931F93D7
:101C4000CF93DF938C01EB010E94DE08833039F4DF
:101C50000E94710D0E94DE0881110E94950C0E9465
:101C6000DE08811102C0C80105C00E94DE08813073
:101C700039F4CE01DF91CF911F910F910C94E00DBB
:101C8000DF91CF911F910F9108951F920F920FB680
:101C90000F9211242F933F934F935F936F937F93F2
:101CA0008F939F93AF93BF93EF93FF930E94DE08B0
:101CB000811105C09091E305977009F46AC0909175
:101CC000E305903630F48091E3058F5F8093E30560
:101CD00069C01092E3058330A9F4809174058823CC
:101CE00009F460C081E08093E4058091710585323C
:101CF00019F41092710556C0809171058F5F809321
:101D0000710550C080919305811110C080918F059D
:101D1000833031F410928F0581E08093930542C0A7
:101D200080918F058F5F80938F053CC080919205D5
:101D30002091910590E00C9630E08217930714F003
:101D40001092920580919205882351F0809192051E
:101D50002091910590E00D9630E08217930731F4C1
:101D6000809190058330C9F410929005809192057E
:101D70002091910590E00D9630E08217930734F49E
:101D8000809192058F5F809392050CC0109292050E
:101D900009C091E09093960592CF809190058F5F56
:101DA00080939005FF91EF91BF91AF919F918F919B
:101DB0007F916F915F914F913F912F910F900FBE47
:101DC0000F901F9018951F920F920FB60F9211242B
:101DD0002F933F934F935F936F937F938F939F9333
:101DE000AF93BF93EF93FF930E94A102FF91EF91F6
:101DF000BF91AF919F918F917F916F915F914F9123
:101E00003F912F910F900FBE0F901F90189585EE68
:101E100095E00C94DF290F931F93CF93DF938C01F0
:101E200068E670E083ED96E00E94163460E070E0B2
:101E300083ED96E00E94A809E801095F1F4F6991B0
:101E400083ED96E00E94B733C017D107C1F783ED49
:101E500096E0DF91CF911F910F910C949434CF9322
:101E6000DF93CDB7DEB72E970FB6F894DEBF0FBE67
:101E7000CDBFA8959FE088E10FB6F894A895809310
:101E800060000FBE9093600040E553EC60E070E0AE
:101E900083ED96E00E94083461E088E00E944B29BF
:101EA00061E089E00E944B2962E08BE00E944B29AF
:101EB00060E08CE00E944B2961E081E10E944B29A7
:101EC0000E94C30110928000109281001092850040
:101ED00010928400109289001092880010928B005A
:101EE00010928A0010926F0016BA8BEC94E09093D7
:101EF00089008093880089E08093810082E080934C
:101F00006F001092B0001092B1001092B2001092C7
:101F1000B3001092B4001092700017BA1092B6007D
:101F200013BC809170008160809370008091B1003B
:101F300087608093B1007894A89540E06AE085EED0
:101F400095E00E9442318CEB92E09093760680936C
:101F5000750684E690E0909374068093730642E0E1
:101F600050E063E070E0CE010A960E94C93B8A858A
:101F70009B859C012E5232422330384010F08EE275
:101F800092E290939F0180939E0142E050E061E0D5
:101F900070E0CE0108960E94C93B888599859C0116
:101FA000235132402339344010F083E192E0909382
:101FB0009D0180939C0141E050E065E070E0CE011E
:101FC0000E960E94C93B8E85803408F084E1809390
:101FD000AD01609114017091150141E050E0CE0116
:101FE0000D960E94C93B81E09D85913009F080E00B
:101FF0008093770541E050E066E070E0CE010C96FA
:102000000E94C93B8C858F3F09F487E780936C055C
:1020100064E470E083ED96E00E94163460E070E0C6
:1020200083ED96E00E94A80960E070E083ED96E001
:102030000E94A80983ED96E00E94943464E470E065
:1020400083ED96E00E94163461E070E083ED96E047
:102050000E94A80960E070E083ED96E00E94A80964
:1020600083ED96E00E94943464E470E083ED96E0A2
:102070000E94163462E070E083ED96E00E94A809A9
:1020800068E570E083ED96E00E94A80983ED96E094
:102090000E94943464E470E083ED96E00E9416346C
:1020A00063E070E083ED96E00E94A8096091AD01C5
:1020B00083ED96E00E94B73383ED96E00E9494345E
:1020C00064E470E083ED96E00E94163464E070E012
:1020D00083ED96E00E94A8096091AD0183ED96E042
:1020E0000E94B73383ED96E00E94943464E470E07C
:1020F00083ED96E00E94163465E070E083ED96E093
:102100000E94A80960916C0583ED96E00E94B733A8
:1021100083ED96E00E9494340E94AF0964E470E07D
:1021200083ED96E00E94163467E070E083ED96E060
:102130000E94A80960E870E083ED96E00E94A8097B
:1021400083ED96E00E94943460919A0170919B0116
:1021500046E050E084E695E00E94C93B609198011A
:102160007091990142E050E082E695E00E94C93BFF
:10217000609196017091970142E050E080E695E011
:102180000E94C93B609194017091950146E050E036
:102190008AE595E00E94C93B60919201709193019C
:1021A00042E050E088E595E00E94C93B60919001D3
:1021B0007091910142E050E086E595E00E94C93BB4
:1021C00060918E0170918F0146E050E080E595E0CE
:1021D0000E94C93B60918C0170918D0142E050E0FA
:1021E0008EE495E00E94C93B60918A0170918B0159
:1021F00042E050E08CE495E00E94C93B6091880188
:102200007091890146E050E086E495E00E94C93B68
:10221000609186017091870142E050E084E495E08E
:102220000E94C93B609184017091850142E050E0B9
:1022300082E495E00E94C93B609182017091830124
:1022400046E050E08CE395E00E94C93B609180013C
:102250007091810142E050E08AE395E00E94C93B21
:1022600060917E0170917F0142E050E088E395E04B
:102270000E94C93B60917C0170917D0146E050E075
:1022800082E395E00E94C93B60917A0170917B01E5
:1022900042E050E080E395E00E94C93B6091780104
:1022A0007091790142E050E08EE295E00E94C93BD6
:1022B000609176017091770146E050E088E295E008
:1022C0000E94C93B609174017091750142E050E039
:1022D00086E295E00E94C93B6091720170917301A2
:1022E00042E050E084E295E00E94C93B60917001B9
:1022F0007091710146E050E08EE195E00E94C93B8B
:1023000060916E0170916F0142E050E08CE195E0C8
:102310000E94C93B60916C0170916D0142E050E0F8
:102320008AE195E00E94C93B60916A0170916B015E
:1023300046E050E084E195E00E94C93B609168016D
:102340007091690142E050E082E195E00E94C93B52
:10235000609166017091670142E050E080E195E094
:102360000E94C93B609164017091650146E050E0B4
:102370008AE095E00E94C93B60916201709163011F
:1023800042E050E088E095E00E94C93B6091600126
:102390007091610142E050E086E095E00E94C93B07
:1023A00060915E0170915F0146E050E080E095E051
:1023B0000E94C93B60915C0170915D0142E050E078
:1023C0008EEF94E00E94C93B60915A0170915B01CD
:1023D00042E050E08CEF94E00E94C93B60915801CC
:1023E0007091590146E050E086EF94E00E94C93BAD
:1023F000609156017091570142E050E084EF94E003
:102400000E94C93B609154017091550142E050E037
:1024100082EF94E00E94C93B609152017091530198
:1024200046E050E08CEE94E00E94C93B6091500180
:102430007091510142E050E08AEE94E00E94C93B65
:1024400060914E0170914F0142E050E088EE94E0BF
:102450000E94C93B60914C0170914D0146E050E0F3
:1024600082EE94E00E94C93B60914A0170914B0159
:1024700042E050E080EE94E00E94C93B6091480148
:102480007091490142E050E08EED94E00E94C93B1A
:10249000609146017091470146E050E088ED94E07C
:1024A0000E94C93B609144017091450142E050E0B7
:1024B00086ED94E00E94C93B609142017091430116
:1024C00042E050E084ED94E00E94C93B60914001FD
:1024D0007091410146E050E08EEC94E00E94C93BCF
:1024E00060913E0170913F0142E050E08CEC94E03D
:1024F0000E94C93B60913C0170913D0142E050E077
:102500008AEC94E00E94C93B60913A0170913B01D2
:1025100046E050E084EC94E00E94C93B60913801B1
:102520007091390142E050E082EC94E00E94C93B96
:10253000609136017091370142E050E080EC94E008
:102540000E94C93B609134017091350146E050E032
:102550008AEB94E00E94C93B609132017091330193
:1025600042E050E088EB94E00E94C93B609130016A
:102570007091310142E050E086EB94E00E94C93B4B
:1025800060912E0170912F0146E050E080EB94E0C5
:102590000E94C93B60912C0170912D0142E050E0F6
:1025A0008EEA94E00E94C93B60912A0170912B0150
:1025B00042E050E08CEA94E00E94C93B609128011F
:1025C0007091290146E050E086EA94E00E94C93B00
:1025D000609126017091270142E050E084EA94E086
:1025E0000E94C93B609124017091250142E050E0B6
:1025F00082EA94E00E94C93B60912201709123011C
:1026000046E050E08CE994E00E94C93B60912001D3
:102610007091210146E050E086E994E00E94C93BB8
:1026200060911E0170911F0146E050E080E994E046
:102630000E94C93B60911C0170911D0146E050E071
:102640008AE894E00E94C93B60911A0170911B01D5
:1026500046E050E084E894E00E94C93B6091180194
:102660007091190146E050E08EE794E00E94C93B6A
:10267000609116017091170146E050E088E794E000
:102680000E94C93B609112017091130146E050E035
:1026900082E794E00E94C93B6091100170911101A2
:1026A00046E050E08CE694E00E94C93B60910E0148
:1026B00070910F0146E050E086E694E00E94C93B2D
:1026C00060910C0170910D0146E050E080E694E0CD
:1026D0000E94C93B60910A0170910B0146E050E0F5
:1026E0008AE594E00E94C93B60910801709109015C
:1026F00046E050E084E594E00E94C93B6091060109
:102700007091070146E050E08EE494E00E94C93BDE
:10271000A89587E0EEEAF1E0DE01119601900D92B6
:102720008A95E1F7CE0101960E940B0F2E960FB607
:10273000F894DEBF0FBECDBFDF91CF910895CF9348
:10274000DF93C82FD62F6AE770E083ED96E00E94F2
:10275000163461E070E083ED96E00E94A8096C2FCA
:1027600070E083ED96E00E94A8096D2F83ED96E05E
:102770000E94B73383ED96E00E94943461E070E0EC
:1027800080E090E0DF91CF910C94A028CF93DF936D
:10279000E62FF0E0EF57FA4F9081981731F1D62FDE
:1027A000C82F80836AE770E083ED96E00E941634BC
:1027B00060E070E083ED96E00E94A8096C2F70E065
:1027C00083ED96E00E94A8096D2F83ED96E00E94AC
:1027D000B73383ED96E00E94943461E070E080E0CE
:1027E00090E0DF91CF910C94A028DF91CF910895D4
:1027F00081E08093E4058FEF9FEF9093AC0180938D
:10280000AB019093AA018093A9019093A6018093B4
:10281000A5019093A8018093A7019093A4018093B0
:10282000A3019093A2018093A1010E94DE0883304E
:1028300091F40E94060A66E08EE20E94C61369E0E7
:102840008EE20E94C6136AE082E30E94C6136BE028
:1028500080E30C94C61308951092790510927A05BE
:102860000E94060A0E94F8130E94F40A0E94DE08E1
:10287000833089F00E94DE08811102C00C94660A40
:102880000E94DE08813019F483ED91E002C084ECEF
:1028900091E00C94240A0895AF92BF92CF92DF92F8
:1028A000EF92FF920F931F93CF93DF93CDB7DEB7D5
:1028B00060970FB6F894DEBF0FBECDBFA8958BE032
:1028C0000E94B629892B99F5A8958FEF93EB019774
:1028D000F1F700C00000A8958BE00E94B629892B73
:1028E000E1F480917A0581110EC081E080937A0530
:1028F0008093790582EE91E00E94240A85E00E948F
:10290000BF0A82E208C0813041F40E942C1487E0A3
:102910000E94BF0A86E00E94BF0A9FEFAFE1BAE0C3
:102920009150A040B040E1F700C00000A895809110
:102930007405811115C08091720590917305883ED0
:10294000EDEF9E0740F00E94C90981E08093740575
:102950000E94F81305C00196909373058093720549
:102960000E94DE08833009F0EFC08091E4058823DF
:1029700009F4EAC080917405882309F4E5C0109237
:10298000E40588E00E94E70989E00E94E70968E61B
:1029900070E083ED96E00E94163460E070E083ED15
:1029A00096E00E94A80983ED96E00E94943420E00E
:1029B00030E047E050E068E670E083ED96E00E948A
:1029C000923447E050E0BE016F5F7F4F83ED96E0A9
:1029D0000E9400289A81892F807786958695869512
:1029E000282F220F220F820F9F70890F9B81292F82
:1029F0002073E22EE694E694E6942E2D220F220F09
:102A0000E20E9F70E90E9C819770F92E9D81292F0F
:102A10002073D22ED694D694D6942D2D220F220F29
:102A2000D20E9F70D90E9E8194FB112710F9110FC1
:102A3000212F220F220F120F9F70190F0F81902F3D
:102A400092959F700F70BAE09B9F000D1124282F64
:102A500030E04091AB015091AC012417350709F1EA
:102A60003093AC012093AB016AE00E947738C92E05
:102A70004AE0BE01615F7F4F90E00E94033963E04E
:102A8000DC018C910E949F134AE0BE01615F7F4F81
:102A90008C2D90E00E94033964E0FC0180810E944B
:102AA0009F138E2D90E02091A9013091AA018217E9
:102AB000930711F19093AA018093A9018E2D6AE0EA
:102AC0000E947738E92E4AE0BE01615F7F4F90E0B7
:102AD0000E94033961E0DC018C910E949F134AE05F
:102AE000BE01615F7F4F8E2D90E00E94033962E04E
:102AF000FC0180810E949F138F2D90E02091A50101
:102B00003091A6018217930709F0C9C38D2D90E07B
:102B10002091A7013091A8018217930709F0DFC324
:102B2000812F90E02091A3013091A4018217930797
:102B300009F0FCC3802F90E02091A1013091A20107
:102B40008217930709F019C40E94DE08833029F523
:102B5000809171059091A0019817F9F0809174050A
:102B60008823D9F080917105882309F42DC48091C0
:102B7000710590E00197FC01E053FC4F80810E94B9
:102B8000BF0AE0917105F0E0E053FC4F80810E94A4
:102B90008A0A809171058093A0010E94DE0883302B
:102BA00009F444C080916D0590916E05A0916F0568
:102BB000B0917005892B8A2B8B2BB1F00E946F2866
:102BC00000916D0510916E0520916F053091700593
:102BD000DC01CB01801B910BA20BB30B8938934115
:102BE000A105B10508F0F3C30E94DE0881111EC0E3
:102BF00080916A0590916B05803AFFE09F0789F408
:102C000010926B0510926A0585EE95E00E94BE2F2A
:102C1000809177058111E6C380919A0687FDF8C3FC
:102C2000E1C3019690936B0580936A050E94DE08CC
:102C3000811161C080919605882309F45CC0809160
:102C40007A05811158C01092960520E040E060E0BE
:102C500085EE95E00E949A328091B10680FFDFC335
:102C60009091B20690FFDBC382FFD9C38091950596
:102C7000811107C081E0809395050E94F40A0E94AB
:102C8000060A85EE95E00E94CC2B9093E205809396
:102C9000E10585EE95E00E949E2B9093E0058093E0
:102CA000DF05E091E105F091E205309709F43DC4BC
:102CB0001092940507E915E09F01205C3F4FD80171
:102CC0008191803209F0BBC31196E217F307C1F777
:102CD00080E0909193059111BEC3E091DF05F091E2
:102CE000E005309709F02AC48091A1019091A201DA
:102CF000892B09F45BC48BE795E00E94C601882309
:102D000011F40C94AF2710918005117080917A0511
:102D1000813009F071C211110C94AF2780917905AF
:102D2000813109F486C108F063C0883009F41FC1FD
:102D300070F5843009F4F1C0B8F4823009F4CEC0E3
:102D400008F0DDC0813011F00C94AF2764E675E027
:102D500080919A0190919B010E94930981EF91E0EB
:102D60000E94240A82E0C7C0863009F4E4C008F05B
:102D7000F0C06CE375E080918201909183010E9424
:102D800093098DE292E00E94240A86E0B4C08C3060
:102D900009F417C198F48A3009F4F7C008F003C1A8
:102DA00064E175E080916A0190916B010E94930942
:102DB00089E692E00E94240A8AE09DC08E3009F4E0
:102DC0001CC108F40CC18F3009F425C1803111F009
:102DD0000C94AF276EEC74E080914001909141011A
:102DE0000E94930983ED92E00E94240A81E183C04E
:102DF000843709F4F8C1D8F58F3609F444C1D0F40A
:102E0000833109F432C108F422C1843111F00C94E9
:102E1000AF2766EA74E080912801909129010E9411
:102E2000930987E00E948A0A8FE093E00E94240AB7
:102E30008FE661C0813709F44BC108F438C182378D
:102E400009F454C1833711F00C94AF2764E874E09F
:102E500080911A0190911B010E94930987E00E94C2
:102E60008A0A8BE493E00E94240A86E744C08837EC
:102E700009F45EC1C8F4863709F446C108F4A5C157
:102E80006CE674E080911001909111010E94930909
:102E900086E00E94BF0A87E00E948A0A8AE593E0E2
:102EA0000E94240A88E727C08A3709F469C108F418
:102EB00053C18B3709F478C18C3711F00C94AF27CC
:102EC0006EE474E080910601909107010E949309DD
:102ED00086E993E00E94240A84E70DC06AE575E064
:102EE00080919401909195010E94930980E092E075
:102EF0000E94240A83E0809379050C94AF2760E553
:102F000075E080918E0190918F010E9493098FE06E
:102F100092E00E94240A84E0EECF66E475E080919E
:102F20008801909189010E9493098EE192E00E94AC
:102F3000240A85E0E0CF62E375E080917C01909106
:102F40007D010E9493098CE392E00E94240A87E0AD
:102F5000D2CF68E275E080917601909177010E946E
:102F600093098BE492E00E94240A88E0C4CF6EE1CA
:102F700075E080917001909171010E9493098AE53A
:102F800092E00E94240A89E0B6CF6AE075E0809161
:102F90006401909165010E94930988E792E00E9484
:102FA000240A8BE0A8CF60E075E080915E019091EB
:102FB0005F010E94930988E892E00E94240A8CE055
:102FC0009ACF66EF74E080915801909159010E9468
:102FD000930987E992E00E94240A8DE08CCF6CEE81
:102FE00074E080915201909153010E94930986EA06
:102FF00092E00E94240A8EE07ECF62EE74E080911F
:103000004C0190914D010E94930985EB92E00E9442
:10301000240A8FE070CF68ED74E0809146019091B2
:1030200047010E94930984EC92E00E94240A80E107
:1030300062CF64EC74E080913A0190913B010E9470
:10304000930982EE92E00E94240A82E154CF6AEB57
:1030500074E080913401909135010E94930981EFD1
:1030600092E00E94240A83E146CF60EB74E08091F5
:103070002E0190912F010E94930980E093E00E941D
:10308000240A84E138CF6CE974E0809122019091A8
:1030900023010E94930987E00E94BF0A86E00E94F4
:1030A0008A0A8FE093E00E94240A80E724CF66E931
:1030B00074E080912001909121010E94930986E0A3
:1030C0000E94BF0A8EE193E00E94240A81E713CF99
:1030D00060E974E080911E0190911F010E949309A4
:1030E0008DE293E00E94240A82E705CF6AE874E04B
:1030F00080911C0190911D010E9493098CE393E043
:103100000E94240A83E7F7CE62E774E080911201FF
:10311000909113010E94930987E00E94BF0A86E004
:103120000E948A0A8BE493E00E94240A87E7E3CE98
:1031300066E674E080910E0190910F010E94930960
:1031400087E00E94BF0A86E00E948A0A8AE593E02F
:103150000E94240A89E7CFCE60E674E080910C01DA
:1031600090910D010E94930987E00E948A0A86E0EF
:103170000E94BF0A89E693E00E94240A8AE7BBCE38
:103180006AE574E080910A0190910B010E94930915
:1031900086E00E948A0A87E00E94BF0A89E693E0DF
:1031A0000E94240A8BE7A7CE64E574E080910801B1
:1031B000909109010E94930986E00E94BF0A88E766
:1031C00093E00E94240A85E796CE68E774E0809138
:1031D0001601909117010E94930987E893E00E94DD
:1031E000240A8CE788CE6EE774E0809118019091F4
:1031F00019010E949309BEC78230A9F411110C94E1
:10320000AF270E94DE08811107C00E94DE088330CC
:1032100009F06AC20C94AF270E94DE08813011F0D9
:103220000C94AF27F2CF0E94DE08833051F48091D6
:103230006005909161058E52924283309840A0F0D3
:1032400004C00E94DE08882391F30E94DE088130CA
:1032500009F093C780916205909163058351924074
:103260008339944008F089C745E050E064E675E092
:103270008BE795E00E94F638892B09F07EC7111183
:103280007CC780917A05811178C760916205709141
:10329000630580916005909161050C940A259093D7
:1032A000A6018093A50120917A0521112FCC880FCA
:1032B000991FFC01EC50FC4FE080F18060E0D701E9
:1032C0008C910E94C61361E0F70181810E94C613B0
:1032D00062E0D70112968C910E94C61317CC90938E
:1032E000A8018093A70180917A05811119CC8D2DB9
:1032F0006AE00E947738F92E4AE0BE01615F7F4F95
:1033000090E00E94033964E0FC0180810E94C613B2
:103310004AE0BE01615F7F4F8F2D90E00E9403392C
:1033200065E0DC018C910E94C613FACB9093A40156
:103330008093A30180917A058111FCCB812F6AE0F3
:103340000E947738192F4AE0BE01615F7F4F90E0FD
:103350000E94033967E0FC0180810E94C6134AE0A5
:10336000BE01615F7F4F812F90E00E94033968E0CA
:10337000DC018C910E94C613DDCB9093A201809357
:10338000A10180917A058111DFCB802F6AE00E9434
:103390007738192F4AE0BE01615F7F4F90E00E94AD
:1033A00003396CE0FC0180810E94C6134AE0BE0133
:1033B000615F7F4F812F90E00E9403396DE0DC0157
:1033C0008C910E94C613C0CB85E290E0D4CB1092C2
:1033D0006D0510926E0510926F05109270050E9497
:1033E000F30802CC83E10E94BF0A10927605809117
:1033F0009C068C3138F084E10E948A0A81E0809337
:10340000750514CC84E10E94BF0A109275050ECC9C
:1034100083E10E948A0A81E080937605E8CF0E94CA
:10342000F40A1092950585EB91E00E94A508882387
:1034300009F461CC0E94060A0E94660A5CCC9C9149
:10344000903209F441CC891709F43ECC882309F461
:103450003BCC81E03ECC882321F00E94B5080E943D
:10346000060A2091E1053091E205E7EDF5E0D9018A
:103470008D919D019EED980F9D3520F4D8019C9172
:1034800089138C930F5F1F4FE017F10781F78FE3CC
:1034900090E02291203219F08093910502C00197AB
:1034A000C0F7809191058E3010F410929205FE01C4
:1034B000319620E030E0CF0140919205D901A95624
:1034C000BA4FA40FB11D4C9141932F5F3F4F2E3047
:1034D000310591F70E94240A80919205882321F0FA
:1034E00085E00E948A0A03C085E00E94BF0A61E06D
:1034F00070E080E090E00E94A028809192052091E9
:10350000910590E00D9630E08217930724F482E253
:103510000E948A0A03C082E20E94BF0A61E070E052
:1035200080E090E00E94A028D8CB8091940589305B
:1035300008F0D3CB8F5F80939405CFCB8091B106F9
:1035400084FFD2CB07ED15E09F01285F3F4FD801E4
:103550008191803209F08C9311962E173F07C1F7A5
:10356000809193058111C0CB27E0822F90E0FC0170
:10357000E952FA4F3081303259F00196959587958E
:1035800020952170F12C820F97E0E92EE81A02C0F5
:103590002150EBCF6E2D6F0DF80181918F010E94AC
:1035A000C613F394F8E0FF12F5CF9ECB6BEAE62E3C
:1035B00061E0F62E09EA11E027EA31E043EA51E042
:1035C00061EA71E085EE95E00E94D62C882309F42B
:1035D00092CBE090A701F090A8010091A301109177
:1035E000A4012091A1013091A2010330110530F412
:1035F000690181E0C81AD108590105C0590192E05A
:10360000A91AB108690147E1409FC001419F900D8F
:10361000112469E070E00E948338C7010496680FA6
:10362000791FA60EB71EF601F695E795F695E79574
:10363000AE0EBF1EC60160E971E00E948338F5013D
:10364000E60FF71FC60164E670E00E948338CF01E1
:10365000861B970B67E070E00E948338AC01892BD2
:1036600011F447E050E05093A6014093A501205D7E
:1036700037403093A2012093A10119828091AB01C0
:103680009091AC01EAE0F0E0BF010E9483386295BE
:10369000607F862B8A838091A9019091AA01BF0146
:1036A0000E9483386295607F862B8B834C83C70191
:1036B000BF010E9483386295607F862B8D83C8018D
:1036C000BF010E9483386295607F862B8E83C9017B
:1036D000BF010E9483386295607F862B8F83CE0165
:1036E00001960E940B0F07CB45E050E064E675E0C1
:1036F0008BE795E00E94F638892BC9F50E94DE0819
:10370000811118C00091820610918306602F80916C
:103710009601909197010E94D93B809196019091DA
:103720009701612F01960E94D93B00936005109389
:10373000610520C50E94DE08813009F01BC500919B
:10374000820610918306602F8091980190919901D3
:103750000E94D93B8091980190919901612F019627
:103760000E94D93B009362051093630503C545E0B1
:1037700050E06AE575E08BE795E00E94F638892B0A
:10378000C9F50E94DE08811118C0009182061091CF
:103790008306602F80919001909191010E94D93B06
:1037A0008091900190919101612F01960E94D93BE7
:1037B0000093560510935705DDC40E94DE08813042
:1037C00009F0D8C40091820610918306602F809181
:1037D0009201909193010E94D93B80919201909126
:1037E0009301612F01960E94D93B009358051093D5
:1037F0005905C0C445E050E060E575E08BE795E011
:103800000E94F638892BC9F50E94DE08811118C084
:103810000091820610918306602F80918A01909119
:103820008B010E94D93B80918A0190918B01612F7D
:1038300001960E94D93B00934C0510934D059AC404
:103840000E94DE08813009F095C400918206109133
:103850008306602F80918C0190918D010E94D93B4D
:1038600080918C0190918D01612F01960E94D93B2E
:1038700000934E0510934F057DC445E050E066E48B
:1038800075E08BE795E00E94F638892BC9F50E9418
:10389000DE08811118C00091820610918306602F06
:1038A00080918401909185010E94D93B809184018F
:1038B00090918501612F01960E94D93B00934205AA
:1038C0001093430557C40E94DE08813009F052C4AA
:1038D0000091820610918306602F8091860190915D
:1038E00087010E94D93B8091860190918701612FC9
:1038F00001960E94D93B00934405109345053AC4B4
:1039000045E050E06CE375E08BE795E00E94F63807
:10391000892BC9F50E94DE08811118C0009182062A
:1039200010918306602F80917E0190917F010E940B
:10393000D93B80917E0190917F01612F01960E9479
:10394000D93B009338051093390514C40E94DE0852
:10395000813009F00FC40091820610918306602F18
:1039600080918001909181010E94D93B80918001DA
:1039700090918101612F01960E94D93B00933A05F5
:1039800010933B05F7C345E050E062E375E08BE739
:1039900095E00E94F638892BC9F50E94DE08811156
:1039A00018C00091820610918306602F80917801E3
:1039B000909179010E94D93B809178019091790191
:1039C000612F01960E94D93B00932E0510932F057D
:1039D000D1C30E94DE08813009F0CCC30091820679
:1039E00010918306602F80917A0190917B010E9453
:1039F000D93B80917A0190917B01612F01960E94C1
:103A0000D93B0093300510933105B4C345E050E035
:103A100068E275E08BE795E00E94F638892BC9F5DE
:103A20000E94DE08811118C0009182061091830661
:103A3000602F80917201909173010E94D93B809117
:103A4000720190917301612F01960E94D93B0093FE
:103A50002405109325058EC30E94DE08813009F0ED
:103A600089C30091820610918306602F80917401B2
:103A7000909175010E94D93B8091740190917501DC
:103A8000612F01960E94D93B0093260510932705CC
:103A900071C345E050E06EE175E08BE795E00E9470
:103AA000F638892BC9F50E94DE08811118C00091F3
:103AB000820610918306602F80916C0190916D01B8
:103AC0000E94D93B80916C0190916D01612F01960C
:103AD0000E94D93B00931A0510931B054BC30E940B
:103AE000DE08813009F046C30091820610918306FA
:103AF000602F80916E0190916F010E94D93B80915F
:103B00006E0190916F01612F01960E94D93B009345
:103B10001C0510931D052EC345E050E064E175E0DF
:103B20008BE795E00E94F638892BC9F50E94DE08E4
:103B3000811118C00091820610918306602F809138
:103B40006601909167010E94D93B80916601909136
:103B50006701612F01960E94D93B009310051093D5
:103B6000110508C30E94DE08813009F003C30091EB
:103B7000820610918306602F8091680190916901FF
:103B80000E94D93B8091680190916901612F019653
:103B90000E94D93B0093120510931305EBC245E038
:103BA00050E06AE075E08BE795E00E94F638892BDB
:103BB000C9F50E94DE08811118C00091820610919B
:103BC0008306602F80916001909161010E94D93B32
:103BD0008091600190916101612F01960E94D93B13
:103BE0000093060510930705C5C20E94DE088130C8
:103BF00009F0C0C20091820610918306602F809167
:103C00006201909163010E94D93B80916201909181
:103C10006301612F01960E94D93B00930805109320
:103C20000905A8C245E050E060E075E08BE795E04B
:103C30000E94F638892BC9F50E94DE08811118C050
:103C40000091820610918306602F80915A01909115
:103C50005B010E94D93B80915A0190915B01612FD9
:103C600001960E94D93B0093FC041093FD0482C28C
:103C70000E94DE08813009F07DC200918206109119
:103C80008306602F80915C0190915D010E94D93B79
:103C900080915C0190915D01612F01960E94D93B5A
:103CA0000093FE041093FF0465C245E050E066EF08
:103CB00074E08BE795E00E94F638892BC9F50E94E5
:103CC000DE08811118C00091820610918306602FD2
:103CD00080915401909155010E94D93B80915401EB
:103CE00090915501612F01960E94D93B0093F204F7
:103CF0001093F3043FC20E94DE08813009F03AC2FB
:103D00000091820610918306602F80915601909158
:103D100057010E94D93B8091560190915701612F24
:103D200001960E94D93B0093F4041093F50422C23B
:103D300045E050E06CEE74E08BE795E00E94F638C9
:103D4000892BC9F50E94DE08811118C000918206F6
:103D500010918306602F80914E0190914F010E9437
:103D6000D93B80914E0190914F01612F01960E94A5
:103D7000D93B0093E8041093E904FCC10E94DE08DB
:103D8000813009F0F7C10091820610918306602FFF
:103D900080915001909151010E94D93B8091500136
:103DA00090915101612F01960E94D93B0093EA0442
:103DB0001093EB04DFC145E050E062EE74E08BE766
:103DC00095E00E94F638892BC9F50E94DE08811122
:103DD00018C00091820610918306602F80914801DF
:103DE000909149010E94D93B8091480190914901ED
:103DF000612F01960E94D93B0093DE041093DF04EB
:103E0000B9C10E94DE08813009F0B4C10091820678
:103E100010918306602F80914A0190914B010E947E
:103E2000D93B80914A0190914B01612F01960E94EC
:103E3000D93B0093E0041093E1049CC145E050E0BD
:103E400068ED74E08BE795E00E94F638892BC9F5A0
:103E50000E94DE08811118C000918206109183062D
:103E6000602F80914201909143010E94D93B809143
:103E7000420190914301612F01960E94D93B00932A
:103E8000D4041093D50476C10E94DE08813009F075
:103E900071C10091820610918306602F80914401C8
:103EA000909145010E94D93B809144019091450138
:103EB000612F01960E94D93B0093D6041093D7043A
:103EC00059C145E050E06EEC74E08BE795E00E944C
:103ED000F638892BC9F50E94DE08811118C00091BF
:103EE000820610918306602F80913C0190913D01E4
:103EF0000E94D93B80913C0190913D01612F019638
:103F00000E94D93B0093CA041093CB0433C10E9492
:103F1000DE08813009F02EC10091820610918306DF
:103F2000602F80913E0190913F010E94D93B80918A
:103F30003E0190913F01612F01960E94D93B009371
:103F4000CC041093CD0416C145E050E064EC74E05D
:103F50008BE795E00E94F638892BC9F50E94DE08B0
:103F6000811118C00091820610918306602F809104
:103F70003601909137010E94D93B80913601909192
:103F80003701612F01960E94D93B0093C004109322
:103F9000C104F0C00E94DE08813009F0EBC000913E
:103FA000820610918306602F80913801909139012B
:103FB0000E94D93B8091380190913901612F01967F
:103FC0000E94D93B0093C2041093C304D3C045E0C0
:103FD00050E06AEB74E08BE795E00E94F638892B9D
:103FE000C9F50E94DE08811118C000918206109167
:103FF0008306602F80913001909131010E94D93B5E
:104000008091300190913101612F01960E94D93B3E
:104010000093B6041093B704ADC00E94DE0881304F
:1040200009F0A8C00091820610918306602F80914C
:104030003201909133010E94D93B809132019091DD
:104040003301612F01960E94D93B0093B80410936D
:10405000B90490C045E050E060EB74E08BE795E078
:104060000E94F638892BC9F50E94DE08811118C01C
:104070000091820610918306602F80912A01909111
:104080002B010E94D93B80912A0190912B01612F35
:1040900001960E94D93B0093AC041093AD046AC012
:1040A0000E94DE08813009F065C0009182061091FF
:1040B0008306602F80912C0190912D010E94D93BA5
:1040C00080912C0190912D01612F01960E94D93B86
:1040D0000093AE041093AF044DC045E050E066EA93
:1040E00074E08BE795E00E94F638892BC1F50E94B9
:1040F000DE08811118C00091820610918306602F9E
:1041000080912401909125010E94D93B8091240146
:1041100090912501612F01960E94D93B0093A20442
:104120001093A30427C00E94DE08813019F5009186
:10413000820610918306602F8091260190912701BD
:104140000E94D93B8091260190912701612F019611
:104150000E94D93B0093A4041093A5040BC045E032
:1041600050E06EE774E08BE795E00E94F638892B0B
:1041700009F0F5C60E942C14F2C60E94DE088330B6
:1041800049F00E94DE08882329F00E94DE08813071
:1041900071F514C080915605909157058E52924248
:1041A0008330984090F745E050E06AE575E08BE792
:1041B00095E00E94F638892B59F019C08091580576
:1041C00090915905835192408339944060F30FC018
:1041D00011110DC080917A05811109C060915805B7
:1041E00070915905809156059091570513C40E940E
:1041F000DE08833049F00E94DE08882329F00E94FF
:10420000DE08813071F514C080914C0590914D0508
:104210008E5292428330984090F745E050E060E53E
:1042200075E08BE795E00E94F638892B59F019C0AC
:1042300080914E0590914F0583519240833994406F
:1042400060F30FC011110DC080917A05811109C072
:1042500060914E0570914F0580914C0590914D05F0
:10426000D9C30E94DE08833049F00E94DE0888230B
:1042700029F00E94DE08813029F514C080914205A2
:10428000909143058E5292428330984090F745E0DA
:1042900050E066E475E08BE795E00E94F638892BE4
:1042A00059F010C08091440590914505835192408A
:1042B0008339944060F306C0111104C080917A05DF
:1042C0008823D1F10E94DE08833049F00E94DE0885
:1042D000882329F00E94DE088130B9F514C080914E
:1042E0003805909139058E5292428330984090F76C
:1042F00045E050E06CE375E08BE795E00E94F6380E
:10430000892B59F022C080913A0590913B05835149
:1043100092408339944060F318C0111116C0809107
:104320007A05811112C060913A0570913B05809128
:104330003805909139056EC360914405709145052B
:10434000809142059091430565C30E94DE08833049
:1043500049F00E94DE08882329F00E94DE0881309F
:1043600071F514C080912E0590912F058E529242C6
:104370008330984090F745E050E062E375E08BE7CA
:1043800095E00E94F638892B59F019C080913005CC
:1043900090913105835192408339944060F30FC06E
:1043A00011110DC080917A05811109C0609130050D
:1043B0007091310580912E0590912F052BC30E949D
:1043C000DE08833049F00E94DE08882329F00E942D
:1043D000DE08813071F514C0809124059091250587
:1043E0008E5292428330984090F745E050E068E268
:1043F00075E08BE795E00E94F638892B59F019C0DB
:1044000080912605909127058351924083399440ED
:1044100060F30FC011110DC080917A05811109C0A0
:1044200060912605709127058091240590912505BE
:10443000F1C20E94DE08833049F00E94DE08882322
:1044400029F00E94DE08813071F514C080911A05B0
:1044500090911B058E5292428330984090F745E030
:1044600050E06EE175E08BE795E00E94F638892B0D
:1044700059F019C080911C0590911D0583519240FF
:104480008339944060F30FC011110DC080917A05FB
:10449000811109C060911C0570911D0580911A055C
:1044A00090911B05B7C20E94DE08833049F00E943C
:1044B000DE08882329F00E94DE08813071F514C0DF
:1044C00080911005909111058E5292428330984050
:1044D00090F745E050E064E175E08BE795E00E94DD
:1044E000F638892B59F019C0809112059091130567
:1044F000835192408339944060F30FC011110DC075
:1045000080917A05811109C060911205709113059F
:1045100080911005909111057DC20E94DE088330C4
:1045200049F00E94DE08882329F00E94DE088130CD
:1045300071F514C080910605909107058E52924244
:104540008330984090F745E050E06AE075E08BE7F3
:1045500095E00E94F638892B59F019C08091080522
:1045600090910905835192408339944060F30FC0C4
:1045700011110DC080917A05811109C06091080563
:1045800070910905809106059091070543C20E942C
:10459000DE08833049F00E94DE08882329F00E945B
:1045A000DE08813029F514C08091FC049091FD044F
:1045B0008E5292428330984090F745E050E060E0A0
:1045C00075E08BE795E00E94F638892B59F010C012
:1045D0008091FE049091FF0483519240833994406E
:1045E00060F306C0111104C080917A058823D1F1CF
:1045F0000E94DE08833049F00E94DE08882329F0FB
:104600000E94DE088130B9F514C08091F2049091C7
:10461000F3048E5292428330984090F745E050E088
:1046200066EF74E08BE795E00E94F638892B59F02D
:1046300022C08091F4049091F50483519240833913
:10464000944060F318C0111116C080917A05811151
:1046500012C06091F4047091F5048091F20490917D
:10466000F304D8C16091FE047091FF048091FC04B2
:104670009091FD04CFC10E94DE08833049F00E9472
:10468000DE08882329F00E94DE08813071F514C00D
:104690008091E8049091E9048E52924283309840D0
:1046A00090F745E050E06CEE74E08BE795E00E94F7
:1046B000F638892B59F019C08091EA049091EB04E7
:1046C000835192408339944060F30FC011110DC0A3
:1046D00080917A05811109C06091EA047091EB0420
:1046E0008091E8049091E90495C10E94DE0883302E
:1046F00049F00E94DE08882329F00E94DE088130FC
:1047000071F514C08091DE049091DF048E529242C4
:104710008330984090F745E050E062EE74E08BE71C
:1047200095E00E94F638892B59F019C08091E00479
:104730009091E104835192408339944060F30FC01B
:1047400011110DC080917A05811109C06091E004BA
:104750007091E1048091DE049091DF045BC10E94BE
:10476000DE08833049F00E94DE08882329F00E9489
:10477000DE08813071F514C08091D4049091D50485
:104780008E5292428330984090F745E050E068EDB9
:1047900074E08BE795E00E94F638892B59F019C038
:1047A0008091D6049091D7048351924083399440EC
:1047B00060F30FC011110DC080917A05811109C0FD
:1047C0006091D6047091D7048091D4049091D5045F
:1047D00021C10E94DE08833049F00E94DE08882350
:1047E00029F00E94DE08813071F514C08091CA045E
:1047F0009091CB048E5292428330984090F745E0DE
:1048000050E06EEC74E08BE795E00E94F638892B5F
:1048100059F019C08091CC049091CD0483519240FD
:104820008339944060F30FC011110DC080917A0557
:10483000811109C06091CC047091CD048091CA04AB
:104840009091CB04E7C00E94DE08833049F00E94BB
:10485000DE08882329F00E94DE08813071F514C03B
:104860008091C0049091C1048E529242833098404E
:1048700090F745E050E064EC74E08BE795E00E942F
:10488000F638892B59F019C08091C2049091C30465
:10489000835192408339944060F30FC011110DC0D1
:1048A00080917A05811109C06091C2047091C3049E
:1048B0008091C0049091C104ADC00E94DE08833095
:1048C00049F00E94DE08882329F00E94DE0881302A
:1048D00029F514C08091B6049091B7048E5292428B
:1048E0008330984090F745E050E06AEB74E08BE746
:1048F00095E00E94F638892B59F010C08091B804D9
:104900009091B904835192408339944060F306C07A
:10491000111104C080917A058823D1F10E94DE082C
:10492000833049F00E94DE08882329F00E94DE08C7
:104930008130B9F514C08091AC049091AD048E52D1
:1049400092428330984090F745E050E060EB74E08D
:104950008BE795E00E94F638892B59F022C08091B0
:10496000AE049091AF04835192408339944060F338
:1049700018C0111116C080917A05811112C0609182
:10498000AE047091AF048091AC049091AD0442C02C
:104990006091B8047091B9048091B6049091B70405
:1049A00039C00E94DE08833049F00E94DE08882367
:1049B00029F00E94DE08813081F514C08091A204A4
:1049C0009091A3048E5292428330984090F745E034
:1049D00050E066EA74E08BE795E00E94F638892B98
:1049E00059F01BC08091A4049091A504835192407A
:1049F0008339944060F311C011110FC080917A0582
:104A000081110BC06091A4047091A5048091A2044F
:104A10009091A3040E941E0EA2C20E94DE08882369
:104A200021F00E94DE088130F9F445E050E066E9AB
:104A300074E08BE795E00E94F638892BA9F4809109
:104A40007A05811111C085EE95E00E941F2F0E940A
:104A5000A40B0E946F2860936D0570936E05809380
:104A60006F05909370057BC20E94DE08882321F0B9
:104A70000E94DE08813099F445E050E06CE974E072
:104A80008BE795E00E94F638892B49F480917A05EE
:104A9000811105C085EE95E00E943E2FD8CF0E947F
:104AA000DE08833081F045E050E060E974E08BE798
:104AB00095E00E94F638892B31F4111104C08091E1
:104AC0007A05882339F10E94DE08882329F00E94A4
:104AD000DE08813009F03FC045E050E06EE774E049
:104AE0008BE795E00E94F638892BA9F5111133C0A8
:104AF00080917A0581112FC085EA93E00E94240AF3
:104B000085E00E94BF0A82E20E94BF0A82E0809391
:104B10007A0525C280917805882371F084E20E948D
:104B2000BF0A8AE10E948A0A8CE10E948A0A0E94D6
:104B30008A0B1092780513C284E20E948A0A8AE1E5
:104B40000E94BF0A8CE10E94BF0A0E94AF0981E067
:104B50008093780504C245E050E06AE874E08BE792
:104B600095E00E94F638892B31F5111124C080910F
:104B70007A05811120C00E94DE08833019F40E945A
:104B8000710DEDC1109278050E94F30883E10E9437
:104B9000BF0A8AE10E94BF0A8CE10E94BF0A0E94FC
:104BA000AF090E94DE088823E9F00E94DE08813008
:104BB00009F047C017C00E94DE08833009F446C0E0
:104BC00045E050E064E874E08BE795E00E94F63839
:104BD000892BE1F511113AC080917A05882309F4F7
:104BE0004AC034C085EE95E00E94EF2D0E94F40A81
:104BF00060E088E00E9487290E94C909109276052A
:104C0000109275056AE770E083ED96E00E94163415
:104C100069E070E083ED96E00E94A80983ED96E0DC
:104C20000E94943461E070E080E090E00E94A0284F
:104C300088E00E948A0A89E00E948A0A0E94F8138A
:104C40008EC160E081E10E948729D2CF0E94DE08F8
:104C500081113AC045E050E068E774E08BE795E0E9
:104C60000E94F638892B81F511112EC080917A05AA
:104C70008823C9F129C00E94AF090E94DE08811172
:104C80000BC0809182069091830690939F01809340
:104C90009E010E940E0D15C00E94DE08813059F45D
:104CA000809182069091830690939D0180939C0150
:104CB0000E94340B06C00E94DE08823011F40E946C
:104CC000950C0E948A0BC5CE0E94DE08833009F144
:104CD00045E050E062E774E08BE795E00E94F6382B
:104CE000892B39F116C080917705882359F061E34B
:104CF00085EE95E00E947B3083E10E948A0A109243
:104D00007705A7CE0E94DE08811129C10E941E0BE3
:104D100026C10E94DE08833009F449C045E050E016
:104D20006CE674E08BE795E00E94F638892B41F041
:104D30003EC08091AD018F3308F011C18F5F06C076
:104D40008091AD01882309F40AC181508093AD019F
:104D500064E470E083ED96E00E94163463E070E056
:104D600083ED96E00E94A8096091AD0183ED96E085
:104D70000E94B73383ED96E00E94943464E470E0BF
:104D800083ED96E00E94163464E070E083ED96E0D7
:104D90000E94A8096091AD0183ED96E00E94B733AF
:104DA00083ED96E00E9494340E946A0A52CE0E94DB
:104DB000DE08833051F045E050E06AE574E08BE7AF
:104DC00095E00E94F638892B79F00E94DE08833046
:104DD00059F145E050E064E574E08BE795E00E940E
:104DE000F638892B99F020C090916C05892F8F702F
:104DF00009F4B5C0883010F4815005C08E3011F030
:104E00008F5F01C087E0907F8F700CC090916C0520
:104E1000892F8F70883009F4A2C0873008F042C013
:104E20008F5F907F892B25C00E94DE08833009F4B4
:104E30003FC045E050E066E674E08BE795E00E94F5
:104E4000F638892BA9F520916C05822F90E044E07B
:104E5000959587954A95E1F7382F882309F47FC007
:104E60003830A8F581502F7030E1839FC0011124A4
:104E7000822B80936C0564E470E083ED96E00E94E1
:104E8000163465E070E083ED96E00E94A809609119
:104E90006C0583ED96E00E94B73383ED96E00E94A7
:104EA0009434D7CD873011F08150BBCF8EE0B9CF8D
:104EB0000E94DE08833089F045E050E060E674E04F
:104EC0008BE795E00E94F638892B71F106C03E30E1
:104ED00011F08F5FC8CF87E0C6CF45E050E06EE4A9
:104EE00074E08BE795E00E94F638892BC1F511112B
:104EF00036C080917A05811132C06AE770E083ED97
:104F000096E00E9416346DE070E083ED96E00E941A
:104F1000A80983ED96E00E94943461E070E080E09F
:104F200090E00E94A0281BC020916C05822F90E089
:104F300034E0959587953A95E1F7382F883079F0E8
:104F4000373010F48F5F05C0373011F0815001C049
:104F50008EE02F70A0E18A9FC001112489CF609656
:104F60000FB6F894DEBF0FBECDBFDF91CF911F917A
:104F70000F91FF90EF90DF90CF90BF90AF9008958A
:104F800008950E94E7280E94C0270E942F0FC0E0CA
:104F9000D0E00E944C142097E1F30E940000F9CF6A
:104FA0000F931F93CF93DF93EC010E946F286887C4
:104FB00079878A879B87E881F9810284F385E02DD0
:104FC000CE01099597FF17C00E946F2808851985A3
:104FD0002A853B85DC01CB01801B910BA20BB30B17
:104FE0000C811D812E813F8180179107A207B30795
:104FF00010F38FEF9FEFDF91CF911F910F910895E5
:10500000CF92DF92EF92FF920F931F93CF93DF9394
:105010006C017A018B01C0E0D0E0CE15DF0559F0BC
:10502000C6010E94D02797FD05C0F80181938F012A
:105030002196F3CF7E01C701DF91CF911F910F9190
:10504000FF90EF90DF90CF9008951F920F920FB6D0
:105050000F9211242F933F938F939F93AF93BF93FE
:105060008091C9069091CA06A091CB06B091CC065A
:105070003091C80623E0230F2D3720F40196A11D9F
:10508000B11D05C026E8230F0296A11DB11D209376
:10509000C8068093C9069093CA06A093CB06B09326
:1050A000CC068091CD069091CE06A091CF06B0910E
:1050B000D0060196A11DB11D8093CD069093CE061A
:1050C000A093CF06B093D006BF91AF919F918F91DF
:1050D0003F912F910F900FBE0F901F9018952FB7F3
:1050E000F8946091C9067091CA068091CB069091A0
:1050F000CC062FBF08953FB7F8948091CD069091CC
:10510000CE06A091CF06B091D00626B5A89B05C0CB
:105110002F3F19F00196A11DB11D3FBFBA2FA92F36
:10512000982F8827820F911DA11DB11DBC01CD01B3
:1051300042E0660F771F881F991F4A95D1F708959F
:105140008F929F92AF92BF92CF92DF92EF92FF9297
:105150006B017C010E947B284B015C01C114D104CE
:10516000E104F10401F10E949B340E947B28DC01E0
:10517000CB0188199909AA09BB09883E9340A1056A
:10518000B10560F321E0C21AD108E108F10888EE08
:10519000880E83E0981EA11CB11CC114D104E10447
:1051A000F10419F7DBCFFF90EF90DF90CF90BF9025
:1051B000AF909F908F9008958230910538F0880FBE
:1051C000991F880F991F05970197F1F70895789413
:1051D00084B5826084BD84B5816084BD85B58260FC
:1051E00085BD85B5816085BDEEE6F0E0808181609A
:1051F0008083E1E8F0E0108280818260808380819A
:1052000081608083E0E8F0E0808181608083E1EB71
:10521000F0E0808184608083E0EBF0E08081816059
:105220008083EAE7F0E0808184608083808182600F
:1052300080838081816080838081806880831092F8
:10524000C1000895833081F028F4813099F08230D4
:10525000A1F008958730A9F08830B9F08430D1F4F6
:10526000809180008F7D03C0809180008F77809334
:105270008000089584B58F7702C084B58F7D84BD8A
:1052800008958091B0008F7703C08091B0008F7D2A
:105290008093B0000895CF93DF9390E0FC01E85B2A
:1052A000FE4F2491FC01E45AFE4F8491882361F162
:1052B00090E0880F991FFC01EC57FE4FC591D491E7
:1052C000FC01E658FE4FA591B491611109C09FB74A
:1052D000F8948881209582238883EC912E230BC03B
:1052E000623061F49FB7F8948881322F3095832320
:1052F0008883EC912E2B2C939FBF06C08FB7F89418
:10530000E8812E2B28838FBFDF91CF9108951F93C3
:10531000CF93DF93282F30E0F901EC5CFE4F8491AE
:10532000F901E85BFE4FD491F901E45AFE4FC491B4
:10533000CC23C1F0162F81110E942229EC2FF0E01E
:10534000EE0FFF1FE658FE4FA591B4919FB7F8945A
:10535000111104C08C91D095D82302C0EC91DE2BA2
:10536000DC939FBFDF91CF911F910895CF93DF937F
:10537000282F30E0F901EC5CFE4F8491F901E85BE5
:10538000FE4FD491F901E45AFE4FC491CC2391F021
:1053900081110E942229EC2FF0E0EE0FFF1FE0594F
:1053A000FE4FA591B491EC91ED2381E090E021F4C2
:1053B00080E002C080E090E0DF91CF910895FC0191
:1053C000E657FF4F108231961082319621E130E08E
:1053D0003183208332962EE130E031832083329670
:1053E0002AE030E031832083329640E45FE160E0E0
:1053F00070E040835183628373833F962FEF208355
:10540000319634E23083319631E030833196108228
:1054100031961082319640E050E8518340833296B5
:1054200041E050E05183408332961082F59630E29D
:105430003083319635E03083329620833197108265
:105440000895CF93DF93EC01C956DF4F61E0888167
:105450000E944B296AE070E080E090E00E94A02862
:1054600060E088810E9487296AE070E080E090E037
:105470000E94A02861E088810E9487296AE070E08C
:1054800080E090E0DF91CF910C94A028CF92EF9232
:105490000F93CF93DF93FC01DC01A352BF4F9C918C
:1054A00060FB97F940FB96F920FB95F900FB94F916
:1054B0008E2D8F70907F982B9C931196CC92DB97BA
:1054C0000C93EF01C856DF4F1A96E11005C080E239
:1054D00088838C91826004C080E488838C918D7F66
:1054E0008C938C918160837C8C93DF01A055BF4F9E
:1054F0001C92EF54FF4F81E08083DF91CF910F9199
:10550000EF90CF90089584579F4FFC016081718187
:1055100083ED96E00E94163462E170E083ED96E040
:105520000E94A80960E070E083ED96E00E94A8095F
:105530006FEF70E083ED96E00E94A80960E070E0F4
:1055400083ED96E00E94A80960E070E083ED96E0AC
:105550000E94A80960E070E083ED96E00E94A8092F
:1055600083ED96E00E94943484EC99E00C94DC285E
:10557000FC019C012F5B3F4F40E24193E217F30790
:10558000E1F7FC01E05CFF4F10820895FC01EF5B46
:10559000FF4F9C012E593F4F40E24193E217F30722
:1055A000E1F7FC01EF59FF4F10820895FC01EE591D
:1055B000FF4F9C0125593F4F40E24193E217F3070B
:1055C000E1F7FC01E659FF4F10820895CF93DF9376
:1055D000EC010E94B82ACE010E94C62ACE010E9488
:1055E000D62AFE01E857FF4F118210823E961082A4
:1055F000709711821082CC57DF4F19821882DF9189
:10560000CF910895CF92DF92EF92FF920F931F9365
:10561000CF93DF9300D0CDB7DEB7FC01EA52FF4F46
:1056200020812A833197208129839E012F5F3F4F5C
:105630006901FB018B010E5F1F4F20E030E050E25B
:10564000D6014D916D014D3051F4FC01E557FF4FEE
:1056500041E04083FB01E20FF31F108211C04A308A
:10566000A1F3403240F07B01E20EF31ED7014C93D0
:105670002F5F3F4F01C050833196E017F10701F7CC
:105680000F900F90DF91CF911F910F91FF90EF90AE
:10569000DF90CF900895CF92DF92EF92FF920F9319
:1056A0001F93CF93DF9300D000D0CDB7DEB7FC01BE
:1056B000ED52FF4F20812983319620812A83319634
:1056C00020812B83319620812C839E012F5F3F4FB9
:1056D0006901FB01AB014C5F5F4FE12CF12C30E223
:1056E000D6012D916D012D3051F4FC01E657FF4F8D
:1056F00021E02083FB01EE0DFF1D108212C02A3035
:10570000A1F3203248F08B010E0D1F1DD8012C9300
:10571000BFEFEB1AFB0A01C030833196E417F5079F
:10572000F9F60F900F900F900F90DF91CF911F918E
:105730000F91FF90EF90DF90CF900895CF93DF937C
:10574000FC01E453FF4F208120FD03C080E090E086
:1057500020C0FC01EF52FF4F208122952F70B1F73E
:10576000EC01319660816370EA54F10970E0718355
:105770006083660F771F6E597F4F6C0F7D1FCE01C0
:105780000E94022BFE01E659FF4F1082CE018E5976
:105790009F4FDF91CF910895CF93DF93FC01E453A6
:1057A000FF4F208120FD03C080E090E01CC0FC0181
:1057B000EF52FF4F208122952F702230A9F7EC0184
:1057C000319660816F70EE54F10970E071836083EF
:1057D000660F771F660F771F6C0F7D1FCE010E942B
:1057E0004B2B1FAECE01DF91CF9108954F925F9268
:1057F0006F927F928F929F92AF92BF92CF92DF92E1
:10580000EF92FF920F931F93CF93DF93E90157011C
:105810006A017B012AEDC20E2AEAD21E25E2E21EAF
:10582000F11CC701B60122E0660F771F881F991F80
:105830002A95D1F721EB3AE342E050E00E94AB38E1
:1058400029013A0161EB7AE382E090E00E94673837
:10585000DC01CB010396A11DB11D32E0B695A795E1
:10586000979587953A95D1F7C81AD90AEA0AFB0A9B
:10587000A70196012F5F3F4F4F4F5F4FA0EABFE058
:105880000E94CD3829E03BE446E150E00E94AB386D
:10589000288339834A835B838FE1C80ED11CE11CC6
:1058A000F11CA5EBB5E00E94CD38DC01CB0142E054
:1058B000B695A795979587954A95D1F7C81AD90AAD
:1058C000EA0AFB0AA0E5B0E0A70196010E94CD38E4
:1058D0002FE839E040E050E00E94AB38F801208327
:1058E000318342835383AFE8B9E00E94CD3820E58D
:1058F00030E040E050E00E94AB38C21AD30AE40A1C
:10590000F50AF501C082D182E282F382F80180803B
:105910009180A280B380C501B4012BE030E040E06B
:1059200050E00E94AB3869017A01F2E08F0E911CC1
:10593000A11CB11CACE0B0E00E94CD38A5019401DF
:10594000261B370B480B590BF80120833183428308
:10595000538388819981AA81BB81C80ED91EEA1E12
:10596000FB1EF4E2CF1AF3E1DF0AE108F108A4E636
:10597000B0E0A30192010E94CD38C60ED71EE81EEA
:10598000F91EC882D982EA82FB82DF91CF911F91F2
:105990000F91FF90EF90DF90CF90BF90AF909F90CE
:1059A0008F907F906F905F904F9008952F923F92CD
:1059B0004F925F926F927F928F929F92AF92BF921F
:1059C000CF92DF92EF92FF920F931F93CF93DF93CB
:1059D000CDB7DEB764970FB6F894DEBF0FBECDBF6C
:1059E0007C8B6B8BDA01AC014F525F4FFA01408127
:1059F00042954F70443009F0BEC0AC014E525F4F2B
:105A0000FA014081BC016C527F4FFB013080615034
:105A10007109FB0150816D5F7F4FFB0190806150E8
:105A20007109FB0180804370442E512C612C712C34
:105A30004FE0440C551C661C771C4A95D1F7432D4A
:105A40004695D52ED794DD24D7946D2D642B752FD4
:105A50007695AB0160E070E04429552966297729E5
:105A6000F82DFF70E4E0FE9F60011124792C729400
:105A700076947694E3E07E22F601E7293F0130FA3E
:105A8000AA24A0F8B12CF4E0AA0CBB1CFA95E1F70B
:105A90008294EFE08E22A828FCE3DF2EDA9C20011E
:105AA000DB9C500C1124F92DFF71EEE1FE9F50019B
:105AB000112495FC04C0CC24C394D12C03C0CC2465
:105AC000CA94DC2CCA9C4001CB9C900CDA9C900CB4
:105AD00011246301C40CD51CC80CD91CD7FE09C005
